:0400000007EF00F016
:0A00080072820BED08F0F9EF13F01F
:10100000003738392F3435362A3132332D40303DD0
:051010002B2569000022
:101016000600FACF0AF0FBCF0BF0D9CF0CF0DACFEF
:101026000DF0F2A819EF08F01BEF08F024EF08F016
:10103600F2A220EF08F022EF08F024EF08F0DCEC33
:1010460015F0F0A629EF08F02BEF08F034EF08F0C2
:10105600F0A030EF08F032EF08F034EF08F0DAECE9
:1010660015F0F0A839EF08F03BEF08F044EF08F070
:10107600F0A240EF08F042EF08F044EF08F0D8EC99
:1010860015F0F2A649EF08F04BEF08F066EF08F00E
:10109600F2A050EF08F052EF08F066EF08F081A8D2
:1010A60057EF08F059EF08F066EF08F06904D8A486
:1010B6005FEF08F061EF08F066EF08F0000E696E6A
:1010C600000E9AEC15F0F2A66BEF08F06DEF08F043
:1010D60088EF08F0F2A072EF08F074EF08F088EFDE
:1010E60008F081BA79EF08F07BEF08F088EF08F096
:1010F6006950D8A481EF08F083EF08F088EF08F074
:10110600010E696E010E9AEC15F0F2A68DEF08F04D
:101116008FEF08F0AAEF08F0F2A094EF08F096EF30
:1011260008F0AAEF08F081AA9BEF08F09DEF08F0FF
:10113600AAEF08F06804D8A4A3EF08F0A5EF08F01A
:10114600AAEF08F0000E686E000E8DEC15F0F2A600
:10115600AFEF08F0B1EF08F0CCEF08F0F2A0B6EF71
:1011660008F0B8EF08F0CCEF08F081BABDEF08F050
:10117600BFEF08F0CCEF08F06850D8A4C5EF08F030
:10118600C7EF08F0CCEF08F0010E686E010E8DEC8B
:1011960015F0F2A6D1EF08F0D3EF08F0EEEF08F065
:1011A600F2A0D8EF08F0DAEF08F0EEEF08F081AC25
:1011B600DFEF08F0E1EF08F0EEEF08F06704D8A4DF
:1011C600E7EF08F0E9EF08F0EEEF08F0000E676EC3
:1011D600000E80EC15F0F2A6F3EF08F0F5EF08F03C
:1011E60010EF09F0F2A0FAEF08F0FCEF08F010EFAC
:1011F60009F081BC01EF09F003EF09F010EF09F0E7
:101206006750D8A409EF09F00BEF09F010EF09F0C9
:10121600010E676E010E80EC15F0F2A615EF09F0CF
:1012260017EF09F032EF09F0F2A01CEF09F01EEFFC
:1012360009F032EF09F081AE23EF09F025EF09F04E
:1012460032EF09F06604D8A42BEF09F02DEF09F070
:1012560032EF09F0000E666E000E73EC15F0F2A682
:1012660037EF09F039EF09F054EF09F0F2A03EEF3D
:1012760009F040EF09F054EF09F081BE45EF09F09F
:1012860047EF09F054EF09F06650D8A44DEF09F086
:101296004FEF09F054EF09F0010E666E010E73EC84
:1012A60015F09DAC59EF09F05BEF09F064EF09F01A
:1012B6009EAC60EF09F062EF09F064EF09F03DECD7
:1012C60015F0F2AA69EF09F06BEF09F074EF09F077
:1012D600F2A470EF09F072EF09F074EF09F0C3ECB5
:1012E60015F09DA079EF09F07BEF09F084EF09F086
:1012F6009EA080EF09F082EF09F084EF09F0C9ECB7
:1013060015F09DA289EF09F08BEF09F094EF09F033
:101316009EA290EF09F092EF09F094EF09F0CEEC5F
:1013260015F0A0A299EF09F09BEF09F0A4EF09F0E0
:10133600A1A2A0EF09F0A2EF09F0A4EF09F0BDEC1D
:1013460015F09DA4A9EF09F0ABEF09F0B4EF09F091
:101356009EA4B0EF09F0B2EF09F0B4EF09F0E2ECA9
:1013660015F0A0A0B9EF09F0BBEF09F0C4EF09F042
:10137600A1A0C0EF09F0C2EF09F0C4EF09F0E0EC5C
:1013860015F09DA4C9EF09F0CBEF09F0D4EF09F0F1
:101396009EA4D0EF09F0D2EF09F0D4EF09F0DEEC0D
:1013A60015F09DA8D9EF09F0DBEF09F0E4EF09F09D
:1013B6009EA8E0EF09F0E2EF09F0E4EF09F0D2ECC5
:1013C60015F09DAAE9EF09F0EBEF09F0F4EF09F04B
:1013D6009EAAF0EF09F0F2EF09F0F4EF09F0E4EC61
:1013E60015F09DA6F9EF09F0FBEF09F004EF0AF0FE
:1013F6009EA600EF0AF002EF0AF004EF0AF0E5EC11
:1014060015F09DA609EF0AF00BEF0AF014EF0AF0AB
:101416009EA610EF0AF012EF0AF014EF0AF0D4ECD1
:1014260015F0A0A619EF0AF01BEF0AF024EF0AF058
:10143600A1A620EF0AF022EF0AF024EF0AF0D6EC7C
:1014460015F00DC0DAFF0CC0D9FF0BC0FBFF0AC0B8
:10145600FAFF729211001F50800B0001E96F1F50B6
:101466001F24EF6F1EAE3AEF0AF03CEF0AF03DEF95
:101476000AF0EF81EF51D8B443EF0AF045EF0AF0D6
:1014860058EF0AF0EF29D8A44BEF0AF04DEF0AF017
:1014960055EF0AF0000E1C6E000E1D6E000E1E6E3D
:1014A600000E1F6E1E8E60EF0AF0000E1C6E000E00
:1014B6001D6E000E1E6E000E1F6E2350800BE91B64
:1014C60023502324EA6F22AE6BEF0AF06DEF0AF089
:1014D6006EEF0AF0EA81EA51D8B474EF0AF076EFBB
:1014E6000AF089EF0AF0EA29D8A47CEF0AF07EEF29
:1014F6000AF086EF0AF0000E206E000E216E000E36
:10150600226E000E236E228E91EF0AF0000E206EE0
:10151600000E216E000E226E000E236EEA51D8B424
:1015260097EF0AF099EF0AF0A1EF0AF0EF51D8A46D
:101536009FEF0AF0A1EF0AF0ABEF0AF0000E1C6E67
:10154600000E1D6E000E1E6E000E1F6E43EF0CF099
:1015560022501C02F3CFF4F0F4CFF5F0F451EB6F08
:10156600EC6BED6BEE6BF551F06FF16BF26BF36BB1
:1015760021501D02F3CFF4F0F4CFF5F0F451EB2730
:10158600000EEC23ED23EE23F551F027000EF12398
:10159600F223F32320501E02F3CFF4F0F4CFF5F03C
:1015A600F451EB27000EEC23ED23EE23F551F02743
:1015B600000EF123F223F323EDC0EEF0ECC0EDF0C4
:1015C600EBC0ECF0EB6B20501D02F3CFF4F0F4CF40
:1015D600F5F0F451EB27F551EC23000EED23000E48
:1015E600EE2321501C02F3CFF4F0F4CFF5F0F451C2
:1015F600EB27F551EC23000EED23000EEE23EDC094
:10160600EEF0ECC0EDF0EBC0ECF0EB6B20501C0202
:10161600F3CFF4F0F4CFF5F0F451EB27F551EC23CA
:10162600000EED23000EEE2322501D02F3CFF4F040
:10163600F4CFF5F0F451F027F551F123000EF22323
:10164600000EF32321501E02F3CFF4F0F4CFF5F091
:10165600F451F027F551F123000EF223000EF32387
:1016660022501E02F3CFF4F0F4CFF5F0F451246EBD
:10167600F551256E266A276A26C027F025C026F072
:1016860024C025F0246A2450F0272550F123265043
:10169600F2232750F323EBC024F0ECC025F0EDC075
:1016A60026F0EEC027F0190E5EEF0BF0D890273229
:1016B600263225322432E82E59EF0BF02450F0273B
:1016C6002550F1232650F2232750F323EDC0EEF0E8
:1016D600ECC0EDF0EBC0ECF0EB6BEA51EFC024F0A0
:1016E600256A2426000E2522820E2424F46FFF0E7E
:1016F6002520F56F94EF0BF0D890F037F137F237DD
:10170600F337EEAF89EF0BF08BEF0BF08CEF0BF0AE
:10171600F081D890EB37EC37ED37EE37F407D8A0E9
:10172600F507F2AF99EF0BF09BEF0BF07FEF0BF0A5
:10173600000EEA6FEEAFA2EF0BF0A4EF0BF0C8EFCE
:101746000BF0FF0EEB15246EFF0EEC15256EFF0E4B
:10175600ED15266E7F0EEE15276E245025102610E9
:101766002710D8B4B9EF0BF0BBEF0BF0BFEF0BF0BF
:10177600010EEA6FC8EF0BF0F0A1C4EF0BF0C6EF55
:101786000BF0C8EF0BF0BBEF0BF0EA51D8B4CEEF7D
:101796000BF0D0EF0BF0F4EF0BF0010EF027000E7C
:1017A600F123F223F323F3A1DBEF0BF0DDEF0BF0D4
:1017B600F4EF0BF0F0C024F0F1C025F0F2C026F0F3
:1017C600F3C027F02734273226322532243224C0AC
:1017D600F0F025C0F1F026C0F2F027C0F3F0F44B8C
:1017E600F52BF5BFFFEF0BF0F55108E1F429D8A072
:1017F600FFEF0BF001EF0CF00BEF0CF0000EF06FAB
:10180600000EF16F800EF26F7F0EF36F39EF0CF062
:10181600F5BF18EF0CF0F55106E1F405D8B016EF58
:101826000CF018EF0CF024EF0CF0000EF06F000E29
:10183600F16F000EF26F000EF36F000EE96F39EFD5
:101846000CF0F4C0EFF0FF0EF017FF0EF1177F0E4D
:10185600F217000EF317EFA133EF0CF035EF0CF093
:1018660036EF0CF0F28FD890EF31F36FE951F313A6
:10187600F0C01CF0F1C01DF0F2C01EF0F3C01FF066
:10188600120061EC12F05D0E0E6E000E0F6E65EC2E
:1018960015F00EC0F6F00FC0F7F092EF0DF06F0ED8
:1018A600196E000E1A6EB2EC12F019C0F6F01AC0DC
:1018B600F7F0010EA7EC15F00EC0F6F00FC0F7F02A
:1018C60046EF0CF06E0E196E000E1A6EB2EC12F0A8
:1018D60019C0F6F01AC0F7F0010EA7EC15F00EC00D
:1018E600F6F00FC0F7F046EF0CF06D0E196E000E15
:1018F6001A6EB2EC12F019C0F6F01AC0F7F0010E2B
:10190600A7EC15F00EC0F6F00FC0F7F046EF0CF09E
:101916006C0E196E000E1A6EB2EC12F019C0F6F0CB
:101926001AC0F7F0010EA7EC15F00EC0F6F00FC0C6
:10193600F7F046EF0CF06F0E196E000E1A6EFBEC08
:1019460012F019C0F6F01AC0F7F0000EA7EC15F069
:101956000EC0F6F00FC0F7F046EF0CF06E0E196EE3
:10196600000E1A6EFBEC12F019C0F6F01AC0F7F072
:10197600000EA7EC15F00EC0F6F00FC0F7F046EF1C
:101986000CF06D0E196E000E1A6EFBEC12F019C0FB
:10199600F6F01AC0F7F0000EA7EC15F00EC0F6F040
:1019A6000FC0F7F046EF0CF06C0E196E000E1A6EB3
:1019B600FBEC12F019C0F6F01AC0F7F0000EA7EC17
:1019C60015F00EC0F6F00FC0F7F046EF0CF06B0EF8
:1019D600196E000E1A6EB2EC12F019C0F6F01AC0AB
:1019E600F7F046EF0CF06B0E196E000E1A6EFBEC5C
:1019F60012F019C0F6F01AC0F7F046EF0CF05D0EC3
:101A06000E6E000E0F6E65EC15F00EC0F6F00FC0F0
:101A1600F7F0DB0E176E000E186E000E196E84ECD2
:101A260014F017C0F6F018C0F7F0F60E206E280E68
:101A3600216E9C0E226E400E236E5BC00EF05CC0C3
:101A46000FF0106A116A000ED1EC0DF00EC01CF0FA
:101A56000FC01DF010C01EF011C01FF02EEC0AF0D2
:101A66001CC028F01DC029F01EC02AF01FC02BF094
:101A760097EC10F028C034F029C035F034C00EF0D1
:101A860035C00FF0000E116E0A0E106E8BEC13F0BF
:101A96000EC034F00FC035F05D50326E336A3450EC
:101AA600325C35503358D8B05BEF0DF05DEF0DF07A
:101AB60069EF0DF06A0E196E000E1A6EB2EC12F096
:101AC60019C0F6F01AC0F7F073EF0DF06A0E196E32
:101AD600000E1A6EFBEC12F019C0F6F01AC0F7F001
:101AE6001E0E34183510D8A47BEF0DF07DEF0DF0E7
:101AF6000CEF0DF046EF0CF06A0E196E000E1A6E22
:101B0600FBEC12F019C0F6F01AC0F7F0000EA7ECC5
:101B160015F00EC0F6F00FC0F7F046EF0CF05D5072
:101B2600326E336A3350000AD8B49CEF0DF046EF9C
:101B36000CF03250000AD8B4F6EF0CF0010AD8B413
:101B460052EF0CF0030AD8B465EF0CF0010AD8B4D2
:101B560078EF0CF0070AD8B48BEF0CF0010AD8B472
:101B66009EEF0CF0030AD8B4B1EF0CF0010AD8B41A
:101B7600C4EF0CF00F0AD8B4D7EF0CF0010AD8B4B2
:101B8600EAEF0CF0030AD8B402EF0DF0010AD8B45C
:101B96007FEF0DF046EF0CF007EF00F0166E1650D3
:101BA600D8B4D8EF0DF0DAEF0DF0FCEF0DF011BE62
:101BB600E1EF0DF0DFEF0DF0FCEF0DF00EC012F0CF
:101BC6000FC013F010C014F011C015F0121E131E32
:101BD600141E151E122A000E13221422152212C0DC
:101BE60018F013C019F014C01AF015C01BF004EF5A
:101BF6000EF00EC018F00FC019F010C01AF011C088
:101C06001BF00E500F1010101110D8A40DEF0EF08F
:101C16000FEF0EF019EF0EF0000E0E6E000E0F6EA7
:101C2600000E106E000E116EAAEF0EF0960E176ED5
:101C360023EF0EF0172AD8901B321A3219321832B7
:101C4600000E1814126E000E1914136E000E1A14DC
:101C5600146EFE0E1B14156E125013101410151070
:101C6600D8A438EF0EF03AEF0EF01DEF0EF048EF65
:101C76000EF0172A010E1826000E19221A221B2210
:101C8600D8901B321A3219321832000E1814126EFE
:101C9600000E1914136E000E1A14146EFF0E1B1488
:101CA600156E1250131014101510D8A45DEF0EF017
:101CB6005FEF0EF03CEF0EF067EF0EF01706D890D0
:101CC600183619361A361B361ABE6CEF0EF06EEF42
:101CD6000EF076EF0EF0020E176074EF0EF076EF50
:101CE6000EF061EF0EF017B07BEF0EF07DEF0EF009
:101CF6007EEF0EF01A9ED890173217C012F0136AB4
:101D0600146A156A12C015F0146A136A126A125020
:101D160018121350191214501A1215501B1216507D
:101D2600D8B498EF0EF09AEF0EF0A2EF0EF011BEB7
:101D3600A1EF0EF09FEF0EF0A2EF0EF01B8E18C073
:101D46000EF019C00FF01AC010F01BC011F01200EF
:101D5600000E176E010E166E0E500F10D8B4B6EFA9
:101D66000EF0B8EF0EF0C9EF0EF00EC0D9FF0FC09F
:101D7600DAFFDF30E832E832070B106E070E106428
:101D8600C7EF0EF0C9EF0EF02EEF0FF0000E176E34
:101D9600000E166E4FEF0FF00EC0D9FF0FC0DAFF20
:101DA600DF30E832E832070B106E010E116E102A92
:101DB600DFEF0EF0D8901136102EDDEF0EF0115039
:101DC600FF0A126E0EC0D9FF0FC0DAFFDF50070BF5
:101DD600136E1350020DC90EF324D96E000EF420B3
:101DE600DA6EDECF14F0DDCF15F014C0D9FF15C0C2
:101DF600DAFF1250DF164FEF0FF00EC0D9FF0FC0FB
:101E0600DAFFDF30E832E832070B106E010E116E92
:101E1600102A10EF0FF0D8901136102E0EEF0FF09B
:101E26000EC0D9FF0FC0DAFFDF50070B126E12503B
:101E3600020DC90EF324D96E000EF420DA6EDECF41
:101E460013F0DDCF14F013C0D9FF14C0DAFF115020
:101E5600DF124FEF0FF00EC0D9FF0FC0DAFFDFBC65
:101E660037EF0FF03AEF0FF0010E3BEF0FF0000ED9
:101E7600106E116A1150000AD8B444EF0FF0C9EF82
:101E86000EF01050000AD8B4CFEF0EF0010AD8B405
:101E960000EF0FF0C9EF0EF016C00EF017C00FF0EE
:101EA6001200000E186E000E176E0E500F10D8B4EA
:101EB6005FEF0FF061EF0FF072EF0FF00EC0D9FF7A
:101EC6000FC0DAFFDF30E832E832070B116E070E7B
:101ED600116470EF0FF072EF0FF0DDEF0FF0000EF0
:101EE600186E010E176EF2EF0FF00EC0D9FF0FC07D
:101EF600DAFFDF30E832E832070B116E010E126EA0
:101F0600112A88EF0FF0D8901236112E86EF0FF0B7
:101F16001250FF0A136E0EC0D9FF0FC0DAFFDF5052
:101F2600070B146E1450020DBF0EF324D96E000E6B
:101F3600F420DA6EDECF15F0DDCF16F015C0D9FF2E
:101F460016C0DAFF1350DF16F2EF0FF00EC0D9FFFE
:101F56000FC0DAFFDF30E832E832070B116E010EF0
:101F6600126E112AB9EF0FF0D8901236112EB7EF74
:101F76000FF00EC0D9FF0FC0DAFFDF50070B136E4C
:101F86001350020DBF0EF324D96E000EF420DA6E44
:101F9600DECF14F0DDCF15F014C0D9FF15C0DAFF7F
:101FA6001250DF12F2EF0FF0000E186E000E176ED1
:101FB600F2EF0FF01050116E126A1250000AD8B4E8
:101FC600E7EF0FF0D7EF0FF01150000AD8B478EF13
:101FD6000FF0010AD8B4A9EF0FF0D7EF0FF017C032
:101FE6000EF018C00FF012001F502010D8A4FEEFFC
:101FF6000FF000EF10F002EF10F096EF10F0C69A17
:102006001FC0D9FF20C0DAFFDF50216EC65021184D
:10201600F00B2118C66E1FC0D9FF20C0DAFFDF50B3
:10202600D8B418EF10F01AEF10F040EF10F01FC000
:10203600D9FF20C0DAFFDE04D8B424EF10F026EF73
:1020460010F040EF10F01FC0D9FF20C0DAFF020EDB
:10205600DE18D8B431EF10F033EF10F040EF10F087
:102066001FC0D9FF20C0DAFF030EDE18D8A43EEF4A
:1020760010F040EF10F044EF10F00BEC15F064EFA9
:1020860010F01FC0D9FF20C0DAFF040EDE18D8B446
:102096004FEF10F051EF10F05EEF10F01FC0D9FFB8
:1020A60020C0DAFF050EDE18D8A45CEF10F05EEF54
:1020B60010F064EF10F01FC018F020C019F0C5EC46
:1020C60013F020EE01F01F50D9262050DA22DF50FF
:1020D600030B216E213AC6502118EF0B2118C66E4C
:1020E60020EE01F01F50D9262050DA22DF38030BEC
:1020F600216E213A21462146C7502118BF0B2118CF
:10210600C76E20EE01F01F50D9262050DA22DF30AC
:10211600E832030B216E21322132C75021187F0B82
:102126002118C76EC68A12002A342B34316E3150FC
:10213600D8A4A0EF10F0A2EF10F0ACEF10F0000E54
:10214600286E000E296E000E2A6E000E2B6E19EFF9
:1021560011F028C02CF029C02DF02AC02EF02BC07B
:102166002FF0200EBCEF10F0D8902F322E322D32E9
:102176002C32E82EB7EF10F02C50306E2A8EFF0E60
:102186002816FF0E2916FF0E2A16000E2B16960E7F
:10219600315E31BED3EF10F0D1EF10F0E9EF10F061
:1021A6003150800A970FD8B0DBEF10F0DDEF10F05A
:1021B600DFEF10F0A2EF10F0D8902B322A3229323E
:1021C6002832313EDFEF10F001EF11F01F0E3164BF
:1021D600EFEF10F0F1EF10F0F9EF10F0A2EF10F0C2
:1021E600D890283629362A362B3631063150D8A4CF
:1021F600FFEF10F001EF11F0F3EF10F03050D8B40C
:1022060007EF11F009EF11F011EF11F02B1E2A1E46
:10221600291E286C000E29222A222B2228C028F0EB
:1022260029C029F02AC02AF02BC02BF01200000E7C
:10223600096E010E086E01500210D8B425EF11F098
:1022460027EF11F030EF11F003500410D8A42EEF51
:1022560011F030EF11F036EF11F0000E096E000E9E
:10226600086E8CEF11F020EE05F00150D9260250D1
:10227600DA22DFA241EF11F043EF11F057EF11F030
:10228600C350C4CF05F0066A05C006F0056A0526E8
:10229600000E062203C0D9FF04C0DAFF05C0DEFF28
:1022A60006C0DDFF8CEF11F020EE05F00150D926B7
:1022B6000250DA22DFB262EF11F064EF11F080EF24
:1022C60011F0C350C4CF05F0066A05C006F0056AD2
:1022D6000526000E0622060E076E06340632053265
:1022E600072E70EF11F003C0D9FF04C0DAFF05C056
:1022F600DEFF06C0DDFF8CEF11F0C450C350056E43
:10230600066A03C0D9FF04C0DAFF05C0DEFF06C0B7
:10231600DDFF08C001F009C002F01200106EB8EF30
:1023260011F09282F9EF11F09284F9EF11F0928692
:10233600F9EF11F0928AF9EF11F09680F9EF11F0AA
:102346009682F9EF11F09684F9EF11F09384F9EF84
:1023560011F09386F9EF11F09382F9EF11F093885B
:10236600F9EF11F09380F9EF11F010500E6E0F6A2D
:102376000F50000AD8B4C2EF11F0F9EF11F00E5069
:10238600000AD8B494EF11F0010AD8B494EF11F012
:10239600030AD8B497EF11F0010AD8B49AEF11F0F6
:1023A600070AD8B49DEF11F0010AD8B4A0EF11F0D6
:1023B600030AD8B4A3EF11F0010AD8B4A6EF11F0BE
:1023C6000F0AD8B4A9EF11F0010AD8B4ACEF11F096
:1023D600030AD8B4AFEF11F0010AD8B4B2EF11F086
:1023E600070AD8B4B5EF11F0F9EF11F01200000E9C
:1023F600156E010E146E11501210D8A405EF12F0CE
:1024060007EF12F00DEF12F0000E156E000E146EAF
:102416005CEF12F0C29020EE04F01150D926125053
:10242600DA22DF50136E134613461346C0501318B4
:10243600C70B1318C06E20EE03F01150D9261250A8
:10244600DA22DF50136EC0501318F80B1318C06E43
:1024560020EE02F01150D9261250DA22DF50136E08
:1024660013461346C2501318C30B1318C26E20EE40
:1024760002F01150D9261250DA22DF5091EC11F0F9
:102486009D8C9E9CF28EF28C11C0D9FF12C0DAFF91
:10249600DECF52F0DDCF53F011C00EF012C00FF0B8
:1024A600CFEC14F011C00EF012C00FF0AAEC14F02D
:1024B600C28014C011F015C012F01200E70E1F6E94
:1024C600000E206EF7EC0FF01FC0F6F020C0F7F0FC
:1024D6006F0E1D6E000E1E6E44EC13F01DC0F6F05E
:1024E6001EC0F7F06E0E1D6E000E1E6E44EC13F04D
:1024F6001DC0F6F01EC0F7F06D0E1D6E000E1E6EAE
:1025060044EC13F01DC0F6F01EC0F7F06C0E1D6E05
:10251600000E1E6E44EC13F01DC0F6F01EC0F7F060
:102526006B0E1D6E000E1E6E44EC13F01DC0F6F011
:102536001EC0F7F06A0E1D6E000E1E6E44EC13F000
:102546001DC0F6F01EC0F7F0DB0E116E000E126E07
:10255600FAEC11F011C0F6F012C0F7F012001950A3
:102566001A10D8A4B9EF12F0BBEF12F0C1EF12F0B7
:10257600000E1D6E000E1C6EF6EF12F059C01EF016
:1025860019C0D9FF1AC0DAFFDF50070B1B6E1E50A9
:102596001B18F80B1B181E6E19C0D9FF1AC0DAFFDC
:1025A600DF30E832E832070B1B6E1B461B461B4624
:1025B6001E501B18C70B1B181E6E1E9C19C0D9FF78
:1025C6001AC0DAFFDFAC02D01E8E01D01E9E1E0E90
:1025D6000E6E000E0F6E010E106E54EC0FF00EC054
:1025E6001CF00FC01DF01CC019F01DC01AF012001F
:1025F60019501A10D8A402EF13F004EF13F00AEFE3
:1026060013F0000E1D6E000E1C6E3FEF13F058C047
:102616001EF019C0D9FF1AC0DAFFDF50070B1B6E78
:102626001E501B18F80B1B181E6E19C0D9FF1AC0B6
:10263600DAFFDF30E832E832070B1B6E1B461B461B
:102646001B461E501B18C70B1B181E6E1E9C19C05E
:10265600D9FF1AC0DAFFDFAC02D01E8E01D01E9E53
:102666001E0E0E6E000E0F6E000E106E54EC0FF066
:102676000EC01CF00FC01DF01CC019F01DC01AF0D2
:1026860012001D501E10D8A44BEF13F04DEF13F09F
:1026960053EF13F0000E216E000E206E86EF13F03E
:1026A6005AC022F01DC0D9FF1EC0DAFFDF50070B4B
:1026B6001F6E22501F18F80B1F18226E1DC0D9FF5F
:1026C6001EC0DAFFDF30E832E832070B1F6E1F4606
:1026D6001F461F4622501F18C70B1F18226E229C2A
:1026E6001DC0D9FF1EC0DAFFDFAC02D0228E01D09A
:1026F600229E220E196E000E1A6E2AEC14F019C0D4
:1027060020F01AC021F020C01DF021C01EF01200DA
:10271600000E136E000E126E10501110D8B496EF04
:1027260013F098EF13F0C0EF13F0010E146EA0EF44
:1027360013F0D89010361136142A11AEA5EF13F007
:10274600A7EF13F09CEF13F0D89012361336105003
:102756000E5C11500F58D8A0B3EF13F0B5EF13F07D
:10276600BAEF13F010500E5E11500F5A1280D89027
:1027760011321032142EA7EF13F012C00EF013C050
:102786000FF0120062C01BF061C01CF060C01EF0AA
:102796005FC01DF01B0E0E6E000E0F6EABEC0EF042
:1027A6001C0E0E6E000E0F6EABEC0EF01E0E0E6EB5
:1027B600000E0F6EABEC0EF01E0E0E6E000E0F6EC0
:1027C600ABEC0EF018C0D9FF19C0DAFF040EDE1804
:1027D600D8A4F0EF13F0F2EF13F0F8EF13F01D0E9C
:1027E6000E6E000E0F6EABEC0EF01200E20EF66EE1
:1027F600290EF76E000EF86E00EEB5F010EE34F00E
:102806000900F5CFEEFFE550E150FAE1660EF66EEF
:102816002B0EF76E000EF86E00EE5FF010EE13F062
:102826000900F5CFEEFFE550E150FAE100EE80F049
:10283600350EEE6AE806FDE100EE34F02B0EEE6A88
:10284600E806FDE172907292000144EF0CF0195017
:102856001A10D8A431EF14F033EF14F039EF14F056
:10286600000E1C6E000E1B6E55EF14F019C00EF014
:102876001AC00FF0ABEC0EF00EC01BF00FC01CF030
:1028860019C00EF01AC00FF019C0D9FF1AC0DAFF2E
:10289600000EDFBE010E106E54EC0FF00EC01BF0E2
:1028A6000FC01CF01BC019F01CC01AF01200000E5D
:1028B600166E010E156E11501210D8A465EF14F0A5
:1028C60067EF14F06DEF14F0000E166E000E156E25
:1028D6007FEF14F013C014F014461446C2501418B7
:1028E600C30B1418C26E20EE02F01150D9261250F6
:1028F600DA22DF5091EC11F015C011F016C012F07B
:10290600120017501810D8A48BEF14F08DEF14F0A6
:1029160093EF14F0000E1B6E000E1A6EA5EF14F066
:1029260017C011F018C012F019C013F05AEC14F0C9
:1029360017C00EF018C00FF024EC15F00EC01AF0F8
:102946000FC01BF01AC017F01BC018F0120020EEC3
:1029560005F00E50D9260F50DA22DFA0B5EF14F09D
:10296600B7EF14F0BBEF14F0C188C18ACEEF14F0B4
:1029760020EE05F00E50D9260F50DA22DFB0C6EF52
:1029860014F0C8EF14F0CCEF14F0C198C19ACEEF52
:1029960014F0C188C18A120020EE05F00E50D92627
:1029A6000F50DA22DFA2DAEF14F0DCEF14F0DFEFDB
:1029B60014F0C08EF0EF14F020EE05F00E50D9267C
:1029C6000F50DA22DFB2EAEF14F0ECEF14F0EFEF7B
:1029D60014F0C09EF0EF14F0C08E1200800F810F2D
:1029E600820F830F840F890F8A0F8B0F8C0F8D0F29
:1029F600920F930F940F950F960F030B131B636B98
:102A0600737BAC2A00050502020A1218323A051138
:102A160065C018F064C019F063C01AF0180E0E6E87
:102A2600000E0F6EABEC0EF0190E0E6E000E0F6E52
:102A3600ABEC0EF01A0E0E6E000E0F6EABEC0EF037
:102A46001200000E116E010E106E0E500F10D8A45B
:102A56002FEF15F031EF15F037EF15F0000E116E70
:102A6600000E106E38EF15F0C28210C00EF011C0C5
:102A76000FF012009E9C52505310D8A445EF15F04B
:102A860047EF15F049EF15F055EF15F002D855EF61
:102A960015F00500FA6E5250FD6E5350FE6EFF6A39
:102AA600FA5012001200DB0E016E000E026E5B0E73
:102AB600036E000E046E1AEC11F001C0F6F002C0AF
:102AC600F7F01200C7A06AEF15F06CEF15F065EF8E
:102AD60015F00EC0D9FF0FC0DAFFC9CFDFFF120015
:102AE600016EF2900150D8A47BEF15F07DEF15F042
:102AF6007FEF15F07FEF15F01200016EF290015096
:102B0600D8A488EF15F08AEF15F08CEF15F08CEF4E
:102B160015F01200016EF2900150D8A495EF15F051
:102B260097EF15F099EF15F099EF15F01200016E79
:102B3600F2900150D8A4A2EF15F0A4EF15F0A6EF7D
:102B460015F0A6EF15F01200106E10C0C9FF9EA674
:102B5600AFEF15F0B1EF15F0AAEF15F09E96120043
:102B6600685A622A1A622A0101010139311B130BC4
:032B760003081041
:102B7A00A1923750B36E36C0B2FF1200F2943D50A4
:102B8A00D76E3CC0D6FF12003B50CF6E3AC0CEFF84
:102B9A0012009E9238C0CCFF12009D9812009E9699
:102BAA001200A1961200F0921200F0901200F29216
:102BBA0012009E941200A19012009E94120012001C
:022BCA001200F7
:020000040020DA
:08000000FFFFFFFFFFFFFFFF00
:020000040030CA
:0E000000FF020910FF8381FF0FC00FE00F40C9
:00000001FF
