:0400000007EF00F016
:10000800648240ED15F003EF21F086EC23F05C0EDE
:100018000101056F000E066F010E076F94EC1FF0CB
:1000280005C1FEF006C1FFF05C0E0101106F000E65
:10003800116F010E126F070E136FCB0E146FFF0EA8
:10004800156F71EC21F010C1FEF011C1FFF05C0ECC
:100058000101106F000E116F020E126F010E136F67
:10006800CF0E146FFD0E156F71EC21F010C1FEF06C
:1000780011C1FFF0060E0101196F130E186FAD0EB6
:10008800E82EFED7182FFCD7192FFAD700D05C0E10
:100098000101056F000E066F010E076F94EC1FF04B
:1000A80005C1FEF006C1FFF0010E0001F16F000E60
:1000B800F06FEF0EF26F000EF36F92EC22F0F0C0CB
:1000C800FEF0F1C0FFF0010E0001F16F010EF06FBC
:1000D800EE0EF26F000EF36F92EC22F0F0C0FEF01D
:1000E800F1C0FFF00001EF29D8B47DEF00F07FEFF9
:1000F80000F087EF00F0EE29D8A485EF00F087EF35
:1001080000F072EF02F05C0E0101106F000E116F2B
:10011800010E126F010E136F330E146FFE0E156F62
:1001280071EC21F010C1FEF011C1FFF05C0E01016D
:10013800106F000E116F020E126F010E136F0C0E6E
:10014800146FFF0E156F71EC21F010C1FEF011C194
:10015800FFF021EF01F0DD0E0101006F000E016FCD
:10016800B80E026F000E036FCAEC1AF000C1FEF061
:1001780001C1FFF00001B851D8B4C5EF00F0C7EFD6
:1001880000F0AFEF00F0DCC0F0F0F16BB8C0F2F0B7
:100198008FEC20F0F0C0FEF0F1C0FFF05C0E010122
:1001A800106F000E116F020E126FDAC013F1B8C093
:1001B80014F13CEC22F010C1FEF011C1FFF0030E67
:1001C8000101196F8A0E186F550EE82EFED7182FE9
:1001D800FCD7192FFAD700D05C0E0101056F000E6D
:1001E800066F100E076F94EC1FF005C1FEF006C1F4
:1001F800FFF05C0E0101106F000E116F020E126FFE
:10020800DAC013F12A0E146F3CEC22F010C1FEF094
:1002180011C1FFF05C0E0101056F000E066F0E0E96
:10022800076F94EC1FF005C1FEF006C1FFF0000E49
:100238000001B86FDA2BDC2BD92B040E0001D9652D
:1002480028EF01F02AEF01F0AFEF00F05C0E01019A
:10025800056F000E066F0C0E076F94EC1FF005C1BA
:10026800FEF006C1FFF05C0E0101106F000E116F69
:10027800030E126F010E136F200E146FFE0E156F12
:1002880071EC21F010C1FEF011C1FFF0030E010165
:10029800196F8A0E186F550EE82EFED7182FFCD747
:1002A800192FFAD700D05C0E0101056F000E066FFA
:1002B800010E076F94EC1FF005C1FEF006C1FFF0B8
:1002C8005C0E0101106F000E116F010E126F010E0E
:1002D800136F460E146FFE0E156F71EC21F010C1EE
:1002E800FEF011C1FFF05C0E0101106F000E116FDE
:1002F800020E126F010E136F180E146FFF0E156F9A
:1003080071EC21F010C1FEF011C1FFF0010E0001E7
:10031800D96F0C0EDA6F03EF02F0DD0E0101006FEA
:10032800000E016FB80E026F000E036FCAEC1AF0D0
:1003380000C1FEF001C1FFF00001B851D8B4A7EF29
:1003480001F0A9EF01F091EF01F0DBC0F0F0F16BE3
:10035800B8C0F2F08FEC20F0F0C0FEF0F1C0FFF072
:100368005C0E0101106F000E116F020E126FDAC0E1
:1003780013F1B8C014F13CEC22F010C1FEF011C129
:10038800FFF0030E0101196F8A0E186F550EE82E43
:10039800FED7182FFCD7192FFAD700D05C0E010111
:1003A800056F000E066F100E076F94EC1FF005C165
:1003B800FEF006C1FFF05C0E0101106F000E116F18
:1003C800020E126FDAC013F12A0E146F3CEC22F001
:1003D80010C1FEF011C1FFF05C0E0101056F000EA7
:1003E800066F0E0E076F94EC1FF005C1FEF006C1F4
:1003F800FFF0000E0001B86FDA2BDB2BD92B040EAF
:10040800D96509EF02F00BEF02F091EF01F0020E4F
:100418000101196F040E186FBA0EE82EFED7182FB7
:10042800FCD7192FFAD700F05C0E0101056F000EFA
:10043800066F0C0E076F94EC1FF005C1FEF006C1A5
:10044800FFF05C0E0101106F000E116F030E126FAA
:10045800010E136F200E146FFE0E156F71EC21F054
:1004680010C1FEF011C1FFF0030E0101196F8A0ED1
:10047800186F550EE82EFED7182FFCD7192FFAD76C
:1004880000D05C0E0101056F000E066F010E076FAC
:1004980094EC1FF005C1FEF006C1FFF0010E00014B
:1004A800EF6F010EEE6F010EF16F000EF06FEFC0EF
:1004B800F2F08FEC20F0F0C0FEF0F1C0FFF0010E7A
:1004C8000001F16F010EF06FEEC0F2F08FEC20F03A
:1004D800F0C0FEF0F1C0FFF03EEF15F0EF05D8B424
:1004E80078EF02F07AEF02F082EF02F0EE05D8A47E
:1004F80080EF02F082EF02F03EEF15F05C0E010192
:10050800106F000E116F010E126F010E136FAF0EF8
:10051800146FFE0E156F71EC21F010C1FEF011C1C1
:10052800FFF05C0E0101106F000E116F020E126FCA
:10053800010E136F880E146FFF0E156F71EC21F00A
:1005480010C1FEF011C1FFF05C0E0101106F000E2A
:10055800116F030E126F010E136F9A0E146FFF0EB8
:10056800156F71EC21F010C1FEF011C1FFF0DD0E26
:100578000101006F000E016FB80E026F000E036FCD
:10058800CAEC1AF000C1FEF001C1FFF00001B85139
:10059800D8B4D1EF02F0D3EF02F0BBEF02F055EF81
:1005A80004F05C0E0101056F000E066F010E076F67
:1005B80094EC1FF005C1FEF006C1FFF05C0E0101CE
:1005C800106F000E116F010E126F010E136FCB0E1C
:1005D800146FFE0E156F71EC21F010C1FEF011C101
:1005E800FFF05C0E0101106F000E116F020E126F0A
:1005F800010E136F240E146FFF0E156F71EC21F0AE
:1006080010C1FEF011C1FFF0000E0001B86F020E1C
:100618000101196F860E186F990EE82EFED7182F54
:10062800FCD7192FFAD798EF03F0DD0E0101006F00
:10063800000E016FB80E026F000E036FCAEC1AF0BD
:1006480000C1FEF001C1FFF00001B851D8B42FEF8E
:1006580003F031EF03F019EF03F0DCC0F0F0F16BB9
:10066800ED0EF26F000EF36F92EC22F0F0C0FEF088
:10067800F1C0FFF00001B851ED19D8A446EF03F01E
:1006880048EF03F049EF03F0B62B5C0E0101106F41
:10069800000E116F020E126FDAC013F1B8C014F118
:1006A8003CEC22F010C1FEF011C1FFF0030E010175
:1006B800196F8A0E186F550EE82EFED7182FFCD723
:1006C800192FFAD700D05C0E0101056F000E066FD6
:1006D800100E076F94EC1FF005C1FEF006C1FFF085
:1006E8005C0E0101106F000E116F020E126FDAC05E
:1006F80013F12A0E146F3CEC22F010C1FEF011C168
:10070800FFF05C0E0101056F000E066F0E0E076FFD
:1007180094EC1FF005C1FEF006C1FFF0000E0001C9
:10072800B86FDA2BDC2BD92B040E0001D9659FEFAB
:1007380003F0A1EF03F019EF03F0040EB619D8A4E3
:10074800A8EF03F0AAEF03F0E8EF03F05C0E010155
:10075800056F000E066F010E076F94EC1FF005C1C0
:10076800FEF006C1FFF05C0E0101056F000E066F7A
:100778000C0E076F94EC1FF005C1FEF006C1FFF0E8
:100788005C0E0101106F000E116F020E126F010E48
:10079800136F8F0E146FFE0E156F71EC21F010C1E0
:1007A800FEF011C1FFF0000E0001B86F020E01014A
:1007B800196F860E186F990EE82EFED7182FFCD7E2
:1007C800192FFAD755EF04F0310EB86F5C0E0101FE
:1007D800056F000E066F010E076F94EC1FF005C140
:1007E800FEF006C1FFF05C0E0101056F000E066FFA
:1007F8000C0E076F94EC1FF005C1FEF006C1FFF068
:100808005C0E0101106F000E116F010E126F010EC8
:10081800136FE50E146FFE0E156F71EC21F010C109
:10082800FEF011C1FFF05C0E0101106F000E116F98
:10083800020E126F010E136F300E146FFF0E156F3C
:1008480071EC21F010C1FEF011C1FFF05C0E010146
:10085800106F000E116F020E126F0C0E136F000155
:10086800D8512F0F0101146F3CEC22F010C1FEF09B
:1008780011C1FFF0030E0101196F8A0E186F550E92
:10088800E82EFED7182FFCD7192FFAD700D0010E63
:100898000001B66F010ED96F020EDC6F0C0EDA6F15
:1008A800D807310E0001B819D8A45DEF04F05FEF46
:1008B80004F0F7EF05F0D851D8A465EF04F067EF1E
:1008C80004F0D5EF02F0F7EF05F05C0E0101056FBB
:1008D800000E066F010E076F94EC1FF005C1FEF0C5
:1008E80006C1FFF05C0E0101106F000E116F010EC2
:1008F800126F010E136FD80E146FFE0E156F71EC88
:1009080021F010C1FEF011C1FFF05C0E0101106F63
:10091800000E116F020E126F010E136F240E146F6A
:10092800FF0E156F71EC21F010C1FEF011C1FFF040
:10093800000E0001B86F020E0101196F860E186FC4
:10094800990EE82EFED7182FFCD7192FFAD72CEFBF
:1009580005F0DD0E0101006F000E016FB80E026F89
:10096800000E036FCAEC1AF000C1FEF001C1FFF0DF
:100978000001B851D8B4C3EF04F0C5EF04F0ADEFEF
:1009880004F0DBC0F0F0F16BED0EF26F000EF36FC8
:1009980092EC22F0F0C0FEF0F1C0FFF00001B85177
:1009A800ED19D8A4DAEF04F0DCEF04F0DDEF04F081
:1009B800B52B5C0E0101106F000E116F020E126F45
:1009C800DAC013F1B8C014F13CEC22F010C1FEF00B
:1009D80011C1FFF0030E0101196F8A0E186F550E31
:1009E800E82EFED7182FFCD7192FFAD700D05C0EA7
:1009F8000101056F000E066F100E076F94EC1FF0D3
:100A080005C1FEF006C1FFF05C0E0101106F000E7B
:100A1800116F020E126FDAC013F12A0E146F3CEC3C
:100A280022F010C1FEF011C1FFF05C0E0101056F4C
:100A3800000E066F0E0E076F94EC1FF005C1FEF056
:100A480006C1FFF0000E0001B86FDA2BDB2BD92BA3
:100A5800040E0001D96533EF05F035EF05F0ADEF71
:100A680004F0040EB519D8A43CEF05F03EEF05F0EC
:100A78008AEF05F05C0E0101056F000E066F010E8E
:100A8800076F94EC1FF005C1FEF006C1FFF05C0E85
:100A98000101056F000E066F0C0E076F94EC1FF036
:100AA80005C1FEF006C1FFF05C0E0101106F000EDB
:100AB800116F020E126F010E136F8F0E146FFE0E60
:100AC800156F71EC21F010C1FEF011C1FFF0000E9E
:100AD8000001B86F060E0101196F130E186FAD0EE5
:100AE800E82EFED7182FFCD7192FFAD700D05C0EA6
:100AF8000101056F000E066F010E076F94EC1FF0E1
:100B080005C1FEF006C1FFF0F7EF05F0320EB86F31
:100B18005C0E0101056F000E066F010E076F94EC65
:100B28001FF005C1FEF006C1FFF05C0E0101056F64
:100B3800000E066F0C0E076F94EC1FF005C1FEF057
:100B480006C1FFF05C0E0101106F000E116F010E5F
:100B5800126F010E136FE50E146FFE0E156F71EC18
:100B680021F010C1FEF011C1FFF05C0E0101106F01
:100B7800000E116F020E126F010E136F300E146FFC
:100B8800FF0E156F71EC21F010C1FEF011C1FFF0DE
:100B98005C0E0101106F000E116F020E126F0C0E29
:100BA800136F0001D7512F0F0101146F3CEC22F095
:100BB80010C1FEF011C1FFF0030E0101196F8A0E7A
:100BC800186F550EE82EFED7182FFCD7192FFAD715
:100BD80000D0000E0001B56F060EDB6F010ED96F55
:100BE8000C0EDA6FD707320E0001B819D8A4FFEF40
:100BF80005F001EF06F009EF06F0D751D8A407EF8A
:100C080006F009EF06F069EF04F0E50EF36F000E49
:100C1800F46F86EC1CF0F3C0FEF0F4C0FFF00001A6
:100C2800D851D8A41AEF06F01CEF06F05CEF06F0D6
:100C38005C0E0101106F000E116F010E126F010E94
:100C4800136F6B0E146FFE0E156F71EC21F010C14F
:100C5800FEF011C1FFF05C0E0101106F000E116F64
:100C6800020E126F010E136FF20E146FFE0E156F47
:100C780071EC21F010C1FEF011C1FFF0630E00010C
:100C8800FB6F000EFC6F3AEC1DF0FBC0FEF0FCC0E1
:100C9800FFF0330E0101196FBB0E186FDF0EE82E3F
:100CA800FED7182FFCD7192FFAD700D03EEF15F032
:100CB800D751D8A462EF06F064EF06F029EF15F0DB
:100CC800000E476E5C0E0101106F000E116F010ED1
:100CD800126F010E136F6B0E146FFE0E156F71EC11
:100CE80021F010C1FEF011C1FFF05C0E0101106F80
:100CF800000E116F020E126F010E136FF20E146FB9
:100D0800FE0E156F71EC21F010C1FEF011C1FFF05D
:100D180042EF06F0040EB519D8A495EF06F097EF48
:100D280006F0ACEF06F05C0E0101106F000E116FBB
:100D3800010E126F010E136FD80E146FFE0E156F91
:100D480071EC21F010C1FEF011C1FFF0D5EF06F0F3
:100D5800040EB619D8A4B3EF06F0B5EF06F0D5EF38
:100D680006F05C0E0101056F000E066F010E076F9D
:100D780094EC1FF005C1FEF006C1FFF05C0E010106
:100D8800106F000E116F010E126F010E136FCB0E54
:100D9800146FFE0E156F71EC21F010C1FEF011C139
:100DA800FFF05C0E0101106F000E116F020E126F42
:100DB800010E136FA30E146FFF0E156F71EC21F067
:100DC80010C1FEF011C1FFF05C0E0101106F000EA2
:100DD800116F020E126F0B0E136FAB0E146FFF0E16
:100DE800156F71EC21F010C1FEF011C1FFF05C0E1F
:100DF8000101106F000E116F030E126F010E136FB9
:100E0800B30E146FFF0E156F71EC21F010C1FEF0D8
:100E180011C1FFF0040E0001B519D8A416EF07F0B0
:100E280018EF07F038EF07F05C0E0101106F000EA5
:100E3800116F030E126F0B0E136FC30E146FFF0E9C
:100E4800156F71EC21F010C1FEF011C1FFF0620EB8
:100E58000001FB6F000EFC6F3AEC1DF0FBC0FEF0CA
:100E6800FCC0FFF05FEF07F0040EB619D8A43FEFFF
:100E780007F041EF07F05FEF07F05C0E0101106F1C
:100E8800000E116F030E126F0B0E136FDB0E146F33
:100E9800FF0E156F71EC21F010C1FEF011C1FFF0CB
:100EA800500E0001FB6F000EFC6F3AEC1DF0FBC00A
:100EB800FEF0FCC0FFF05C0E0101106F000E116F18
:100EC800040E126F010E136FF90E146FFD0E156FDD
:100ED80071EC21F010C1FEF011C1FFF0000E00010D
:100EE800B86FDD0E0101006F000E016FB80E026FC2
:100EF800000E036FCAEC1AF000C1FEF001C1FFF04A
:100F08000001B851D8B48BEF07F08DEF07F075EFFB
:100F180007F0020E0101196F860E186F990EE82E60
:100F2800FED7182FFCD7192FFAD7400E0001B81991
:100F3800D8A4A1EF07F0A3EF07F0D6EF07F0F3EC82
:100F480023F0D6EF07F05C0E0101056F000E066F67
:100F5800010E076F94EC1FF005C1FEF006C1FFF00B
:100F68005C0E0101106F000E116F010E126F010E61
:100F7800136FFF0E146FFE0E156F71EC21F010C188
:100F8800FEF011C1FFF0030E0101196F8A0E186FF0
:100F9800550EE82EFED7182FFCD7192FFAD700D0F8
:100FA80055EF09F0310E0001B819D8B4DEEF07F09B
:100FB800E0EF07F055EF09F0320EB819D8B4E7EFB3
:100FC80007F0E9EF07F055EF09F0330EB819D8B478
:100FD800F0EF07F0F2EF07F055EF09F0340EB8190B
:100FE800D8B4F9EF07F0FBEF07F055EF09F0400E22
:100FF800B819D8A402EF08F004EF08F0A7EF07F03B
:1010080055EF09F05C0E0101056F000E066F010E29
:10101800076F94EC1FF005C1FEF006C1FFF05C0EEF
:101028000101106F000E116F010E126F010E136F88
:101038005B0E146FFF0E156F71EC21F010C1FEF0FE
:1010480011C1FFF050EF08F05C0E106F000E116F29
:10105800010E126F090E136FF30E146FFF0E156F4A
:1010680071EC21F010C1FEF011C1FFF067EF08F03C
:101078005C0E106F000E116F010E126F090E136FC8
:10108800F70E146FFF0E156F71EC21F010C1FEF012
:1010980011C1FFF067EF08F00001B7510101186FA7
:1010A800196B1951000AD8B45CEF08F067EF08F023
:1010B8001851000AD8B43CEF08F0010AD8B428EF58
:1010C80008F067EF08F05C0E0101106F000E116F59
:1010D800020E126F010E136F910E146FFF0E156F33
:1010E80071EC21F010C1FEF011C1FFF05C0E01019E
:1010F800106F000E116F030E126F010E136F470E63
:10110800146FFF0E156F71EC21F010C1FEF011C1C4
:10111800FFF05C0E0101106F000E116F040E126FCC
:10112800010E136FE80E146FFF0E156F71EC21F0AE
:1011380010C1FEF011C1FFF0000E0001B86FDD0E06
:101148000101006F000E016FB80E026F000E036FF1
:10115800CAEC1AF000C1FEF001C1FFF00001B8515D
:10116800D8B4B9EF08F0BBEF08F0A3EF08F0020E0F
:101178000101196F860E186F990EE82EFED7182FE9
:10118800FCD7192FFAD7E1EF08F0010EA2EC23F0F3
:10119800F0C0FEF0F1C0FFF0010E0001B76FF8EFEC
:1011A80008F0050EA2EC23F0F0C0FEF0F1C0FFF04D
:1011B800000E0001B76FF8EF08F00001B851010107
:1011C800186F196B1951000AD8B4EDEF08F0F8EF51
:1011D80008F01851310AD8B4C9EF08F0030AD8B496
:1011E800D5EF08F0F8EF08F0300E0001B819D8A4D0
:1011F80000EF09F002EF09F011EF09F05C0E0101B0
:10120800056F000E066F010E076F94EC1FF005C105
:10121800FEF006C1FFF0BBEF0AF0310EB819D8B4E2
:1012280018EF09F01AEF09F050EF09F0320EB8196B
:10123800D8B421EF09F023EF09F050EF09F05C0E64
:101248000101056F000E066F010E076F94EC1FF089
:1012580005C1FEF006C1FFF05C0E0101106F000E23
:10126800116F010E126F010E136FFF0E146FFE0E39
:10127800156F71EC21F010C1FEF011C1FFF0030EE3
:101288000101196F8A0E186F550EE82EFED7182F18
:10129800FCD7192FFAD700D0310E0001B86FC7EF6D
:1012A80007F0310E0001B819D8B45DEF09F05FEF0F
:1012B80009F006EF08F0BBEF0AF05C0E0101056FBC
:1012C800000E066F010E076F94EC1FF005C1FEF0CB
:1012D80006C1FFF05C0E0101106F000E116F010EC8
:1012E800126F010E136F640E146FFF0E156F71EC01
:1012F80021F010C1FEF011C1FFF0ABEF09F05C0E58
:10130800106F000E116F010E126F090E136FF30E9E
:10131800146FFF0E156F71EC21F010C1FEF011C1B2
:10132800FFF0C2EF09F05C0E106F000E116F010E96
:10133800126F090E136FF70E146FFF0E156F71EC15
:1013480021F010C1FEF011C1FFF0C2EF09F0000159
:10135800B7510101186F196B1951000AD8B4B7EFCA
:1013680009F0C2EF09F01851000AD8B497EF09F054
:10137800010AD8B483EF09F0C2EF09F05C0E01014D
:10138800106F000E116F020E126F010E136F910E87
:10139800146FFF0E156F71EC21F010C1FEF011C132
:1013A800FFF05C0E0101106F000E116F030E126F3B
:1013B800010E136F470E146FFF0E156F71EC21F0BD
:1013C80010C1FEF011C1FFF05C0E0101106F000E9C
:1013D800116F040E126F010E136FE80E146FFF0EDB
:1013E800156F71EC21F010C1FEF011C1FFF0000E75
:1013F8000001B86FDD0E0101006F000E016FB80E1D
:10140800026F000E036FCAEC1AF000C1FEF001C1B2
:10141800FFF00001B851D8B414EF0AF016EF0AF043
:10142800FEEF09F0020E0101196F860E186F990E72
:10143800E82EFED7182FFCD7192FFAD73CEF0AF061
:10144800020EA2EC23F0F0C0FEF0F1C0FFF0010E96
:101458000001B76F53EF0AF0060EA2EC23F0F0C0BC
:10146800FEF0F1C0FFF0000E0001B76F53EF0AF075
:101478000001B8510101186F196B1951000AD8B44D
:1014880048EF0AF053EF0AF01851310AD8B424EFA4
:101498000AF0030AD8B430EF0AF053EF0AF0300E1E
:1014A8000001B819D8A45BEF0AF05DEF0AF06CEF01
:1014B8000AF05C0E0101056F000E066F010E076F42
:1014C80094EC1FF005C1FEF006C1FFF021EF0CF00F
:1014D800310EB819D8B473EF0AF075EF0AF0ABEF14
:1014E8000AF0320EB819D8B47CEF0AF07EEF0AF091
:1014F800ABEF0AF05C0E0101056F000E066F010EDE
:10150800076F94EC1FF005C1FEF006C1FFF05C0EFA
:101518000101106F000E116F010E126F010E136F93
:10152800FF0E146FFE0E156F71EC21F010C1FEF066
:1015380011C1FFF0060E0101196F130E186FAD0EE1
:10154800E82EFED7182FFCD7192FFAD700D0320E65
:101558000001B86F030E0101196F8A0E186F550E3E
:10156800E82EFED7182FFCD7192FFAD700D0320E45
:101578000001B819D8B4C3EF0AF0C5EF0AF061EF5B
:1015880009F021EF0CF05C0E0101056F000E066FEB
:10159800010E076F94EC1FF005C1FEF006C1FFF0C5
:1015A8005C0E0101106F000E116F010E126F010E1B
:1015B800136F6D0E146FFF0E156F71EC21F010C1D3
:1015C800FEF011C1FFF011EF0BF05C0E106F000E72
:1015D800116F010E126F090E136FF30E146FFF0EC9
:1015E800156F71EC21F010C1FEF011C1FFF028EF6A
:1015F8000BF05C0E106F000E116F010E126F090ECA
:10160800136FF70E146FFF0E156F71EC21F010C1F8
:10161800FEF011C1FFF028EF0BF00001B7510101F6
:10162800186F196B1951000AD8B41DEF0BF028EF89
:101638000BF01851000AD8B4FDEF0AF0010AD8B42B
:10164800E9EF0AF028EF0BF05C0E0101106F000EB5
:10165800116F020E126F010E136F910E146FFF0EB1
:10166800156F71EC21F010C1FEF011C1FFF05C0E96
:101678000101106F000E116F030E126F010E136F30
:10168800470E146FFF0E156F71EC21F010C1FEF0BC
:1016980011C1FFF05C0E0101106F000E116F040EF6
:1016A800126F010E136FE80E146FFF0E156F71ECB9
:1016B80021F010C1FEF011C1FFF0000E0001B86F5B
:1016C800DD0E0101006F000E016FB80E026F000EF3
:1016D800036FCAEC1AF000C1FEF001C1FFF000016F
:1016E800B851D8B47AEF0BF07CEF0BF064EF0BF045
:1016F800020E0101196F860E186F990EE82EFED79B
:10170800182FFCD7192FFAD7A2EF0BF0030EA2EC73
:1017180023F0F0C0FEF0F1C0FFF0010E0001B76F3A
:10172800B9EF0BF0070EA2EC23F0F0C0FEF0F1C009
:10173800FFF0000E0001B76FB9EF0BF00001B851D0
:101748000101186F196B1951000AD8B4AEEF0BF0EC
:10175800B9EF0BF01851310AD8B48AEF0BF0030A2D
:10176800D8B496EF0BF0B9EF0BF0300E0001B819B2
:10177800D8A4C1EF0BF0C3EF0BF0D2EF0BF05C0E67
:101788000101056F000E066F010E076F94EC1FF044
:1017980005C1FEF006C1FFF02BEF0CF0310EB819B1
:1017A800D8B4D9EF0BF0DBEF0BF011EF0CF0320EE1
:1017B800B819D8B4E2EF0BF0E4EF0BF011EF0CF02E
:1017C8005C0E0101056F000E066F010E076F94ECA9
:1017D8001FF005C1FEF006C1FFF05C0E0101106F9D
:1017E800000E116F010E126F010E136FFF0E146FB2
:1017F800FE0E156F71EC21F010C1FEF011C1FFF063
:10180800030E0101196F8A0E186F550EE82EFED7C8
:10181800182FFCD7192FFAD700D0330E0001B86F54
:10182800030E0101196F8A0E186F550EE82EFED7A8
:10183800182FFCD7192FFAD700D0330E0001B8198A
:10184800D8B429EF0CF02BEF0CF0C7EF0AF0040E18
:101858000001B519D8A433EF0CF035EF0CF09DEF6B
:101868000DF091EF0DF05C0E0101056F000E066F93
:10187800010E076F94EC1FF005C1FEF006C1FFF0E2
:101888005C0E0101106F000E116F010E126F010E38
:10189800136F760E146FFF0E156F71EC21F010C1E7
:1018A800FEF011C1FFF081EF0CF05C0E106F000E1E
:1018B800116F010E126F090E136FF30E146FFF0EE6
:1018C800156F71EC21F010C1FEF011C1FFF098EF17
:1018D8000CF05C0E106F000E116F010E126F090EE6
:1018E800136FF70E146FFF0E156F71EC21F010C116
:1018F800FEF011C1FFF098EF0CF00001B7510101A3
:10190800186F196B1951000AD8B48DEF0CF098EFC5
:101918000CF01851000AD8B46DEF0CF0010AD8B4D5
:1019280059EF0CF098EF0CF05C0E0101106F000EEF
:10193800116F020E126F010E136F910E146FFF0ECE
:10194800156F71EC21F010C1FEF011C1FFF05C0EB3
:101958000101106F000E116F030E126F010E136F4D
:10196800470E146FFF0E156F71EC21F010C1FEF0D9
:1019780011C1FFF05C0E0101106F000E116F040E13
:10198800126F010E136FE80E146FFF0E156F71ECD6
:1019980021F010C1FEF011C1FFF0000E0001B86F78
:1019A800DD0E0101006F000E016FB80E026F000E10
:1019B800036FCAEC1AF000C1FEF001C1FFF000018C
:1019C800B851D8B4EAEF0CF0ECEF0CF0D4EF0CF00F
:1019D800020E0101196F860E186F990EE82EFED7B8
:1019E800182FFCD7192FFAD712EF0DF0040EA2EC1E
:1019F80023F0F0C0FEF0F1C0FFF0010E0001B76F58
:101A080029EF0DF0080EA2EC23F0F0C0FEF0F1C0B3
:101A1800FFF0000E0001B76F29EF0DF00001B8517B
:101A28000101186F196B1951000AD8B41EEF0DF097
:101A380029EF0DF01851310AD8B4FAEF0CF0030A67
:101A4800D8B406EF0DF029EF0DF0300E0001B819EB
:101A5800D8A431EF0DF033EF0DF042EF0DF05C0E2E
:101A68000101056F000E066F010E076F94EC1FF061
:101A780005C1FEF006C1FFF029EF15F0310EB819C7
:101A8800D8B449EF0DF04BEF0DF081EF0DF0320EA9
:101A9800B819D8B452EF0DF054EF0DF081EF0DF0F6
:101AA8005C0E0101056F000E066F010E076F94ECC6
:101AB8001FF005C1FEF006C1FFF05C0E0101106FBA
:101AC800000E116F010E126F010E136FFF0E146FCF
:101AD800FE0E156F71EC21F010C1FEF011C1FFF080
:101AE800030E0101196F8A0E186F550EE82EFED7E6
:101AF800182FFCD7192FFAD700D0340E0001B86F71
:101B0800030E0101196F8A0E186F550EE82EFED7C5
:101B1800182FFCD7192FFAD700D0340E0001B819A6
:101B2800D8B499EF0DF09BEF0DF037EF0CF029EFDB
:101B380015F0040EB619D8A4A4EF0DF0A6EF0DF019
:101B480029EF15F01FEF15F05C0E0101056F000E6F
:101B5800066F010E076F94EC1FF005C1FEF006C179
:101B6800FFF05C0E0101106F000E116F010E126F75
:101B7800010E136FCB0E146FFE0E156F71EC21F072
:101B880010C1FEF011C1FFF05C0E0101106F000ED4
:101B9800116F020E126F010E136FBB0E146FFF0E42
:101BA800156F71EC21F010C1FEF011C1FFF05C0E51
:101BB8000101106F000E116F020E126F0B0E136FE2
:101BC800EE0E146FFF0E156F71EC21F010C1FEF0D0
:101BD80011C1FFF05C0E0101106F000E116F030EB2
:101BE800126F010E136F3C0E146FFF0E156F71EC20
:101BF80021F010C1FEF011C1FFF05C0E0101106F61
:101C0800000E116F030E126F0B0E136FE80E146F98
:101C1800FF0E156F71EC21F010C1FEF011C1FFF03D
:101C2800000E0001B86FDD0E0101006F000E016F9C
:101C3800B80E026F000E036FCAEC1AF000C1FEF076
:101C480001C1FFF00001B851D8B42DEF0EF02FEF0D
:101C58000EF017EF0EF0020E0101196F860E186FC5
:101C6800990EE82EFED7182FFCD7192FFAD797EF21
:101C78000FF05C0E0101056F000E066F010E076F75
:101C880094EC1FF005C1FEF006C1FFF05C0E0101E7
:101C9800106F000E116F010E126F010E136F760E8A
:101CA800146FFF0E156F71EC21F010C1FEF011C119
:101CB800FFF087EF0EF05C0E106F000E116F010E33
:101CC800126F090E136FF30E146FFF0E156F71EC80
:101CD80021F010C1FEF011C1FFF09EEF0EF05C0E76
:101CE800106F000E116F010E126F090E136FF70EB1
:101CF800146FFF0E156F71EC21F010C1FEF011C1C9
:101D0800FFF09EEF0EF00001B7510101186F196B3B
:101D18001951000AD8B493EF0EF09EEF0EF0185147
:101D2800000AD8B473EF0EF0010AD8B45FEF0EF0D2
:101D38009EEF0EF05C0E0101106F000E116F020E87
:101D4800126F010E136F910E146FFF0E156F71EC69
:101D580021F010C1FEF011C1FFF05C0E0101106FFF
:101D6800000E116F030E126F010E136F470E146FE2
:101D7800FF0E156F71EC21F010C1FEF011C1FFF0DC
:101D88005C0E0101106F000E116F040E126F010E30
:101D9800136FE80E146FFF0E156F71EC21F010C170
:101DA800FEF011C1FFF0000E0001B86FDD0E010159
:101DB800006F000E016FB80E026F000E036FCAECC1
:101DC8001AF000C1FEF001C1FFF00001B851D8B40B
:101DD800F0EF0EF0F2EF0EF0DAEF0EF0020E010166
:101DE800196F860E186F990EE82EFED7182FFCD79C
:101DF800192FFAD718EF0FF0040EA2EC23F0F0C059
:101E0800FEF0F1C0FFF0010E0001B76F2FEF0FF0E9
:101E1800080EA2EC23F0F0C0FEF0F1C0FFF0000EB7
:101E28000001B76F2FEF0FF00001B8510101186FD3
:101E3800196B1951000AD8B424EF0FF02FEF0FF0E7
:101E48001851310AD8B400EF0FF0030AD8B40CEFD8
:101E58000FF02FEF0FF0300E0001B819D8A437EFAC
:101E68000FF039EF0FF048EF0FF05C0E0101056F2E
:101E7800000E066F010E076F94EC1FF005C1FEF00F
:101E880006C1FFF0FDEF10F0310EB819D8B44FEFCE
:101E98000FF051EF0FF087EF0FF0320EB819D8B4EA
:101EA80058EF0FF05AEF0FF087EF0FF05C0E0101BB
:101EB800056F000E066F010E076F94EC1FF005C149
:101EC800FEF006C1FFF05C0E0101106F000E116FED
:101ED800010E126F010E136FFF0E146FFE0E156FB9
:101EE80071EC21F010C1FEF011C1FFF0030E0101E9
:101EF800196F8A0E186F550EE82EFED7182FFCD7CB
:101F0800192FFAD700D0310E0001B86F030E010166
:101F1800196F8A0E186F550EE82EFED7182FFCD7AA
:101F2800192FFAD700D0310E0001B819D8B49FEF95
:101F38000FF0A1EF0FF03DEF0EF0FDEF10F05C0E8B
:101F48000101056F000E066F010E076F94EC1FF07C
:101F580005C1FEF006C1FFF05C0E0101106F000E16
:101F6800116F010E126F010E136FE20E146FFF0E48
:101F7800156F71EC21F010C1FEF011C1FFF0EDEF0B
:101F88000FF05C0E106F000E116F010E126F090E2C
:101F9800136FF30E146FFF0E156F71EC21F010C163
:101FA800FEF011C1FFF004EF10F05C0E106F000E90
:101FB800116F010E126F090E136FF70E146FFF0EDB
:101FC800156F71EC21F010C1FEF011C1FFF004EFA4
:101FD80010F00001B7510101186F196B1951000A6F
:101FE800D8B4F9EF0FF004EF10F01851000AD8B484
:101FF800D9EF0FF0010AD8B4C5EF0FF004EF10F0D5
:102008005C0E0101106F000E116F020E126F010EAF
:10201800136FD30E146FFF0E156F71EC21F010C102
:10202800FEF011C1FFF05C0E0101106F000E116F80
:10203800030E126F010E136F7F0E146FFF0E156FD4
:1020480071EC21F010C1FEF011C1FFF05C0E01012E
:10205800106F000E116F040E126F010E136FE80E51
:10206800146FFF0E156F71EC21F010C1FEF011C155
:10207800FFF0000E0001B86FDD0E0101006F000EC9
:10208800016FB80E026F000E036FCAEC1AF000C1A0
:10209800FEF001C1FFF00001B851D8B456EF10F0BE
:1020A80058EF10F040EF10F0020E0101196F860E84
:1020B800186F990EE82EFED7182FFCD7192FFAD7CC
:1020C8007EEF10F0090EA2EC23F0F0C0FEF0F1C094
:1020D800FFF0010E0001B76F95EF10F0000EA2ECB3
:1020E80023F0F0C0FEF0F1C0FFF0000E0001B76F62
:1020F80095EF10F00001B8510101186F196B1951D3
:10210800000AD8B48AEF10F095EF10F01851310A90
:10211800D8B466EF10F0030AD8B472EF10F095EF58
:1021280010F0300E0001B819D8A49DEF10F09FEF01
:1021380010F0AEEF10F05C0E0101056F000E066F97
:10214800010E076F94EC1FF005C1FEF006C1FFF009
:10215800B1EF14F0310EB819D8B4B5EF10F0B7EFED
:1021680010F0EDEF10F0320EB819D8B4BEEF10F041
:10217800C0EF10F0EDEF10F05C0E0101056F000EDE
:10218800066F010E076F94EC1FF005C1FEF006C143
:10219800FFF05C0E0101106F000E116F010E126F3F
:1021A800010E136FFF0E146FFE0E156F71EC21F008
:1021B80010C1FEF011C1FFF0030E0101196F8A0E64
:1021C800186F550EE82EFED7182FFCD7192FFAD7FF
:1021D80000D0320E0001B86F030E0101196F8A0E8C
:1021E800186F550EE82EFED7182FFCD7192FFAD7DF
:1021F80000D0320E0001B819D8B405EF11F007EF7E
:1022080011F0A3EF0FF0B1EF14F05C0E0101056FB0
:10221800000E066F010E076F94EC1FF005C1FEF06B
:1022280006C1FFF05C0E0101106F000E116F010E68
:10223800126F010E136F590E146FFE0E156F71ECAD
:1022480021F010C1FEF011C1FFF05C0E0101106F0A
:10225800000E116F020E126F010E136F510E146FE4
:10226800FF0E156F71EC21F010C1FEF011C1FFF0E7
:102278005C0E0101106F000E116F030E126F010E3C
:10228800136F7D0E146FFE0E156F71EC21F010C1E7
:10229800FEF011C1FFF05C0E0101106F000E116F0E
:1022A800040E126F010E136FE80E146FFF0E156FF8
:1022B80071EC21F010C1FEF011C1FFF0000E000119
:1022C800B86FDD0E0101006F000E016FB80E026FCE
:1022D800000E036FCAEC1AF000C1FEF001C1FFF056
:1022E8000001B851D8B47BEF11F07DEF11F065EF24
:1022F80011F0020E0101196F860E186F990EE82E63
:10230800FED7182FFCD7192FFAD75C0E0101056FDD
:10231800000E066F010E076F94EC1FF005C1FEF06A
:1023280006C1FFF01CEF13F05C0E0101056F000EF3
:10233800066F010E076F94EC1FF005C1FEF006C191
:10234800FFF05C0E0101106F000E116F010E126F8D
:10235800010E136FBD0E146FFE0E156F71EC21F098
:1023680010C1FEF011C1FFF0E2EF11F05C0E106F2A
:10237800000E116F010E126F0E0E136FF30E146F15
:10238800FF0E156F71EC21F010C1FEF011C1FFF0C6
:10239800F9EF11F05C0E106F000E116F010E126F45
:1023A8000E0E136FF70E146FFF0E156F71EC21F000
:1023B80010C1FEF011C1FFF0F9EF11F00001B751A3
:1023C8000101186F196B1951000AD8B4EEEF11F01A
:1023D800F9EF11F01851000AD8B4CEEF11F0010A44
:1023E800D8B4BAEF11F0F9EF11F05C0E0101106FDB
:1023F800000E116F020E126F010E136FE40E146FB0
:10240800FD0E156F71EC21F010C1FEF011C1FFF047
:102418005C0E0101106F000E116F030E126F010E9A
:10242800136FB90E146FFD0E156F71EC21F010C10A
:10243800FEF011C1FFF05C0E0101106F000E116F6C
:10244800040E126F010E136FE80E146FFF0E156F56
:1024580071EC21F010C1FEF011C1FFF0000E000177
:10246800B86FDD0E0101006F000E016FB80E026F2C
:10247800000E036FCAEC1AF000C1FEF001C1FFF0B4
:102488000001B851D8B44BEF12F04DEF12F035EF10
:1024980012F0020E0101196F860E186F990EE82EC0
:1024A800FED7182FFCD7192FFAD79DEF12F00A0E76
:1024B800A2EC23F0F0C0FEF0F1C0FFF0030E010122
:1024C800196F8A0E186F550EE82EFED7182FFCD7F5
:1024D800192FFAD700D00001B451A2EC23F0F0C0B4
:1024E800FEF0F1C0FFF0030E0101196F8A0E186F9C
:1024F800550EE82EFED7182FFCD7192FFAD700D083
:10250800B70E0001F06F000EF16F94EC23F0F0C0ED
:10251800FEF0F1C0FFF0B4EF12F00B0EA2EC23F0C6
:10252800F0C0FEF0F1C0FFF0000E0001B76FB4EF8D
:1025380012F00001B8510101186F196B1951000A06
:10254800D8B4A9EF12F0B4EF12F01851310AD8B488
:102558005BEF12F0030AD8B491EF12F0B4EF12F067
:10256800300E0001B819D8A4BCEF12F0BEEF12F07B
:10257800CDEF12F05C0E0101056F000E066F010E23
:10258800076F94EC1FF005C1FEF006C1FFF026EFBF
:1025980013F0310EB819D8B4D4EF12F0D6EF12F008
:1025A8000CEF13F0320EB819D8B4DDEF12F0DFEFEC
:1025B80012F00CEF13F05C0E0101056F000E066FB0
:1025C800010E076F94EC1FF005C1FEF006C1FFF085
:1025D8005C0E0101106F000E116F010E126F010EDB
:1025E800136FFF0E146FFE0E156F71EC21F010C102
:1025F800FEF011C1FFF0030E0101196F8A0E186F6A
:10260800550EE82EFED7182FFCD7192FFAD700D071
:10261800310E0001B86F030E0101196F8A0E186F91
:10262800550EE82EFED7182FFCD7192FFAD700D051
:10263800310E0001B819D8B424EF13F026EF13F0C7
:1026480098EF11F0320E0001B819D8A42EEF13F04C
:1026580030EF13F043EF14F05C0E0101056F000E2C
:10266800066F010E076F94EC1FF005C1FEF006C15E
:10267800FFF05C0E0101106F000E116F020E126F59
:10268800010E136F0D0E146FFE0E156F71EC21F015
:1026980010C1FEF011C1FFF0000E0001B86FDD0E91
:1026A8000101006F000E016FB80E026F000E036F7C
:1026B800CAEC1AF000C1FEF001C1FFF00001B851E8
:1026C800D8B469EF13F06BEF13F053EF13F0020E69
:1026D8000101196F860E186F990EE82EFED7182F74
:1026E800FCD7192FFAD75C0E0101056F000E066F93
:1026F800100E076F94EC1FF005C1FEF006C1FFF045
:102708005C0E0101056F000E066F100E076F94EC4A
:102718001FF005C1FEF006C1FFF05C0E0101056F58
:10272800000E066FB8C007F153EC1FF005C1FEF0AC
:1027380006C1FFF00001B851D00F0A0DF3CFB4F075
:10274800000EB86FDD0E0101006F000E016FB80EAC
:10275800026F000E036FCAEC1AF000C1FEF001C14F
:10276800FFF00001B851D8B4BCEF13F0BEEF13F07E
:10277800A6EF13F0020E0101196F860E186F990E5D
:10278800E82EFED7182FFCD7192FFAD75C0E0101B7
:10279800056F000E066FB8C007F153EC1FF005C1B6
:1027A800FEF006C1FFF00001B851D00FB427230E88
:1027B800B465E1EF13F0E3EF13F033EF14F0230EF9
:1027C800B46F5C0E0101056F000E066F100E076FE7
:1027D80094EC1FF005C1FEF006C1FFF05C0E01018C
:1027E800056F000E066F100E076F94EC1FF005C101
:1027F800FEF006C1FFF05C0E0101056F000E066FCA
:10280800B4C0F0F00001F16B000EF36F0A0EF26F26
:10281800C5EC1BF00001F051300F0101076F53ECBC
:102828001FF005C1FEF006C1FFF05C0E0101056F47
:10283800000E066FB4C0F0F00001F16B000EF36FEC
:102848000A0EF26FE1EC1CF00001F051300F0101AB
:10285800076F53EC1FF005C1FEF006C1FFF0330E01
:102868000001B86F060E0101196F130E186FAD0E37
:10287800E82EFED7182FFCD7192FFAD700D0300E24
:102888000001B819D8A44BEF14F04DEF14F05CEF29
:1028980014F05C0E0101056F000E066F010E076F44
:1028A80094EC1FF005C1FEF006C1FFF0BBEF14F079
:1028B800310EB819D8B463EF14F065EF14F0A4EF33
:1028C80014F0320EB819D8B46CEF14F06EEF14F09F
:1028D800A4EF14F0330EB819D8B475EF14F077EFED
:1028E80014F0A4EF14F05C0E0101056F000E066FE2
:1028F800010E076F94EC1FF005C1FEF006C1FFF052
:102908005C0E0101106F000E116F010E126F010EA7
:10291800136FFF0E146FFE0E156F71EC21F010C1CE
:10292800FEF011C1FFF0030E0101196F8A0E186F36
:10293800550EE82EFED7182FFCD7192FFAD700D03E
:10294800030E0101196F8A0E186F550EE82EFED777
:10295800182FFCD7192FFAD700D0330E0001B81959
:10296800D8B4B9EF14F0BBEF14F009EF11F0300E42
:102978000001B819D8A4C3EF14F0C5EF14F0C7EFDD
:1029880014F033EF0DF0310EB819D8B4CEEF14F0BF
:10299800D0EF14F00FEF15F0320EB819D8B4D7EF06
:1029A80014F0D9EF14F00FEF15F0330EB819D8B4AE
:1029B800E0EF14F0E2EF14F00FEF15F05C0E0101F8
:1029C800056F000E066F010E076F94EC1FF005C12E
:1029D800FEF006C1FFF05C0E0101106F000E116FD2
:1029E800010E126F010E136FFF0E146FFE0E156F9E
:1029F80071EC21F010C1FEF011C1FFF0030E0101CE
:102A0800196F8A0E186F550EE82EFED7182FFCD7AF
:102A1800192FFAD700D0340E0001B86F030E010148
:102A2800196F8A0E186F550EE82EFED7182FFCD78F
:102A3800192FFAD700D0340E0001B819D8B427EFEF
:102A480015F029EF15F0A8EF0DF0040E0001B519E7
:102A5800D8B431EF15F033EF15F08EEF06F0040E11
:102A6800B619D8B43AEF15F03CEF15F08EEF06F032
:102A780013EF06F007EF00F00600FACF29F0FBCFBE
:102A88002AF0D9CF2BF0DACF2CF0F3CF2DF0F4CFFA
:102A98002EF0F6CF2FF0F7CF30F0F8CF31F0F5CF9A
:102AA80032F0F2A85AEF15F05CEF15F065EF15F06B
:102AB800F2A261EF15F063EF15F065EF15F010EC79
:102AC80024F0F0A66AEF15F06CEF15F075EF15F02D
:102AD800F0A071EF15F073EF15F075EF15F00EEC2F
:102AE80024F0F0A87AEF15F07CEF15F085EF15F0DB
:102AF800F0A281EF15F083EF15F085EF15F00CECDF
:102B080024F0F2A68AEF15F08CEF15F0A7EF15F078
:102B1800F2A091EF15F093EF15F0A7EF15F081A84B
:102B280098EF15F09AEF15F0A7EF15F05B04D8A40D
:102B3800A0EF15F0A2EF15F0A7EF15F0000E5B6EF1
:102B4800000ED6EC23F0F2A6ACEF15F0AEEF15F0C0
:102B5800C9EF15F0F2A0B3EF15F0B5EF15F0C9EF16
:102B680015F081BABAEF15F0BCEF15F0C9EF15F002
:102B78005B50D8A4C2EF15F0C4EF15F0C9EF15F0FB
:102B8800010E5B6E010ED6EC23F0F2A6CEEF15F027
:102B9800D0EF15F0EBEF15F0F2A0D5EF15F0D7EF69
:102BA80015F0EBEF15F081AADCEF15F0DEEF15F06C
:102BB800EBEF15F05A04D8A4E4EF15F0E6EF15F0A2
:102BC800EBEF15F0000E5A6E000EC9EC23F0F2A6DA
:102BD800F0EF15F0F2EF15F00DEF16F0F2A0F7EFA9
:102BE80015F0F9EF15F00DEF16F081BAFEEF15F0BC
:102BF80000EF16F00DEF16F05A50D8A406EF16F0B5
:102C080008EF16F00DEF16F0010E5A6E010EC9EC22
:102C180023F0F2A612EF16F014EF16F02FEF16F0CD
:102C2800F2A019EF16F01BEF16F02FEF16F081AC9B
:102C380020EF16F022EF16F02FEF16F05904D8A463
:102C480028EF16F02AEF16F02FEF16F0000E596E47
:102C5800000EBCEC23F0F2A634EF16F036EF16F0B7
:102C680051EF16F0F2A03BEF16F03DEF16F051EFE2
:102C780016F081BC42EF16F044EF16F051EF16F053
:102C88005950D8A44AEF16F04CEF16F051EF16F051
:102C9800010E596E010EBCEC23F0F2A656EF16F0A9
:102CA80058EF16F073EF16F0F2A05DEF16F05FEF35
:102CB80016F073EF16F081AE64EF16F066EF16F0BB
:102CC80073EF16F05804D8A46CEF16F06EEF16F0F8
:102CD80073EF16F0000E586E000EAFEC23F0F2A65C
:102CE80078EF16F07AEF16F095EF16F0F2A07FEF76
:102CF80016F081EF16F095EF16F081BE86EF16F00C
:102D080088EF16F095EF16F05850D8A48EEF16F00D
:102D180090EF16F095EF16F0010E586E010EAFEC1D
:102D280023F09DAC9AEF16F09CEF16F0A5EF16F085
:102D38009EACA1EF16F0A3EF16F0A5EF16F018EC75
:102D480024F0F2AAAAEF16F0ACEF16F0B5EF16F0E1
:102D5800F2A4B1EF16F0B3EF16F0B5EF16F0FFECF2
:102D680022F09DA0BAEF16F0BCEF16F0C5EF16F0F2
:102D78009EA0C1EF16F0C3EF16F0C5EF16F0F8EC01
:102D880023F09DA2CAEF16F0CCEF16F0D5EF16F09F
:102D98009EA2D1EF16F0D3EF16F0D5EF16F002ECA5
:102DA80024F0A0A2DAEF16F0DCEF16F0E5EF16F04B
:102DB800A1A2E1EF16F0E3EF16F0E5EF16F0EDEC67
:102DC80023F09DA4EAEF16F0ECEF16F0F5EF16F0FD
:102DD8009EA4F1EF16F0F3EF16F0F5EF16F016ECEF
:102DE80024F0A0A0FAEF16F0FCEF16F005EF17F0AC
:102DF800A1A001EF17F003EF17F005EF17F014EC9F
:102E080024F09DA40AEF17F00CEF17F015EF17F058
:102E18009EA411EF17F013EF17F015EF17F012EC4F
:102E280024F09DA81AEF17F01CEF17F025EF17F004
:102E38009EA821EF17F023EF17F025EF17F006EC07
:102E480024F09DAA2AEF17F02CEF17F035EF17F0B2
:102E58009EAA31EF17F033EF17F035EF17F01AECA1
:102E680024F09DA63AEF17F03CEF17F045EF17F066
:102E78009EA641EF17F043EF17F045EF17F01BEC54
:102E880024F09DA64AEF17F04CEF17F055EF17F016
:102E98009EA651EF17F053EF17F055EF17F008EC17
:102EA80024F0A0A65AEF17F05CEF17F065EF17F0C3
:102EB800A1A661EF17F063EF17F065EF17F00AECC2
:102EC80024F032C0F5FF31C0F8FF30C0F7FF2FC043
:102ED800F6FF2EC0F4FF2DC0F3FF2CC0DAFF2BC085
:102EE800D9FF2AC0FBFF29C0FAFF64921100010133
:102EF8000A510B11D8A483EF17F085EF17F08BEF69
:102F080017F0000E0F6F000E0E6F28EF18F0010E6D
:102F18000A250001FB6F000E01010B210001FC6F67
:102F2800DCEC21F00AC1FBF00BC1FCF0DCEC21F079
:102F3800000E0101106F10510A250C6F000E0B21B5
:102F48000D6F020E0C250001FB6F000E01010D2113
:102F58000001FC6FDCEC21F0FBC00EF1FCC00FF1AE
:102F68000101102B030E1065BCEF17F0BEEF17F030
:102F78009FEF17F01A0E01010C6FF80EE82EFED71E
:102F88000C2FFCD700F00AC105F10BC106F1380E71
:102F98000101076F94EC1FF0070E01010C6F7D0E05
:102FA800E82EFED70C2FFCD70AC105F10BC106F19C
:102FB800380E0101076F94EC1FF0C30E01010C6F6E
:102FC800CD0EE82EFED70C2FFCD70AC105F10BC198
:102FD80006F1380E0101076F94EC1FF00AC105F1E4
:102FE8000BC106F1010E0101076F94EC1FF00AC135
:102FF80005F10BC106F1020E0101076F94EC1FF0F9
:103008000AC105F10BC106F1060E0101076F94EC28
:103018001FF00AC105F10BC106F10C0E0101076F83
:1030280094EC1FF00AC105F10BC106F1280E01014D
:10303800076F94EC1FF00AC105F10BC106F1800E71
:103048000101076F94EC1FF00EC10AF10FC10BF1DB
:103058001200000E0001F96F010EF86FF051F11126
:10306800D8B439EF18F03BEF18F04CEF18F0F0C077
:10307800D9FFF1C0DAFFDF30E832E832070BF26F30
:10308800070EF2654AEF18F04CEF18F0B3EF18F09E
:10309800000EF96F000EF86FD4EF18F0F0C0D9FFEA
:1030A800F1C0DAFFDF30E832E832070BF26F010EC9
:1030B800F36FF22B62EF18F0D890F337F22F60EF2E
:1030C80018F00001F351FF0AF46FF0C0D9FFF1C006
:1030D800DAFFDF50070BF56FF551020DCD0EF32423
:1030E800D96E000EF420DA6EDECFF6F0DDCFF7F001
:1030F800F6C0D9FFF7C0DAFFF451DF16D4EF18F0A5
:10310800F0C0D9FFF1C0DAFFDF30E832E832070B50
:10311800F26F010EF36FF22B94EF18F0D890F3379B
:10312800F22F92EF18F0F0C0D9FFF1C0DAFFDF50AC
:10313800070B0001F46FF451020DCD0EF324D96E84
:10314800000EF420DA6EDECFF5F0DDCFF6F0F5C034
:10315800D9FFF6C0DAFFF351DF12D4EF18F0F0C050
:10316800D9FFF1C0DAFFDFBCBCEF18F0BFEF18F0F1
:10317800010EC0EF18F0000EF26FF36BF351000A66
:10318800D8B4C9EF18F04CEF18F0F251000AD8B4CF
:1031980052EF18F0010AD8B484EF18F04CEF18F089
:1031A800F8C0F0F0F9C0F1F0120001010451051166
:1031B800D8A4E1EF18F0E3EF18F0E5EF18F080EF8E
:1031C80019F0C69A04C1D9FF05C1DAFFDF50000122
:1031D800FD6FC650FD19F00BFD19C66E04C1D9FF6D
:1031E80005C1DAFFDF50D8B4FCEF18F0FEEF18F095
:1031F80024EF19F004C1D9FF05C1DAFFDE04D8B401
:1032080008EF19F00AEF19F024EF19F004C1D9FFFB
:1032180005C1DAFF020EDE18D8B415EF19F017EF62
:1032280019F024EF19F004C1D9FF05C1DAFF030E24
:10323800DE18D8A422EF19F024EF19F028EF19F0BE
:103248001CEC23F048EF19F004C1D9FF05C1DAFFDF
:10325800040EDE18D8B433EF19F035EF19F042EF49
:1032680019F004C1D9FF05C1DAFF050EDE18D8A48C
:1032780040EF19F042EF19F048EF19F004C1FAF0E5
:1032880005C1FBF0CAEC20F0010120EE01F0045169
:10329800D9260551DA22DF50030B0001FD6FFD3BF3
:1032A800C650FD19EF0BFD19C66E010120EE01F0A5
:1032B8000451D9260551DA22DF38030B0001FD6FCE
:1032C800FD3BFD47FD47C750FD19BF0BFD19C76EF4
:1032D800010120EE01F00451D9260551DA22DF3030
:1032E800E832030B0001FD6FFD33FD33C750FD19B4
:1032F8007F0BFD19C76EC68A1200000E0001FA6F17
:10330800000EF96FF051F111D8B48DEF19F08FEF6D
:1033180019F0A0EF19F0F0C0D9FFF1C0DAFFDF30E3
:10332800E832E832070BF36F070EF3659EEF19F0EA
:10333800A0EF19F00DEF1AF0000EFA6F010EF96FF9
:1033480022EF1AF0F0C0D9FFF1C0DAFFDF30E8321F
:10335800E832070BF36F010EF46FF32BB6EF19F099
:10336800D890F437F32FB4EF19F00001F451FF0AA5
:10337800F56FF0C0D9FFF1C0DAFFDF50070BF66F29
:10338800F651020DC30EF324D96E000EF420DA6E46
:10339800DECFF7F0DDCFF8F0F7C0D9FFF8C0DAFFDD
:1033A800F551DF1622EF1AF0F0C0D9FFF1C0DAFFAD
:1033B800DF30E832E832070BF36F010EF46FF32BBE
:1033C800E8EF19F0D890F437F32FE6EF19F0F0C0D2
:1033D800D9FFF1C0DAFFDF50070B0001F56FF55197
:1033E800020DC30EF324D96E000EF420DA6EDECF80
:1033F800F6F0DDCFF7F0F6C0D9FFF7C0DAFFF451E9
:10340800DF1222EF1AF0000EFA6F000EF96F22EFAA
:103418001AF0F251F36FF46BF451000AD8B417EFB5
:103428001AF007EF1AF0F351000AD8B4A6EF19F012
:10343800010AD8B4D8EF19F007EF1AF0F9C0F0F084
:10344800FAC0F1F01200000E0B6E000E0A6E015069
:103458000210D8B432EF1AF034EF1AF045EF1AF030
:1034680001C0D9FF02C0DAFFDF30E832E832070BCB
:10347800046E070E046443EF1AF045EF1AF0B0EF3C
:103488001AF0000E0B6E010E0A6EC5EF1AF001C09D
:10349800D9FF02C0DAFFDF30E832E832070B046EEA
:1034A800010E056E042A5BEF1AF0D8900536042E3B
:1034B80059EF1AF00550FF0A066E01C0D9FF02C085
:1034C800DAFFDF50070B076E0750020DC30EF32417
:1034D800D96E000EF420DA6EDECF08F0DDCF09F0E9
:1034E80008C0D9FF09C0DAFF0650DF16C5EF1AF089
:1034F80001C0D9FF02C0DAFFDF30E832E832070B3B
:10350800046E010E056E042A8CEF1AF0D890053669
:10351800042E8AEF1AF001C0D9FF02C0DAFFDF508B
:10352800070B066E0650020DC30EF324D96E000E6B
:10353800F420DA6EDECF07F0DDCF08F007C0D9FF40
:1035480008C0DAFF0550DF12C5EF1AF0000E0B6E47
:10355800000E0A6EC5EF1AF00350046E056A055096
:10356800000AD8B4BAEF1AF0AAEF1AF00450000A09
:10357800D8B44BEF1AF0010AD8B47CEF1AF0AAEFCE
:103588001AF00AC001F00BC002F01200010100514C
:103598000111D8A4D2EF1AF0D4EF1AF0DAEF1AF02A
:1035A800000E056F000E046F59EF1BF0000E066F3A
:1035B800000E076F000E076F000E086F08510025F8
:1035C8000001F06F0101000E01210001F16F000EF2
:1035D800F26F81EC19F00101082B030E0865F7EF73
:1035E8001AF0F9EF1AF0E2EF1AF00751002500017E
:1035F800F06F0101000E01210001F16F010EF26F61
:1036080081EC19F0000E0101086F08510025000136
:10361800FC6F000E010101210001FD6F040EFC2565
:10362800F06F000EFD21F16F060EF26F010EF36FC1
:103638005EEC1BF001010651D8B425EF1BF027EF13
:103648001BF042EF1BF00751040DA90EF3240001F3
:10365800FC6FFD0EF420FD6F010108510001FC27ED
:10366800000EFD23FCC0F6FFFDC0F7FFF86A02C19B
:10367800D9FF03C1DAFF0800F5CFDFFF0101082BEE
:10368800030E08654AEF1BF04CEF1BF009EF1BF027
:10369800072B030E076553EF1BF055EF1BF0E0EF08
:1036A8001AF0000E056F010E046F04C100F105C188
:1036B80001F11200000E0001FB6F010EFA6FF051CC
:1036C800F111D8B46AEF1BF06CEF1BF086EF1BF01A
:1036D800F251F311D8B473EF1BF075EF1BF086EFBE
:1036E8001BF0F0C0D9FFF1C0DAFFDF30E832E83272
:1036F800070BF46F070EF46584EF1BF086EF1BF0E1
:103708008CEF1BF0000EFB6F000EFA6FC0EF1BF082
:10371800F0C0D9FFF1C0DAFFDF50070BF46FF451A6
:10372800020DB90EF324D96E000EF420DA6EDECF46
:10373800F5F0DDCFF6F0F5C0D9FFF6C0DAFFDF50BF
:10374800F76FF0C0D9FFF1C0DAFFDF30E832E832B6
:10375800070BF86F010EF96FF82BB5EF1BF0D89037
:10376800F937F82FB3EF1BF00001F951F715F2C044
:10377800D9FFF3C0DAFFDF6EFAC0F0F0FBC0F1F05A
:103788001200000E0001F56FF3BFCFEF1BF0CDEF75
:103798001BF0D5EF1BF0F26DF31FD8B0F32B010E21
:1037A800F56FF1BFDCEF1BF0DAEF1BF0E2EF1BF077
:1037B800F06DF11FD8B0F12B010EF51B000EF76F5D
:1037C800000EF66FF251F311D8B4EDEF1BF0EFEFE6
:1037D8001BF017EF1CF0010EF46FF7EF1BF0D890F9
:1037E800F237F337F42BF3AFFCEF1BF0FEEF1BF0CF
:1037F800F3EF1BF0D890F637F737F251F05DF3513D
:10380800F159D8A00AEF1CF00CEF1CF011EF1CF0D6
:10381800F251F05FF351F15BF681D890F333F23354
:10382800F42FFEEF1BF0F551D8B41DEF1CF01FEF7D
:103838001CF023EF1CF0F66DF71FD8B0F72BF6C07D
:10384800F0F0F7C0F1F01200000120EE05F0F051A1
:10385800D926F151DA22DFB434EF1CF036EF1CF030
:1038680059EF1CF0D59A20EE05F0F051D926F15108
:10387800DA22DFA242EF1CF044EF1CF047EF1CF005
:10388800D58885EF1CF020EE05F0F051D926F151CE
:10389800DA22DFB252EF1CF054EF1CF057EF1CF0A5
:1038A800D59885EF1CF085EF1CF020EE05F0F0515F
:1038B800D926F151DA22DFA464EF1CF066EF1CF080
:1038C80085EF1CF0D58A20EE05F0F051D926F1518C
:1038D800DA22DFA272EF1CF074EF1CF077EF1CF015
:1038E800D58885EF1CF020EE05F0F051D926F1516E
:1038F800DA22DFB282EF1CF084EF1CF057EF1CF0E5
:10390800D5981200000E0001F86F010EF76FF35101
:10391800F411D8A492EF1CF094EF1CF09AEF1CF06D
:10392800000EF86F000EF76FDCEF1CF0D59EF3C0A9
:10393800F0F0F4C0F1F00FEC22F0F3C0F0F0F4C0B6
:10394800F1F028EC1CF0F3C0F0F0F4C0F1F0DFEC7B
:1039580022F0000120EE03F0F351D926F451DA22C7
:10396800DECFF5F0DDCFF6F0F6C0F5F0F66BF551E9
:10397800D76E20EE03F0F351D926F451DA22DF5046
:10398800D66E20EE03F0F351D926F451DA22DECFB9
:1039980039F0DDCF3AF0F28AF294F3C0D9FFF4C0DF
:1039A800DAFFDECF3BF0DDCF3CF0F28EF28CD58E25
:1039B800F7C0F3F0F8C0F4F01200000E0001F56F44
:1039C800F1BFEBEF1CF0E9EF1CF0F1EF1CF0F06D2C
:1039D800F11FD8B0F12B010EF56FF3BFF8EF1CF013
:1039E800F6EF1CF0FCEF1CF0F26DF31FD8B0F32BD0
:1039F800F251F311D8B403EF1DF005EF1DF029EFD4
:103A08001DF0010EF46F0DEF1DF0D890F237F3376B
:103A1800F42BF3AF12EF1DF014EF1DF009EF1DF0BA
:103A2800F251F05DF351F159D8A01DEF1DF01FEFD1
:103A38001DF023EF1DF0F251F05FF351F15BD890C8
:103A4800F333F233F42F14EF1DF0F551D8B42FEF00
:103A58001DF031EF1DF035EF1DF0F06DF11FD8B0FE
:103A6800F12BF0C0F0F0F1C0F1F012000001FB51B1
:103A7800FC11D8A442EF1DF044EF1DF04BEF1DF0F0
:103A8800000E0101016F000E006F8BEF1DF04EC09C
:103A980002F1FBC0D9FFFCC0DAFFDF50070BFD6F56
:103AA800010102510001FD19F80BFD190101026F16
:103AB800FBC0D9FFFCC0DAFFDF30E832E832070B81
:103AC8000001FD6FFD47FD47FD470101025100015F
:103AD800FD19C70BFD190101026F029DFBC0D9FF3B
:103AE800FCC0DAFF0001DFAC03D00101028F02D075
:103AF8000101029F020E0001F06F010EF16F010E2D
:103B0800F26F81EC19F0F0C000F1F1C001F100C1D1
:103B1800FBF001C1FCF01200010102510311D8A40D
:103B280098EF1DF09AEF1DF0A0EF1DF0000E056F45
:103B3800000E046FDDEF1DF04FC006F102C1D9FF82
:103B480003C1DAFFDF50070B0001FD6F01010651C9
:103B58000001FD19F80BFD190101066F02C1D9FF1B
:103B680003C1DAFFDF30E832E832070B0001FD6FEE
:103B7800FD47FD47FD47010106510001FD19C70B2F
:103B8800FD190101066F069D02C1D9FF03C1DAFFC5
:103B9800DFAC02D0068F02D00101069F060E00019D
:103BA800FB6F010EFC6FDCEC21F0FBC004F1FCC0E4
:103BB80005F104C102F105C103F1120001010D076D
:103BC80012EF1EF00AC105F10BC106F10D51800F6D
:103BD800076F94EC1FF02FEF1EF00AC105F10BC11F
:103BE80006F10D51C00F076F94EC1FF02FEF1EF078
:103BF8000AC105F10BC106F10D51940F076F94EC42
:103C08001FF02FEF1EF00AC105F10BC106F10D518F
:103C1800D40F076F94EC1FF02FEF1EF00C510E6FAE
:103C28000F6B0F51000AD8B41CEF1EF02FEF1EF0D7
:103C38000E51010AD8B4E6EF1DF0030AD8B4F1EF2B
:103C48001DF0010AD8B4FCEF1DF0070AD8B407EF3D
:103C58001EF02FEF1EF012001C065FEF1EF019C0B9
:103C680014F01AC015F01C50800F166E15EC20F0D9
:103C78007CEF1EF019C014F01AC015F01C50C00FCC
:103C8800166E15EC20F07CEF1EF019C014F01AC067
:103C980015F01C50940F166E15EC20F07CEF1EF0FA
:103CA80019C014F01AC015F01C50D40F166E15EC7C
:103CB80020F07CEF1EF01B501D6E1E6A1E50000A7D
:103CC800D8B469EF1EF07CEF1EF01D50010AD8B47D
:103CD80033EF1EF0030AD8B43EEF1EF0010AD8B441
:103CE80049EF1EF0070AD8B454EF1EF07CEF1EF01F
:103CF8001200010102510311D8A485EF1EF087EFCD
:103D08001EF08DEF1EF0000E076F000E066FC4EF59
:103D18001EF0000E086F000E086F08510225000102
:103D2800FB6F0101000E03210001FC6FDCEC21F0A8
:103D3800FBC006F1FCC007F1010108510225046F20
:103D4800000E0321056F040E04250001FB6F000E11
:103D5800010105210001FC6FDCEC21F0FBC006F13C
:103D6800FCC007F10101082B030E0865BEEF1EF029
:103D7800C0EF1EF091EF1EF0000E076F010E066FE8
:103D880006C102F107C103F11200000E01010F6F15
:103D9800010E0E6F0A510B11D8B4D5EF1EF0D7EFF4
:103DA8001EF0E0EF1EF00C510D11D8A4DEEF1EF04E
:103DB800E0EF1EF0FBEF1EF0000E0F6F000E0E6F0F
:103DC8000AEF1FF00AC105F10BC106F10CC1F6FF9D
:103DD8000DC1F7FFF86A0800F5CF07F153EC1FF0A3
:103DE80005C10EF106C10FF101010C4B0D2B0CC1E1
:103DF800F6FF0DC1F7FFF86A0800F5500009D8A4CE
:103E080008EF1FF00AEF1FF0E6EF1EF00EC10AF1EF
:103E18000FC10BF11200000E1E6E010E1D6E19501F
:103E28001A10D8B41AEF1FF01CEF1FF025EF1FF07F
:103E38001B501C10D8A423EF1FF025EF1FF03FEFF5
:103E48001FF0000E1E6E000E1D6E4EEF1FF019C003
:103E580014F01AC015F01BC0F6FF1CC0F7FFF86A73
:103E68000800F5CF16F052EC20F014C01DF015C074
:103E78001EF01B4A1C2A1BC0F6FF1CC0F7FFF86A7D
:103E88000800F5500009D8A44CEF1FF04EEF1FF0C2
:103E98002BEF1FF01DC019F01EC01AF0120001010F
:103EA80005510611D8A45BEF1FF05DEF1FF063EF1B
:103EB8001FF0000E096F000E086F8FEF1FF005C18D
:103EC800F0F006C1F1F0010E0001F26F81EC19F07B
:103ED800F0C008F1F1C009F105C1FBF006C1FCF022
:103EE800010107390F0B0001FD6F3AEC21F005C104
:103EF800FBF006C1FCF054EC23F005C1FBF006C151
:103F0800FCF007C1FDF03AEC21F005C1FBF006C159
:103F1800FCF054EC23F008C105F109C106F11200C8
:103F2800010105510611D8A49CEF1FF09EEF1FF068
:103F3800A4EF1FF0000E096F000E086FD0EF1FF0FE
:103F480005C1F0F006C1F1F0000E0001F26F81EC3E
:103F580019F0F0C008F1F1C009F105C1FBF006C184
:103F6800FCF0010107390F0B0001FD6F3AEC21F05D
:103F780005C1FBF006C1FCF054EC23F005C1FBF0D1
:103F880006C1FCF007C1FDF03AEC21F005C1FBF0D9
:103F980006C1FCF054EC23F008C105F109C106F193
:103FA8001200472A020E4718D8A4DDEF1FF0DFEFF2
:103FB8001FF014EF20F0040E0001B519D8A4E7EFA4
:103FC8001FF0E9EF1FF014EF20F05C0E146E000EE6
:103FD800156E010E166E15EC20F014C0FEF015C01B
:103FE800FFF05C0E1F6E000E206E020E216E010E99
:103FF800226E9F0E236EFE0E246EA7EC21F01FC0CA
:10400800FEF020C0FFF0060E286E130E276EAE0ECF
:10401800E82EFED7272EFCD7282EFAD7FDEC23F062
:10402800120014501510D8A41CEF20F01EEF20F039
:1040380024EF20F0000E186E000E176E4DEF20F0E2
:1040480014C001F015C002F0000E036E27EC1AF040
:1040580001C017F002C018F014C00CF015C00DF024
:1040680016380F0B0E6E67EC22F014C00CF015C05A
:104078000DF06EEC23F014C00CF015C00DF016C056
:104088000EF067EC22F014C00CF015C00DF06EECC9
:1040980023F017C014F018C015F0120014501510B2
:1040A800D8A459EF20F05BEF20F061EF20F0000E6C
:1040B800186E000E176E8AEF20F014C001F015C0BC
:1040C80002F0010E036E27EC1AF001C017F002C0CF
:1040D80018F014C00CF015C00DF016380F0B0E6E4A
:1040E80067EC22F014C00CF015C00DF06EEC23F054
:1040F80014C00CF015C00DF016C00EF067EC22F0DD
:1041080014C00CF015C00DF06EEC23F017C014F0BD
:1041180018C015F01200000E0001F56F010EF46FC3
:10412800040EF15DD8A09BEF20F09DEF20F0A3EFE7
:1041380020F0000EF56F000EF46FC5EF20F0000EB2
:10414800F2BE010EF36FF151030BAA6EF0C0A9FF86
:10415800F2C0A8FFA69EA69CA684F29E550EA76E46
:10416800AA0EA76EA682A6B2BCEF20F0BEEF20F082
:10417800B7EF20F0A6940001F3B102D0F29E01D06F
:10418800F28EF4C0F0F0F5C0F1F0120054C000F166
:1041980053C001F152C003F151C002F1000E0001F9
:1041A800F06F010EF16F2DEC18F0010E0001F06FA9
:1041B800010EF16F2DEC18F0030E0001F06F010EE7
:1041C800F16F2DEC18F0030E0001F06F010EF16F86
:1041D8002DEC18F0FAC0D9FFFBC0DAFF040EDE1888
:1041E800D8A4F9EF20F0FBEF20F002EF21F0020E47
:1041F8000001F06F010EF16F2DEC18F01200700E37
:10420800F66E460EF76E000EF86E00EEB9F010EE80
:1042180037F00900F5CFEEFFE550E150FAE1C60EA0
:10422800F66E470EF76E000EF86E00EE51F010EEC7
:1042380013F00900F5CFEEFFE550E150FAE101EE89
:104248001AF00B0EEE6AE806FDE100EE80F0390E7A
:10425800EE6AE806FDE100EE33F01E0EEE6AE806AF
:10426800FDE164906492000109EF00F0000E010185
:10427800046F000E046F04510001FB250101006F5B
:10428800000E0001FC210101016F020E0025000152
:10429800F06F000E010101210001F16F04C102F16C
:1042A800FDC003F10101022B5CEF21F0D89003332C
:1042B800022F5AEF21F001010351010B0001F26FA7
:1042C80081EC19F00101042B030E04656EEF21F057
:1042D80070EF21F03FEF21F0120001011051111190
:1042E800D8B479EF21F07BEF21F084EF21F014515D
:1042F8001511D8A482EF21F084EF21F08AEF21F084
:10430800000E176F000E166FA2EF21F010C10AF110
:1043180011C10BF112C10CF113C10DF1E2EC1DF04A
:1043280010C10AF111C10BF114C10CF115C10DF145
:10433800C9EC1EF00AC116F10BC117F116C110F134
:1043480017C111F112001F502010D8B4AEEF21F0A0
:10435800B0EF21F0B9EF21F023502410D8A4B7EF23
:1043680021F0B9EF21F0BFEF21F0000E266E000E0C
:10437800256ED7EF21F01FC019F020C01AF021C018
:104388001BF022C01CF030EC1EF01FC019F020C03A
:104398001AF023C01BF024C01CF00FEC1FF019C04A
:1043A80025F01AC026F025C01FF026C020F0120004
:1043B8000001FB51FC11D8A4E4EF21F0E6EF21F055
:1043C800EDEF21F0000E0101016F000E006F0AEF02
:1043D80022F0FBC0F0F0FCC0F1F02DEC18F0F0C0BA
:1043E80000F1F1C001F1FBC0F0F0FCC0F1F0FBC03E
:1043F800D9FFFCC0DAFF0001000EDFBE010EF26F2C
:1044080081EC19F0F0C000F1F1C001F100C1FBF03E
:1044180001C1FCF01200000120EE05F0F051D92690
:10442800F151DA22DFB01BEF22F01DEF22F02DEF61
:1044380022F0D59620EE02F0F051D926F151DA2279
:10444800DF50F26FD550F219F80BF219D56E3BEF29
:1044580022F020EE05F0F051D926F151DA22DFA042
:1044680038EF22F03AEF22F03BEF22F0D586120027
:10447800000E0101166F010E156F10511111D8A40D
:1044880048EF22F04AEF22F050EF22F0000E166FAC
:10449800000E156F62EF22F010C10AF111C10BF185
:1044A80012C10CF113C10DF1E2EC1DF010C105F1C0
:1044B80011C106F114C107F153EC1FF015C110F139
:1044C80016C111F11200000E136E000E136E135078
:1044D8000C240F6E000E0D20106E020E0F24016EBC
:1044E800000E1020026E13C011F00EC012F0112A37
:1044F80080EF22F0D8901232112E7EEF22F0125067
:10450800010B036E27EC1AF0132A030E13648FEFC6
:1045180022F091EF22F06BEF22F01200000E000162
:10452800F56F010EF46FF251F311D8A49EEF22F04B
:10453800A0EF22F0A6EF22F0000EF56F000EF46F48
:10454800B6EF22F0F151030BAA6EF0C0A9FFA69EA8
:10455800A69CA68000F000F0F2C0D9FFF3C0DAFFF5
:10456800A8CFDFFFF4C0F0F0F5C0F1F01200630E41
:104578000101026F000E036F90EC1DF0620E010145
:10458800026F000E036F90EC1DF0500E0101026FD8
:10459800000E036F90EC1DF05C0E01010A6F000E17
:1045A8000B6F7BEC17F0DD0E0101026F000E036F3D
:1045B8007DEC1EF01200000120EE05F0F051D92626
:1045C800F151DA22DFB6EBEF22F0EDEF22F0F0EF57
:1045D80022F0D58CFEEF22F020EE05F0F051D9261E
:1045E800F151DA22DFA6FBEF22F0FDEF22F0FEEF19
:1045F80022F0D59C1200F2943A50D76E39C0D6FFFB
:104608003B503C10D8A40BEF23F00DEF23F00FEF35
:1046180023F01BEF23F002D81BEF23F00500FA6EFE
:104628003B50FD6E3C50FE6EFF6AFA5012001200BD
:1046380057C0FAF056C0FBF055C0FCF0FA0E000166
:10464800F06F000EF16F2DEC18F0FB0E0001F06F0B
:10465800000EF16F2DEC18F0FC0E0001F06F000E4B
:10466800F16F2DEC18F01200800F810F820F830F6D
:10467800840F890F8A0F8B0F8C0F8D0F920F930F5A
:10468800940F950F960F0303010C0602030B131BDF
:0F469800636B737BAA3F066A67080011FFFFFF81
:1046A800010E0001FB25F06F000EFC21F16F010ED9
:1046B800F26F81EC19F000D000D000F0010E00017B
:1046C800FB25F06F000EFC21F16F000EF26F81ECFC
:1046D80019F01200010E0C24016E000E0D20026E5E
:1046E800010E036E27EC1AF000D000D000F0010E86
:1046F8000C24016E000E0D20026E000E036E27ECD6
:104708001AF01200BBEC22F0EB0E0101046F000E50
:10471800056FD9EC18F004C1FEF005C1FFF01200D6
:10472800C7A099EF23F09BEF23F094EF23F0F0C09C
:10473800D9FFF1C0DAFFC9CFDFFF12000001F26F25
:10474800F2C0C9FF9EA6ABEF23F0ADEF23F0A6EFB2
:1047580023F09E961200016EF2900150D8A4B7EF94
:1047680023F0B9EF23F0BBEF23F0BBEF23F01200E7
:10477800016EF2900150D8A4C4EF23F0C6EF23F0E5
:10478800C8EF23F0C8EF23F01200016EF290015039
:10479800D8A4D1EF23F0D3EF23F0D5EF23F0D5EF52
:1047A80023F01200016EF2900150D8A4DEEF23F03E
:1047B800E0EF23F0E2EF23F0E2EF23F01200685A73
:1047C800622A1A622A01010101020A1218323A0801
:0147D80010D0
:1047DA00A1923450B36E33C0B2FF1200D1800400EC
:1047EA00F5EF23F012003850CF6E37C0CEFF12001B
:1047FA00D1800400FFEF23F012009E9235C0CCFF57
:10480A0012009D9812009E961200A1961200F09234
:10481A001200F0901200F29212009E941200A190DF
:0E482A0012009E9412009E9C120012001200BA
:10FDA800003738392F3435362A3132332D40303D3B
:10FDB8002B323A61697220636F6E646974696F6E81
:10FDC8006572206F666600546F20536D61727420EF
:10FDD800486F6D652053797374656D00313A6169B8
:10FDE8007220636F6E646974696F6E6572206F6EDE
:10FDF800005072657373274F4E2F4327746F20721C
:10FE080065736574005365742054656D706572611F
:10FE1800747572653A2D2D00737563636573736627
:10FE2800756C6C7920616464656400536574204165
:10FE3800646D696E2050617373776F7264005365E7
:10FE4800742047756573742050617373776F72649B
:10FE58000061697220636F6E646974696F6E6572A0
:10FE68003A2D006C6F6164696E6720626C6F636B1A
:10FE780065642E2E00323A5365742054656D7065A2
:10FE88007261747572650053756363657373204C92
:10FE98006F67696E2E2E0073657373696F6E2074B9
:10FEA800696D656F75740053656C656374204D6F7B
:10FEB8006465203A0061697220636F6E643A2D2090
:10FEC800533A0041646D696E204D6F64653A2D00A8
:10FED8004775657374204D6F64653A2D0057726FCE
:10FEE8006E6720696E7075742E00776169742020C2
:10FEF8003130207365630057726F6E672063686FD7
:10FF08006963650041646D696E20506173733A00DE
:10FF1800477565737420506173733A00577269743A
:10FF28006520706173733A005472696573206C655B
:10FF380066743A00333A41697220636F6E2E00325C
:10FF48003A6C6564206F666600313A436F6E74726E
:10FF58006F6C00526F6F6D3120533A00526F6F6DA6
:10FF68003220533A00526F6F6D3320533A00526F6C
:10FF78006F6D3420533A00323A5456206F6666004B
:10FF8800313A2041646D696E00313A6C6564206FC6
:10FF98006E00323A20477565737400313A526F6FBC
:10FFA8006D3100323A526F6F6D3200333A526F6FD3
:10FFB8006D3300313A526F6F6D3400343A526F6FBF
:10FFC8006D340057656C636F6D6500313A54562087
:10FFD8006F6E00343A4D6F726500545620533A00E4
:10FFE800303A52657400323A5456004F4E20004F52
:07FFF80046460025690000E8
:020000040020DA
:08000000FFFFFFFFFFFFFFFF00
:020000040030CA
:0E000000FF020910FF8381FF0FC00FE00F40C9
:00000001FF
