:0400000007EF00F016
:10000800658261ED11F081EF1CF0FAEC1EF05D0ED7
:100018000101006F000E016F010E026F52EC1BF020
:1000280000C1FEF001C1FFF05D0E01010B6F000E73
:100038000C6F010E0D6F070E0E6FCC0E0F6FFF0EBB
:10004800106FB8EC1CF00BC1FEF00CC1FFF05D0E98
:1000580001010B6F000E0C6F020E0D6F010E0E6F7B
:10006800250E0F6FFE0E106FB8EC1CF00BC1FEF0E2
:100078000CC1FFF0060E0101146F130E136FAD0EC5
:10008800E82EFED7132FFCD7142FFAD700D05D0E19
:100098000101006F000E016F010E026F52EC1BF0A0
:1000A80000C1FEF001C1FFF0010E0001EC6F000E6F
:1000B800EB6FB60EED6F000EEE6F06EC1EF0EBC0A8
:1000C800FEF0ECC0FFF0010E0001EC6F010EEB6FCB
:1000D800B50EED6F000EEE6F06EC1EF0EBC0FEF0F5
:1000E800ECC0FFF00001B629D8B47DEF00F07FEF37
:1000F80000F087EF00F0B529D8A485EF00F087EF6E
:1001080000F070EF02F05D0E01010B6F000E0C6F36
:10011800010E0D6F010E0E6F610E0F6FFE0E106F48
:10012800B8EC1CF00BC1FEF00CC1FFF05D0E010134
:100138000B6F000E0C6F020E0D6F010E0E6F170E77
:100148000F6FFF0E106FB8EC1CF00BC1FEF00CC166
:10015800FFF020EF01F0A40EF76F000EF86FEA0E23
:10016800F96F000EFA6FEBEC16F0F7C0FEF0F8C06E
:10017800FFF00001EA51D8B4C4EF00F0C6EF00F078
:10018800AFEF00F0A3C0EBF0EC6BEAC0EDF00DECC4
:100198001CF0EBC0FEF0ECC0FFF05D0E01010B6F30
:1001A800000E0C6F020E0D6FA1C00EF1EAC00FF128
:1001B800B0EC1DF00BC1FEF00CC1FFF0030E010105
:1001C800146F8A0E136F550EE82EFED7132FFCD727
:1001D800142FFAD700D05D0E0101006F000E016FD9
:1001E800100E026F52EC1BF000C1FEF001C1FFF0CF
:1001F8005D0E01010B6F000E0C6F020E0D6FA1C09A
:100208000EF12A0E0F6FB0EC1DF00BC1FEF00CC101
:10021800FFF05D0E0101006F000E016F0E0E026F00
:1002280052EC1BF000C1FEF001C1FFF0000E00010E
:10023800EA6FA12BA32BA02B040E0001A06527EFCA
:1002480001F029EF01F0AFEF00F05D0E0101006F42
:10025800000E016F0C0E026F52EC1BF000C1FEF095
:1002680001C1FFF05D0E01010B6F000E0C6F030E54
:100278000D6F010E0E6F4E0E0F6FFE0E106FB8EC65
:100288001CF00BC1FEF00CC1FFF0030E0101146F4E
:100298008A0E136F550EE82EFED7132FFCD7142F96
:1002A800FAD700D05D0E0101006F000E016F010E3C
:1002B800026F52EC1BF000C1FEF001C1FFF05D0EB1
:1002C80001010B6F000E0C6F010E0D6F010E0E6F0A
:1002D800740E0F6FFE0E106FB8EC1CF00BC1FEF021
:1002E8000CC1FFF05D0E01010B6F000E0C6F020ECA
:1002F8000D6F010E0E6F230E0F6FFF0E106FB8EC0F
:100308001CF00BC1FEF00CC1FFF0010E0001A06F44
:100318000C0EA16F01EF02F0A40EF76F000EF86F3C
:10032800EA0EF96F000EFA6FEBEC16F0F7C0FEF06C
:10033800F8C0FFF00001EA51D8B4A5EF01F0A7EF2B
:1003480001F090EF01F0A2C0EBF0EC6BEAC0EDF029
:100358000DEC1CF0EBC0FEF0ECC0FFF05D0E0101EF
:100368000B6F000E0C6F020E0D6FA1C00EF1EAC0EC
:100378000FF1B0EC1DF00BC1FEF00CC1FFF0030E45
:100388000101146F8A0E136F550EE82EFED7132F36
:10039800FCD7142FFAD700D05D0E0101006F000EB4
:1003A800016F100E026F52EC1BF000C1FEF001C18C
:1003B800FFF05D0E01010B6F000E0C6F020E0D6F4A
:1003C800A1C00EF12A0E0F6FB0EC1DF00BC1FEF0AC
:1003D8000CC1FFF05D0E0101006F000E016F0E0EE3
:1003E800026F52EC1BF000C1FEF001C1FFF0000EDD
:1003F8000001EA6FA12BA22BA02B040EA06507EF2A
:1004080002F009EF02F090EF01F0020E0101146F03
:10041800040E136FBA0EE82EFED7132FFCD7142F35
:10042800FAD700F05D0E0101006F000E016F0C0E8F
:10043800026F52EC1BF000C1FEF001C1FFF05D0E2F
:1004480001010B6F000E0C6F030E0D6F010E0E6F86
:100458004E0E0F6FFE0E106FB8EC1CF00BC1FEF0C5
:100468000CC1FFF0030E0101146F8A0E136F550EB5
:10047800E82EFED7132FFCD7142FFAD700D05D0E25
:100488000101006F000E016F010E026F52EC1BF0AC
:1004980000C1FEF001C1FFF0010E0001B66F010EB0
:1004A800B56F010EEC6F000EEB6FB6C0EDF00DEC02
:1004B8001CF0EBC0FEF0ECC0FFF0010E0001EC6F89
:1004C800010EEB6FB5C0EDF00DEC1CF0EBC0FEF0CB
:1004D800ECC0FFF05FEF11F0B605D8B476EF02F08C
:1004E80078EF02F080EF02F0B505D8A47EEF02F0B5
:1004F80080EF02F05FEF11F05D0E01010B6F000E4F
:100508000C6F010E0D6F010E0E6FC80E0F6FFE0EF1
:10051800106FB8EC1CF00BC1FEF00CC1FFF05D0EC3
:1005280001010B6F000E0C6F020E0D6F010E0E6FA6
:10053800890E0F6FFF0E106FB8EC1CF00BC1FEF0A8
:100548000CC1FFF05D0E01010B6F000E0C6F030E66
:100558000D6F010E0E6F9B0E0F6FFF0E106FB8EC34
:100568001CF00BC1FEF00CC1FFF0A40E0001F76FE8
:10057800000EF86FEA0EF96F000EFA6FEBEC16F04A
:10058800F7C0FEF0F8C0FFF00001EA51D8B4CFEF91
:1005980002F0D1EF02F0B9EF02F052EF04F05D0E75
:1005A8000101006F000E016F010E026F52EC1BF08B
:1005B80000C1FEF001C1FFF05D0E01010B6F000EDE
:1005C8000C6F010E0D6F010E0E6FD60E0F6FFE0E23
:1005D800106FB8EC1CF00BC1FEF00CC1FFF05D0E03
:1005E80001010B6F000E0C6F020E0D6F010E0E6FE6
:1005F8002F0E0F6FFF0E106FB8EC1CF00BC1FEF042
:100608000CC1FFF0000E0001EA6F020E0101146F29
:10061800860E136F990EE82EFED7132FFCD7142FD2
:10062800FAD795EF03F0A40EF76F000EF86FEA0EF5
:10063800F96F000EFA6FEBEC16F0F7C0FEF0F8C099
:10064800FFF00001EA51D8B42CEF03F02EEF03F0CD
:1006580017EF03F0A3C0EBF0EC6BB40EED6F000ED8
:10066800EE6F06EC1EF0EBC0FEF0ECC0FFF00001F0
:10067800EA51B419D8A443EF03F045EF03F046EF6D
:1006880003F0E92B5D0E01010B6F000E0C6F020EDB
:100698000D6FA1C00EF1EAC00FF1B0EC1DF00BC157
:1006A800FEF00CC1FFF0030E0101146F8A0E136FE8
:1006B800550EE82EFED7132FFCD7142FFAD700D0EB
:1006C8005D0E0101006F000E016F100E026F52ECFB
:1006D8001BF000C1FEF001C1FFF05D0E01010B6FC0
:1006E800000E0C6F020E0D6FA1C00EF12A0E0F6FD7
:1006F800B0EC1DF00BC1FEF00CC1FFF05D0E010166
:10070800006F000E016F0E0E026F52EC1BF000C15D
:10071800FEF001C1FFF0000E0001EA6FA12BA32B30
:10072800A02B040E0001A0659CEF03F09EEF03F0E0
:1007380017EF03F0040EE919D8A4A5EF03F0A7EF0B
:1007480003F0E5EF03F05D0E0101006F000E016F8D
:10075800010E026F52EC1BF000C1FEF001C1FFF068
:100768005D0E0101006F000E016F0C0E026F52EC5E
:100778001BF000C1FEF001C1FFF05D0E01010B6F1F
:10078800000E0C6F020E0D6F010E0E6F990E0F6F9B
:10079800FE0E106FB8EC1CF00BC1FEF00CC1FFF0A0
:1007A800000E0001EA6F020E0101146F860E136F2E
:1007B800990EE82EFED7132FFCD7142FFAD752EF35
:1007C80004F0310EEA6F5D0E0101006F000E016F3B
:1007D800010E026F52EC1BF000C1FEF001C1FFF0E8
:1007E8005D0E0101006F000E016F0C0E026F52ECDE
:1007F8001BF000C1FEF001C1FFF05D0E01010B6F9F
:10080800000E0C6F010E0D6F010E0E6FF00E0F6FC4
:10081800FE0E106FB8EC1CF00BC1FEF00CC1FFF01F
:100828005D0E01010B6F000E0C6F020E0D6F010EB5
:100838000E6F3B0E0F6FFF0E106FB8EC1CF00BC164
:10084800FEF00CC1FFF05D0E01010B6F000E0C6F86
:10085800020E0D6F0C0E0E6F00019F512F0F01013C
:100868000F6FB0EC1DF00BC1FEF00CC1FFF0030ED2
:100878000101146F8A0E136F550EE82EFED7132F41
:10088800FCD7142FFAD700D0010E0001E96F010E32
:10089800A06F020EA36F0C0EA16F9F07310E00010F
:1008A800EA19D8A45AEF04F05CEF04F0F3EF05F06E
:1008B8009F51D8A462EF04F064EF04F0D3EF02F084
:1008C800F3EF05F05D0E0101006F000E016F010EE0
:1008D800026F52EC1BF000C1FEF001C1FFF05D0E8B
:1008E80001010B6F000E0C6F010E0D6F010E0E6FE4
:1008F800E30E0F6FFE0E106FB8EC1CF00BC1FEF08C
:100908000CC1FFF05D0E01010B6F000E0C6F020EA3
:100918000D6F010E0E6F2F0E0F6FFF0E106FB8ECDC
:100928001CF00BC1FEF00CC1FFF0000E0001EA6FD5
:10093800020E0101146F860E136F990EE82EFED772
:10094800132FFCD7142FFAD728EF05F0A40EF76F52
:10095800000EF86FEA0EF96F000EFA6FEBEC16F066
:10096800F7C0FEF0F8C0FFF00001EA51D8B4BFEFBD
:1009780004F0C1EF04F0AAEF04F0A2C0EBF0EC6BB6
:10098800B40EED6F000EEE6F06EC1EF0EBC0FEF03D
:10099800ECC0FFF00001EA51B419D8A4D6EF04F076
:1009A800D8EF04F0D9EF04F0E82B5D0E01010B6FCE
:1009B800000E0C6F020E0D6FA1C00EF1EAC00FF110
:1009C800B0EC1DF00BC1FEF00CC1FFF0030E0101ED
:1009D800146F8A0E136F550EE82EFED7132FFCD70F
:1009E800142FFAD700D05D0E0101006F000E016FC1
:1009F800100E026F52EC1BF000C1FEF001C1FFF0B7
:100A08005D0E01010B6F000E0C6F020E0D6FA1C081
:100A18000EF12A0E0F6FB0EC1DF00BC1FEF00CC1E9
:100A2800FFF05D0E0101006F000E016F0E0E026FE8
:100A380052EC1BF000C1FEF001C1FFF0000E0001F6
:100A4800EA6FA12BA22BA02B040E0001A0652FEFAB
:100A580005F031EF05F0AAEF04F0040EE819D8A468
:100A680038EF05F03AEF05F086EF05F05D0E01016D
:100A7800006F000E016F010E026F52EC1BF000C1F7
:100A8800FEF001C1FFF05D0E0101006F000E016F65
:100A98000C0E026F52EC1BF000C1FEF001C1FFF01A
:100AA8005D0E01010B6F000E0C6F020E0D6F010E33
:100AB8000E6F990E0F6FFE0E106FB8EC1CF00BC185
:100AC800FEF00CC1FFF0000E0001EA6F060E0101F6
:100AD800146F130E136FAD0EE82EFED7132FFCD72D
:100AE800142FFAD700D05D0E0101006F000E016FC0
:100AF800010E026F52EC1BF000C1FEF001C1FFF0C5
:100B0800F3EF05F0320EEA6F5D0E0101006F000E83
:100B1800016F010E026F52EC1BF000C1FEF001C123
:100B2800FFF05D0E0101006F000E016F0C0E026FE9
:100B380052EC1BF000C1FEF001C1FFF05D0E010197
:100B48000B6F000E0C6F010E0D6F010E0E6FF00E85
:100B58000F6FFE0E106FB8EC1CF00BC1FEF00CC14D
:100B6800FFF05D0E01010B6F000E0C6F020E0D6F92
:100B7800010E0E6F3B0E0F6FFF0E106FB8EC1CF0DE
:100B88000BC1FEF00CC1FFF05D0E01010B6F000EF2
:100B98000C6F020E0D6F0C0E0E6F00019E512F0F81
:100BA80001010F6FB0EC1DF00BC1FEF00CC1FFF09E
:100BB800030E0101146F8A0E136F550EE82EFED72F
:100BC800132FFCD7142FFAD700D0000E0001E86FBE
:100BD800060EA26F010EA06F0C0EA16F9E07320EBB
:100BE8000001EA19D8A4FBEF05F0FDEF05F005EFC9
:100BF80006F09E51D8A403EF06F005EF06F066EF65
:100C080004F0AC0EEE6F000EEF6FA6EC18F0EEC01D
:100C1800FEF0EFC0FFF000019F51D8A416EF06F0D8
:100C280018EF06F058EF06F05D0E01010B6F000E8D
:100C38000C6F010E0D6F010E0E6F870E0F6FFE0EFB
:100C4800106FB8EC1CF00BC1FEF00CC1FFF05D0E8C
:100C580001010B6F000E0C6F020E0D6F010E0E6F6F
:100C6800FD0E0F6FFE0E106FB8EC1CF00BC1FEF0FE
:100C78000CC1FFF0640E0001F66F000EF76F3CEC3C
:100C88001AF0F6C0FEF0F7C0FFF0330E0101146F42
:100C9800BB0E136FDF0EE82EFED7132FFCD7142FD1
:100CA800FAD700D05FEF11F09E51D8A45EEF06F09E
:100CB80060EF06F04AEF11F0000E496E5D0E01017B
:100CC8000B6F000E0C6F010E0D6F010E0E6F870E6D
:100CD8000F6FFE0E106FB8EC1CF00BC1FEF00CC1CC
:100CE800FFF05D0E01010B6F000E0C6F020E0D6F11
:100CF800010E0E6FFD0E0F6FFE0E106FB8EC1CF09C
:100D08000BC1FEF00CC1FFF03EEF06F0040EE8192F
:100D1800D8A491EF06F093EF06F0A8EF06F05D0E69
:100D280001010B6F000E0C6F010E0D6F010E0E6F9F
:100D3800E30E0F6FFE0E106FB8EC1CF00BC1FEF047
:100D48000CC1FFF0D1EF06F0040EE919D8A4AFEFFB
:100D580006F0B1EF06F0D1EF06F05D0E0101006F6D
:100D6800000E016F010E026F52EC1BF000C1FEF085
:100D780001C1FFF05D0E01010B6F000E0C6F010E3B
:100D88000D6F010E0E6FD60E0F6FFE0E106FB8ECC2
:100D98001CF00BC1FEF00CC1FFF05D0E01010B6FE2
:100DA800000E0C6F020E0D6F010E0E6FA40E0F6F6A
:100DB800FF0E106FB8EC1CF00BC1FEF00CC1FFF079
:100DC8005D0E01010B6F000E0C6F020E0D6F0B0E06
:100DD8000E6FAC0E0F6FFF0E106FB8EC1CF00BC14E
:100DE800FEF00CC1FFF05D0E01010B6F000E0C6FE1
:100DF800030E0D6F010E0E6FB40E0F6FFF0E106F06
:100E0800B8EC1CF00BC1FEF00CC1FFF0040E0001A1
:100E1800E819D8A412EF07F014EF07F034EF07F041
:100E28005D0E01010B6F000E0C6F030E0D6F0B0EA4
:100E38000E6FC40E0F6FFF0E106FB8EC1CF00BC1D5
:100E4800FEF00CC1FFF0630E0001F66F000EF76FA5
:100E58003CEC1AF0F6C0FEF0F7C0FFF05BEF07F0CD
:100E6800040EE919D8A43BEF07F03DEF07F05BEF5C
:100E780007F05D0E01010B6F000E0C6F030E0D6F76
:100E88000B0E0E6FDC0E0F6FFF0E106FB8EC1CF020
:100E98000BC1FEF00CC1FFF0510E0001F66F000E01
:100EA800F76F3CEC1AF0F6C0FEF0F7C0FFF0000E4A
:100EB8000001EA6FA40EF76F000EF86FEA0EF96FE3
:100EC800000EFA6FEBEC16F0F7C0FEF0F8C0FFF07A
:100ED8000001EA51D8B473EF07F075EF07F05EEF41
:100EE80007F0020E0101146F860E136F990EE82E9B
:100EF800FED7132FFCD7142FFAD7B2EF07F05D0EE9
:100F08000101006F000E016F010E026F52EC1BF021
:100F180000C1FEF001C1FFF05D0E01010B6F000E74
:100F28000C6F010E0D6F010E0E6F0A0E0F6FFF0E84
:100F3800106FB8EC1CF00BC1FEF00CC1FFF0030EF3
:100F48000101146F8A0E136F550EE82EFED7132F6A
:100F5800FCD7142FFAD700D027EF09F0310E000183
:100F6800EA19D8B4BAEF07F0BCEF07F027EF09F099
:100F7800320EEA19D8B4C3EF07F0C5EF07F027EF30
:100F880009F0330EEA19D8B4CCEF07F0CEEF07F02A
:100F980027EF09F0340EEA19D8A4D5EF07F0D7EFF8
:100FA80007F083EF07F027EF09F05D0E0101006FEE
:100FB800000E016F010E026F52EC1BF000C1FEF033
:100FC80001C1FFF05D0E01010B6F000E0C6F010EE9
:100FD8000D6F010E0E6F5C0E0F6FFF0E106FB8ECE9
:100FE8001CF00BC1FEF00CC1FFF023EF08F05D0E02
:100FF8000B6F000E0C6F010E0D6F090E0E6FF40EC5
:101008000F6FFF0E106FB8EC1CF00BC1FEF00CC197
:10101800FFF03AEF08F05D0E0B6F000E0C6F010E3B
:101028000D6F090E0E6FF80E0F6FFF0E106FB8ECF4
:101038001CF00BC1FEF00CC1FFF03AEF08F0000104
:10104800E7510101136F146B1451000AD8B42FEF44
:1010580008F03AEF08F01351000AD8B40FEF08F07F
:10106800010AD8B4FBEF07F03AEF08F05D0E010172
:101078000B6F000E0C6F020E0D6F010E0E6F920EAD
:101088000F6FFF0E106FB8EC1CF00BC1FEF00CC117
:10109800FFF05D0E01010B6F000E0C6F030E0D6F5C
:1010A800010E0E6F520E0F6FFF0E106FB8EC1CF092
:1010B8000BC1FEF00CC1FFF05D0E01010B6F000EBD
:1010C8000C6F040E0D6F010E0E6FE90E0F6FFF0E01
:1010D800106FB8EC1CF00BC1FEF00CC1FFF0000E55
:1010E8000001EA6FA40EF76F000EF86FEA0EF96FB1
:1010F800000EFA6FEBEC16F0F7C0FEF0F8C0FFF048
:101108000001EA51D8B48BEF08F08DEF08F076EFC4
:1011180008F0020E0101146F860E136F990EE82E67
:10112800FED7132FFCD7142FFAD7B3EF08F0010E10
:1011380008EC1FF0EBC0FEF0ECC0FFF0010E000160
:10114800E76FCAEF08F0050E08EC1FF0EBC0FEF0E1
:10115800ECC0FFF0000E0001E76FCAEF08F00001D5
:10116800EA510101136F146B1451000AD8B4BFEF90
:1011780008F0CAEF08F01351310AD8B49BEF08F011
:10118800030AD8B4A7EF08F0CAEF08F0300E000140
:10119800EA19D8A4D2EF08F0D4EF08F0E3EF08F08A
:1011A8005D0E0101006F000E016F010E026F52EC1F
:1011B8001BF000C1FEF001C1FFF08CEF0AF0310E08
:1011C800EA19D8B4EAEF08F0ECEF08F022EF09F0DA
:1011D800320EEA19D8B4F3EF08F0F5EF08F022EF71
:1011E80009F05D0E0101006F000E016F010E026F24
:1011F80052EC1BF000C1FEF001C1FFF05D0E0101D1
:101208000B6F000E0C6F010E0D6F010E0E6F0A0EA4
:101218000F6FFF0E106FB8EC1CF00BC1FEF00CC185
:10122800FFF0030E0101146F8A0E136F550EE82E9E
:10123800FED7132FFCD7142FFAD700D0310E000198
:10124800EA6FA3EF07F0310E0001EA19D8B42FEFC7
:1012580009F031EF09F0D9EF07F08CEF0AF05D0ED5
:101268000101006F000E016F010E026F52EC1BF0BE
:1012780000C1FEF001C1FFF05D0E01010B6F000E11
:101288000C6F010E0D6F010E0E6F650E0F6FFF0EC6
:10129800106FB8EC1CF00BC1FEF00CC1FFF07DEF35
:1012A80009F05D0E0B6F000E0C6F010E0D6F090E2D
:1012B8000E6FF40E0F6FFF0E106FB8EC1CF00BC121
:1012C800FEF00CC1FFF094EF09F05D0E0B6F000EFD
:1012D8000C6F010E0D6F090E0E6FF80E0F6FFF0EDB
:1012E800106FB8EC1CF00BC1FEF00CC1FFF094EFCE
:1012F80009F00001E7510101136F146B1451000A42
:10130800D8B489EF09F094EF09F01351000AD8B462
:1013180069EF09F0010AD8B455EF09F094EF09F024
:101328005D0E01010B6F000E0C6F020E0D6F010EAA
:101338000E6F920E0F6FFF0E106FB8EC1CF00BC102
:10134800FEF00CC1FFF05D0E01010B6F000E0C6F7B
:10135800030E0D6F010E0E6F520E0F6FFF0E106F02
:10136800B8EC1CF00BC1FEF00CC1FFF05D0E0101E2
:101378000B6F000E0C6F040E0D6F010E0E6FE90E51
:101388000F6FFF0E106FB8EC1CF00BC1FEF00CC114
:10139800FFF0000E0001EA6FA40EF76F000EF86F61
:1013A800EA0EF96F000EFA6FEBEC16F0F7C0FEF0DC
:1013B800F8C0FFF00001EA51D8B4E5EF09F0E7EF13
:1013C80009F0D0EF09F0020E0101146F860E136FB9
:1013D800990EE82EFED7132FFCD7142FFAD70DEF4E
:1013E8000AF0020E08EC1FF0EBC0FEF0ECC0FFF0B4
:1013F800010E0001E76F24EF0AF0060E08EC1FF05B
:10140800EBC0FEF0ECC0FFF0000E0001E76F24EF28
:101418000AF00001EA510101136F146B1451000A1C
:10142800D8B419EF0AF024EF0AF01351310AD8B4EE
:10143800F5EF09F0030AD8B401EF0AF024EF0AF037
:10144800300E0001EA19D8A42CEF0AF02EEF0AF0AA
:101458003DEF0AF05D0E0101006F000E016F010EF5
:10146800026F52EC1BF000C1FEF001C1FFF0F1EF7A
:101478000BF0310EEA19D8B444EF0AF046EF0AF03F
:101488007CEF0AF0320EEA19D8B44DEF0AF04FEFAC
:101498000AF07CEF0AF05D0E0101006F000E016F8B
:1014A800010E026F52EC1BF000C1FEF001C1FFF00B
:1014B8005D0E01010B6F000E0C6F010E0D6F010E1A
:1014C8000E6F0A0E0F6FFF0E106FB8EC1CF00BC1F9
:1014D800FEF00CC1FFF0060E0101146F130E136F1E
:1014E800AD0EE82EFED7132FFCD7142FFAD700D055
:1014F800320E0001EA6F030E0101146F8A0E136F9A
:10150800550EE82EFED7132FFCD7142FFAD700D08C
:10151800320E0001EA19D8B494EF0AF096EF0AF0F7
:1015280033EF09F0F1EF0BF05D0E0101006F000ED3
:10153800016F010E026F52EC1BF000C1FEF001C1F9
:10154800FFF05D0E01010B6F000E0C6F010E0D6FA9
:10155800010E0E6F6E0E0F6FFF0E106FB8EC1CF0C1
:101568000BC1FEF00CC1FFF0E2EF0AF05D0E0B6F4D
:10157800000E0C6F010E0D6F090E0E6FF40E0F6F3B
:10158800FF0E106FB8EC1CF00BC1FEF00CC1FFF0A1
:10159800F9EF0AF05D0E0B6F000E0C6F010E0D6F68
:1015A800090E0E6FF80E0F6FFF0E106FB8EC1CF0DF
:1015B8000BC1FEF00CC1FFF0F9EF0AF00001E75192
:1015C8000101136F146B1451000AD8B4EEEF0AF03E
:1015D800F9EF0AF01351000AD8B4CEEF0AF0010A65
:1015E800D8B4BAEF0AF0F9EF0AF05D0E01010B6FFB
:1015F800000E0C6F020E0D6F010E0E6F920E0F6F24
:10160800FF0E106FB8EC1CF00BC1FEF00CC1FFF020
:101618005D0E01010B6F000E0C6F030E0D6F010EB6
:101628000E6F520E0F6FFF0E106FB8EC1CF00BC14F
:10163800FEF00CC1FFF05D0E01010B6F000E0C6F88
:10164800040E0D6F010E0E6FE90E0F6FFF0E106F77
:10165800B8EC1CF00BC1FEF00CC1FFF0000E00014D
:10166800EA6FA40EF76F000EF86FEA0EF96F000E1E
:10167800FA6FEBEC16F0F7C0FEF0F8C0FFF00001CF
:10168800EA51D8B44AEF0BF04CEF0BF035EF0BF002
:10169800020E0101146F860E136F990EE82EFED705
:1016A800132FFCD7142FFAD772EF0BF0030E08ECA8
:1016B8001FF0EBC0FEF0ECC0FFF0010E0001E76F79
:1016C80089EF0BF0070E08EC1FF0EBC0FEF0ECC042
:1016D800FFF0000E0001E76F89EF0BF00001EA51FF
:1016E8000101136F146B1451000AD8B47EEF0BF08C
:1016F80089EF0BF01351310AD8B45AEF0BF0030AF3
:10170800D8B466EF0BF089EF0BF0300E0001EA1940
:10171800D8A491EF0BF093EF0BF0A2EF0BF05D0E56
:101728000101006F000E016F010E026F52EC1BF0F9
:1017380000C1FEF001C1FFF0FBEF0BF0310EEA191A
:10174800D8B4A9EF0BF0ABEF0BF0E1EF0BF0320ED2
:10175800EA19D8B4B2EF0BF0B4EF0BF0E1EF0BF0ED
:101768005D0E0101006F000E016F010E026F52EC59
:101778001BF000C1FEF001C1FFF05D0E01010B6F0F
:10178800000E0C6F010E0D6F010E0E6F0A0E0F6F1B
:10179800FF0E106FB8EC1CF00BC1FEF00CC1FFF08F
:1017A800030E0101146F8A0E136F550EE82EFED733
:1017B800132FFCD7142FFAD700D0330E0001EA6F8D
:1017C800030E0101146F8A0E136F550EE82EFED713
:1017D800132FFCD7142FFAD700D0330E0001EA19C3
:1017E800D8B4F9EF0BF0FBEF0BF098EF0AF0040E0A
:1017F8000001E819D8A403EF0CF005EF0CF06CEF2A
:101808000DF060EF0DF05D0E0101006F000E016F2D
:10181800010E026F52EC1BF000C1FEF001C1FFF097
:101828005D0E01010B6F000E0C6F010E0D6F010EA6
:101838000E6F770E0F6FFF0E106FB8EC1CF00BC118
:10184800FEF00CC1FFF051EF0CF05D0E0B6F000EB7
:101858000C6F010E0D6F090E0E6FF40E0F6FFF0E59
:10186800106FB8EC1CF00BC1FEF00CC1FFF068EF74
:101878000CF05D0E0B6F000E0C6F010E0D6F090E54
:101888000E6FF80E0F6FFF0E106FB8EC1CF00BC147
:10189800FEF00CC1FFF068EF0CF00001E751010108
:1018A800136F146B1451000AD8B45DEF0CF068EF95
:1018B8000CF01351000AD8B43DEF0CF0010AD8B46B
:1018C80029EF0CF068EF0CF05D0E01010B6F000EB4
:1018D8000C6F020E0D6F010E0E6F920E0F6FFF0E42
:1018E800106FB8EC1CF00BC1FEF00CC1FFF05D0EE0
:1018F80001010B6F000E0C6F030E0D6F010E0E6FC2
:10190800520E0F6FFF0E106FB8EC1CF00BC1FEF0FB
:101918000CC1FFF05D0E01010B6F000E0C6F040E81
:101928000D6F010E0E6FE90E0F6FFF0E106FB8EC02
:101938001CF00BC1FEF00CC1FFF0000E0001EA6FB5
:10194800A40EF76F000EF86FEA0EF96F000EFA6F2B
:10195800EBEC16F0F7C0FEF0F8C0FFF00001EA511A
:10196800D8B4B9EF0CF0BBEF0CF0A4EF0CF0020EFA
:101978000101146F860E136F990EE82EFED7132FF0
:10198800FCD7142FFAD7E1EF0CF0040E08EC1FF087
:10199800EBC0FEF0ECC0FFF0010E0001E76FF8EFBE
:1019A8000CF0080E08EC1FF0EBC0FEF0ECC0FFF0E6
:1019B800000E0001E76FF8EF0CF00001EA51010199
:1019C800136F146B1451000AD8B4EDEF0CF0F8EF54
:1019D8000CF01351310AD8B4C9EF0CF0030AD8B48B
:1019E800D5EF0CF0F8EF0CF0300E0001EA19D8A48E
:1019F80000EF0DF002EF0DF011EF0DF05D0E01019B
:101A0800006F000E016F010E026F52EC1BF000C157
:101A1800FEF001C1FFF04AEF11F0310EEA19D8B417
:101A280018EF0DF01AEF0DF050EF0DF0320EEA1925
:101A3800D8B421EF0DF023EF0DF050EF0DF05D0E4F
:101A48000101006F000E016F010E026F52EC1BF0D6
:101A580000C1FEF001C1FFF05D0E01010B6F000E29
:101A68000C6F010E0D6F010E0E6F0A0E0F6FFF0E39
:101A7800106FB8EC1CF00BC1FEF00CC1FFF0030EA8
:101A88000101146F8A0E136F550EE82EFED7132F1F
:101A9800FCD7142FFAD700D0340E0001EA6F030EDA
:101AA8000101146F8A0E136F550EE82EFED7132FFF
:101AB800FCD7142FFAD700D0340E0001EA19D8B495
:101AC80068EF0DF06AEF0DF007EF0CF04AEF11F038
:101AD800040EE919D8A473EF0DF075EF0DF04AEF75
:101AE80011F040EF11F05D0E0101006F000E016F63
:101AF800010E026F52EC1BF000C1FEF001C1FFF0B5
:101B08005D0E01010B6F000E0C6F010E0D6F010EC3
:101B18000E6FD60E0F6FFE0E106FB8EC1CF00BC1D7
:101B2800FEF00CC1FFF05D0E01010B6F000E0C6F93
:101B3800020E0D6F010E0E6FBC0E0F6FFF0E106FB1
:101B4800B8EC1CF00BC1FEF00CC1FFF05D0E0101FA
:101B58000B6F000E0C6F020E0D6F0B0E0E6FEF0E5B
:101B68000F6FFF0E106FB8EC1CF00BC1FEF00CC12C
:101B7800FFF05D0E01010B6F000E0C6F030E0D6F71
:101B8800010E0E6F470E0F6FFF0E106FB8EC1CF0B2
:101B98000BC1FEF00CC1FFF05D0E01010B6F000ED2
:101BA8000C6F030E0D6F0B0E0E6FE90E0F6FFF0E0D
:101BB800106FB8EC1CF00BC1FEF00CC1FFF0000E6A
:101BC8000001EA6FA40EF76F000EF86FEA0EF96FC6
:101BD800000EFA6FEBEC16F0F7C0FEF0F8C0FFF05D
:101BE8000001EA51D8B4FBEF0DF0FDEF0DF0E6EF80
:101BF8000DF0020E0101146F860E136F990EE82E78
:101C0800FED7132FFCD7142FFAD764EF0FF05D0E11
:101C18000101006F000E016F010E026F52EC1BF004
:101C280000C1FEF001C1FFF05D0E01010B6F000E57
:101C38000C6F010E0D6F010E0E6F770E0F6FFF0EFA
:101C4800106FB8EC1CF00BC1FEF00CC1FFF055EFA3
:101C58000EF05D0E0B6F000E0C6F010E0D6F090E6E
:101C68000E6FF40E0F6FFF0E106FB8EC1CF00BC167
:101C7800FEF00CC1FFF06CEF0EF05D0E0B6F000E66
:101C88000C6F010E0D6F090E0E6FF80E0F6FFF0E21
:101C9800106FB8EC1CF00BC1FEF00CC1FFF06CEF3C
:101CA8000EF00001E7510101136F146B1451000A83
:101CB800D8B461EF0EF06CEF0EF01351000AD8B4EF
:101CC80041EF0EF0010AD8B42DEF0EF06CEF0EF0D4
:101CD8005D0E01010B6F000E0C6F020E0D6F010EF1
:101CE8000E6F920E0F6FFF0E106FB8EC1CF00BC149
:101CF800FEF00CC1FFF05D0E01010B6F000E0C6FC2
:101D0800030E0D6F010E0E6F520E0F6FFF0E106F48
:101D1800B8EC1CF00BC1FEF00CC1FFF05D0E010128
:101D28000B6F000E0C6F040E0D6F010E0E6FE90E97
:101D38000F6FFF0E106FB8EC1CF00BC1FEF00CC15A
:101D4800FFF0000E0001EA6FA40EF76F000EF86FA7
:101D5800EA0EF96F000EFA6FEBEC16F0F7C0FEF022
:101D6800F8C0FFF00001EA51D8B4BDEF0EF0BFEFA4
:101D78000EF0A8EF0EF0020E0101146F860E136F1D
:101D8800990EE82EFED7132FFCD7142FFAD7E5EFBC
:101D98000EF0040E08EC1FF0EBC0FEF0ECC0FFF0F4
:101DA800010E0001E76FFCEF0EF0080E08EC1FF0C3
:101DB800EBC0FEF0ECC0FFF0000E0001E76FFCEF97
:101DC8000EF00001EA510101136F146B1451000A5F
:101DD800D8B4F1EF0EF0FCEF0EF01351310AD8B47D
:101DE800CDEF0EF0030AD8B4D9EF0EF0FCEF0EF0E9
:101DF800300E0001EA19D8A404EF0FF006EF0FF037
:101E080015EF0FF05D0E0101006F000E016F010E5E
:101E1800026F52EC1BF000C1FEF001C1FFF0C9EFE8
:101E280010F0310EEA19D8B41CEF0FF01EEF0FF0C6
:101E380054EF0FF0320EEA19D8B425EF0FF027EF60
:101E48000FF054EF0FF05D0E0101006F000E016FEF
:101E5800010E026F52EC1BF000C1FEF001C1FFF051
:101E68005D0E01010B6F000E0C6F010E0D6F010E60
:101E78000E6F0A0E0F6FFF0E106FB8EC1CF00BC13F
:101E8800FEF00CC1FFF0030E0101146F8A0E136FF0
:101E9800550EE82EFED7132FFCD7142FFAD700D0F3
:101EA800310E0001EA6F030E0101146F8A0E136FE1
:101EB800550EE82EFED7132FFCD7142FFAD700D0D3
:101EC800310E0001EA19D8B46CEF0FF06EEF0FF085
:101ED8000BEF0EF0C9EF10F05D0E0101006F000E60
:101EE800016F010E026F52EC1BF000C1FEF001C140
:101EF800FFF05D0E01010B6F000E0C6F010E0D6FF0
:101F0800010E0E6FE30E0F6FFF0E106FB8EC1CF092
:101F18000BC1FEF00CC1FFF0BAEF0FF05D0E0B6FB6
:101F2800000E0C6F010E0D6F090E0E6FF40E0F6F81
:101F3800FF0E106FB8EC1CF00BC1FEF00CC1FFF0E7
:101F4800D1EF0FF05D0E0B6F000E0C6F010E0D6FD1
:101F5800090E0E6FF80E0F6FFF0E106FB8EC1CF025
:101F68000BC1FEF00CC1FFF0D1EF0FF00001E751FB
:101F78000101136F146B1451000AD8B4C6EF0FF0A7
:101F8800D1EF0FF01351000AD8B4A6EF0FF0010AF1
:101F9800D8B492EF0FF0D1EF0FF05D0E01010B6F87
:101FA800000E0C6F020E0D6F010E0E6FD40E0F6F28
:101FB800FF0E106FB8EC1CF00BC1FEF00CC1FFF067
:101FC8005D0E01010B6F000E0C6F030E0D6F010EFD
:101FD8000E6F800E0F6FFF0E106FB8EC1CF00BC168
:101FE800FEF00CC1FFF05D0E01010B6F000E0C6FCF
:101FF800040E0D6F010E0E6FE90E0F6FFF0E106FBE
:10200800B8EC1CF00BC1FEF00CC1FFF0000E000193
:10201800EA6FA40EF76F000EF86FEA0EF96F000E64
:10202800FA6FEBEC16F0F7C0FEF0F8C0FFF0000115
:10203800EA51D8B422EF10F024EF10F00DEF10F0B1
:10204800020E0101146F860E136F990EE82EFED74B
:10205800132FFCD7142FFAD74AEF10F0090E08EC0B
:102068001FF0EBC0FEF0ECC0FFF0010E0001E76FBF
:1020780061EF10F0000E08EC1FF0EBC0FEF0ECC0B2
:10208800FFF0000E0001E76F61EF10F00001EA5168
:102098000101136F146B1451000AD8B456EF10F0F5
:1020A80061EF10F01351310AD8B432EF10F0030A7F
:1020B800D8B43EEF10F061EF10F0300E0001EA19CD
:1020C800D8A469EF10F06BEF10F07AEF10F05D0E06
:1020D8000101006F000E016F010E026F52EC1BF040
:1020E80000C1FEF001C1FFF0D3EF10F0310EEA1984
:1020F800D8B481EF10F083EF10F0B9EF10F0320E82
:10210800EA19D8B48AEF10F08CEF10F0B9EF10F09C
:102118005D0E0101006F000E016F010E026F52EC9F
:102128001BF000C1FEF001C1FFF05D0E01010B6F55
:10213800000E0C6F010E0D6F010E0E6F0A0E0F6F61
:10214800FF0E106FB8EC1CF00BC1FEF00CC1FFF0D5
:10215800030E0101146F8A0E136F550EE82EFED779
:10216800132FFCD7142FFAD700D0320E0001EA6FD4
:10217800030E0101146F8A0E136F550EE82EFED759
:10218800132FFCD7142FFAD700D0320E0001EA190A
:10219800D8B4D1EF10F0D3EF10F070EF0FF0330E8A
:1021A8000001EA19D8B4DBEF10F0DDEF10F0D3EF3F
:1021B80010F0300EEA19D8A4E4EF10F0E6EF10F0B2
:1021C800E8EF10F002EF0DF0310EEA19D8B4EFEF96
:1021D80010F0F1EF10F030EF11F0320EEA19D8B428
:1021E800F8EF10F0FAEF10F030EF11F0330EEA19B3
:1021F800D8B401EF11F003EF11F030EF11F05D0EDC
:102208000101006F000E016F010E026F52EC1BF00E
:1022180000C1FEF001C1FFF05D0E01010B6F000E61
:102228000C6F010E0D6F010E0E6F0A0E0F6FFF0E71
:10223800106FB8EC1CF00BC1FEF00CC1FFF0030EE0
:102248000101146F8A0E136F550EE82EFED7132F57
:10225800FCD7142FFAD700D0340E0001EA6F030E12
:102268000101146F8A0E136F550EE82EFED7132F37
:10227800FCD7142FFAD700D0340E0001EA19D8B4CD
:1022880048EF11F04AEF11F077EF0DF0040E00015E
:10229800E819D8B452EF11F054EF11F08AEF06F0B4
:1022A800040EE919D8B45BEF11F05DEF11F08AEF75
:1022B80006F00FEF06F007EF00F00600FACF29F05E
:1022C800FBCF2AF0D9CF2BF0DACF2CF0F3CF2DF0BB
:1022D800F4CF2EF0F6CF2FF0F7CF30F0F8CF31F063
:1022E800F5CF32F0F2A87BEF11F07DEF11F086EF19
:1022F80011F0F2A282EF11F084EF11F086EF11F0E5
:102308006CEC1FF0F0A68BEF11F08DEF11F096EF4B
:1023180011F0F0A092EF11F094EF11F096EF11F098
:102328006AEC1FF0F0A89BEF11F09DEF11F0A6EFFB
:1023380011F0F0A2A2EF11F0A4EF11F0A6EF11F046
:1023480068EC1FF0F2A6ABEF11F0ADEF11F0C8EF9B
:1023580011F0F2A0B2EF11F0B4EF11F0C8EF11F0E4
:1023680081A8B9EF11F0BBEF11F0C8EF11F05C04D0
:10237800D8A4C1EF11F0C3EF11F0C8EF11F0000EAF
:102388005C6E000E3CEC1FF0F2A6CDEF11F0CFEF23
:1023980011F0EAEF11F0F2A0D4EF11F0D6EF11F03E
:1023A800EAEF11F081BADBEF11F0DDEF11F0EAEF9F
:1023B80011F05C50D8A4E3EF11F0E5EF11F0EAEF6B
:1023C80011F0010E5C6E010E3CEC1FF0F2A6EFEF6F
:1023D80011F0F1EF11F00CEF12F0F2A0F6EF11F09E
:1023E800F8EF11F00CEF12F081AAFDEF11F0FFEFFA
:1023F80011F00CEF12F05B04D8A405EF12F007EF10
:1024080012F00CEF12F0000E5B6E000E2FEC1FF0B6
:10241800F2A611EF12F013EF12F02EEF12F0F2A065
:1024280018EF12F01AEF12F02EEF12F081BA1FEF28
:1024380012F021EF12F02EEF12F05B50D8A427EF24
:1024480012F029EF12F02EEF12F0010E5B6E010E62
:102458002FEC1FF0F2A633EF12F035EF12F050EF29
:1024680012F0F2A03AEF12F03CEF12F050EF12F037
:1024780081AC41EF12F043EF12F050EF12F05A0422
:10248800D8A449EF12F04BEF12F050EF12F0000E03
:102498005A6E000E22EC1FF0F2A655EF12F057EF1D
:1024A80012F072EF12F0F2A05CEF12F05EEF12F091
:1024B80072EF12F081BC63EF12F065EF12F072EF69
:1024C80012F05A50D8A46BEF12F06DEF12F072EFC1
:1024D80012F0010E5A6E010E22EC1FF0F2A677EFF1
:1024E80012F079EF12F094EF12F0F2A07EEF12F0F2
:1024F80080EF12F094EF12F081AE85EF12F087EFC3
:1025080012F094EF12F05904D8A48DEF12F08FEF67
:1025180012F094EF12F0000E596E000E15EC1FF039
:10252800F2A699EF12F09BEF12F0B6EF12F0F2A0BC
:10253800A0EF12F0A2EF12F0B6EF12F081BEA7EFF3
:1025480012F0A9EF12F0B6EF12F05950D8A4AFEF7D
:1025580012F0B1EF12F0B6EF12F0010E596E010E43
:1025680015EC1FF09DACBBEF12F0BDEF12F0C6EFFB
:1025780012F09EACC2EF12F0C4EF12F0C6EF12F0E8
:1025880076EC1FF0F2AACBEF12F0CDEF12F0D6EFF7
:1025980012F0F2A4D2EF12F0D4EF12F0D6EF12F04C
:1025A80073EC1EF09DA0DBEF12F0DDEF12F0E6EF0A
:1025B80012F09EA0E2EF12F0E4EF12F0E6EF12F054
:1025C80059EC1FF09DA2EBEF12F0EDEF12F0F6EFD1
:1025D80012F09EA2F2EF12F0F4EF12F0F6EF12F002
:1025E8005EEC1FF0A0A2FBEF12F0FDEF12F006EF79
:1025F80013F0A1A202EF13F004EF13F006EF13F0AB
:1026080053EC1FF09DA40BEF13F00DEF13F016EF32
:1026180013F09EA412EF13F014EF13F016EF13F05B
:1026280072EC1FF0A0A01BEF13F01DEF13F026EFC4
:1026380013F0A1A022EF13F024EF13F026EF13F00C
:1026480070EC1FF09DA42BEF13F02DEF13F036EF75
:1026580013F09EA432EF13F034EF13F036EF13F0BB
:102668006EEC1FF09DA83BEF13F03DEF13F046EF23
:1026780013F09EA842EF13F044EF13F046EF13F067
:1026880062EC1FF09DAA4BEF13F04DEF13F056EFDD
:1026980013F09EAA52EF13F054EF13F056EF13F015
:1026A80074EC1FF09DA65BEF13F05DEF13F066EF7F
:1026B80013F09EA662EF13F064EF13F066EF13F0C9
:1026C80075EC1FF09DA66BEF13F06DEF13F076EF2E
:1026D80013F09EA672EF13F074EF13F076EF13F079
:1026E80064EC1FF0A0A67BEF13F07DEF13F086EFEC
:1026F80013F0A1A682EF13F084EF13F086EF13F026
:1027080066EC1FF032C0F5FF31C0F8FF30C0F7FFAC
:102718002FC0F6FF2EC0F4FF2DC0F3FF2CC0DAFF48
:102728002BC0D9FF2AC0FBFF29C0FAFF6592110010
:10273800010105510611D8A4A4EF13F0A6EF13F078
:10274800ACEF13F0000E0A6F000E096F49EF14F09A
:10275800010E05250001F66F000E0101062100019A
:10276800F76F23EC1DF005C1F6F006C1F7F023EC76
:102778001DF0000E01010B6F0B510525076F000EB0
:102788000621086F020E07250001F66F000E0101F1
:1027980008210001F76F23EC1DF0F6C009F1F7C01E
:1027A8000AF101010B2B030E0B65DDEF13F0DFEFD0
:1027B80013F0C0EF13F01A0E0101076FF80EE82EA0
:1027C800FED7072FFCD700F005C100F106C101F1C3
:1027D800380E0101026F52EC1BF0070E0101076F62
:1027E8007D0EE82EFED7072FFCD705C100F106C1E4
:1027F80001F1380E0101026F52EC1BF0C30E01010A
:10280800076FCD0EE82EFED7072FFCD705C100F1C4
:1028180006C101F1380E0101026F52EC1BF005C12F
:1028280000F106C101F1010E0101026F52EC1BF02B
:1028380005C100F106C101F1020E0101026F52EC5F
:102848001BF005C100F106C101F1060E0101026F7E
:1028580052EC1BF005C100F106C101F10C0E01019B
:10286800026F52EC1BF005C100F106C101F1280E00
:102878000101026F52EC1BF005C100F106C101F124
:10288800800E0101026F52EC1BF009C105F10AC16B
:1028980006F11200000E0001F46F010EF36FEB5108
:1028A800EC11D8B45AEF14F05CEF14F06DEF14F09B
:1028B800EBC0D9FFECC0DAFFDF30E832E832070BB3
:1028C800ED6F070EED656BEF14F06DEF14F0D4EFBC
:1028D80014F0000EF46F000EF36FF5EF14F0EBC078
:1028E800D9FFECC0DAFFDF30E832E832070BED6FD2
:1028F800010EEE6FED2B83EF14F0D890EE37ED2F2D
:1029080081EF14F00001EE51FF0AEF6FEBC0D9FF21
:10291800ECC0DAFFDF50070BF06FF051020D940E98
:10292800F324D96E000EF420DA6EDECFF1F0DDCF9D
:10293800F2F0F1C0D9FFF2C0DAFFEF51DF16F5EF80
:1029480014F0EBC0D9FFECC0DAFFDF30E832E83230
:10295800070BED6F010EEE6FED2BB5EF14F0D8906D
:10296800EE37ED2FB3EF14F0EBC0D9FFECC0DAFF70
:10297800DF50070B0001EF6FEF51020D940EF324A7
:10298800D96E000EF420DA6EDECFF0F0DDCFF1F074
:10299800F0C0D9FFF1C0DAFFEE51DF12F5EF14F005
:1029A800EBC0D9FFECC0DAFFDFBCDDEF14F0E0EFDD
:1029B80014F0010EE1EF14F0000EED6FEE6BEE5126
:1029C800000AD8B4EAEF14F06DEF14F0ED51000AE4
:1029D800D8B473EF14F0010AD8B4A5EF14F06DEF72
:1029E80014F0F3C0EBF0F4C0ECF012000001FC515D
:1029F800FD11D8A402EF15F004EF15F006EF15F05D
:102A0800A1EF15F0C69AFCC0D9FFFDC0DAFFDF5070
:102A18000101006FC6500019F00B0019C66EFCC00A
:102A2800D9FFFDC0DAFFDF50D8B41DEF15F01FEF56
:102A380015F045EF15F0FCC0D9FFFDC0DAFFDE0444
:102A4800D8B429EF15F02BEF15F045EF15F0FCC0C1
:102A5800D9FFFDC0DAFF020EDE18D8B436EF15F044
:102A680038EF15F045EF15F0FCC0D9FFFDC0DAFFCF
:102A7800030EDE18D8A443EF15F045EF15F049EF23
:102A880015F090EC1EF069EF15F0FCC0D9FFFDC001
:102A9800DAFF040EDE18D8B454EF15F056EF15F02F
:102AA80063EF15F0FCC0D9FFFDC0DAFF050EDE1894
:102AB800D8A461EF15F063EF15F069EF15F0FCC0CD
:102AC800F5F0FDC0F6F048EC1CF0000120EE01F036
:102AD800FC51D926FD51DA22DF50030B0101006FAA
:102AE800003BC6500019EF0B0019C66E000120EE1E
:102AF80001F0FC51D926FD51DA22DF38030B010120
:102B0800006F003B00470047C7500019BF0B001972
:102B1800C76E000120EE01F0FC51D926FD51DA22E2
:102B2800DF30E832030B0101006F00330033C75078
:102B380000197F0B0019C76EC68A1200000E00012B
:102B4800F56F000EF46FEB51EC11D8B4AEEF15F041
:102B5800B0EF15F0C1EF15F0EBC0D9FFECC0DAFF0C
:102B6800DF30E832E832070BEE6F070EEE65BFEF95
:102B780015F0C1EF15F02EEF16F0000EF56F010EEF
:102B8800F46F43EF16F0EBC0D9FFECC0DAFFDF308B
:102B9800E832E832070BEE6F010EEF6FEE2BD7EF3E
:102BA80015F0D890EF37EE2FD5EF15F00001EF5163
:102BB800FF0AF06FEBC0D9FFECC0DAFFDF50070B5C
:102BC800F16FF151020D8A0EF324D96E000EF42034
:102BD800DA6EDECFF2F0DDCFF3F0F2C0D9FFF3C04A
:102BE800DAFFF051DF1643EF16F0EBC0D9FFECC067
:102BF800DAFFDF30E832E832070BEE6F010EEF6FD5
:102C0800EE2B09EF16F0D890EF37EE2F07EF16F0FE
:102C1800EBC0D9FFECC0DAFFDF50070B0001F06F03
:102C2800F051020D8A0EF324D96E000EF420DA6EEC
:102C3800DECFF1F0DDCFF2F0F1C0D9FFF2C0DAFF5C
:102C4800EF51DF1243EF16F0000EF56F000EF46F30
:102C580043EF16F0ED51EE6FEF6BEF51000AD8B469
:102C680038EF16F028EF16F0EE51000AD8B4C7EF87
:102C780015F0010AD8B4F9EF15F028EF16F0F4C0F2
:102C8800EBF0F5C0ECF01200000E0B6E000E0A6EB1
:102C980001500210D8B453EF16F055EF16F066EF56
:102CA80016F001C0D9FF02C0DAFFDF30E832E8329F
:102CB800070B046E070E046464EF16F066EF16F057
:102CC800D1EF16F0000E0B6E010E0A6EE6EF16F04D
:102CD80001C0D9FF02C0DAFFDF30E832E832070B63
:102CE800046E010E056E042A7CEF16F0D8900536A6
:102CF800042E7AEF16F00550FF0A066E01C0D9FFC0
:102D080002C0DAFFDF50070B076E0750020D8A0E6C
:102D1800F324D96E000EF420DA6EDECF08F0DDCF92
:102D280009F008C0D9FF09C0DAFF0650DF16E6EF40
:102D380016F001C0D9FF02C0DAFFDF30E832E8320E
:102D4800070B046E010E056E042AADEF16F0D8903D
:102D58000536042EABEF16F001C0D9FF02C0DAFF2A
:102D6800DF50070B066E0650020D8A0EF324D96E4B
:102D7800000EF420DA6EDECF07F0DDCF08F007C0D2
:102D8800D9FF08C0DAFF0550DF12E6EF16F0000E93
:102D98000B6E000E0A6EE6EF16F00350046E056A1D
:102DA8000550000AD8B4DBEF16F0CBEF16F004504C
:102DB800000AD8B46CEF16F0010AD8B49DEF16F0EB
:102DC800CBEF16F00AC001F00BC002F012000001B0
:102DD800F751F811D8A4F3EF16F0F5EF16F0FCEF61
:102DE80016F0000E0101016F000E006F7AEF17F068
:102DF800000E0101026F000E036F000E036F000E3C
:102E0800046F04510001F725EB6F0101000E00016A
:102E1800F821EC6F000EED6FA2EC15F00101042B08
:102E2800030E04651AEF17F01CEF17F005EF17F003
:102E380003510001F725EB6F0101000E0001F82195
:102E4800EC6F010EED6FA2EC15F0000E0101046F9E
:102E580004510001F725FB6F000EF821FC6F040EEA
:102E6800FB25EB6F000EFC21EC6F020EED6F010EDF
:102E7800EE6F7FEC17F001010251D8B446EF17F05E
:102E880048EF17F063EF17F00351040D150EF32404
:102E98000001FB6FFE0EF420FC6F010104510001DC
:102EA800FB27000EFC23FBC0F6FFFCC0F7FFF86A07
:102EB800F9C0D9FFFAC0DAFF0800F5CFDFFF01013A
:102EC800042B030E04656BEF17F06DEF17F02CEF72
:102ED80017F0032B030E036574EF17F076EF17F066
:102EE80003EF17F0000E016F010E006F00C1F7F03D
:102EF80001C1F8F01200000E0001F66F010EF56F27
:102F0800EB51EC11D8B48BEF17F08DEF17F0A7EF5A
:102F180017F0ED51EE11D8B494EF17F096EF17F0C3
:102F2800A7EF17F0EBC0D9FFECC0DAFFDF30E832CB
:102F3800E832070BEF6F070EEF65A5EF17F0A7EF65
:102F480017F0ADEF17F0000EF66F000EF56FE1EF1A
:102F580017F0EBC0D9FFECC0DAFFDF50070BEF6FBB
:102F6800EF51020D800EF324D96E000EF420DA6EB4
:102F7800DECFF0F0DDCFF1F0F0C0D9FFF1C0DAFF1D
:102F8800DF50F26FEBC0D9FFECC0DAFFDF30E83278
:102F9800E832070BF36F010EF46FF32BD6EF17F03F
:102FA800D890F437F32FD4EF17F00001F451F2154D
:102FB800EDC0D9FFEEC0DAFFDF6EF5C0EBF0F6C06A
:102FC800ECF01200492A020E4918D8A4EEEF17F0C7
:102FD800F0EF17F047EF18F0040E0001E819D8A435
:102FE800F8EF17F0FAEF17F047EF18F05D0E146ED0
:102FF800000E156E010E166E93EC1BF014C0FEF059
:1030080015C0FFF05D0E1F6E000E206E010E216EC2
:10301800010E226EA90E236EFE0E246EEEEC1CF03D
:103028001FC0FEF020C0FFF05D0E1F6E000E206E68
:10303800020E216E010E226E3A0E236EFE0E246ED3
:10304800EEEC1CF01FC0FEF020C0FFF05D0E1F6EFE
:10305800000E206E030E216E010E226EB90E236E35
:10306800FE0E246EEEEC1CF01FC0FEF020C0FFF038
:10307800060E286E130E276EAE0EE82EFED7272EEC
:10308800FCD7282EFAD71200000120EE05F0EB51EC
:10309800D926EC51DA22DFB454EF18F056EF18F0C5
:1030A80079EF18F0D59A20EE05F0EB51D926EC51BE
:1030B800DA22DFA262EF18F064EF18F067EF18F079
:1030C800D588A5EF18F020EE05F0EB51D926EC5184
:1030D800DA22DFB272EF18F074EF18F077EF18F019
:1030E800D598A5EF18F0A5EF18F020EE05F0EB51F4
:1030F800D926EC51DA22DFA484EF18F086EF18F015
:10310800A5EF18F0D58A20EE05F0EB51D926EC5141
:10311800DA22DFA292EF18F094EF18F097EF18F088
:10312800D588A5EF18F020EE05F0EB51D926EC5123
:10313800DA22DFB2A2EF18F0A4EF18F077EF18F058
:10314800D5981200000E0001F36F010EF26FEE51D8
:10315800EF11D8A4B2EF18F0B4EF18F0BAEF18F0E6
:10316800000EF36F000EF26FFCEF18F0D59EEEC064
:10317800EBF0EFC0ECF083EC1DF0EEC0EBF0EFC02D
:10318800ECF048EC18F0EEC0EBF0EFC0ECF053ECCC
:103198001EF0000120EE03F0EE51D926EF51DA229D
:1031A800DECFF0F0DDCFF1F0F1C0F0F0F16BF051CF
:1031B800D76E20EE03F0EE51D926EF51DA22DF5018
:1031C800D66E20EE03F0EE51D926EF51DA22DECF8B
:1031D80039F0DDCF3AF0F28AF294EEC0D9FFEFC0B1
:1031E800DAFFDECF3BF0DDCF3CF0F28EF28CD58EED
:1031F800F2C0EEF0F3C0EFF012000001FA51FB113B
:10320800D8A409EF19F00BEF19F012EF19F0000E1E
:103218000101016F000E006F50EF19F050C002F16C
:10322800FAC0D9FFFBC0DAFFDF50070BFC6F0101C2
:1032380002510001FC19F80BFC190101026FFAC0D8
:10324800D9FFFBC0DAFFDF30E832E832070B0001B4
:10325800FC6FFC47FC47FC47010102510001FC19C7
:10326800C70BFC190101026F029DFAC0D9FFFBC010
:10327800DAFF0001DFAC03D00101028F02D00101A7
:10328800029F020E0001F66F010EF76F23EC1DF08E
:10329800F6C000F1F7C001F100C1FAF001C1FBF07E
:1032A80012000101080785EF19F005C100F106C1F8
:1032B80001F10851800F026F52EC1BF0A2EF19F0D8
:1032C80005C100F106C101F10851C00F026F52ECAF
:1032D8001BF0A2EF19F005C100F106C101F1085178
:1032E800940F026F52EC1BF0A2EF19F005C100F128
:1032F80006C101F10851D40F026F52EC1BF0A2EF86
:1033080019F00751096F0A6B0A51000AD8B48FEFF8
:1033180019F0A2EF19F00951010AD8B459EF19F0C0
:10332800030AD8B464EF19F0010AD8B46FEF19F0A2
:10333800070AD8B47AEF19F0A2EF19F012001C06A8
:10334800D2EF19F019C014F01AC015F01C50800FF4
:10335800166E93EC1BF0EFEF19F019C014F01AC0B9
:1033680015F01C50C00F166E93EC1BF0EFEF19F020
:1033780019C014F01AC015F01C50940F166E93EC77
:103388001BF0EFEF19F019C014F01AC015F01C501B
:10339800D40F166E93EC1BF0EFEF19F01B501D6E57
:1033A8001E6A1E50000AD8B4DCEF19F0EFEF19F0CE
:1033B8001D50010AD8B4A6EF19F0030AD8B4B1EF2A
:1033C80019F0010AD8B4BCEF19F0070AD8B4C7EF4E
:1033D80019F0EFEF19F012000001FA51FB11D8A40F
:1033E800F8EF19F0FAEF19F001EF1AF0000E0101E9
:1033F800016F000E006F37EF1AF0000E0101026F27
:10340800000E026F02510001FA25F66F0101000E4D
:103418000001FB21F76F23EC1DF0F6C000F1F7C0A7
:1034280001F1010102510001FA25FC6F000EFB2198
:10343800FD6F040EFC25F66F000EFD21F76F23ECDF
:103448001DF0F6C000F1F7C001F10101022B030ED7
:10345800026531EF1AF033EF1AF006EF1AF0000E9A
:10346800016F010E006F00C1FAF001C1FBF01200FC
:103478000001F651F711D8A444EF1AF046EF1AF0FC
:103488004CEF1AF0000EFA6F000EF96F82EF1AF087
:103498004FC0FBF0F6C0D9FFF7C0DAFFDF50070BCB
:1034A800F86FFB51F819F80BF819FB6FF6C0D9FF44
:1034B800F7C0DAFFDF30E832E832070BF86FF84779
:1034C800F847F847FB51F819C70BF819FB6FFB9D34
:1034D800F6C0D9FFF7C0DAFFDFAC02D0FB8F02D00D
:1034E8000001FB9FFB0EEB6F000EEC6F010EED6F02
:1034F800A2EC15F0EBC0F9F0ECC0FAF0F9C0F6F068
:10350800FAC0F7F01200000E01010A6F010E096FF0
:1035180005510611D8B493EF1AF095EF1AF09EEF03
:103528001AF007510811D8A49CEF1AF09EEF1AF070
:10353800B9EF1AF0000E0A6F000E096FC8EF1AF003
:1035480005C100F106C101F107C1F6FF08C1F7FF87
:10355800F86A0800F5CF02F111EC1BF000C109F17F
:1035680001C10AF10101074B082B07C1F6FF08C189
:10357800F7FFF86A0800F5500009D8A4C6EF1AF05A
:10358800C8EF1AF0A4EF1AF009C105F10AC106F153
:103598001200000E1E6E010E1D6E19501A10D8B4BE
:1035A800D8EF1AF0DAEF1AF0E3EF1AF01B501C10FC
:1035B800D8A4E1EF1AF0E3EF1AF0FDEF1AF0000ECD
:1035C8001E6E000E1D6E0CEF1BF019C014F01AC011
:1035D80015F01BC0F6FF1CC0F7FFF86A0800F5CF0E
:1035E80016F0D0EC1BF014C01DF015C01EF01B4ADD
:1035F8001C2A1BC0F6FF1CC0F7FFF86A0800F5502C
:103608000009D8A40AEF1BF00CEF1BF0E9EF1AF041
:103618001DC019F01EC01AF012000101005101115D
:10362800D8A419EF1BF01BEF1BF021EF1BF0000EC5
:10363800046F000E036F4DEF1BF000C1EBF001C1EA
:10364800ECF0010E0001ED6FA2EC15F0EBC003F1F8
:10365800ECC004F100C1F6F001C1F7F00101023934
:103668000F0B0001F86F55EC1DF000C1F6F001C119
:10367800F7F0C8EC1EF000C1F6F001C1F7F002C186
:10368800F8F055EC1DF000C1F6F001C1F7F0C8ECF8
:103698001EF003C100F104C101F112000101005143
:1036A8000111D8A45AEF1BF05CEF1BF062EF1BF07E
:1036B800000E046F000E036F8EEF1BF000C1EBF0DD
:1036C80001C1ECF0000E0001ED6FA2EC15F0EBC0AB
:1036D80003F1ECC004F100C1F6F001C1F7F00101FB
:1036E80002390F0B0001F86F55EC1DF000C1F6F020
:1036F80001C1F7F0C8EC1EF000C1F6F001C1F7F007
:1037080002C1F8F055EC1DF000C1F6F001C1F7F068
:10371800C8EC1EF003C100F104C101F112001450FD
:103728001510D8A49AEF1BF09CEF1BF0A2EF1BF02A
:10373800000E186E000E176ECBEF1BF014C001F0D0
:1037480015C002F0000E036E48EC16F001C017F029
:1037580002C018F014C00CF015C00DF016380F0B8D
:103768000E6EDBEC1DF014C00CF015C00DF0E2EC91
:103778001EF014C00CF015C00DF016C00EF0DBECF6
:103788001DF014C00CF015C00DF0E2EC1EF017C0CF
:1037980014F018C015F0120014501510D8A4D7EF63
:1037A8001BF0D9EF1BF0DFEF1BF0000E186E000EB8
:1037B800176E08EF1CF014C001F015C002F0010EDE
:1037C800036E48EC16F001C017F002C018F014C0E0
:1037D8000CF015C00DF016380F0B0E6EDBEC1DF05B
:1037E80014C00CF015C00DF0E2EC1EF014C00CF083
:1037F80015C00DF016C00EF0DBEC1DF014C00CF077
:1038080015C00DF0E2EC1EF017C014F018C015F04A
:103818001200000E0001F06F010EEF6F040EEC5D58
:10382800D8A019EF1CF01BEF1CF021EF1CF0000EC4
:10383800F06F000EEF6F43EF1CF0000EF2BE010EAA
:10384800EE6FEC51030BAA6EEBC0A9FFEDC0A8FF09
:10385800A69EA69CA684F29E550EA76EAA0EA76EDB
:10386800A682A6B23AEF1CF03CEF1CF035EF1CF034
:10387800A6940001EEB102D0F29E01D0F28EEFC004
:10388800EBF0F0C0ECF0120055C0F8F054C0F9F0BD
:1038980053C0FBF052C0FAF0F80E0001EB6F000EB7
:1038A800EC6F4EEC14F0F90E0001EB6F000EEC6FAC
:1038B8004EEC14F0FB0E0001EB6F000EEC6F4EECBB
:1038C80014F0FB0E0001EB6F000EEC6F4EEC14F0E1
:1038D800F5C0D9FFF6C0DAFF040EDE18D8A477EFDA
:1038E8001CF079EF1CF080EF1CF0FA0E0001EB6F72
:1038F800000EEC6F4EEC14F01200580EF66E3D0EF2
:10390800F76E000EF86E00EE80F010EE37F009004A
:10391800F5CFEEFFE550E150FAE1920EF66E3E0E5D
:10392800F76E000EF86E00EE52F010EE13F009007C
:10393800F5CFEEFFE550E150FAE101EE15F00B0E80
:10394800EE6AE806FDE100EEB7F0340EEE6AE8062E
:10395800FDE100EE33F01F0EEE6AE806FDE165902A
:103968006592000109EF00F001010B510C11D8B468
:10397800C0EF1CF0C2EF1CF0CBEF1CF00F51101180
:10398800D8A4C9EF1CF0CBEF1CF0D1EF1CF0000E4F
:10399800126F000E116FE9EF1CF00BC105F10CC19D
:1039A80006F10DC107F10EC108F155EC19F00BC174
:1039B80005F10CC106F10FC107F110C108F187EC40
:1039C8001AF005C111F106C112F111C10BF112C1B2
:1039D8000CF112001F502010D8B4F5EF1CF0F7EFCF
:1039E8001CF000EF1DF023502410D8A4FEEF1CF0AB
:1039F80000EF1DF006EF1DF0000E266E000E256E7E
:103A08001EEF1DF01FC019F020C01AF021C01BF0D6
:103A180022C01CF0A3EC19F01FC019F020C01AF046
:103A280023C01BF024C01CF0CDEC1AF019C025F0FF
:103A38001AC026F025C01FF026C020F01200000191
:103A4800F651F711D8A42BEF1DF02DEF1DF033EF31
:103A58001DF0000EF96F000EF86F50EF1DF0F6C064
:103A6800EBF0F7C0ECF04EEC14F0EBC0F8F0ECC063
:103A7800F9F0F6C0EBF0F7C0ECF0F6C0D9FFF7C0EC
:103A8800DAFF0001000EDFBE010EED6FA2EC15F0AB
:103A9800EBC0F8F0ECC0F9F0F8C0F6F0F9C0F7F0B8
:103AA8001200000E0001FD6F000EFD6FFD51F6259E
:103AB800F96F000EF721FA6F020EF925EB6F000E71
:103AC800FA21EC6FFDC0FBF0F8C0FCF0FB2B6FEFA8
:103AD8001DF0D890FC33FB2F6DEF1DF00001FC5159
:103AE800010BED6FA2EC15F00001FD2B030EFD6537
:103AF80080EF1DF082EF1DF05AEF1DF0120000015B
:103B080020EE05F0EB51D926EC51DA22DFB08FEF29
:103B18001DF091EF1DF0A1EF1DF0D59620EE02F0FB
:103B2800EB51D926EC51DA22DF50ED6FD550ED1963
:103B3800F80BED19D56EAFEF1DF020EE05F0EB5147
:103B4800D926EC51DA22DFA0ACEF1DF0AEEF1DF064
:103B5800AFEF1DF0D5861200000E0101116F010EA6
:103B6800106F0B510C11D8A4BCEF1DF0BEEF1DF067
:103B7800C4EF1DF0000E116F000E106FD6EF1DF090
:103B88000BC105F10CC106F10DC107F10EC108F119
:103B980055EC19F00BC100F10CC101F10FC102F194
:103BA80011EC1BF010C10BF111C10CF11200000E49
:103BB800136E000E136E13500C240F6E000E0D20A2
:103BC800106E020E0F24016E000E1020026E13C03C
:103BD80011F00EC012F0112AF4EF1DF0D890123235
:103BE800112EF2EF1DF01250010B036E48EC16F087
:103BF800132A030E136403EF1EF005EF1EF0DFEF28
:103C08001DF01200000E0001F06F010EEF6FED5174
:103C1800EE11D8A412EF1EF014EF1EF01AEF1EF0EA
:103C2800000EF06F000EEF6F2AEF1EF0EC51030B41
:103C3800AA6EEBC0A9FFA69EA69CA68000F000F085
:103C4800EDC0D9FFEEC0DAFFA8CFDFFFEFC0EBF081
:103C5800F0C0ECF01200640E0001FA6F000EFB6F6A
:103C680001EC19F0630E0001FA6F000EFB6F01EC16
:103C780019F0510E0001FA6F000EFB6F01EC19F0FC
:103C88005D0E0101056F000E066F9CEC13F0A40E8B
:103C98000001FA6F000EFB6FF0EC19F01200000142
:103CA80020EE05F0EB51D926EC51DA22DFB65FEFB2
:103CB8001EF061EF1EF064EF1EF0D58C72EF1EF05F
:103CC80020EE05F0EB51D926EC51DA22DFA66FEF92
:103CD8001EF071EF1EF072EF1EF0D59C1200F294E8
:103CE8003A50D76E39C0D6FF3B503C10D8A47FEF6E
:103CF8001EF081EF1EF083EF1EF08FEF1EF002D84A
:103D08008FEF1EF00500FA6E3B50FD6E3C50FE6EC4
:103D1800FF6AFA501200120058C0F5F057C0F6F0CA
:103D280056C0F7F0F50E0001EB6F000EEC6F4EEC8D
:103D380014F0F60E0001EB6F000EEC6F4EEC14F071
:103D4800F70E0001EB6F000EEC6F4EEC14F0120052
:103D5800800F810F820F830F840F890F8A0F8B0FBB
:103D68008C0F8D0F920F930F940F950F960F0303DF
:103D7800010C0602030B131B636B737BCC2F066AC3
:073D880067080011FFFFFFB7
:103D9000010E0001F625EB6F000EF721EC6F010E0E
:103DA000ED6FA2EC15F000D000D000F0010E000184
:103DB000F625EB6F000EF721EC6F000EED6FA2EC15
:103DC00015F01200010E0C24016E000E0D20026E83
:103DD000010E036E48EC16F000D000D000F0010E8A
:103DE0000C24016E000E0D20026E000E036E48ECD6
:103DF00016F012002FEC1EF0B20E0001FC6F000E48
:103E0000FD6FFAEC14F0FCC0FEF0FDC0FFF01200F4
:103E10000001ED6FEDC0C9FF9EA611EF1FF013EF7B
:103E20001FF00CEF1FF09E961200016EF2900150F1
:103E3000D8A41DEF1FF01FEF1FF021EF1FF021EF9F
:103E40001FF01200016EF2900150D8A42AEF1FF06B
:103E50002CEF1FF02EEF1FF02EEF1FF01200016E5F
:103E6000F2900150D8A437EF1FF039EF1FF03BEF6D
:103E70001FF03BEF1FF01200016EF2900150D8A42A
:103E800044EF1FF046EF1FF048EF1FF048EF1FF020
:103E90001200685A622A1A622A01010101020A12FA
:053EA00018323A081081
:103EA600A1923450B36E33C0B2FF12003850CF6EB9
:103EB60037C0CEFF12009E9235C0CCFF12009D98EF
:103EC60012009E961200A1961200F0921200F09037
:103ED6001200F29212009E941200A19012009E947B
:083EE60012001200120012008C
:10FE1400003738392F3435362A3132332D40303DCE
:10FE24002B546F20536D61727420486F6D6520539D
:10FE3400797374656D00726573746172742074688B
:10FE4400652073797374656D2000737563636573DE
:10FE54007366756C6C7920616464656400536574C1
:10FE64002041646D696E2050617373776F72640012
:10FE74005365742047756573742050617373776F8D
:10FE84007264006C6F6164696E6720626C6F636B8F
:10FE940065642E2E0053756363657373204C6F671E
:10FEA400696E2E2E0073657373696F6E2074696DAD
:10FEB400656F757400746F20656E74657220616778
:10FEC40061696E0053656C656374204D6F646520D1
:10FED4003A0041646D696E204D6F64653A2D0047A8
:10FEE40075657374204D6F64653A2D0057726F6E9B
:10FEF4006720696E7075742E0077616974202031F3
:10FF040030207365630057726F6E672063686F6992
:10FF140063650041646D696E20506173733A0047F4
:10FF24007565737420506173733A00577269746510
:10FF340020706173733A005472696573206C65664E
:10FF4400743A00333A41697220636F6E2E00323A7C
:10FF54006C6564206F666600526F6F6D3120533A92
:10FF640000526F6F6D3220533A00526F6F6D332021
:10FF7400533A00526F6F6D3420533A00323A54565C
:10FF8400206F666600313A2041646D696E00313A33
:10FF94006C6564206F6E00323A2047756573740097
:10FFA400313A526F6F6D3100323A526F6F6D3200D9
:10FFB400333A526F6F6D3300313A526F6F6D3400C4
:10FFC400343A526F6F6D340057656C636F6D650022
:10FFD400313A5456206F6E00343A4D6F72650054B6
:10FFE4005620533A00303A52657400323A5456005F
:0CFFF4004F4E20004F46460025690000DB
:020000040020DA
:08000000FFFFFFFFFFFFFFFF00
:020000040030CA
:0E000000FF02091EFF8381FF0FC00FE00F40BB
:00000001FF
