:0400000007EF00F016
:100008006582CAED14F08AEF20F004EC23F05D0E4F
:100018000101016F000E026F010E036F1BEC1FF050
:1000280001C1FEF002C1FFF05D0E01010C6F000E70
:100038000D6F010E0E6F070E0F6FCC0E106FFF0EB7
:10004800116FC1EC20F00CC1FEF00DC1FFF05D0E88
:1000580001010C6F000E0D6F020E0E6F010E0F6F77
:10006800DE0E106FFD0E116FC1EC20F00CC1FEF01A
:100078000DC1FFF0060E0101156F130E146FAD0EC2
:10008800E82EFED7142FFCD7152FFAD700D05D0E17
:100098000101016F000E026F010E036F1BEC1FF0D0
:1000A80001C1FEF002C1FFF0010E0001ED6F000E6C
:1000B800EC6FB60EEE6F000EEF6F10EC22F0ECC096
:1000C800FEF0EDC0FFF0010E0001ED6F010EEC6FC8
:1000D800B50EEE6F000EEF6F10EC22F0ECC0FEF0E4
:1000E800EDC0FFF00001B629D8B47DEF00F07FEF36
:1000F80000F087EF00F0B529D8A485EF00F087EF6E
:1001080000F070EF02F05D0E01010C6F000E0D6F34
:10011800010E0E6F010E0F6F420E106FFE0E116F63
:10012800C1EC20F00CC1FEF00DC1FFF05D0E010125
:100138000C6F000E0D6F020E0E6F010E0F6F0D0E7D
:10014800106FFF0E116FC1EC20F00CC1FEF00DC155
:10015800FFF020EF01F0A40EF86F000EF96FEB0E20
:10016800FA6F000EFB6F54EC1AF0F8C0FEF0F9C0FD
:10017800FFF00001EB51D8B4C4EF00F0C6EF00F077
:10018800AFEF00F0A3C0ECF0ED6BEBC0EEF016ECB7
:1001980020F0ECC0FEF0EDC0FFF05D0E01010C6F29
:1001A800000E0D6F020E0E6FA1C00FF1EBC010F123
:1001B800BAEC21F00CC1FEF00DC1FFF0030E0101F5
:1001C800156F8A0E146F550EE82EFED7142FFCD724
:1001D800152FFAD700D05D0E0101016F000E026FD6
:1001E800100E036F1BEC1FF001C1FEF002C1FFF0FF
:1001F8005D0E01010C6F000E0D6F020E0E6FA1C097
:100208000FF12A0E106FBAEC21F00CC1FEF00DC1EF
:10021800FFF05D0E0101016F000E026F0E0E036FFD
:100228001BEC1FF001C1FEF002C1FFF0000E00013F
:10023800EB6FA12BA32BA02B040E0001A06527EFC9
:1002480001F029EF01F0AFEF00F05D0E0101016F41
:10025800000E026F0C0E036F1BEC1FF001C1FEF0C5
:1002680002C1FFF05D0E01010C6F000E0D6F030E51
:100278000E6F010E0F6F2F0E106FFE0E116FC1EC77
:1002880020F00CC1FEF00DC1FFF0030E0101156F47
:100298008A0E146F550EE82EFED7142FFCD7152F93
:1002A800FAD700D05D0E0101016F000E026F010E3A
:1002B800036F1BEC1FF001C1FEF002C1FFF05D0EE1
:1002C80001010C6F000E0D6F010E0E6F010E0F6F06
:1002D800550E106FFE0E116FC1EC20F00CC1FEF030
:1002E8000DC1FFF05D0E01010C6F000E0D6F020EC7
:1002F8000E6F010E0F6F190E106FFF0E116FC1EC0C
:1003080020F00CC1FEF00DC1FFF0010E0001A06F3E
:100318000C0EA16F01EF02F0A40EF86F000EF96F3A
:10032800EB0EFA6F000EFB6F54EC1AF0F8C0FEF0FB
:10033800F9C0FFF00001EB51D8B4A5EF01F0A7EF29
:1003480001F090EF01F0A2C0ECF0ED6BEBC0EEF025
:1003580016EC20F0ECC0FEF0EDC0FFF05D0E0101E0
:100368000C6F000E0D6F020E0E6FA1C00FF1EBC0E7
:1003780010F1BAEC21F00CC1FEF00DC1FFF0030E34
:100388000101156F8A0E146F550EE82EFED7142F33
:10039800FCD7152FFAD700D05D0E0101016F000EB2
:1003A800026F100E036F1BEC1FF001C1FEF002C1BB
:1003B800FFF05D0E01010C6F000E0D6F020E0E6F47
:1003C800A1C00FF12A0E106FBAEC21F00CC1FEF09B
:1003D8000DC1FFF05D0E0101016F000E026F0E0EE0
:1003E800036F1BEC1FF001C1FEF002C1FFF0000E0D
:1003F8000001EB6FA12BA22BA02B040EA06507EF29
:1004080002F009EF02F090EF01F0020E0101156F02
:10041800040E146FBA0EE82EFED7142FFCD7152F32
:10042800FAD700F05D0E0101016F000E026F0C0E8D
:10043800036F1BEC1FF001C1FEF002C1FFF05D0E5F
:1004480001010C6F000E0D6F030E0E6F010E0F6F82
:100458002F0E106FFE0E116FC1EC20F00CC1FEF0D4
:100468000DC1FFF0030E0101156F8A0E146F550EB2
:10047800E82EFED7142FFCD7152FFAD700D05D0E23
:100488000101016F000E026F010E036F1BEC1FF0DC
:1004980001C1FEF002C1FFF0010E0001B66F010EAE
:1004A800B56F010EED6F000EEC6FB6C0EEF016ECF6
:1004B80020F0ECC0FEF0EDC0FFF0010E0001ED6F82
:1004C800010EEC6FB5C0EEF016EC20F0ECC0FEF0BB
:1004D800EDC0FFF0C8EF14F0B605D8B476EF02F01F
:1004E80078EF02F080EF02F0B505D8A47EEF02F0B5
:1004F80080EF02F0C8EF14F05D0E01010C6F000EE2
:100508000D6F010E0E6F010E0F6FBE0E106FFE0EF7
:10051800116FC1EC20F00CC1FEF00DC1FFF05D0EB3
:1005280001010C6F000E0D6F020E0E6F010E0F6FA2
:10053800890E106FFF0E116FC1EC20F00CC1FEF098
:100548000DC1FFF05D0E01010C6F000E0D6F030E63
:100558000E6F010E0F6F9B0E106FFF0E116FC1EC27
:1005680020F00CC1FEF00DC1FFF0A40E0001F86FE1
:10057800000EF96FEB0EFA6F000EFB6F54EC1AF0D9
:10058800F8C0FEF0F9C0FFF00001EB51D8B4CFEF8E
:1005980002F0D1EF02F0B9EF02F052EF04F05D0E75
:1005A8000101016F000E026F010E036F1BEC1FF0BB
:1005B80001C1FEF002C1FFF05D0E01010C6F000EDB
:1005C8000D6F010E0E6F010E0F6FCC0E106FFE0E29
:1005D800116FC1EC20F00CC1FEF00DC1FFF05D0EF3
:1005E80001010C6F000E0D6F020E0E6F010E0F6FE2
:1005F800250E106FFF0E116FC1EC20F00CC1FEF03C
:100608000DC1FFF0000E0001EB6F020E0101156F26
:10061800860E146F990EE82EFED7142FFCD7152FCF
:10062800FAD795EF03F0A40EF86F000EF96FEB0EF2
:10063800FA6F000EFB6F54EC1AF0F8C0FEF0F9C028
:10064800FFF00001EB51D8B42CEF03F02EEF03F0CC
:1006580017EF03F0A3C0ECF0ED6BB40EEE6F000ED5
:10066800EF6F10EC22F0ECC0FEF0EDC0FFF00001DF
:10067800EB51B419D8A443EF03F045EF03F046EF6C
:1006880003F0EA2B5D0E01010C6F000E0D6F020ED8
:100698000E6FA1C00FF1EBC010F1BAEC21F00CC144
:1006A800FEF00DC1FFF0030E0101156F8A0E146FE5
:1006B800550EE82EFED7142FFCD7152FFAD700D0E9
:1006C8005D0E0101016F000E026F100E036F1BEC2F
:1006D8001FF001C1FEF002C1FFF05D0E01010C6FB9
:1006E800000E0D6F020E0E6FA1C00FF12A0E106FD3
:1006F800BAEC21F00CC1FEF00DC1FFF05D0E010156
:10070800016F000E026F0E0E036F1BEC1FF001C18C
:10071800FEF002C1FFF0000E0001EB6FA12BA32B2E
:10072800A02B040E0001A0659CEF03F09EEF03F0E0
:1007380017EF03F0040EEA19D8A4A5EF03F0A7EF0A
:1007480003F0E5EF03F05D0E0101016F000E026F8B
:10075800010E036F1BEC1FF001C1FEF002C1FFF098
:100768005D0E0101016F000E026F0C0E036F1BEC92
:100778001FF001C1FEF002C1FFF05D0E01010C6F18
:10078800000E0D6F020E0E6F010E0F6F9E0E106F92
:10079800FE0E116FC1EC20F00CC1FEF00DC1FFF090
:1007A800000E0001EB6F020E0101156F860E146F2B
:1007B800990EE82EFED7142FFCD7152FFAD752EF33
:1007C80004F0310EEB6F5D0E0101016F000E026F38
:1007D800010E036F1BEC1FF001C1FEF002C1FFF018
:1007E8005D0E0101016F000E026F0C0E036F1BEC12
:1007F8001FF001C1FEF002C1FFF05D0E01010C6F98
:10080800000E0D6F010E0E6F010E0F6FE60E106FCA
:10081800FE0E116FC1EC20F00CC1FEF00DC1FFF00F
:100828005D0E01010C6F000E0D6F020E0E6F010EB2
:100838000F6F310E106FFF0E116FC1EC20F00CC15D
:10084800FEF00DC1FFF05D0E01010C6F000E0D6F83
:10085800020E0E6F0C0E0F6F00019F512F0F01013A
:10086800106FBAEC21F00CC1FEF00DC1FFF0030EC1
:100878000101156F8A0E146F550EE82EFED7142F3E
:10088800FCD7152FFAD700D0010E0001EA6F010E30
:10089800A06F020EA36F0C0EA16F9F07310E00010F
:1008A800EB19D8A45AEF04F05CEF04F0F3EF05F06D
:1008B8009F51D8A462EF04F064EF04F0D3EF02F084
:1008C800F3EF05F05D0E0101016F000E026F010EDE
:1008D800036F1BEC1FF001C1FEF002C1FFF05D0EBB
:1008E80001010C6F000E0D6F010E0E6F010E0F6FE0
:1008F800D90E106FFE0E116FC1EC20F00CC1FEF086
:100908000DC1FFF05D0E01010C6F000E0D6F020EA0
:100918000E6F010E0F6F250E106FFF0E116FC1ECD9
:1009280020F00CC1FEF00DC1FFF0000E0001EB6FCE
:10093800020E0101156F860E146F990EE82EFED770
:10094800142FFCD7152FFAD728EF05F0A40EF86F4F
:10095800000EF96FEB0EFA6F000EFB6F54EC1AF0F5
:10096800F8C0FEF0F9C0FFF00001EB51D8B4BFEFBA
:1009780004F0C1EF04F0AAEF04F0A2C0ECF0ED6BB4
:10098800B40EEE6F000EEF6F10EC22F0ECC0FEF02C
:10099800EDC0FFF00001EB51B419D8A4D6EF04F074
:1009A800D8EF04F0D9EF04F0E92B5D0E01010C6FCC
:1009B800000E0D6F020E0E6FA1C00FF1EBC010F10B
:1009C800BAEC21F00CC1FEF00DC1FFF0030E0101DD
:1009D800156F8A0E146F550EE82EFED7142FFCD70C
:1009E800152FFAD700D05D0E0101016F000E026FBE
:1009F800100E036F1BEC1FF001C1FEF002C1FFF0E7
:100A08005D0E01010C6F000E0D6F020E0E6FA1C07E
:100A18000FF12A0E106FBAEC21F00CC1FEF00DC1D7
:100A2800FFF05D0E0101016F000E026F0E0E036FE5
:100A38001BEC1FF001C1FEF002C1FFF0000E000127
:100A4800EB6FA12BA22BA02B040E0001A0652FEFAA
:100A580005F031EF05F0AAEF04F0040EE919D8A467
:100A680038EF05F03AEF05F086EF05F05D0E01016D
:100A7800016F000E026F010E036F1BEC1FF001C126
:100A8800FEF002C1FFF05D0E0101016F000E026F62
:100A98000C0E036F1BEC1FF001C1FEF002C1FFF04A
:100AA8005D0E01010C6F000E0D6F020E0E6F010E30
:100AB8000F6F9E0E106FFE0E116FC1EC20F00CC16F
:100AC800FEF00DC1FFF0000E0001EB6F060E0101F4
:100AD800156F130E146FAD0EE82EFED7142FFCD72A
:100AE800152FFAD700D05D0E0101016F000E026FBD
:100AF800010E036F1BEC1FF001C1FEF002C1FFF0F5
:100B0800F3EF05F0320EEB6F5D0E0101016F000E81
:100B1800026F010E036F1BEC1FF001C1FEF002C152
:100B2800FFF05D0E0101016F000E026F0C0E036FE6
:100B38001BEC1FF001C1FEF002C1FFF05D0E0101C8
:100B48000C6F000E0D6F010E0E6F010E0F6FE60E8B
:100B5800106FFE0E116FC1EC20F00CC1FEF00DC13C
:100B6800FFF05D0E01010C6F000E0D6F020E0E6F8F
:100B7800010E0F6F310E106FFF0E116FC1EC20F0D8
:100B88000CC1FEF00DC1FFF05D0E01010C6F000EEF
:100B98000D6F020E0E6F0C0E0F6F00019E512F0F7E
:100BA8000101106FBAEC21F00CC1FEF00DC1FFF08D
:100BB800030E0101156F8A0E146F550EE82EFED72D
:100BC800142FFCD7152FFAD700D0000E0001E96FBB
:100BD800060EA26F010EA06F0C0EA16F9E07320EBB
:100BE8000001EB19D8A4FBEF05F0FDEF05F005EFC8
:100BF80006F09E51D8A403EF06F005EF06F066EF65
:100C080004F0AC0EEF6F000EF06F10EC1CF0EFC0AC
:100C1800FEF0F0C0FFF000019F51D8A416EF06F0D7
:100C280018EF06F058EF06F05D0E01010C6F000E8C
:100C38000D6F010E0E6F010E0F6F7A0E106FFE0E04
:100C4800116FC1EC20F00CC1FEF00DC1FFF05D0E7C
:100C580001010C6F000E0D6F020E0E6F010E0F6F6B
:100C6800F30E106FFE0E116FC1EC20F00CC1FEF0F8
:100C78000DC1FFF0640E0001F76F000EF86F05EC70
:100C88001EF0F7C0FEF0F8C0FFF0330E0101156F3B
:100C9800BB0E146FDF0EE82EFED7142FFCD7152FCE
:100CA800FAD700D0C8EF14F09E51D8A45EEF06F032
:100CB80060EF06F0B3EF14F0000E496E5D0E01010F
:100CC8000C6F000E0D6F010E0E6F010E0F6F7A0E76
:100CD800106FFE0E116FC1EC20F00CC1FEF00DC1BB
:100CE800FFF05D0E01010C6F000E0D6F020E0E6F0E
:100CF800010E0F6FF30E106FFE0E116FC1EC20F096
:100D08000CC1FEF00DC1FFF03EEF06F0040EE9192C
:100D1800D8A491EF06F093EF06F0A8EF06F05D0E69
:100D280001010C6F000E0D6F010E0E6F010E0F6F9B
:100D3800D90E106FFE0E116FC1EC20F00CC1FEF041
:100D48000DC1FFF0D1EF06F0040EEA19D8A4AFEFF9
:100D580006F0B1EF06F0D1EF06F05D0E0101016F6C
:100D6800000E026F010E036F1BEC1FF001C1FEF0B5
:100D780002C1FFF05D0E01010C6F000E0D6F010E38
:100D88000E6F010E0F6FCC0E106FFE0E116FC1ECBF
:100D980020F00CC1FEF00DC1FFF05D0E01010C6FDB
:100DA800000E0D6F020E0E6F010E0F6FA40E106F66
:100DB800FF0E116FC1EC20F00CC1FEF00DC1FFF069
:100DC8005D0E01010C6F000E0D6F020E0E6F0B0E03
:100DD8000F6FAC0E106FFF0E116FC1EC20F00CC13D
:100DE800FEF00DC1FFF05D0E01010C6F000E0D6FDE
:100DF800030E0E6F010E0F6FB40E106FFF0E116F02
:100E0800C1EC20F00CC1FEF00DC1FFF0040E000192
:100E1800E919D8A412EF07F014EF07F034EF07F040
:100E28005D0E01010C6F000E0D6F030E0E6F0B0EA1
:100E38000F6FC40E106FFF0E116FC1EC20F00CC1C4
:100E4800FEF00DC1FFF0630E0001F76F000EF86FA2
:100E580005EC1EF0F7C0FEF0F8C0FFF05BEF07F0FE
:100E6800040EEA19D8A43BEF07F03DEF07F05BEF5B
:100E780007F05D0E01010C6F000E0D6F030E0E6F73
:100E88000B0E0F6FDC0E106FFF0E116FC1EC20F010
:100E98000CC1FEF00DC1FFF0510E0001F76F000EFE
:100EA800F86F05EC1EF0F7C0FEF0F8C0FFF05D0E1D
:100EB80001010C6F000E0D6F040E0E6F010E0F6F07
:100EC800080E106FFE0E116FC1EC20F00CC1FEF081
:100ED8000DC1FFF0000E0001EB6FA40EF86F000EBD
:100EE800F96FEB0EFA6F000EFB6F54EC1AF0F8C0B6
:100EF800FEF0F9C0FFF00001EB51D8B486EF07F01F
:100F080088EF07F071EF07F0020E0101156F860EEA
:100F1800146F990EE82EFED7142FFCD7152FFAD789
:100F2800400E0001EB19D8A49CEF07F09EEF07F0E4
:100F3800D1EF07F063EC23F0D1EF07F05D0E01016C
:100F4800016F000E026F010E036F1BEC1FF001C151
:100F5800FEF002C1FFF05D0E01010C6F000E0D6F77
:100F6800010E0E6F010E0F6F000E106FFF0E116F46
:100F7800C1EC20F00CC1FEF00DC1FFF0030E010121
:100F8800156F8A0E146F550EE82EFED7142FFCD756
:100F9800152FFAD700D04FEF09F0310E0001EB19E9
:100FA800D8B4D9EF07F0DBEF07F04FEF09F0320EB6
:100FB800EB19D8B4E2EF07F0E4EF07F04FEF09F0D0
:100FC800330EEB19D8B4EBEF07F0EDEF07F04FEF66
:100FD80009F0340EEB19D8B4F4EF07F0F6EF07F088
:100FE8004FEF09F0400EEB19D8A4FDEF07F0FFEF23
:100FF80007F0A2EF07F04FEF09F05D0E0101016F56
:10100800000E026F010E036F1BEC1FF001C1FEF012
:1010180002C1FFF05D0E01010C6F000E0D6F010E95
:101028000E6F010E0F6F5C0E106FFF0E116FC1EC8B
:1010380020F00CC1FEF00DC1FFF04BEF08F05D0E83
:101048000C6F000E0D6F010E0E6F090E0F6FF40E70
:10105800106FFF0E116FC1EC20F00CC1FEF00DC136
:10106800FFF062EF08F05D0E0C6F000E0D6F010EC1
:101078000E6F090E0F6FF80E106FFF0E116FC1EC97
:1010880020F00CC1FEF00DC1FFF062EF08F0000186
:10109800E7510101146F156B1551000AD8B457EFC9
:1010A80008F062EF08F01451000AD8B437EF08F0DE
:1010B800010AD8B423EF08F062EF08F05D0E0101D1
:1010C8000C6F000E0D6F020E0E6F010E0F6F920E59
:1010D800106FFF0E116FC1EC20F00CC1FEF00DC1B6
:1010E800FFF05D0E01010C6F000E0D6F030E0E6F09
:1010F800010E0F6F480E106FFF0E116FC1EC20F03C
:101108000CC1FEF00DC1FFF05D0E01010C6F000E69
:101118000D6F040E0E6F010E0F6FE90E106FFF0EAC
:10112800116FC1EC20F00CC1FEF00DC1FFF0000EF4
:101138000001EB6FA40EF86F000EF96FEB0EFA6F5B
:10114800000EFB6F54EC1AF0F8C0FEF0F9C0FFF087
:101158000001EB51D8B4B3EF08F0B5EF08F09EEFFB
:1011680008F0020E0101156F860E146F990EE82E15
:10117800FED7142FFCD7152FFAD7DBEF08F0010E96
:1011880012EC23F0ECC0FEF0EDC0FFF0010E000100
:10119800E76FF2EF08F0050E12EC23F0ECC0FEF05A
:1011A800EDC0FFF0000E0001E76FF2EF08F000015C
:1011B800EB510101146F156B1551000AD8B4E7EF14
:1011C80008F0F2EF08F01451310AD8B4C3EF08F070
:1011D800030AD8B4CFEF08F0F2EF08F0300E0001A0
:1011E800EB19D8A4FAEF08F0FCEF08F00BEF09F0C0
:1011F8005D0E0101016F000E026F010E036F1BEC03
:101208001FF001C1FEF002C1FFF0B4EF0AF0310E89
:10121800EB19D8B412EF09F014EF09F04AEF09F00E
:10122800320EEB19D8B41BEF09F01DEF09F04AEFA5
:1012380009F05D0E0101016F000E026F010E036FD0
:101248001BEC1FF001C1FEF002C1FFF05D0E0101B1
:101258000C6F000E0D6F010E0E6F010E0F6F000E5A
:10126800106FFF0E116FC1EC20F00CC1FEF00DC124
:10127800FFF0030E0101156F8A0E146F550EE82E4C
:10128800FED7142FFCD7152FFAD700D0310E000146
:10129800EB6FC2EF07F0310E0001EB19D8B457EF2E
:1012A80009F059EF09F001EF08F0B4EF0AF05D0E0C
:1012B8000101016F000E026F010E036F1BEC1FF09E
:1012C80001C1FEF002C1FFF05D0E01010C6F000EBE
:1012D8000D6F010E0E6F010E0F6F650E106FFF0E72
:1012E800116FC1EC20F00CC1FEF00DC1FFF0A5EFAD
:1012F80009F05D0E0C6F000E0D6F010E0E6F090EDA
:101308000F6FF40E106FFF0E116FC1EC20F00CC1BF
:10131800FEF00DC1FFF0BCEF09F05D0E0C6F000E82
:101328000D6F010E0E6F090E0F6FF80E106FFF0E86
:10133800116FC1EC20F00CC1FEF00DC1FFF0BCEF45
:1013480009F00001E7510101146F156B1551000AEE
:10135800D8B4B1EF09F0BCEF09F01451000AD8B4C1
:1013680091EF09F0010AD8B47DEF09F0BCEF09F05C
:101378005D0E01010C6F000E0D6F020E0E6F010E57
:101388000F6F920E106FFF0E116FC1EC20F00CC1A1
:10139800FEF00DC1FFF05D0E01010C6F000E0D6F28
:1013A800030E0E6F010E0F6F480E106FFF0E116FB8
:1013B800C1EC20F00CC1FEF00DC1FFF05D0E010183
:1013C8000C6F000E0D6F040E0E6F010E0F6FE90EFD
:1013D800106FFF0E116FC1EC20F00CC1FEF00DC1B3
:1013E800FFF0000E0001EB6FA40EF86F000EF96F0E
:1013F800EB0EFA6F000EFB6F54EC1AF0F8C0FEF01B
:10140800F9C0FFF00001EB51D8B40DEF0AF00FEF6F
:101418000AF0F8EF09F0020E0101156F860E146F3D
:10142800990EE82EFED7142FFCD7152FFAD735EFD3
:101438000AF0020E12EC23F0ECC0FEF0EDC0FFF053
:10144800010E0001E76F4CEF0AF0060E12EC23F0D4
:10145800ECC0FEF0EDC0FFF0000E0001E76F4CEFAE
:101468000AF00001EB510101146F156B1551000AC8
:10147800D8B441EF0AF04CEF0AF01451310AD8B44D
:101488001DEF0AF0030AD8B429EF0AF04CEF0AF06E
:10149800300E0001EB19D8A454EF0AF056EF0AF009
:1014A80065EF0AF05D0E0101016F000E026F010E7B
:1014B800036F1BEC1FF001C1FEF002C1FFF019EF32
:1014C8000CF0310EEB19D8B46CEF0AF06EEF0AF09D
:1014D800A4EF0AF0320EEB19D8B475EF0AF077EFE3
:1014E8000AF0A4EF0AF05D0E0101016F000E026F11
:1014F800010E036F1BEC1FF001C1FEF002C1FFF0EB
:101508005D0E01010C6F000E0D6F010E0E6F010EC6
:101518000F6F000E106FFF0E116FC1EC20F00CC1A1
:10152800FEF00DC1FFF0060E0101156F130E146FCA
:10153800AD0EE82EFED7142FFCD7152FFAD700D002
:10154800320E0001EB6F030E0101156F8A0E146F46
:10155800550EE82EFED7142FFCD7152FFAD700D03A
:10156800320E0001EB19D8B4BCEF0AF0BEEF0AF056
:101578005BEF09F019EF0CF05D0E0101016F000E31
:10158800026F010E036F1BEC1FF001C1FEF002C1D8
:10159800FFF05D0E01010C6F000E0D6F010E0E6F56
:1015A800010E0F6F6E0E106FFF0E116FC1EC20F061
:1015B8000CC1FEF00DC1FFF00AEF0BF05D0E0C6FD1
:1015C800000E0D6F010E0E6F090E0F6FF40E106FE7
:1015D800FF0E116FC1EC20F00CC1FEF00DC1FFF041
:1015E80021EF0BF05D0E0C6F000E0D6F010E0E6FEC
:1015F800090E0F6FF80E106FFF0E116FC1EC20F07F
:101608000CC1FEF00DC1FFF021EF0BF00001E75116
:101618000101146F156B1551000AD8B416EF0BF0C1
:1016280021EF0BF01451000AD8B4F6EF0AF0010AC2
:10163800D8B4E2EF0AF021EF0BF05D0E01010C6F58
:10164800000E0D6F020E0E6F010E0F6F920E106FCF
:10165800FF0E116FC1EC20F00CC1FEF00DC1FFF0C0
:101668005D0E01010C6F000E0D6F030E0E6F010E63
:101678000F6F480E106FFF0E116FC1EC20F00CC1F8
:10168800FEF00DC1FFF05D0E01010C6F000E0D6F35
:10169800040E0E6F010E0F6FE90E106FFF0E116F23
:1016A800C1EC20F00CC1FEF00DC1FFF0000E0001EE
:1016B800EB6FA40EF86F000EF96FEB0EFA6F000EC9
:1016C800FB6F54EC1AF0F8C0FEF0F9C0FFF000010F
:1016D800EB51D8B472EF0BF074EF0BF05DEF0BF039
:1016E800020E0101156F860E146F990EE82EFED7B3
:1016F800142FFCD7152FFAD79AEF0BF0030E12EC24
:1017080023F0ECC0FEF0EDC0FFF0010E0001E76F22
:10171800B1EF0BF0070E12EC23F0ECC0FEF0EDC0B9
:10172800FFF0000E0001E76FB1EF0BF00001EB5185
:101738000101146F156B1551000AD8B4A6EF0BF010
:10174800B1EF0BF01451310AD8B482EF0BF0030A51
:10175800D8B48EEF0BF0B1EF0BF0300E0001EB199F
:10176800D8A4B9EF0BF0BBEF0BF0CAEF0BF05D0E8E
:101778000101016F000E026F010E036F1BEC1FF0D9
:1017880001C1FEF002C1FFF023EF0CF0310EEB199E
:10179800D8B4D1EF0BF0D3EF0BF009EF0CF0320E09
:1017A800EB19D8B4DAEF0BF0DCEF0BF009EF0CF023
:1017B8005D0E0101016F000E026F010E036F1BEC3D
:1017C8001FF001C1FEF002C1FFF05D0E01010C6FB8
:1017D800000E0D6F010E0E6F010E0F6F000E106FD1
:1017E800FF0E116FC1EC20F00CC1FEF00DC1FFF02F
:1017F800030E0101156F8A0E146F550EE82EFED7E1
:10180800142FFCD7152FFAD700D0330E0001EB6F39
:10181800030E0101156F8A0E146F550EE82EFED7C0
:10182800142FFCD7152FFAD700D0330E0001EB196F
:10183800D8B421EF0CF023EF0CF0C0EF0AF0040E3F
:101848000001E919D8A42BEF0CF02DEF0CF094EF60
:101858000DF088EF0DF05D0E0101016F000E026FB3
:10186800010E036F1BEC1FF001C1FEF002C1FFF077
:101878005D0E01010C6F000E0D6F010E0E6F010E53
:101888000F6F770E106FFF0E116FC1EC20F00CC1B7
:10189800FEF00DC1FFF079EF0CF05D0E0C6F000E3D
:1018A8000D6F010E0E6F090E0F6FF40E106FFF0E05
:1018B800116FC1EC20F00CC1FEF00DC1FFF090EFEC
:1018C8000CF05D0E0C6F000E0D6F010E0E6F090E01
:1018D8000F6FF80E106FFF0E116FC1EC20F00CC1E6
:1018E800FEF00DC1FFF090EF0CF00001E75101018F
:1018F800146F156B1551000AD8B485EF0CF090EFF2
:101908000CF01451000AD8B465EF0CF0010AD8B4F1
:1019180051EF0CF090EF0CF05D0E01010C6F000E12
:101928000D6F020E0E6F010E0F6F920E106FFF0EED
:10193800116FC1EC20F00CC1FEF00DC1FFF05D0E7F
:1019480001010C6F000E0D6F030E0E6F010E0F6F6D
:10195800480E106FFF0E116FC1EC20F00CC1FEF0A5
:101968000DC1FFF05D0E01010C6F000E0D6F040E2E
:101978000E6F010E0F6FE90E106FFF0E116FC1ECA5
:1019880020F00CC1FEF00DC1FFF0000E0001EB6F5E
:10199800A40EF86F000EF96FEB0EFA6F000EFB6FD6
:1019A80054EC1AF0F8C0FEF0F9C0FFF00001EB515A
:1019B800D8B4E1EF0CF0E3EF0CF0CCEF0CF0020E32
:1019C8000101156F860E146F990EE82EFED7142F9D
:1019D800FCD7152FFAD709EF0DF0040E12EC23F0FF
:1019E800ECC0FEF0EDC0FFF0010E0001E76F20EF44
:1019F8000DF0080E12EC23F0ECC0FEF0EDC0FFF085
:101A0800000E0001E76F20EF0DF00001EB5101011E
:101A1800146F156B1551000AD8B415EF0DF020EFAF
:101A28000DF01451310AD8B4F1EF0CF0030AD8B410
:101A3800FDEF0CF020EF0DF0300E0001EB19D8A4EB
:101A480028EF0DF02AEF0DF039EF0DF05D0E0101D2
:101A5800016F000E026F010E036F1BEC1FF001C136
:101A6800FEF002C1FFF0B3EF14F0310EEB19D8B459
:101A780040EF0DF042EF0DF078EF0DF0320EEB195C
:101A8800D8B449EF0DF04BEF0DF078EF0DF05D0E87
:101A98000101016F000E026F010E036F1BEC1FF0B6
:101AA80001C1FEF002C1FFF05D0E01010C6F000ED6
:101AB8000D6F010E0E6F010E0F6F000E106FFF0EEF
:101AC800116FC1EC20F00CC1FEF00DC1FFF0030E48
:101AD8000101156F8A0E146F550EE82EFED7142FCC
:101AE800FCD7152FFAD700D0340E0001EB6F030E88
:101AF8000101156F8A0E146F550EE82EFED7142FAC
:101B0800FCD7152FFAD700D0340E0001EB19D8B442
:101B180090EF0DF092EF0DF02FEF0CF0B3EF14F003
:101B2800040EEA19D8A49BEF0DF09DEF0DF0B3EF6A
:101B380014F0A9EF14F05D0E0101016F000E026FA1
:101B4800010E036F1BEC1FF001C1FEF002C1FFF094
:101B58005D0E01010C6F000E0D6F010E0E6F010E70
:101B68000F6FCC0E106FFE0E116FC1EC20F00CC180
:101B7800FEF00DC1FFF05D0E01010C6F000E0D6F40
:101B8800020E0E6F010E0F6FBC0E106FFF0E116F5D
:101B9800C1EC20F00CC1FEF00DC1FFF05D0E01019B
:101BA8000C6F000E0D6F020E0E6F0B0E0F6FEF0E07
:101BB800106FFF0E116FC1EC20F00CC1FEF00DC1CB
:101BC800FFF05D0E01010C6F000E0D6F030E0E6F1E
:101BD800010E0F6F3D0E106FFF0E116FC1EC20F05C
:101BE8000CC1FEF00DC1FFF05D0E01010C6F000E7F
:101BF8000D6F030E0E6F0B0E0F6FE90E106FFF0EB9
:101C0800116FC1EC20F00CC1FEF00DC1FFF0000E09
:101C18000001EB6FA40EF86F000EF96FEB0EFA6F70
:101C2800000EFB6F54EC1AF0F8C0FEF0F9C0FFF09C
:101C38000001EB51D8B423EF0EF025EF0EF00EEFB4
:101C48000EF0020E0101156F860E146F990EE82E24
:101C5800FED7142FFCD7152FFAD78CEF0FF05D0E97
:101C68000101016F000E026F010E036F1BEC1FF0E4
:101C780001C1FEF002C1FFF05D0E01010C6F000E04
:101C88000D6F010E0E6F010E0F6F770E106FFF0EA6
:101C9800116FC1EC20F00CC1FEF00DC1FFF07DEF1B
:101CA8000EF05D0E0C6F000E0D6F010E0E6F090E1B
:101CB8000F6FF40E106FFF0E116FC1EC20F00CC106
:101CC800FEF00DC1FFF094EF0EF05D0E0C6F000EEC
:101CD8000D6F010E0E6F090E0F6FF80E106FFF0ECD
:101CE800116FC1EC20F00CC1FEF00DC1FFF094EFB4
:101CF8000EF00001E7510101146F156B1551000A30
:101D0800D8B489EF0EF094EF0EF01451000AD8B44D
:101D180069EF0EF0010AD8B455EF0EF094EF0EF00B
:101D28005D0E01010C6F000E0D6F020E0E6F010E9D
:101D38000F6F920E106FFF0E116FC1EC20F00CC1E7
:101D4800FEF00DC1FFF05D0E01010C6F000E0D6F6E
:101D5800030E0E6F010E0F6F480E106FFF0E116FFE
:101D6800C1EC20F00CC1FEF00DC1FFF05D0E0101C9
:101D78000C6F000E0D6F040E0E6F010E0F6FE90E43
:101D8800106FFF0E116FC1EC20F00CC1FEF00DC1F9
:101D9800FFF0000E0001EB6FA40EF86F000EF96F54
:101DA800EB0EFA6F000EFB6F54EC1AF0F8C0FEF061
:101DB800F9C0FFF00001EB51D8B4E5EF0EF0E7EF02
:101DC8000EF0D0EF0EF0020E0101156F860E146FA3
:101DD800990EE82EFED7142FFCD7152FFAD70DEF42
:101DE8000FF0040E12EC23F0ECC0FEF0EDC0FFF093
:101DF800010E0001E76F24EF0FF0080E12EC23F03C
:101E0800ECC0FEF0EDC0FFF0000E0001E76F24EF1C
:101E18000FF00001EB510101146F156B1551000A09
:101E2800D8B419EF0FF024EF0FF01451310AD8B4D9
:101E3800F5EF0EF0030AD8B401EF0FF024EF0FF01E
:101E4800300E0001EB19D8A42CEF0FF02EEF0FF095
:101E58003DEF0FF05D0E0101016F000E026F010EE4
:101E6800036F1BEC1FF001C1FEF002C1FFF0F1EFA0
:101E780010F0310EEB19D8B444EF0FF046EF0FF025
:101E88007CEF0FF0320EEB19D8B44DEF0FF04FEF97
:101E98000FF07CEF0FF05D0E0101016F000E026F75
:101EA800010E036F1BEC1FF001C1FEF002C1FFF031
:101EB8005D0E01010C6F000E0D6F010E0E6F010E0D
:101EC8000F6F000E106FFF0E116FC1EC20F00CC1E8
:101ED800FEF00DC1FFF0030E0101156F8A0E146F9D
:101EE800550EE82EFED7142FFCD7152FFAD700D0A1
:101EF800310E0001EB6F030E0101156F8A0E146F8E
:101F0800550EE82EFED7142FFCD7152FFAD700D080
:101F1800310E0001EB19D8B494EF0FF096EF0FF0E3
:101F280033EF0EF0F1EF10F05D0E0101016F000EBE
:101F3800026F010E036F1BEC1FF001C1FEF002C11E
:101F4800FFF05D0E01010C6F000E0D6F010E0E6F9C
:101F5800010E0F6FE30E106FFF0E116FC1EC20F032
:101F68000CC1FEF00DC1FFF0E2EF0FF05D0E0C6F3B
:101F7800000E0D6F010E0E6F090E0F6FF40E106F2D
:101F8800FF0E116FC1EC20F00CC1FEF00DC1FFF087
:101F9800F9EF0FF05D0E0C6F000E0D6F010E0E6F56
:101FA800090E0F6FF80E106FFF0E116FC1EC20F0C5
:101FB8000CC1FEF00DC1FFF0F9EF0FF00001E75181
:101FC8000101146F156B1551000AD8B4EEEF0FF02C
:101FD800F9EF0FF01451000AD8B4CEEF0FF0010A50
:101FE800D8B4BAEF0FF0F9EF0FF05D0E01010C6FE6
:101FF800000E0D6F020E0E6F010E0F6FD40E106FD4
:10200800FF0E116FC1EC20F00CC1FEF00DC1FFF006
:102018005D0E01010C6F000E0D6F030E0E6F010EA9
:102028000F6F800E106FFF0E116FC1EC20F00CC106
:10203800FEF00DC1FFF05D0E01010C6F000E0D6F7B
:10204800040E0E6F010E0F6FE90E106FFF0E116F69
:10205800C1EC20F00CC1FEF00DC1FFF0000E000134
:10206800EB6FA40EF86F000EF96FEB0EFA6F000E0F
:10207800FB6F54EC1AF0F8C0FEF0F9C0FFF0000155
:10208800EB51D8B44AEF10F04CEF10F035EF10F0E8
:10209800020E0101156F860E146F990EE82EFED7F9
:1020A800142FFCD7152FFAD772EF10F0090E12EC87
:1020B80023F0ECC0FEF0EDC0FFF0010E0001E76F69
:1020C80089EF10F0000E12EC23F0ECC0FEF0EDC02A
:1020D800FFF0000E0001E76F89EF10F00001EB51EF
:1020E8000101146F156B1551000AD8B47EEF10F07A
:1020F80089EF10F01451310AD8B45AEF10F0030ADE
:10210800D8B466EF10F089EF10F0300E0001EB192B
:10211800D8A491EF10F093EF10F0A2EF10F05D0E3D
:102128000101016F000E026F010E036F1BEC1FF01F
:1021380001C1FEF002C1FFF03BEF14F0310EEB19C4
:10214800D8B4A9EF10F0ABEF10F0E1EF10F0320EB9
:10215800EB19D8B4B2EF10F0B4EF10F0E1EF10F0D3
:102168005D0E0101016F000E026F010E036F1BEC83
:102178001FF001C1FEF002C1FFF05D0E01010C6FFE
:10218800000E0D6F010E0E6F010E0F6F000E106F17
:10219800FF0E116FC1EC20F00CC1FEF00DC1FFF075
:1021A800030E0101156F8A0E146F550EE82EFED727
:1021B800142FFCD7152FFAD700D0320E0001EB6F81
:1021C800030E0101156F8A0E146F550EE82EFED707
:1021D800142FFCD7152FFAD700D0320E0001EB19B7
:1021E800D8B4F9EF10F0FBEF10F098EF0FF03BEFD9
:1021F80014F05D0E0101016F000E026F010E036FF6
:102208001BEC1FF001C1FEF002C1FFF05D0E0101E1
:102218000C6F000E0D6F010E0E6F010E0F6F680E22
:10222800106FFE0E116FC1EC20F00CC1FEF00DC155
:10223800FFF05D0E01010C6F000E0D6F020E0E6FA8
:10224800010E0F6F520E106FFF0E116FC1EC20F0D0
:102258000CC1FEF00DC1FFF05D0E01010C6F000E08
:102268000D6F030E0E6F010E0F6F8C0E106FFE0EAA
:10227800116FC1EC20F00CC1FEF00DC1FFF05D0E36
:1022880001010C6F000E0D6F040E0E6F010E0F6F23
:10229800E90E106FFF0E116FC1EC20F00CC1FEF0BB
:1022A8000DC1FFF0000E0001EB6FA40EF86F000ED9
:1022B800F96FEB0EFA6F000EFB6F54EC1AF0F8C0D2
:1022C800FEF0F9C0FFF00001EB51D8B46EEF11F049
:1022D80070EF11F059EF11F0020E0101156F860E23
:1022E800146F990EE82EFED7142FFCD7152FFAD7A6
:1022F8005D0E0101016F000E026F010E036F1BECF2
:102308001FF001C1FEF002C1FFF096EF12F05D0E62
:1023180001010C6F000E0D6F010E0E6F010E0F6F95
:10232800680E106FFE0E116FC1EC20F00CC1FEF0AC
:102338000DC1FFF05D0E01010C6F000E0D6F020E56
:102348000E6F010E0F6FF30E106FFD0E116FC1ECC3
:1023580020F00CC1FEF00DC1FFF05D0E01010C6F05
:10236800000E0D6F030E0E6F010E0F6FC80E106F6B
:10237800FD0E116FC1EC20F00CC1FEF00DC1FFF095
:102388005D0E01010C6F000E0D6F040E0E6F010E35
:102398000F6FE90E106FFF0E116FC1EC20F00CC12A
:1023A800FEF00DC1FFF0000E0001EB6FA40EF86FF8
:1023B800000EF96FEB0EFA6F000EFB6F54EC1AF07B
:1023C800F8C0FEF0F9C0FFF00001EB51D8B4EFEF10
:1023D80011F0F1EF11F0DAEF11F0020E0101156FB3
:1023E800860E146F990EE82EFED7142FFCD7152FE2
:1023F800FAD717EF12F00A0E12EC23F0ECC0FEF039
:10240800EDC0FFF0010E0001E76F2EEF12F00B0E8A
:1024180012EC23F0ECC0FEF0EDC0FFF0000E00015E
:10242800E76F2EEF12F00001EB510101146F156BED
:102438001551000AD8B423EF12F02EEF12F0145100
:10244800310AD8B4FFEF11F0030AD8B40BEF12F039
:102458002EEF12F0300E0001EB19D8A436EF12F06F
:1024680038EF12F047EF12F05D0E0101016F000E18
:10247800026F010E036F1BEC1FF001C1FEF002C1D9
:10248800FFF0A0EF12F0310EEB19D8B44EEF12F0B6
:1024980050EF12F086EF12F0320EEB19D8B457EF66
:1024A80012F059EF12F086EF12F05D0E0101016F84
:1024B800000E026F010E036F1BEC1FF001C1FEF04E
:1024C80002C1FFF05D0E01010C6F000E0D6F010ED1
:1024D8000E6F010E0F6F000E106FFF0E116FC1EC23
:1024E80020F00CC1FEF00DC1FFF0030E0101156FC5
:1024F8008A0E146F550EE82EFED7142FFCD7152F11
:10250800FAD700D0310E0001EB6F030E0101156FF1
:102518008A0E146F550EE82EFED7142FFCD7152FF0
:10252800FAD700D0310E0001EB19D8B49EEF12F0A3
:10253800A0EF12F08BEF11F0320E0001EB19D8A4C6
:10254800A8EF12F0AAEF12F0CBEF13F05D0E010125
:10255800016F000E026F010E036F1BEC1FF001C12B
:10256800FEF002C1FFF05D0E01010C6F000E0D6F51
:10257800020E0E6F010E0F6F1C0E106FFE0E116F04
:10258800C1EC20F00CC1FEF00DC1FFF05D0E0101A1
:102598000C6F000E0D6F030E0E6F010E0F6FB10E54
:1025A800106FFD0E116FC1EC20F00CC1FEF00DC1D3
:1025B800FFF0000E0001EB6FA40EF86F000EF96F2C
:1025C800EB0EFA6F000EFB6F54EC1AF0F8C0FEF039
:1025D800F9C0FFF00001EB51D8B4F5EF12F0F7EFB6
:1025E80012F0E0EF12F0020E0101156F860E146F63
:1025F800990EE82EFED7142FFCD7152FFAD75D0EAB
:102608000101016F000E026F100E036F1BEC1FF02B
:1026180001C1FEF002C1FFF05D0E0101016F000E65
:10262800026F100E036F1BEC1FF001C1FEF002C118
:10263800FFF05D0E0101016F000E026FEBC003F1A8
:10264800DAEC1EF001C1FEF002C1FFF00001EB510F
:10265800D00F0A0DF3CFE8F0000EEB6FA40EF86F61
:10266800000EF96FEB0EFA6F000EFB6F54EC1AF0C8
:10267800F8C0FEF0F9C0FFF00001EB51D8B447EF05
:1026880013F049EF13F032EF13F0020E0101156F4A
:10269800860E146F990EE82EFED7142FFCD7152F2F
:1026A800FAD75D0E0101016F000E026FEBC003F156
:1026B800DAEC1EF001C1FEF002C1FFF00001EB519F
:1026C800D00FE827230EE8656CEF13F06EEF13F0D8
:1026D800BEEF13F0230EE86F5D0E0101016F000ECF
:1026E800026F100E036F1BEC1FF001C1FEF002C158
:1026F800FFF05D0E0101016F000E026F100E036FF7
:102708001BEC1FF001C1FEF002C1FFF05D0E0101DC
:10271800016F000E026FE8C0ECF00001ED6B000ED7
:10272800EF6F0A0EEE6F4FEC1BF00001EC51300F0B
:102738000101036FDAEC1EF001C1FEF002C1FFF0E7
:102748005D0E0101016F000E026FE8C0ECF00001A0
:10275800ED6B000EEF6F0A0EEE6F6BEC1CF00001D4
:10276800EC51300F0101036FDAEC1EF001C1FEF0ED
:1027780002C1FFF0060E0101156F130E146FAD0EA6
:10278800E82EFED7142FFCD7152FFAD700D0330E1A
:102798000001EB6F300EEB19D8A4D5EF13F0D7EF8B
:1027A80013F0E6EF13F05D0E0101016F000E026FEA
:1027B800010E036F1BEC1FF001C1FEF002C1FFF018
:1027C80045EF14F0310EEB19D8B4EDEF13F0EFEF3D
:1027D80013F02EEF14F0320EEB19D8B4F6EF13F015
:1027E800F8EF13F02EEF14F0330EEB19D8B4FFEF17
:1027F80013F001EF14F02EEF14F05D0E0101016FDC
:10280800000E026F010E036F1BEC1FF001C1FEF0FA
:1028180002C1FFF05D0E01010C6F000E0D6F010E7D
:102828000E6F010E0F6F000E106FFF0E116FC1ECCF
:1028380020F00CC1FEF00DC1FFF0030E0101156F71
:102848008A0E146F550EE82EFED7142FFCD7152FBD
:10285800FAD700D0030E0101156F8A0E146F550EBA
:10286800E82EFED7142FFCD7152FFAD700D0330E39
:102878000001EB19D8B443EF14F045EF14F0FDEF65
:1028880010F0300E0001EB19D8A44DEF14F04FEF03
:1028980014F051EF14F02AEF0DF0310EEB19D8B403
:1028A80058EF14F05AEF14F099EF14F0320EEB19B8
:1028B800D8B461EF14F063EF14F099EF14F0330E0D
:1028C800EB19D8B46AEF14F06CEF14F099EF14F028
:1028D8005D0E0101016F000E026F010E036F1BEC0C
:1028E8001FF001C1FEF002C1FFF05D0E01010C6F87
:1028F800000E0D6F010E0E6F010E0F6F000E106FA0
:10290800FF0E116FC1EC20F00CC1FEF00DC1FFF0FD
:10291800030E0101156F8A0E146F550EE82EFED7AF
:10292800142FFCD7152FFAD700D0340E0001EB6F07
:10293800030E0101156F8A0E146F550EE82EFED78F
:10294800142FFCD7152FFAD700D0340E0001EB193D
:10295800D8B4B1EF14F0B3EF14F09FEF0DF0040EFC
:102968000001E919D8B4BBEF14F0BDEF14F08AEFF9
:1029780006F0040EEA19D8B4C4EF14F0C6EF14F048
:102988008AEF06F00FEF06F007EF00F00600FACF27
:1029980029F0FBCF2AF0D9CF2BF0DACF2CF0F3CFE8
:1029A8002DF0F4CF2EF0F6CF2FF0F7CF30F0F8CF90
:1029B80031F0F5CF32F0F2A8E4EF14F0E6EF14F0BE
:1029C800EFEF14F0F2A2EBEF14F0EDEF14F0EFEFED
:1029D80014F080EC23F0F0A6F4EF14F0F6EF14F006
:1029E800FFEF14F0F0A0FBEF14F0FDEF14F0FFEF91
:1029F80014F07EEC23F0F0A804EF15F006EF15F0C4
:102A08000FEF15F0F0A20BEF15F00DEF15F00FEF2B
:102A180015F07CEC23F0F2A614EF15F016EF15F084
:102A280031EF15F0F2A01BEF15F01DEF15F031EFA7
:102A380015F081A822EF15F024EF15F031EF15F00D
:102A48005C04D8A42AEF15F02CEF15F031EF15F03F
:102A5800000E5C6E000E46EC23F0F2A636EF15F081
:102A680038EF15F053EF15F0F2A03DEF15F03FEFFA
:102A780015F053EF15F081BA44EF15F046EF15F055
:102A880053EF15F05C50D8A44CEF15F04EEF15F04D
:102A980053EF15F0010E5C6E010E46EC23F0F2A622
:102AA80058EF15F05AEF15F075EF15F0F2A05FEF3B
:102AB80015F061EF15F075EF15F081AA66EF15F0C6
:102AC80068EF15F075EF15F05B04D8A46EEF15F0FC
:102AD80070EF15F075EF15F0000E5B6E000E39EC17
:102AE80023F0F2A67AEF15F07CEF15F097EF15F0CA
:102AF800F2A081EF15F083EF15F097EF15F081BA8A
:102B080088EF15F08AEF15F097EF15F05B50D8A411
:102B180090EF15F092EF15F097EF15F0010E5B6E40
:102B2800010E39EC23F0F2A69CEF15F09EEF15F09C
:102B3800B9EF15F0F2A0A3EF15F0A5EF15F0B9EF76
:102B480015F081ACAAEF15F0ACEF15F0B9EF15F060
:102B58005A04D8A4B2EF15F0B4EF15F0B9EF15F098
:102B6800000E5A6E000E2CEC23F0F2A6BEEF15F004
:102B7800C0EF15F0DBEF15F0F2A0C5EF15F0C7EFC9
:102B880015F0DBEF15F081BCCCEF15F0CEEF15F0AA
:102B9800DBEF15F05A50D8A4D4EF15F0D6EF15F0A6
:102BA800DBEF15F0010E5A6E010E2CEC23F0F2A6A5
:102BB800E0EF15F0E2EF15F0FDEF15F0F2A0E7EF0A
:102BC80015F0E9EF15F0FDEF15F081AEEEEF15F019
:102BD800F0EF15F0FDEF15F05904D8A4F6EF15F055
:102BE800F8EF15F0FDEF15F0000E596E000E1FEC12
:102BF80023F0F2A602EF16F004EF16F01FEF16F01E
:102C0800F2A009EF16F00BEF16F01FEF16F081BED9
:102C180010EF16F012EF16F01FEF16F05950D8A467
:102C280018EF16F01AEF16F01FEF16F0010E596E96
:102C3800010E1FEC23F09DAC24EF16F026EF16F0E2
:102C48002FEF16F09EAC2BEF16F02DEF16F02FEFAE
:102C580016F08AEC23F0F2AA34EF16F036EF16F0ED
:102C68003FEF16F0F2A43BEF16F03DEF16F03FEF02
:102C780016F07DEC22F09DA044EF16F046EF16F01A
:102C88004FEF16F09EA04BEF16F04DEF16F04FEFFA
:102C980016F068EC23F09DA254EF16F056EF16F0EC
:102CA8005FEF16F09EA25BEF16F05DEF16F05FEF98
:102CB80016F072EC23F0A0A264EF16F066EF16F09F
:102CC8006FEF16F0A1A26BEF16F06DEF16F06FEF35
:102CD80016F05DEC23F09DA474EF16F076EF16F075
:102CE8007FEF16F09EA47BEF16F07DEF16F07FEFD6
:102CF80016F086EC23F0A0A084EF16F086EF16F00D
:102D08008FEF16F0A1A08BEF16F08DEF16F08FEF76
:102D180016F084EC23F09DA494EF16F096EF16F0CD
:102D28009FEF16F09EA49BEF16F09DEF16F09FEF15
:102D380016F082EC23F09DA8A4EF16F0A6EF16F08B
:102D4800AFEF16F09EA8ABEF16F0ADEF16F0AFEFB1
:102D580016F076EC23F09DAAB4EF16F0B6EF16F055
:102D6800BFEF16F09EAABBEF16F0BDEF16F0BFEF4F
:102D780016F088EC23F09DA6C4EF16F0C6EF16F007
:102D8800CFEF16F09EA6CBEF16F0CDEF16F0CFEFF3
:102D980016F089EC23F09DA6D4EF16F0D6EF16F0C6
:102DA800DFEF16F09EA6DBEF16F0DDEF16F0DFEF93
:102DB80016F078EC23F0A0A6E4EF16F0E6EF16F094
:102DC800EFEF16F0A1A6EBEF16F0EDEF16F0EFEF30
:102DD80016F07AEC23F032C0F5FF31C0F8FF30C0AE
:102DE800F7FF2FC0F6FF2EC0F4FF2DC0F3FF2CC055
:102DF800DAFF2BC0D9FF2AC0FBFF29C0FAFF659272
:102E08001100010106510711D8A40DEF17F00FEFBB
:102E180017F015EF17F0000E0B6F000E0A6FB2EFE8
:102E280017F0010E06250001F76F000E01010721BA
:102E38000001F86F2CEC21F006C1F7F007C1F8F09B
:102E48002CEC21F0000E01010C6F0C510625086FC7
:102E5800000E0721096F020E08250001F76F000E0A
:102E6800010109210001F86F2CEC21F0F7C00AF1EB
:102E7800F8C00BF101010C2B030E0C6546EF17F09F
:102E880048EF17F029EF17F01A0E0101086FF80E36
:102E9800E82EFED7082FFCD700F006C101F107C1C4
:102EA80002F1380E0101036F1BEC1FF0070E010140
:102EB800086F7D0EE82EFED7082FFCD706C101F15A
:102EC80007C102F1380E0101036F1BEC1FF0C30E9E
:102ED8000101086FCD0EE82EFED7082FFCD706C1DA
:102EE80001F107C102F1380E0101036F1BEC1FF05D
:102EF80006C101F107C102F1010E0101036F1BECCC
:102F08001FF006C101F107C102F1020E0101036FB2
:102F18001BEC1FF006C101F107C102F1060E010109
:102F2800036F1BEC1FF006C101F107C102F10C0E83
:102F38000101036F1BEC1FF006C101F107C102F18B
:102F4800280E0101036F1BEC1FF006C101F107C138
:102F580002F1800E0101036F1BEC1FF00AC106F19C
:102F68000BC107F11200000E0001F56F010EF46F9E
:102F7800EC51ED11D8B4C3EF17F0C5EF17F0D6EF49
:102F880017F0ECC0D9FFEDC0DAFFDF30E832E832E5
:102F9800070BEE6F070EEE65D4EF17F0D6EF17F0BC
:102FA8003DEF18F0000EF56F000EF46F5EEF18F0AD
:102FB800ECC0D9FFEDC0DAFFDF30E832E832070BAA
:102FC800EE6F010EEF6FEE2BECEF17F0D890EF37A6
:102FD800EE2FEAEF17F00001EF51FF0AF06FECC097
:102FE800D9FFEDC0DAFFDF50070BF16FF151020D89
:102FF800940EF324D96E000EF420DA6EDECFF2F0D0
:10300800DDCFF3F0F2C0D9FFF3C0DAFFF051DF16DD
:103018005EEF18F0ECC0D9FFEDC0DAFFDF30E83220
:10302800E832070BEE6F010EEF6FEE2B1EEF18F074
:10303800D890EF37EE2F1CEF18F0ECC0D9FFEDC099
:10304800DAFFDF50070B0001F06FF051020D940E0C
:10305800F324D96E000EF420DA6EDECFF1F0DDCF66
:10306800F2F0F1C0D9FFF2C0DAFFEF51DF125EEFE4
:1030780018F0ECC0D9FFEDC0DAFFDFBC46EF18F05E
:1030880049EF18F0010E4AEF18F0000EEE6FEF6BE3
:10309800EF51000AD8B453EF18F0D6EF17F0EE51FD
:1030A800000AD8B4DCEF17F0010AD8B40EEF18F014
:1030B800D6EF17F0F4C0ECF0F5C0EDF01200010106
:1030C80000510111D8A46BEF18F06DEF18F06FEFF5
:1030D80018F00AEF19F0C69A00C1D9FF01C1DAFF4A
:1030E800DF500001FD6FC650FD19F00BFD19C66ECB
:1030F80000C1D9FF01C1DAFFDF50D8B486EF18F05C
:1031080088EF18F0AEEF18F000C1D9FF01C1DAFF5F
:10311800DE04D8B492EF18F094EF18F0AEEF18F080
:1031280000C1D9FF01C1DAFF020EDE18D8B49FEF43
:1031380018F0A1EF18F0AEEF18F000C1D9FF01C1E7
:10314800DAFF030EDE18D8A4ACEF18F0AEEF18F0D3
:10315800B2EF18F09AEC22F0D2EF18F000C1D9FFC4
:1031680001C1DAFF040EDE18D8B4BDEF18F0BFEFC6
:1031780018F0CCEF18F000C1D9FF01C1DAFF050E35
:10318800DE18D8A4CAEF18F0CCEF18F0D2EF18F078
:1031980000C1F6F001C1F7F051EC20F0010120EE7A
:1031A80001F00051D9260151DA22DF50030B00014A
:1031B800FD6FFD3BC650FD19EF0BFD19C66E0101F1
:1031C80020EE01F00051D9260151DA22DF38030B35
:1031D8000001FD6FFD3BFD47FD47C750FD19BF0BC3
:1031E800FD19C76E010120EE01F00051D9260151E9
:1031F800DA22DF30E832030B0001FD6FFD33FD33C7
:10320800C750FD197F0BFD19C76EC68A1200000E44
:103218000001F66F000EF56FEC51ED11D8B417EF01
:1032280019F019EF19F02AEF19F0ECC0D9FFEDC029
:10323800DAFFDF30E832E832070BEF6F070EEF6591
:1032480028EF19F02AEF19F097EF19F0000EF66F32
:10325800010EF56FACEF19F0ECC0D9FFEDC0DAFF45
:10326800DF30E832E832070BEF6F010EF06FEF2B1B
:1032780040EF19F0D890F037EF2F3EEF19F000012A
:10328800F051FF0AF16FECC0D9FFEDC0DAFFDF5053
:10329800070BF26FF251020D8A0EF324D96E000E5D
:1032A800F420DA6EDECFF3F0DDCFF4F0F3C0D9FF0F
:1032B800F4C0DAFFF151DF16ACEF19F0ECC0D9FF1A
:1032C800EDC0DAFFDF30E832E832070BEF6F010EAE
:1032D800F06FEF2B72EF19F0D890F037EF2F70EFF7
:1032E80019F0ECC0D9FFEDC0DAFFDF50070B000181
:1032F800F16FF151020D8A0EF324D96E000EF420FD
:10330800DA6EDECFF2F0DDCFF3F0F2C0D9FFF3C012
:10331800DAFFF051DF12ACEF19F0000EF66F000E75
:10332800F56FACEF19F0EE51EF6FF06BF051000A4A
:10333800D8B4A1EF19F091EF19F0EF51000AD8B401
:1033480030EF19F0010AD8B462EF19F091EF19F0D3
:10335800F5C0ECF0F6C0EDF01200000E0B6E000E9A
:103368000A6E01500210D8B4BCEF19F0BEEF19F084
:10337800CFEF19F001C0D9FF02C0DAFFDF30E83221
:10338800E832070B046E070E0464CDEF19F0CFEF97
:1033980019F03AEF1AF0000E0B6E010E0A6E4FEF9D
:1033A8001AF001C0D9FF02C0DAFFDF30E832E83294
:1033B800070B046E010E056E042AE5EF19F0D8908C
:1033C8000536042EE3EF19F00550FF0A066E01C01A
:1033D800D9FF02C0DAFFDF50070B076E0750020D56
:1033E8008A0EF324D96E000EF420DA6EDECF08F0D0
:1033F800DDCF09F008C0D9FF09C0DAFF0650DF1693
:103408004FEF1AF001C0D9FF02C0DAFFDF30E8320F
:10341800E832070B046E010E056E042A16EF1AF047
:10342800D8900536042E14EF1AF001C0D9FF02C057
:10343800DAFFDF50070B066E0650020D8A0EF324E2
:10344800D96E000EF420DA6EDECF07F0DDCF08F07B
:1034580007C0D9FF08C0DAFF0550DF124FEF1AF096
:10346800000E0B6E000E0A6E4FEF1AF00350046E3A
:10347800056A0550000AD8B444EF1AF034EF1AF080
:103488000450000AD8B4D5EF19F0010AD8B406EFF1
:103498001AF034EF1AF00AC001F00BC002F0120063
:1034A8000001F851F911D8A45CEF1AF05EEF1AF098
:1034B80065EF1AF0000E0101016F000E006FE3EFD7
:1034C8001AF0000E0101026F000E036F000E036F69
:1034D800000E046F04510001F825EC6F0101000E85
:1034E8000001F921ED6F000EEE6F0BEC19F00101F0
:1034F800042B030E046583EF1AF085EF1AF06EEFC4
:103508001AF003510001F825EC6F0101000E0001CB
:10351800F921ED6F010EEE6F0BEC19F0000E0101B1
:10352800046F04510001F825FC6F000EF921FD6FAE
:10353800040EFC25EC6F000EFD21ED6F020EEE6F00
:10354800010EEF6FE8EC1AF001010251D8B4AFEFA9
:103558001AF0B1EF1AF0CCEF1AF00351040DA10ED6
:10356800F3240001FC6FFD0EF420FD6F01010451EE
:103578000001FC27000EFD23FCC0F6FFFDC0F7FF8D
:10358800F86AFAC0D9FFFBC0DAFF0800F5CFDFFF01
:103598000101042B030E0465D4EF1AF0D6EF1AF0DC
:1035A80095EF1AF0032B030E0365DDEF1AF0DFEF3A
:1035B8001AF06CEF1AF0000E016F010E006F00C1D7
:1035C800F8F001C1F9F01200000E0001F76F010ECA
:1035D800F66FEC51ED11D8B4F4EF1AF0F6EF1AF0DB
:1035E80010EF1BF0EE51EF11D8B4FDEF1AF0FFEF1A
:1035F8001AF010EF1BF0ECC0D9FFEDC0DAFFDF3096
:10360800E832E832070BF06F070EF0650EEF1BF09B
:1036180010EF1BF016EF1BF0000EF76F000EF66FA1
:103628004AEF1BF0ECC0D9FFEDC0DAFFDF50070B03
:10363800F06FF051020D800EF324D96E000EF420C5
:10364800DA6EDECFF1F0DDCFF2F0F1C0D9FFF2C0D3
:10365800DAFFDF50F36FECC0D9FFEDC0DAFFDF30DF
:10366800E832E832070BF46F010EF56FF42B3FEFE9
:103678001BF0D890F537F42F3DEF1BF00001F55102
:10368800F315EEC0D9FFEFC0DAFFDF6EF6C0ECF03D
:10369800F7C0EDF01200000E0001F16FEFBF59EF17
:1036A8001BF057EF1BF05FEF1BF0EE6DEF1FD8B06C
:1036B800EF2B010EF16FEDBF66EF1BF064EF1BF00F
:1036C8006CEF1BF0EC6DED1FD8B0ED2B010EF11B6C
:1036D800000EF36F000EF26FEE51EF11D8B477EFD2
:1036E8001BF079EF1BF0A1EF1BF0010EF06F81EFDB
:1036F8001BF0D890EE37EF37F02BEFAF86EF1BF0CB
:1037080088EF1BF07DEF1BF0D890F237F337EE51BE
:10371800EC5DEF51ED59D8A094EF1BF096EF1BF03C
:103728009BEF1BF0EE51EC5FEF51ED5BF281D8900F
:10373800EF33EE33F02F88EF1BF0F151D8B4A7EF39
:103748001BF0A9EF1BF0ADEF1BF0F26DF31FD8B023
:10375800F32BF2C0ECF0F3C0EDF01200000120EE04
:1037680005F0EC51D926ED51DA22DFB4BEEF1BF09B
:10377800C0EF1BF0E3EF1BF0D59A20EE05F0EC51FB
:10378800D926ED51DA22DFA2CCEF1BF0CEEF1BF0E9
:10379800D1EF1BF0D5880FEF1CF020EE05F0EC51AF
:1037A800D926ED51DA22DFB2DCEF1BF0DEEF1BF099
:1037B800E1EF1BF0D5980FEF1CF00FEF1CF020EE97
:1037C80005F0EC51D926ED51DA22DFA4EEEF1BF01B
:1037D800F0EF1BF00FEF1CF0D58A20EE05F0EC514E
:1037E800D926ED51DA22DFA2FCEF1BF0FEEF1BF029
:1037F80001EF1CF0D5880FEF1CF020EE05F0EC511E
:10380800D926ED51DA22DFB20CEF1CF00EEF1CF0D6
:10381800E1EF1BF0D5981200000E0001F46F010EC5
:10382800F36FEF51F011D8A41CEF1CF01EEF1CF041
:1038380024EF1CF0000EF46F000EF36F66EF1CF01F
:10384800D59EEFC0ECF0F0C0EDF08DEC21F0EFC0AC
:10385800ECF0F0C0EDF0B2EC1BF0EFC0ECF0F0C013
:10386800EDF05DEC22F0000120EE03F0EF51D926D7
:10387800F051DA22DECFF1F0DDCFF2F0F2C0F1F054
:10388800F26BF151D76E20EE03F0EF51D926F051CB
:10389800DA22DF50D66E20EE03F0EF51D926F05130
:1038A800DA22DECF39F0DDCF3AF0F28AF294EFC0B7
:1038B800D9FFF0C0DAFFDECF3BF0DDCF3CF0F28E6F
:1038C800F28CD58EF3C0EFF0F4C0F0F01200000EC9
:1038D8000001F16FEDBF75EF1CF073EF1CF07BEF8B
:1038E8001CF0EC6DED1FD8B0ED2B010EF16FEFBFA2
:1038F80082EF1CF080EF1CF086EF1CF0EE6DEF1FDE
:10390800D8B0EF2BEE51EF11D8B48DEF1CF08FEF3C
:103918001CF0B3EF1CF0010EF06F97EF1CF0D8907D
:10392800EE37EF37F02BEFAF9CEF1CF09EEF1CF05B
:1039380093EF1CF0EE51EC5DEF51ED59D8A0A7EFD5
:103948001CF0A9EF1CF0ADEF1CF0EE51EC5FEF514D
:10395800ED5BD890EF33EE33F02F9EEF1CF0F15172
:10396800D8B4B9EF1CF0BBEF1CF0BFEF1CF0EC6D46
:10397800ED1FD8B0ED2BECC0ECF0EDC0EDF012006F
:103988000001FB51FC11D8A4CCEF1CF0CEEF1CF0C9
:10399800D5EF1CF0000E0101016F000E006F13EF50
:1039A8001DF050C002F1FBC0D9FFFCC0DAFFDF50A8
:1039B800070BFD6F010102510001FD19F80BFD19FC
:1039C8000101026FFBC0D9FFFCC0DAFFDF30E8322B
:1039D800E832070B0001FD6FFD47FD47FD47010178
:1039E80002510001FD19C70BFD190101026F029D6B
:1039F800FBC0D9FFFCC0DAFF0001DFAC03D0010136
:103A0800028F02D00101029F020E0001F76F010E22
:103A1800F86F2CEC21F0F7C000F1F8C001F100C1FB
:103A2800FBF001C1FCF012000001FB51FC11D8A40D
:103A380020EF1DF022EF1DF029EF1DF0000E01010F
:103A4800036F000E026F65EF1DF0000E0101046F99
:103A5800000E046F04510001FB25F76F0101000EF1
:103A68000001FC21F86F2CEC21F0F7C002F1F8C03E
:103A780003F1010104510001FB250101006F000E53
:103A88000001FC210101016F040E00250001F76F00
:103A9800000E010101210001F86F2CEC21F0F7C0A4
:103AA80002F1F8C003F10101042B030E04655FEF76
:103AB8001DF061EF1DF02EEF1DF0000E036F010EDB
:103AC800026F02C1FBF003C1FCF0120001010907FB
:103AD8009AEF1DF006C101F107C102F10951800FEB
:103AE800036F1BEC1FF0B7EF1DF006C101F107C112
:103AF80002F10951C00F036F1BEC1FF0B7EF1DF067
:103B080006C101F107C102F10951940F036F1BECC3
:103B18001FF0B7EF1DF006C101F107C102F109510D
:103B2800D40F036F1BEC1FF0B7EF1DF008510A6F9D
:103B38000B6B0B51000AD8B4A4EF1DF0B7EF1DF0C2
:103B48000A51010AD8B46EEF1DF0030AD8B479EF10
:103B58001DF0010AD8B484EF1DF0070AD8B48FEF1E
:103B68001DF0B7EF1DF012001C06E7EF1DF019C09D
:103B780014F01AC015F01C50800F166E9CEC1FF044
:103B880004EF1EF019C014F01AC015F01C50C00F35
:103B9800166E9CEC1FF004EF1EF019C014F01AC04A
:103BA80015F01C50940F166E9CEC1FF004EF1EF0DD
:103BB80019C014F01AC015F01C50D40F166E9CECE6
:103BC8001FF004EF1EF01B501D6E1E6A1E50000AE7
:103BD800D8B4F1EF1DF004EF1EF01D50010AD8B45F
:103BE800BBEF1DF0030AD8B4C6EF1DF0010AD8B424
:103BF800D1EF1DF0070AD8B4DCEF1DF004EF1EF07A
:103C080012000001F751F811D8A40DEF1EF00FEFC4
:103C18001EF015EF1EF0000EFB6F000EFA6F4BEF53
:103C28001EF04FC0FCF0F7C0D9FFF8C0DAFFDF5034
:103C3800070BF96FFC51F919F80BF919FC6FF7C06C
:103C4800D9FFF8C0DAFFDF30E832E832070BF96F46
:103C5800F947F947F947FC51F919C70BF919FC6FEE
:103C6800FC9DF7C0D9FFF8C0DAFFDFAC02D0FC8FAB
:103C780002D00001FC9FFC0EEC6F000EED6F010EF0
:103C8800EE6F0BEC19F0ECC0FAF0EDC0FBF0FAC0E7
:103C9800F7F0FBC0F8F01200000E01010B6F010EE7
:103CA8000A6F06510711D8B45CEF1EF05EEF1EF0E4
:103CB80067EF1EF008510911D8A465EF1EF067EFF1
:103CC8001EF082EF1EF0000E0B6F000E0A6F91EFD0
:103CD8001EF006C101F107C102F108C1F6FF09C1D2
:103CE800F7FFF86A0800F5CF03F1DAEC1EF001C11E
:103CF8000AF102C10BF10101084B092B08C1F6FFBB
:103D080009C1F7FFF86A0800F5500009D8A48FEF39
:103D18001EF091EF1EF06DEF1EF00AC106F10BC107
:103D280007F11200000E1E6E010E1D6E19501A10BA
:103D3800D8B4A1EF1EF0A3EF1EF0ACEF1EF01B509D
:103D48001C10D8A4AAEF1EF0ACEF1EF0C6EF1EF0B0
:103D5800000E1E6E000E1D6ED5EF1EF019C014F079
:103D68001AC015F01BC0F6FF1CC0F7FFF86A080060
:103D7800F5CF16F0D9EC1FF014C01DF015C01EF0D9
:103D88001B4A1C2A1BC0F6FF1CC0F7FFF86A080074
:103D9800F5500009D8A4D3EF1EF0D5EF1EF0B2EF0E
:103DA8001EF01DC019F01EC01AF0120001010151C9
:103DB8000211D8A4E2EF1EF0E4EF1EF0EAEF1EF0C5
:103DC800000E056F000E046F16EF1FF001C1ECF036
:103DD80002C1EDF0010E0001EE6F0BEC19F0ECC022
:103DE80004F1EDC005F101C1F7F002C1F8F00101DD
:103DF80003390F0B0001F96F5EEC21F001C1F7F0F8
:103E080002C1F8F0D2EC22F001C1F7F002C1F8F0DB
:103E180003C1F9F05EEC21F001C1F7F002C1F8F03E
:103E2800D2EC22F004C101F105C102F11200010136
:103E380001510211D8A423EF1FF025EF1FF02BEF3B
:103E48001FF0000E056F000E046F57EF1FF001C141
:103E5800ECF002C1EDF0000E0001EE6F0BEC19F072
:103E6800ECC004F1EDC005F101C1F7F002C1F8F0B2
:103E7800010103390F0B0001F96F5EEC21F001C15C
:103E8800F7F002C1F8F0D2EC22F001C1F7F002C15C
:103E9800F8F003C1F9F05EEC21F001C1F7F002C1BE
:103EA800F8F0D2EC22F004C101F105C102F11200D0
:103EB800492A020E4918D8A464EF1FF066EF1FF0D4
:103EC8009BEF1FF0040E0001E919D8A46EEF1FF054
:103ED80070EF1FF09BEF1FF05D0E146E000E156E55
:103EE800010E166E9CEC1FF014C0FEF015C0FFF01A
:103EF8005D0E1F6E000E206E020E216E010E226EE8
:103F0800AE0E236EFE0E246EF7EC20F01FC0FEF0FE
:103F180020C0FFF0060E286E130E276EAE0EE82E98
:103F2800FED7272EFCD7282EFAD76DEC23F01200E7
:103F380014501510D8A4A3EF1FF0A5EF1FF0ABEF96
:103F48001FF0000E186E000E176ED4EF1FF014C08D
:103F580001F015C002F0000E036EB1EC19F001C0BB
:103F680017F002C018F014C00CF015C00DF0163888
:103F78000F0B0E6EE5EC21F014C00CF015C00DF01F
:103F8800ECEC22F014C00CF015C00DF016C00EF0C9
:103F9800E5EC21F014C00CF015C00DF0ECEC22F0AB
:103FA80017C014F018C015F0120014501510D8A43A
:103FB800E0EF1FF0E2EF1FF0E8EF1FF0000E186EC1
:103FC800000E176E11EF20F014C001F015C002F0BA
:103FD800010E036EB1EC19F001C017F002C018F021
:103FE80014C00CF015C00DF016380F0B0E6EE5EC72
:103FF80021F014C00CF015C00DF0ECEC22F014C048
:104008000CF015C00DF016C00EF0E5EC21F014C050
:104018000CF015C00DF0ECEC22F017C014F018C02D
:1040280015F01200000E0001F16F010EF06F040E82
:10403800ED5DD8A022EF20F024EF20F02AEF20F049
:10404800000EF16F000EF06F4CEF20F0000EF2BE84
:10405800010EEF6FED51030BAA6EECC0A9FFEEC085
:10406800A8FFA69EA69CA684F29E550EA76EAA0E31
:10407800A76EA682A6B243EF20F045EF20F03EEFF0
:1040880020F0A6940001EFB102D0F29E01D0F28E8A
:10409800F0C0ECF0F1C0EDF0120055C0F9F054C0DA
:1040A800FAF053C0FCF052C0FBF0F90E0001EC6FBF
:1040B800000EED6FB7EC17F0FA0E0001EC6F000E72
:1040C800ED6FB7EC17F0FC0E0001EC6F000EED6F12
:1040D800B7EC17F0FC0E0001EC6F000EED6FB7ECBB
:1040E80017F0F6C0D9FFF7C0DAFF040EDE18D8A41F
:1040F80080EF20F082EF20F089EF20F0FB0E000126
:10410800EC6F000EED6FB7EC17F012006C0EF66E48
:10411800450EF76E000EF86E00EE80F010EE37F0E8
:104128000900F5CFEEFFE550E150FAE1A60EF66E74
:10413800460EF76E000EF86E00EE52F010EE13F019
:104148000900F5CFEEFFE550E150FAE101EE16F077
:104158000B0EEE6AE806FDE100EEB7F0350EEE6AEA
:10416800E806FDE100EE33F01F0EEE6AE806FDE119
:1041780065906592000109EF00F001010C510D11E5
:10418800D8B4C9EF20F0CBEF20F0D4EF20F01051D5
:104198001111D8A4D2EF20F0D4EF20F0DAEF20F0FC
:1041A800000E136F000E126FF2EF20F00CC106F133
:1041B8000DC107F10EC108F10FC109F16AEC1DF03C
:1041C8000CC106F10DC107F110C108F111C109F1C7
:1041D80050EC1EF006C112F107C113F112C10CF127
:1041E80013C10DF112001F502010D8B4FEEF20F0BB
:1041F80000EF21F009EF21F023502410D8A407EF95
:1042080021F009EF21F00FEF21F0000E266E000ECD
:10421800256E27EF21F01FC019F020C01AF021C029
:104228001BF022C01CF0B8EC1DF01FC019F020C014
:104238001AF023C01BF024C01CF096EC1EF019C025
:1042480025F01AC026F025C01FF026C020F0120065
:104258000001F751F811D8A434EF21F036EF21F01E
:104268003CEF21F0000EFA6F000EF96F59EF21F0C4
:10427800F7C0ECF0F8C0EDF0B7EC17F0ECC0F9F0CF
:10428800EDC0FAF0F7C0ECF0F8C0EDF0F7C0D9FFD8
:10429800F8C0DAFF0001000EDFBE010EEE6F0BEC76
:1042A80019F0ECC0F9F0EDC0FAF0F9C0F7F0FAC077
:1042B800F8F01200000E0101006F000E006F0051AF
:1042C8000001F725FA6F000EF821FB6F020EFA25A0
:1042D800EC6F000EFB21ED6F00C1FCF0F9C0FDF0A2
:1042E800FC2B79EF21F0D890FD33FC2F77EF21F0EC
:1042F8000001FD51010BEE6F0BEC19F00101002BD1
:10430800030E00658AEF21F08CEF21F063EF21F0B6
:104318001200000120EE05F0EC51D926ED51DA2209
:10432800DFB099EF21F09BEF21F0ABEF21F0D596AC
:1043380020EE02F0EC51D926ED51DA22DF50EE6F73
:10434800D550EE19F80BEE19D56EB9EF21F020EE25
:1043580005F0EC51D926ED51DA22DFA0B6EF21F0B5
:10436800B8EF21F0B9EF21F0D5861200000E010157
:10437800126F010E116F0C510D11D8A4C6EF21F068
:10438800C8EF21F0CEEF21F0000E126F000E116F72
:10439800E0EF21F00CC106F10DC107F10EC108F1E3
:1043A8000FC109F16AEC1DF00CC101F10DC102F158
:1043B80010C103F1DAEC1EF011C10CF112C10DF1BC
:1043C8001200000E136E000E136E13500C240F6EA5
:1043D800000E0D20106E020E0F24016E000E10202C
:1043E800026E13C011F00EC012F0112AFEEF21F078
:1043F800D8901232112EFCEF21F01250010B036EEF
:10440800B1EC19F0132A030E13640DEF22F00FEF2D
:1044180022F0E9EF21F01200000E0001F16F010E09
:10442800F06FEE51EF11D8A41CEF22F01EEF22F02E
:1044380024EF22F0000EF16F000EF06F34EF22F03F
:10444800ED51030BAA6EECC0A9FFA69EA69CA68000
:1044580000F000F0EEC0D9FFEFC0DAFFA8CFDFFF11
:10446800F0C0ECF0F1C0EDF01200640E0001FB6F3B
:10447800000EFC6FC4EC1CF0630E0001FB6F000E15
:10448800FC6FC4EC1CF0510E0001FB6F000EFC6FBA
:10449800C4EC1CF05D0E0101066F000E076F05EC01
:1044A80017F0A40E0001FB6F000EFC6F18EC1DF056
:1044B8001200000120EE05F0EC51D926ED51DA2268
:1044C800DFB669EF22F06BEF22F06EEF22F0D58CA9
:1044D8007CEF22F020EE05F0EC51D926ED51DA22DE
:1044E800DFA679EF22F07BEF22F07CEF22F0D59C5B
:1044F8001200F2943A50D76E39C0D6FF3B503C10A8
:10450800D8A489EF22F08BEF22F08DEF22F099EFFB
:1045180022F002D899EF22F00500FA6E3B50FD6EAA
:104528003C50FE6EFF6AFA501200120058C0F6F0B6
:1045380057C0F7F056C0F8F0F60E0001EC6F000E09
:10454800ED6FB7EC17F0F70E0001EC6F000EED6F92
:10455800B7EC17F0F80E0001EC6F000EED6FB7EC3A
:1045680017F01200800F810F820F830F840F890FBD
:104578008A0F8B0F8C0F8D0F920F930F940F950F3F
:10458800960F0303010C0602030B131B636B737B6B
:0B459800B83E066A67080011FFFFFF35
:1045A400010E0001F725EC6F000EF821ED6F010EEE
:1045B400EE6F0BEC19F000D000D000F0010E0001FA
:1045C400F725EC6F000EF821ED6F000EEE6F0BEC8B
:1045D40019F01200010E0C24016E000E0D20026E63
:1045E400010E036EB1EC19F000D000D000F0010E02
:1045F4000C24016E000E0D20026E000E036EB1EC51
:1046040019F0120039EC22F0B20E0101006F000E15
:10461400016F63EC18F000C1FEF001C1FFF012005D
:104624000001EE6FEEC0C9FF9EA61BEF23F01DEF45
:1046340023F016EF23F09E961200016EF2900150C3
:10464400D8A427EF23F029EF23F02BEF23F02BEF4F
:1046540023F01200016EF2900150D8A434EF23F03D
:1046640036EF23F038EF23F038EF23F01200016E19
:10467400F2900150D8A441EF23F043EF23F045EF2B
:1046840023F045EF23F01200016EF2900150D8A4FC
:104694004EEF23F050EF23F052EF23F052EF23F0CC
:1046A4001200685A622A1A622A01010101020A12DE
:0546B40018323A081065
:1046BA00A1923450B36E33C0B2FF1200D18004000D
:1046CA0065EF23F012003850CF6E37C0CEFF1200CC
:1046DA00D18004006FEF23F012009E9235C0CCFF08
:1046EA0012009D9812009E961200A1961200F09256
:1046FA001200F0901200F29212009E941200A19001
:0C470A0012009E94120012001200120017
:10FDA000003738392F3435362A3132332D40303D43
:10FDB0002B7365742076616C7565206C6573732098
:10FDC0007468616E20333500323A61697220636F66
:10FDD0006E646974696F6E6572206F666600546F39
:10FDE00020536D61727420486F6D65205379737470
:10FDF000656D00313A61697220636F6E6469746980
:10FE00006F6E6572206F6E005072657373274F4E70
:10FE10002F4327746F2072657365740053657420D7
:10FE200054656D70657261747572653A2D2D00733D
:10FE300075636365737366756C6C79206164646562
:10FE400064005365742041646D696E205061737362
:10FE5000776F726400536574204775657374205022
:10FE6000617373776F72640061697220636F6E648F
:10FE70006974696F6E65723A2D006C6F6164696EAA
:10FE80006720626C6F636B65642E2E00323A536597
:10FE9000742054656D706572617475726500537578
:10FEA0006363657373204C6F67696E2E2E007365F4
:10FEB0007373696F6E2074696D656F757400536537
:10FEC0006C656374204D6F6465203A0041646D6910
:10FED0006E204D6F64653A2D004775657374204D33
:10FEE0006F64653A2D0057726F6E6720696E70758A
:10FEF000742E0077616974202031302073656300AF
:10FF000057726F6E672063686F6963650041646D47
:10FF1000696E20506173733A0047756573742050A1
:10FF20006173733A00577269746520706173733A34
:10FF3000005472696573206C6566743A00333A4107
:10FF4000697220636F6E2E00323A6C6564206F66B2
:10FF50006600313A436F6E74726F6C00526F6F6D52
:10FF60003120533A00526F6F6D3220533A00526F76
:10FF70006F6D3320533A00526F6F6D3420533A0047
:10FF8000323A5456206F666600313A2041646D69FA
:10FF90006E00313A6C6564206F6E00323A2047750E
:10FFA00065737400313A526F6F6D3100323A526F9F
:10FFB0006F6D3200333A526F6F6D3300313A526FCA
:10FFC0006F6D3400343A526F6F6D340057656C6357
:10FFD0006F6D6500313A5456206F6E00343A4D6FA4
:10FFE000726500545620533A00303A52657400321C
:10FFF0003A5456004F4E20004F46460025690000F7
:020000040020DA
:08000000FFFFFFFFFFFFFFFF00
:020000040030CA
:0E000000FF020910FF8381FF0FC00FE00F40C9
:00000001FF
