:0400000007EF00F016
:10000800658240ED14F044EF1FF0BEEC21F05D0E68
:100018000101016F000E026F010E036FD5EC1DF098
:1000280001C1FEF002C1FFF05D0E01010C6F000E70
:100038000D6F010E0E6F070E0F6FCB0E106FFF0EB8
:10004800116F7BEC1FF00CC1FEF00DC1FFF05D0ECF
:1000580001010C6F000E0D6F020E0E6F010E0F6F77
:10006800F10E106FFD0E116F7BEC1FF00CC1FEF04E
:100078000DC1FFF0060E0101156F130E146FAD0EC2
:10008800E82EFED7142FFCD7152FFAD700D05D0E17
:100098000101016F000E026F010E036FD5EC1DF018
:1000A80001C1FEF002C1FFF0010E0001ED6F000E6C
:1000B800EC6FB60EEE6F000EEF6FCAEC20F0ECC0DE
:1000C800FEF0EDC0FFF0010E0001ED6F010EEC6FC8
:1000D800B50EEE6F000EEF6FCAEC20F0ECC0FEF02C
:1000E800EDC0FFF00001B629D8B47DEF00F07FEF36
:1000F80000F087EF00F0B529D8A485EF00F087EF6E
:1001080000F070EF02F05D0E01010C6F000E0D6F34
:10011800010E0E6F010E0F6F410E106FFE0E116F64
:100128007BEC1FF00CC1FEF00DC1FFF05D0E01016C
:100138000C6F000E0D6F020E0E6F010E0F6F0C0E7E
:10014800106FFF0E116F7BEC1FF00CC1FEF00DC19C
:10015800FFF020EF01F0A40EF86F000EF96FEB0E20
:10016800FA6F000EFB6FCAEC19F0F8C0FEF0F9C088
:10017800FFF00001EB51D8B4C4EF00F0C6EF00F077
:10018800AFEF00F0A3C0ECF0ED6BEBC0EEF0D0ECFD
:100198001EF0ECC0FEF0EDC0FFF05D0E01010C6F2B
:1001A800000E0D6F020E0E6FA1C00FF1EBC010F123
:1001B80074EC20F00CC1FEF00DC1FFF0030E01013C
:1001C800156F8A0E146F550EE82EFED7142FFCD724
:1001D800152FFAD700D05D0E0101016F000E026FD6
:1001E800100E036FD5EC1DF001C1FEF002C1FFF047
:1001F8005D0E01010C6F000E0D6F020E0E6FA1C097
:100208000FF12A0E106F74EC20F00CC1FEF00DC136
:10021800FFF05D0E0101016F000E026F0E0E036FFD
:10022800D5EC1DF001C1FEF002C1FFF0000E000187
:10023800EB6FA12BA32BA02B040E0001A06527EFC9
:1002480001F029EF01F0AFEF00F05D0E0101016F41
:10025800000E026F0C0E036FD5EC1DF001C1FEF00D
:1002680002C1FFF05D0E01010C6F000E0D6F030E51
:100278000E6F010E0F6F2E0E106FFE0E116F7BECBE
:100288001FF00CC1FEF00DC1FFF0030E0101156F48
:100298008A0E146F550EE82EFED7142FFCD7152F93
:1002A800FAD700D05D0E0101016F000E026F010E3A
:1002B800036FD5EC1DF001C1FEF002C1FFF05D0E29
:1002C80001010C6F000E0D6F010E0E6F010E0F6F06
:1002D800540E106FFE0E116F7BEC1FF00CC1FEF078
:1002E8000DC1FFF05D0E01010C6F000E0D6F020EC7
:1002F8000E6F010E0F6F180E106FFF0E116F7BEC53
:100308001FF00CC1FEF00DC1FFF0010E0001A06F3F
:100318000C0EA16F01EF02F0A40EF86F000EF96F3A
:10032800EB0EFA6F000EFB6FCAEC19F0F8C0FEF086
:10033800F9C0FFF00001EB51D8B4A5EF01F0A7EF29
:1003480001F090EF01F0A2C0ECF0ED6BEBC0EEF025
:10035800D0EC1EF0ECC0FEF0EDC0FFF05D0E010128
:100368000C6F000E0D6F020E0E6FA1C00FF1EBC0E7
:1003780010F174EC20F00CC1FEF00DC1FFF0030E7B
:100388000101156F8A0E146F550EE82EFED7142F33
:10039800FCD7152FFAD700D05D0E0101016F000EB2
:1003A800026F100E036FD5EC1DF001C1FEF002C103
:1003B800FFF05D0E01010C6F000E0D6F020E0E6F47
:1003C800A1C00FF12A0E106F74EC20F00CC1FEF0E2
:1003D8000DC1FFF05D0E0101016F000E026F0E0EE0
:1003E800036FD5EC1DF001C1FEF002C1FFF0000E55
:1003F8000001EB6FA12BA22BA02B040EA06507EF29
:1004080002F009EF02F090EF01F0020E0101156F02
:10041800040E146FBA0EE82EFED7142FFCD7152F32
:10042800FAD700F05D0E0101016F000E026F0C0E8D
:10043800036FD5EC1DF001C1FEF002C1FFF05D0EA7
:1004480001010C6F000E0D6F030E0E6F010E0F6F82
:100458002E0E106FFE0E116F7BEC1FF00CC1FEF01C
:100468000DC1FFF0030E0101156F8A0E146F550EB2
:10047800E82EFED7142FFCD7152FFAD700D05D0E23
:100488000101016F000E026F010E036FD5EC1DF024
:1004980001C1FEF002C1FFF0010E0001B66F010EAE
:1004A800B56F010EED6F000EEC6FB6C0EEF0D0EC3C
:1004B8001EF0ECC0FEF0EDC0FFF0010E0001ED6F84
:1004C800010EEC6FB5C0EEF0D0EC1EF0ECC0FEF003
:1004D800EDC0FFF03EEF14F0B605D8B476EF02F0A9
:1004E80078EF02F080EF02F0B505D8A47EEF02F0B5
:1004F80080EF02F03EEF14F05D0E01010C6F000E6C
:100508000D6F010E0E6F010E0F6FBD0E106FFE0EF8
:10051800116F7BEC1FF00CC1FEF00DC1FFF05D0EFA
:1005280001010C6F000E0D6F020E0E6F010E0F6FA2
:10053800880E106FFF0E116F7BEC1FF00CC1FEF0E0
:100548000DC1FFF05D0E01010C6F000E0D6F030E63
:100558000E6F010E0F6F9A0E106FFF0E116F7BEC6E
:100568001FF00CC1FEF00DC1FFF0A40E0001F86FE2
:10057800000EF96FEB0EFA6F000EFB6FCAEC19F064
:10058800F8C0FEF0F9C0FFF00001EB51D8B4CFEF8E
:1005980002F0D1EF02F0B9EF02F052EF04F05D0E75
:1005A8000101016F000E026F010E036FD5EC1DF003
:1005B80001C1FEF002C1FFF05D0E01010C6F000EDB
:1005C8000D6F010E0E6F010E0F6FCB0E106FFE0E2A
:1005D800116F7BEC1FF00CC1FEF00DC1FFF05D0E3A
:1005E80001010C6F000E0D6F020E0E6F010E0F6FE2
:1005F800240E106FFF0E116F7BEC1FF00CC1FEF084
:100608000DC1FFF0000E0001EB6F020E0101156F26
:10061800860E146F990EE82EFED7142FFCD7152FCF
:10062800FAD795EF03F0A40EF86F000EF96FEB0EF2
:10063800FA6F000EFB6FCAEC19F0F8C0FEF0F9C0B3
:10064800FFF00001EB51D8B42CEF03F02EEF03F0CC
:1006580017EF03F0A3C0ECF0ED6BB40EEE6F000ED5
:10066800EF6FCAEC20F0ECC0FEF0EDC0FFF0000127
:10067800EB51B419D8A443EF03F045EF03F046EF6C
:1006880003F0EA2B5D0E01010C6F000E0D6F020ED8
:100698000E6FA1C00FF1EBC010F174EC20F00CC18B
:1006A800FEF00DC1FFF0030E0101156F8A0E146FE5
:1006B800550EE82EFED7142FFCD7152FFAD700D0E9
:1006C8005D0E0101016F000E026F100E036FD5EC75
:1006D8001DF001C1FEF002C1FFF05D0E01010C6FBB
:1006E800000E0D6F020E0E6FA1C00FF12A0E106FD3
:1006F80074EC20F00CC1FEF00DC1FFF05D0E01019D
:10070800016F000E026F0E0E036FD5EC1DF001C1D4
:10071800FEF002C1FFF0000E0001EB6FA12BA32B2E
:10072800A02B040E0001A0659CEF03F09EEF03F0E0
:1007380017EF03F0040EEA19D8A4A5EF03F0A7EF0A
:1007480003F0E5EF03F05D0E0101016F000E026F8B
:10075800010E036FD5EC1DF001C1FEF002C1FFF0E0
:100768005D0E0101016F000E026F0C0E036FD5ECD8
:100778001DF001C1FEF002C1FFF05D0E01010C6F1A
:10078800000E0D6F020E0E6F010E0F6F9D0E106F93
:10079800FE0E116F7BEC1FF00CC1FEF00DC1FFF0D7
:1007A800000E0001EB6F020E0101156F860E146F2B
:1007B800990EE82EFED7142FFCD7152FFAD752EF33
:1007C80004F0310EEB6F5D0E0101016F000E026F38
:1007D800010E036FD5EC1DF001C1FEF002C1FFF060
:1007E8005D0E0101016F000E026F0C0E036FD5EC58
:1007F8001DF001C1FEF002C1FFF05D0E01010C6F9A
:10080800000E0D6F010E0E6F010E0F6FE50E106FCB
:10081800FE0E116F7BEC1FF00CC1FEF00DC1FFF056
:100828005D0E01010C6F000E0D6F020E0E6F010EB2
:100838000F6F300E106FFF0E116F7BEC1FF00CC1A5
:10084800FEF00DC1FFF05D0E01010C6F000E0D6F83
:10085800020E0E6F0C0E0F6F00019F512F0F01013A
:10086800106F74EC20F00CC1FEF00DC1FFF0030E08
:100878000101156F8A0E146F550EE82EFED7142F3E
:10088800FCD7152FFAD700D0010E0001EA6F010E30
:10089800A06F020EA36F0C0EA16F9F07310E00010F
:1008A800EB19D8A45AEF04F05CEF04F0F3EF05F06D
:1008B8009F51D8A462EF04F064EF04F0D3EF02F084
:1008C800F3EF05F05D0E0101016F000E026F010EDE
:1008D800036FD5EC1DF001C1FEF002C1FFF05D0E03
:1008E80001010C6F000E0D6F010E0E6F010E0F6FE0
:1008F800D80E106FFE0E116F7BEC1FF00CC1FEF0CE
:100908000DC1FFF05D0E01010C6F000E0D6F020EA0
:100918000E6F010E0F6F240E106FFF0E116F7BEC20
:100928001FF00CC1FEF00DC1FFF0000E0001EB6FCF
:10093800020E0101156F860E146F990EE82EFED770
:10094800142FFCD7152FFAD728EF05F0A40EF86F4F
:10095800000EF96FEB0EFA6F000EFB6FCAEC19F080
:10096800F8C0FEF0F9C0FFF00001EB51D8B4BFEFBA
:1009780004F0C1EF04F0AAEF04F0A2C0ECF0ED6BB4
:10098800B40EEE6F000EEF6FCAEC20F0ECC0FEF074
:10099800EDC0FFF00001EB51B419D8A4D6EF04F074
:1009A800D8EF04F0D9EF04F0E92B5D0E01010C6FCC
:1009B800000E0D6F020E0E6FA1C00FF1EBC010F10B
:1009C80074EC20F00CC1FEF00DC1FFF0030E010124
:1009D800156F8A0E146F550EE82EFED7142FFCD70C
:1009E800152FFAD700D05D0E0101016F000E026FBE
:1009F800100E036FD5EC1DF001C1FEF002C1FFF02F
:100A08005D0E01010C6F000E0D6F020E0E6FA1C07E
:100A18000FF12A0E106F74EC20F00CC1FEF00DC11E
:100A2800FFF05D0E0101016F000E026F0E0E036FE5
:100A3800D5EC1DF001C1FEF002C1FFF0000E00016F
:100A4800EB6FA12BA22BA02B040E0001A0652FEFAA
:100A580005F031EF05F0AAEF04F0040EE919D8A467
:100A680038EF05F03AEF05F086EF05F05D0E01016D
:100A7800016F000E026F010E036FD5EC1DF001C16E
:100A8800FEF002C1FFF05D0E0101016F000E026F62
:100A98000C0E036FD5EC1DF001C1FEF002C1FFF092
:100AA8005D0E01010C6F000E0D6F020E0E6F010E30
:100AB8000F6F9D0E106FFE0E116F7BEC1FF00CC1B7
:100AC800FEF00DC1FFF0000E0001EB6F060E0101F4
:100AD800156F130E146FAD0EE82EFED7142FFCD72A
:100AE800152FFAD700D05D0E0101016F000E026FBD
:100AF800010E036FD5EC1DF001C1FEF002C1FFF03D
:100B0800F3EF05F0320EEB6F5D0E0101016F000E81
:100B1800026F010E036FD5EC1DF001C1FEF002C19A
:100B2800FFF05D0E0101016F000E026F0C0E036FE6
:100B3800D5EC1DF001C1FEF002C1FFF05D0E010110
:100B48000C6F000E0D6F010E0E6F010E0F6FE50E8C
:100B5800106FFE0E116F7BEC1FF00CC1FEF00DC183
:100B6800FFF05D0E01010C6F000E0D6F020E0E6F8F
:100B7800010E0F6F300E106FFF0E116F7BEC1FF020
:100B88000CC1FEF00DC1FFF05D0E01010C6F000EEF
:100B98000D6F020E0E6F0C0E0F6F00019E512F0F7E
:100BA8000101106F74EC20F00CC1FEF00DC1FFF0D4
:100BB800030E0101156F8A0E146F550EE82EFED72D
:100BC800142FFCD7152FFAD700D0000E0001E96FBB
:100BD800060EA26F010EA06F0C0EA16F9E07320EBB
:100BE8000001EB19D8A4FBEF05F0FDEF05F005EFC8
:100BF80006F09E51D8A403EF06F005EF06F066EF65
:100C080004F0AC0EEF6F000EF06F23EC1BF0EFC09A
:100C1800FEF0F0C0FFF000019F51D8A416EF06F0D7
:100C280018EF06F058EF06F05D0E01010C6F000E8C
:100C38000D6F010E0E6F010E0F6F790E106FFE0E05
:100C4800116F7BEC1FF00CC1FEF00DC1FFF05D0EC3
:100C580001010C6F000E0D6F020E0E6F010E0F6F6B
:100C6800F20E106FFE0E116F7BEC1FF00CC1FEF040
:100C78000DC1FFF0640E0001F76F000EF86FBFECB6
:100C88001CF0F7C0FEF0F8C0FFF0330E0101156F3D
:100C9800BB0E146FDF0EE82EFED7142FFCD7152FCE
:100CA800FAD700D03EEF14F09E51D8A45EEF06F0BC
:100CB80060EF06F029EF14F0000E496E5D0E010199
:100CC8000C6F000E0D6F010E0E6F010E0F6F790E77
:100CD800106FFE0E116F7BEC1FF00CC1FEF00DC102
:100CE800FFF05D0E01010C6F000E0D6F020E0E6F0E
:100CF800010E0F6FF20E106FFE0E116F7BEC1FF0DE
:100D08000CC1FEF00DC1FFF03EEF06F0040EE9192C
:100D1800D8A491EF06F093EF06F0A8EF06F05D0E69
:100D280001010C6F000E0D6F010E0E6F010E0F6F9B
:100D3800D80E106FFE0E116F7BEC1FF00CC1FEF089
:100D48000DC1FFF0D1EF06F0040EEA19D8A4AFEFF9
:100D580006F0B1EF06F0D1EF06F05D0E0101016F6C
:100D6800000E026F010E036FD5EC1DF001C1FEF0FD
:100D780002C1FFF05D0E01010C6F000E0D6F010E38
:100D88000E6F010E0F6FCB0E106FFE0E116F7BEC06
:100D98001FF00CC1FEF00DC1FFF05D0E01010C6FDC
:100DA800000E0D6F020E0E6F010E0F6FA30E106F67
:100DB800FF0E116F7BEC1FF00CC1FEF00DC1FFF0B0
:100DC8005D0E01010C6F000E0D6F020E0E6F0B0E03
:100DD8000F6FAB0E106FFF0E116F7BEC1FF00CC185
:100DE800FEF00DC1FFF05D0E01010C6F000E0D6FDE
:100DF800030E0E6F010E0F6FB30E106FFF0E116F03
:100E08007BEC1FF00CC1FEF00DC1FFF0040E0001D9
:100E1800E919D8A412EF07F014EF07F034EF07F040
:100E28005D0E01010C6F000E0D6F030E0E6F0B0EA1
:100E38000F6FC30E106FFF0E116F7BEC1FF00CC10C
:100E4800FEF00DC1FFF0630E0001F76F000EF86FA2
:100E5800BFEC1CF0F7C0FEF0F8C0FFF05BEF07F046
:100E6800040EEA19D8A43BEF07F03DEF07F05BEF5B
:100E780007F05D0E01010C6F000E0D6F030E0E6F73
:100E88000B0E0F6FDB0E106FFF0E116F7BEC1FF058
:100E98000CC1FEF00DC1FFF0510E0001F76F000EFE
:100EA800F86FBFEC1CF0F7C0FEF0F8C0FFF0000EC2
:100EB8000001EB6FA40EF86F000EF96FEB0EFA6FDE
:100EC800000EFB6FCAEC19F0F8C0FEF0F9C0FFF095
:100ED8000001EB51D8B473EF07F075EF07F05EEF40
:100EE80007F0020E0101156F860E146F990EE82E99
:100EF800FED7142FFCD7152FFAD7B2EF07F05D0EE7
:100F08000101016F000E026F010E036FD5EC1DF099
:100F180001C1FEF002C1FFF05D0E01010C6F000E71
:100F28000D6F010E0E6F010E0F6FFF0E106FFE0E8C
:100F3800116F7BEC1FF00CC1FEF00DC1FFF0030E2A
:100F48000101156F8A0E146F550EE82EFED7142F67
:100F5800FCD7152FFAD700D030EF09F0310E000179
:100F6800EB19D8B4BAEF07F0BCEF07F030EF09F08F
:100F7800320EEB19D8B4C3EF07F0C5EF07F030EF26
:100F880009F0330EEB19D8B4CCEF07F0CEEF07F029
:100F980030EF09F0340EEB19D8B4D5EF07F0D7EFDE
:100FA80007F030EF09F0400EEB19D8A4DEEF07F098
:100FB800E0EF07F083EF07F030EF09F05D0E010175
:100FC800016F000E026F010E036FD5EC1DF001C119
:100FD800FEF002C1FFF05D0E01010C6F000E0D6FF7
:100FE800010E0E6F010E0F6F5B0E106FFF0E116F6B
:100FF8007BEC1FF00CC1FEF00DC1FFF02CEF08F0E8
:101008005D0E0C6F000E0D6F010E0E6F090E0F6F47
:10101800F30E106FFF0E116F7BEC1FF00CC1FEF08A
:101028000DC1FFF043EF08F05D0E0C6F000E0D6F61
:10103800010E0E6F090E0F6FF70E106FFF0E116F76
:101048007BEC1FF00CC1FEF00DC1FFF043EF08F080
:101058000001E7510101146F156B1551000AD8B44E
:1010680038EF08F043EF08F01451000AD8B418EF2D
:1010780008F0010AD8B404EF08F043EF08F05D0E59
:1010880001010C6F000E0D6F020E0E6F010E0F6F37
:10109800910E106FFF0E116F7BEC1FF00CC1FEF06C
:1010A8000DC1FFF05D0E01010C6F000E0D6F030EF8
:1010B8000E6F010E0F6F470E106FFF0E116F7BEC56
:1010C8001FF00CC1FEF00DC1FFF05D0E01010C6FA9
:1010D800000E0D6F040E0E6F010E0F6FE80E106FED
:1010E800FF0E116F7BEC1FF00CC1FEF00DC1FFF07D
:1010F800000E0001EB6FA40EF86F000EF96FEB0EF7
:10110800FA6F000EFB6FCAEC19F0F8C0FEF0F9C0D8
:10111800FFF00001EB51D8B494EF08F096EF08F017
:101128007FEF08F0020E0101156F860E146F990EFD
:10113800E82EFED7142FFCD7152FFAD7BCEF08F0EE
:10114800010ECCEC21F0ECC0FEF0EDC0FFF0010E7A
:101158000001E76FD3EF08F0050ECCEC21F0ECC0EE
:10116800FEF0EDC0FFF0000E0001E76FD3EF08F0CE
:101178000001EB510101146F156B1551000AD8B429
:10118800C8EF08F0D3EF08F01451310AD8B4A4EF2F
:1011980008F0030AD8B4B0EF08F0D3EF08F0300E27
:1011A8000001EB19D8A4DBEF08F0DDEF08F0ECEF55
:1011B80008F05D0E0101016F000E026F010E036F52
:1011C800D5EC1DF001C1FEF002C1FFF095EF0AF069
:1011D800310EEB19D8B4F3EF08F0F5EF08F02BEF68
:1011E80009F0320EEB19D8B4FCEF08F0FEEF08F066
:1011F8002BEF09F05D0E0101016F000E026F010E69
:10120800036FD5EC1DF001C1FEF002C1FFF05D0EC9
:1012180001010C6F000E0D6F010E0E6F010E0F6FA6
:10122800FF0E106FFE0E116F7BEC1FF00CC1FEF06D
:101238000DC1FFF0030E0101156F8A0E146F550ED4
:10124800E82EFED7142FFCD7152FFAD700D0310E71
:101258000001EB6FA3EF07F0310E0001EB19D8B4D2
:1012680038EF09F03AEF09F0E2EF07F095EF0AF0EE
:101278005D0E0101016F000E026F010E036FD5ECC8
:101288001DF001C1FEF002C1FFF05D0E01010C6FFF
:10129800000E0D6F010E0E6F010E0F6F640E106FB2
:1012A800FF0E116F7BEC1FF00CC1FEF00DC1FFF0BB
:1012B80086EF09F05D0E0C6F000E0D6F010E0E6FBC
:1012C800090E0F6FF30E106FFF0E116F7BEC1FF0FE
:1012D8000CC1FEF00DC1FFF09DEF09F05D0E0C6F23
:1012E800000E0D6F010E0E6F090E0F6FF70E106FC7
:1012F800FF0E116F7BEC1FF00CC1FEF00DC1FFF06B
:101308009DEF09F00001E7510101146F156B1551AC
:10131800000AD8B492EF09F09DEF09F01451000AC1
:10132800D8B472EF09F0010AD8B45EEF09F09DEF66
:1013380009F05D0E01010C6F000E0D6F020E0E6FAD
:10134800010E0F6F910E106FFF0E116F7BEC1FF0E7
:101358000CC1FEF00DC1FFF05D0E01010C6F000E17
:101368000D6F030E0E6F010E0F6F470E106FFF0EFD
:10137800116F7BEC1FF00CC1FEF00DC1FFF05D0E8C
:1013880001010C6F000E0D6F040E0E6F010E0F6F32
:10139800E80E106FFF0E116F7BEC1FF00CC1FEF012
:1013A8000DC1FFF0000E0001EB6FA40EF86F000EE8
:1013B800F96FEB0EFA6F000EFB6FCAEC19F0F8C06C
:1013C800FEF0F9C0FFF00001EB51D8B4EEEF09F0E0
:1013D800F0EF09F0D9EF09F0020E0101156F860E42
:1013E800146F990EE82EFED7142FFCD7152FFAD7B5
:1013F80016EF0AF0020ECCEC21F0ECC0FEF0EDC0C6
:10140800FFF0010E0001E76F2DEF0AF0060ECCEC9D
:1014180021F0ECC0FEF0EDC0FFF0000E0001E76F18
:101428002DEF0AF00001EB510101146F156B1551F6
:10143800000AD8B422EF0AF02DEF0AF01451310A4D
:10144800D8B4FEEF09F0030AD8B40AEF0AF02DEF7A
:101458000AF0300E0001EB19D8A435EF0AF037EF87
:101468000AF046EF0AF05D0E0101016F000E026FEF
:10147800010E036FD5EC1DF001C1FEF002C1FFF0B3
:10148800FAEF0BF0310EEB19D8B44DEF0AF04FEF2D
:101498000AF085EF0AF0320EEB19D8B456EF0AF0CD
:1014A80058EF0AF085EF0AF05D0E0101016F000E9A
:1014B800026F010E036FD5EC1DF001C1FEF002C1F1
:1014C800FFF05D0E01010C6F000E0D6F010E0E6F27
:1014D800010E0F6FFF0E106FFE0E116F7BEC1FF0E9
:1014E8000CC1FEF00DC1FFF0060E0101156F130EC1
:1014F800146FAD0EE82EFED7142FFCD7152FFAD790
:1015080000D0320E0001EB6F030E0101156F8A0E39
:10151800146F550EE82EFED7142FFCD7152FFAD7C7
:1015280000D0320E0001EB19D8B49DEF0AF09FEFFE
:101538000AF03CEF09F0FAEF0BF05D0E0101016FC4
:10154800000E026F010E036FD5EC1DF001C1FEF015
:1015580002C1FFF05D0E01010C6F000E0D6F010E50
:101568000E6F010E0F6F6D0E106FFF0E116F7BEC7B
:101578001FF00CC1FEF00DC1FFF0EBEF0AF05D0E9D
:101588000C6F000E0D6F010E0E6F090E0F6FF30E2C
:10159800106FFF0E116F7BEC1FF00CC1FEF00DC138
:1015A800FFF002EF0BF05D0E0C6F000E0D6F010ED9
:1015B8000E6F090E0F6FF70E106FFF0E116F7BEC99
:1015C8001FF00CC1FEF00DC1FFF002EF0BF000019F
:1015D800E7510101146F156B1551000AD8B4F7EFE4
:1015E8000AF002EF0BF01451000AD8B4D7EF0AF052
:1015F800010AD8B4C3EF0AF002EF0BF05D0E010147
:101608000C6F000E0D6F020E0E6F010E0F6F910E14
:10161800106FFF0E116F7BEC1FF00CC1FEF00DC1B7
:10162800FFF05D0E01010C6F000E0D6F030E0E6FC3
:10163800010E0F6F470E106FFF0E116F7BEC1FF03E
:101648000CC1FEF00DC1FFF05D0E01010C6F000E24
:101658000D6F040E0E6F010E0F6FE80E106FFF0E68
:10166800116F7BEC1FF00CC1FEF00DC1FFF0000EF6
:101678000001EB6FA40EF86F000EF96FEB0EFA6F16
:10168800000EFB6FCAEC19F0F8C0FEF0F9C0FFF0CD
:101698000001EB51D8B453EF0BF055EF0BF03EEFD0
:1016A8000BF0020E0101156F860E146F990EE82ECD
:1016B800FED7142FFCD7152FFAD77BEF0BF0030EAC
:1016C800CCEC21F0ECC0FEF0EDC0FFF0010E000103
:1016D800E76F92EF0BF0070ECCEC21F0ECC0FEF0B8
:1016E800EDC0FFF0000E0001E76F92EF0BF0000174
:1016F800EB510101146F156B1551000AD8B487EF2F
:101708000BF092EF0BF01451310AD8B463EF0BF0E1
:10171800030AD8B46FEF0BF092EF0BF0300E000114
:10172800EB19D8A49AEF0BF09CEF0BF0ABEF0BF092
:101738005D0E0101016F000E026F010E036FD5EC03
:101748001DF001C1FEF002C1FFF004EF0CF0310EF4
:10175800EB19D8B4B2EF0BF0B4EF0BF0EAEF0BF0E3
:10176800320EEB19D8B4BBEF0BF0BDEF0BF0EAEF7C
:101778000BF05D0E0101016F000E026F010E036F89
:10178800D5EC1DF001C1FEF002C1FFF05D0E0101B4
:101798000C6F000E0D6F010E0E6F010E0F6FFF0E16
:1017A800106FFE0E116F7BEC1FF00CC1FEF00DC127
:1017B800FFF0030E0101156F8A0E146F550EE82E07
:1017C800FED7142FFCD7152FFAD700D0330E0001FF
:1017D800EB6F030E0101156F8A0E146F550EE82E7C
:1017E800FED7142FFCD7152FFAD700D0330E0001DF
:1017F800EB19D8B402EF0CF004EF0CF0A1EF0AF0EB
:10180800040E0001E919D8A40CEF0CF00EEF0CF04F
:1018180075EF0DF069EF0DF05D0E0101016F000E1F
:10182800026F010E036FD5EC1DF001C1FEF002C17D
:10183800FFF05D0E01010C6F000E0D6F010E0E6FB3
:10184800010E0F6F760E106FFF0E116F7BEC1FF0FD
:101858000CC1FEF00DC1FFF05AEF0CF05D0E0C6FDD
:10186800000E0D6F010E0E6F090E0F6FF30E106F45
:10187800FF0E116F7BEC1FF00CC1FEF00DC1FFF0E5
:1018880071EF0CF05D0E0C6F000E0D6F010E0E6FF8
:10189800090E0F6FF70E106FFF0E116F7BEC1FF024
:1018A8000CC1FEF00DC1FFF071EF0CF00001E75123
:1018B8000101146F156B1551000AD8B466EF0CF0CE
:1018C80071EF0CF01451000AD8B446EF0CF0010A7D
:1018D800D8B432EF0CF071EF0CF05D0E01010C6F13
:1018E800000E0D6F020E0E6F010E0F6F910E106F2E
:1018F800FF0E116F7BEC1FF00CC1FEF00DC1FFF065
:101908005D0E01010C6F000E0D6F030E0E6F010EC0
:101918000F6F470E106FFF0E116F7BEC1FF00CC19D
:10192800FEF00DC1FFF05D0E01010C6F000E0D6F92
:10193800040E0E6F010E0F6FE80E106FFF0E116F81
:101948007BEC1FF00CC1FEF00DC1FFF0000E000192
:10195800EB6FA40EF86F000EF96FEB0EFA6F000E26
:10196800FB6FCAEC19F0F8C0FEF0F9C0FFF00001F7
:10197800EB51D8B4C2EF0CF0C4EF0CF0ADEF0CF0A3
:10198800020E0101156F860E146F990EE82EFED710
:10199800142FFCD7152FFAD7EAEF0CF0040ECCEC75
:1019A80021F0ECC0FEF0EDC0FFF0010E0001E76F82
:1019B80001EF0DF0080ECCEC21F0ECC0FEF0EDC00C
:1019C800FFF0000E0001E76F01EF0DF00001EB5191
:1019D8000101146F156B1551000AD8B4F6EF0CF01D
:1019E80001EF0DF01451310AD8B4D2EF0CF0030A0C
:1019F800D8B4DEEF0CF001EF0DF0300E0001EB195A
:101A0800D8A409EF0DF00BEF0DF01AEF0DF05D0EF5
:101A18000101016F000E026F010E036FD5EC1DF07E
:101A280001C1FEF002C1FFF029EF14F0310EEB19ED
:101A3800D8B421EF0DF023EF0DF059EF0DF0320E71
:101A4800EB19D8B42AEF0DF02CEF0DF059EF0DF08B
:101A58005D0E0101016F000E026F010E036FD5ECE0
:101A68001DF001C1FEF002C1FFF05D0E01010C6F17
:101A7800000E0D6F010E0E6F010E0F6FFF0E106F2F
:101A8800FE0E116F7BEC1FF00CC1FEF00DC1FFF0D4
:101A9800030E0101156F8A0E146F550EE82EFED73E
:101AA800142FFCD7152FFAD700D0340E0001EB6F96
:101AB800030E0101156F8A0E146F550EE82EFED71E
:101AC800142FFCD7152FFAD700D0340E0001EB19CC
:101AD800D8B471EF0DF073EF0DF010EF0CF029EFA3
:101AE80014F0040EEA19D8A47CEF0DF07EEF0DF087
:101AF80029EF14F01FEF14F05D0E0101016F000EC5
:101B0800026F010E036FD5EC1DF001C1FEF002C19A
:101B1800FFF05D0E01010C6F000E0D6F010E0E6FD0
:101B2800010E0F6FCB0E106FFE0E116F7BEC1FF0C6
:101B38000CC1FEF00DC1FFF05D0E01010C6F000E2F
:101B48000D6F020E0E6F010E0F6FBB0E106FFF0EA2
:101B5800116F7BEC1FF00CC1FEF00DC1FFF05D0EA4
:101B680001010C6F000E0D6F020E0E6F0B0E0F6F42
:101B7800EE0E106FFF0E116F7BEC1FF00CC1FEF024
:101B88000DC1FFF05D0E01010C6F000E0D6F030E0D
:101B98000E6F010E0F6F3C0E106FFF0E116F7BEC76
:101BA8001FF00CC1FEF00DC1FFF05D0E01010C6FBE
:101BB800000E0D6F030E0E6F0B0E0F6FE80E106FF9
:101BC800FF0E116F7BEC1FF00CC1FEF00DC1FFF092
:101BD800000E0001EB6FA40EF86F000EF96FEB0E0C
:101BE800FA6F000EFB6FCAEC19F0F8C0FEF0F9C0EE
:101BF800FFF00001EB51D8B404EF0EF006EF0EF041
:101C0800EFEF0DF0020E0101156F860E146F990E9D
:101C1800E82EFED7142FFCD7152FFAD76DEF0FF04B
:101C28005D0E0101016F000E026F010E036FD5EC0E
:101C38001DF001C1FEF002C1FFF05D0E01010C6F45
:101C4800000E0D6F010E0E6F010E0F6F760E106FE6
:101C5800FF0E116F7BEC1FF00CC1FEF00DC1FFF001
:101C68005EEF0EF05D0E0C6F000E0D6F010E0E6F25
:101C7800090E0F6FF30E106FFF0E116F7BEC1FF044
:101C88000CC1FEF00DC1FFF075EF0EF05D0E0C6F8C
:101C9800000E0D6F010E0E6F090E0F6FF70E106F0D
:101CA800FF0E116F7BEC1FF00CC1FEF00DC1FFF0B1
:101CB80075EF0EF00001E7510101146F156B155116
:101CC800000AD8B46AEF0EF075EF0EF01451000A4E
:101CD800D8B44AEF0EF0010AD8B436EF0EF075EF1B
:101CE8000EF05D0E01010C6F000E0D6F020E0E6FEF
:101CF800010E0F6F910E106FFF0E116F7BEC1FF02E
:101D08000CC1FEF00DC1FFF05D0E01010C6F000E5D
:101D18000D6F030E0E6F010E0F6F470E106FFF0E43
:101D2800116F7BEC1FF00CC1FEF00DC1FFF05D0ED2
:101D380001010C6F000E0D6F040E0E6F010E0F6F78
:101D4800E80E106FFF0E116F7BEC1FF00CC1FEF058
:101D58000DC1FFF0000E0001EB6FA40EF86F000E2E
:101D6800F96FEB0EFA6F000EFB6FCAEC19F0F8C0B2
:101D7800FEF0F9C0FFF00001EB51D8B4C6EF0EF049
:101D8800C8EF0EF0B1EF0EF0020E0101156F860ECE
:101D9800146F990EE82EFED7142FFCD7152FFAD7FB
:101DA800EEEF0EF0040ECCEC21F0ECC0FEF0EDC02E
:101DB800FFF0010E0001E76F05EF0FF0080ECCEC05
:101DC80021F0ECC0FEF0EDC0FFF0000E0001E76F5F
:101DD80005EF0FF00001EB510101146F156B155160
:101DE800000AD8B4FAEF0EF005EF0FF01451310ADB
:101DF800D8B4D6EF0EF0030AD8B4E2EF0EF005EF30
:101E08000FF0300E0001EB19D8A40DEF0FF00FEF13
:101E18000FF01EEF0FF05D0E0101016F000E026F53
:101E2800010E036FD5EC1DF001C1FEF002C1FFF0F9
:101E3800D2EF10F0310EEB19D8B425EF0FF027EFE1
:101E48000FF05DEF0FF0320EEB19D8B42EEF0FF054
:101E580030EF0FF05DEF0FF05D0E0101016F000E26
:101E6800026F010E036FD5EC1DF001C1FEF002C137
:101E7800FFF05D0E01010C6F000E0D6F010E0E6F6D
:101E8800010E0F6FFF0E106FFE0E116F7BEC1FF02F
:101E98000CC1FEF00DC1FFF0030E0101156F8A0E93
:101EA800146F550EE82EFED7142FFCD7152FFAD72E
:101EB80000D0310E0001EB6F030E0101156F8A0E81
:101EC800146F550EE82EFED7142FFCD7152FFAD70E
:101ED80000D0310E0001EB19D8B475EF0FF077EF91
:101EE8000FF014EF0EF0D2EF10F05D0E0101016F4C
:101EF800000E026F010E036FD5EC1DF001C1FEF05C
:101F080002C1FFF05D0E01010C6F000E0D6F010E96
:101F18000E6F010E0F6FE20E106FFF0E116F7BEC4C
:101F28001FF00CC1FEF00DC1FFF0C3EF0FF05D0E06
:101F38000C6F000E0D6F010E0E6F090E0F6FF30E72
:101F4800106FFF0E116F7BEC1FF00CC1FEF00DC17E
:101F5800FFF0DAEF0FF05D0E0C6F000E0D6F010E43
:101F68000E6F090E0F6FF70E106FFF0E116F7BECDF
:101F78001FF00CC1FEF00DC1FFF0DAEF0FF0000109
:101F8800E7510101146F156B1551000AD8B4CFEF52
:101F98000FF0DAEF0FF01451000AD8B4AFEF0FF0DA
:101FA800010AD8B49BEF0FF0DAEF0FF05D0E0101D4
:101FB8000C6F000E0D6F020E0E6F010E0F6FD30E19
:101FC800106FFF0E116F7BEC1FF00CC1FEF00DC1FE
:101FD800FFF05D0E01010C6F000E0D6F030E0E6F0A
:101FE800010E0F6F7F0E106FFF0E116F7BEC1FF04D
:101FF8000CC1FEF00DC1FFF05D0E01010C6F000E6B
:102008000D6F040E0E6F010E0F6FE80E106FFF0EAE
:10201800116F7BEC1FF00CC1FEF00DC1FFF0000E3C
:102028000001EB6FA40EF86F000EF96FEB0EFA6F5C
:10203800000EFB6FCAEC19F0F8C0FEF0F9C0FFF013
:102048000001EB51D8B42BEF10F02DEF10F016EF84
:1020580010F0020E0101156F860E146F990EE82E0E
:10206800FED7142FFCD7152FFAD753EF10F0090E0F
:10207800CCEC21F0ECC0FEF0EDC0FFF0010E000149
:10208800E76F6AEF10F0000ECCEC21F0ECC0FEF028
:10209800EDC0FFF0000E0001E76F6AEF10F00001DD
:1020A800EB510101146F156B1551000AD8B45FEF9D
:1020B80010F06AEF10F01451310AD8B43BEF10F069
:1020C800030AD8B447EF10F06AEF10F0300E0001A1
:1020D800EB19D8A472EF10F074EF10F083EF10F042
:1020E8005D0E0101016F000E026F010E036FD5EC4A
:1020F8001DF001C1FEF002C1FFF0B1EF13F0310E87
:10210800EB19D8B48AEF10F08CEF10F0C2EF10F092
:10211800320EEB19D8B493EF10F095EF10F0C2EF30
:1021280010F05D0E0101016F000E026F010E036FCA
:10213800D5EC1DF001C1FEF002C1FFF05D0E0101FA
:102148000C6F000E0D6F010E0E6F010E0F6FFF0E5C
:10215800106FFE0E116F7BEC1FF00CC1FEF00DC16D
:10216800FFF0030E0101156F8A0E146F550EE82E4D
:10217800FED7142FFCD7152FFAD700D0320E000146
:10218800EB6F030E0101156F8A0E146F550EE82EC2
:10219800FED7142FFCD7152FFAD700D0320E000126
:1021A800EB19D8B4DAEF10F0DCEF10F079EF0FF09C
:1021B800B1EF13F05D0E0101016F000E026F010E09
:1021C800036FD5EC1DF001C1FEF002C1FFF05D0EFA
:1021D80001010C6F000E0D6F010E0E6F010E0F6FD7
:1021E800670E106FFE0E116F7BEC1FF00CC1FEF036
:1021F8000DC1FFF05D0E01010C6F000E0D6F020E98
:102208000E6F010E0F6F510E106FFF0E116F7BECEA
:102218001FF00CC1FEF00DC1FFF05D0E01010C6F47
:10222800000E0D6F030E0E6F010E0F6F8B0E106FE9
:10223800FE0E116F7BEC1FF00CC1FEF00DC1FFF01C
:102248005D0E01010C6F000E0D6F040E0E6F010E76
:102258000F6FE80E106FFF0E116F7BEC1FF00CC1B3
:10226800FEF00DC1FFF0000E0001EB6FA40EF86F39
:10227800000EF96FEB0EFA6F000EFB6FCAEC19F047
:10228800F8C0FEF0F9C0FFF00001EB51D8B44FEFF1
:1022980011F051EF11F03AEF11F0020E0101156F34
:1022A800860E146F990EE82EFED7142FFCD7152F23
:1022B800FAD75D0E0101016F000E026F010E036F68
:1022C800D5EC1DF001C1FEF002C1FFF077EF12F06E
:1022D8005D0E01010C6F000E0D6F010E0E6F010EE9
:1022E8000F6F670E106FFE0E116F7BEC1FF00CC1A5
:1022F800FEF00DC1FFF05D0E01010C6F000E0D6FB9
:10230800020E0E6F010E0F6F060E106FFE0E116F8C
:102318007BEC1FF00CC1FEF00DC1FFF05D0E01015A
:102328000C6F000E0D6F030E0E6F010E0F6FDB0E9C
:10233800106FFD0E116F7BEC1FF00CC1FEF00DC18C
:10234800FFF05D0E01010C6F000E0D6F040E0E6F95
:10235800010E0F6FE80E106FFF0E116F7BEC1FF070
:102368000CC1FEF00DC1FFF0000E0001EB6FA40ED2
:10237800F86F000EF96FEB0EFA6F000EFB6FCAECE8
:1023880019F0F8C0FEF0F9C0FFF00001EB51D8B425
:10239800D0EF11F0D2EF11F0BBEF11F0020E0101F6
:1023A800156F860E146F990EE82EFED7142FFCD7E2
:1023B800152FFAD7F8EF11F00A0ECCEC21F0ECC08B
:1023C800FEF0EDC0FFF0010E0001E76F0FEF12F015
:1023D8000B0ECCEC21F0ECC0FEF0EDC0FFF0000ECF
:1023E8000001E76F0FEF12F00001EB510101146FCC
:1023F800156B1551000AD8B404EF12F00FEF12F064
:102408001451310AD8B4E0EF11F0030AD8B4ECEF54
:1024180011F00FEF12F0300E0001EB19D8A417EFEE
:1024280012F019EF12F028EF12F05D0E0101016FA2
:10243800000E026F010E036FD5EC1DF001C1FEF016
:1024480002C1FFF081EF12F0310EEB19D8B42FEF73
:1024580012F031EF12F067EF12F0320EEB19D8B428
:1024680038EF12F03AEF12F067EF12F05D0E01014B
:10247800016F000E026F010E036FD5EC1DF001C154
:10248800FEF002C1FFF05D0E01010C6F000E0D6F32
:10249800010E0E6F010E0F6FFF0E106FFE0E116F03
:1024A8007BEC1FF00CC1FEF00DC1FFF0030E010123
:1024B800156F8A0E146F550EE82EFED7142FFCD711
:1024C800152FFAD700D0310E0001EB6F030E010172
:1024D800156F8A0E146F550EE82EFED7142FFCD7F1
:1024E800152FFAD700D0310E0001EB19D8B47FEFC1
:1024F80012F081EF12F06CEF11F0320E0001EB19BF
:10250800D8A489EF12F08BEF12F041EF13F05D0EB3
:102518000101016F000E026F010E036FD5EC1DF073
:1025280001C1FEF002C1FFF05D0E01010C6F000E4B
:102538000D6F020E0E6F010E0F6F1B0E106FFE0E49
:10254800116F7BEC1FF00CC1FEF00DC1FFF0000E07
:102558000001EB6FA40EF86F000EF96FEB0EFA6F27
:10256800000EFB6FCAEC19F0F8C0FEF0F9C0FFF0DE
:102578000001EB51D8B4C3EF12F0C5EF12F0AEEF83
:1025880012F0020E0101156F860E146F990EE82ED7
:10259800FED7142FFCD7152FFAD75D0E0101016F56
:1025A800000E026F100E036FD5EC1DF001C1FEF096
:1025B80002C1FFF05D0E0101016F000E026F100EE7
:1025C800036FD5EC1DF001C1FEF002C1FFF05D0EF6
:1025D8000101016F000E026FEBC003F194EC1DF0D6
:1025E80001C1FEF002C1FFF00001EB51D00F0A0D4E
:1025F800F3CFE8F0000EEB6FA40EF86F000EF96F42
:10260800EB0EFA6F000EFB6FCAEC19F0F8C0FEF083
:10261800F9C0FFF00001EB51D8B415EF13F017EF34
:1026280013F000EF13F0020E0101156F860E146F00
:10263800990EE82EFED7142FFCD7152FFAD75D0E6A
:102648000101016F000E026FEBC003F194EC1DF065
:1026580001C1FEF002C1FFF00001EB51D00FE827E5
:10266800030E0101156F8A0E146F550EE82EFED762
:10267800142FFCD7152FFAD700D0330E0001EB6FBB
:10268800300EEB19D8A44BEF13F04DEF13F05CEFBD
:1026980013F05D0E0101016F000E026F010E036F52
:1026A800D5EC1DF001C1FEF002C1FFF0BBEF13F045
:1026B800310EEB19D8B463EF13F065EF13F0A4EF04
:1026C80013F0320EEB19D8B46CEF13F06EEF13F071
:1026D800A4EF13F0330EEB19D8B475EF13F077EFBE
:1026E80013F0A4EF13F05D0E0101016F000E026FED
:1026F800010E036FD5EC1DF001C1FEF002C1FFF021
:102708005D0E01010C6F000E0D6F010E0E6F010EB4
:102718000F6FFF0E106FFE0E116F7BEC1FF00CC1D8
:10272800FEF00DC1FFF0030E0101156F8A0E146F44
:10273800550EE82EFED7142FFCD7152FFAD700D048
:10274800030E0101156F8A0E146F550EE82EFED781
:10275800142FFCD7152FFAD700D0330E0001EB1930
:10276800D8B4B9EF13F0BBEF13F0DEEF10F0300E72
:102778000001EB19D8A4C3EF13F0C5EF13F0C7EFAE
:1027880013F00BEF0DF0310EEB19D8B4CEEF13F0B8
:10279800D0EF13F00FEF14F0320EEB19D8B4D7EFD7
:1027A80013F0D9EF13F00FEF14F0330EEB19D8B480
:1027B800E0EF13F0E2EF13F00FEF14F05D0E0101FC
:1027C800016F000E026F010E036FD5EC1DF001C101
:1027D800FEF002C1FFF05D0E01010C6F000E0D6FDF
:1027E800010E0E6F010E0F6FFF0E106FFE0E116FB0
:1027F8007BEC1FF00CC1FEF00DC1FFF0030E0101D0
:10280800156F8A0E146F550EE82EFED7142FFCD7BD
:10281800152FFAD700D0340E0001EB6F030E01011B
:10282800156F8A0E146F550EE82EFED7142FFCD79D
:10283800152FFAD700D0340E0001EB19D8B427EFC2
:1028480014F029EF14F080EF0DF0040E0001E919DF
:10285800D8B431EF14F033EF14F08AEF06F0040E19
:10286800EA19D8B43AEF14F03CEF14F08AEF06F006
:102878000FEF06F007EF00F00600FACF29F0FBCFC4
:102888002AF0D9CF2BF0DACF2CF0F3CF2DF0F4CFFC
:102898002EF0F6CF2FF0F7CF30F0F8CF31F0F5CF9C
:1028A80032F0F2A85AEF14F05CEF14F065EF14F070
:1028B800F2A261EF14F063EF14F065EF14F035EC59
:1028C80022F0F0A66AEF14F06CEF14F075EF14F034
:1028D800F0A071EF14F073EF14F075EF14F033EC0F
:1028E80022F0F0A87AEF14F07CEF14F085EF14F0E2
:1028F800F0A281EF14F083EF14F085EF14F031ECBF
:1029080022F0F2A68AEF14F08CEF14F0A7EF14F07F
:10291800F2A091EF14F093EF14F0A7EF14F081A850
:1029280098EF14F09AEF14F0A7EF14F05C04D8A411
:10293800A0EF14F0A2EF14F0A7EF14F0000E5C6EF5
:10294800000E00EC22F0F2A6ACEF14F0AEEF14F09B
:10295800C9EF14F0F2A0B3EF14F0B5EF14F0C9EF1B
:1029680014F081BABAEF14F0BCEF14F0C9EF14F008
:102978005C50D8A4C2EF14F0C4EF14F0C9EF14F0FF
:10298800010E5C6E010E00EC22F0F2A6CEEF14F000
:10299800D0EF14F0EBEF14F0F2A0D5EF14F0D7EF6E
:1029A80014F0EBEF14F081AADCEF14F0DEEF14F072
:1029B800EBEF14F05B04D8A4E4EF14F0E6EF14F0A6
:1029C800EBEF14F0000E5B6E000EF3EC21F0F2A6B4
:1029D800F0EF14F0F2EF14F00DEF15F0F2A0F7EFAE
:1029E80014F0F9EF14F00DEF15F081BAFEEF14F0C2
:1029F80000EF15F00DEF15F05B50D8A406EF15F0B9
:102A080008EF15F00DEF15F0010E5B6E010EF3ECFB
:102A180021F0F2A612EF15F014EF15F02FEF15F0D4
:102A2800F2A019EF15F01BEF15F02FEF15F081ACA0
:102A380020EF15F022EF15F02FEF15F05A04D8A467
:102A480028EF15F02AEF15F02FEF15F0000E5A6E4B
:102A5800000EE6EC21F0F2A634EF15F036EF15F093
:102A680051EF15F0F2A03BEF15F03DEF15F051EFE7
:102A780015F081BC42EF15F044EF15F051EF15F059
:102A88005A50D8A44AEF15F04CEF15F051EF15F055
:102A9800010E5A6E010EE6EC21F0F2A656EF15F083
:102AA80058EF15F073EF15F0F2A05DEF15F05FEF3A
:102AB80015F073EF15F081AE64EF15F066EF15F0C1
:102AC80073EF15F05904D8A46CEF15F06EEF15F0FC
:102AD80073EF15F0000E596E000ED9EC21F0F2A636
:102AE80078EF15F07AEF15F095EF15F0F2A07FEF7B
:102AF80015F081EF15F095EF15F081BE86EF15F012
:102B080088EF15F095EF15F05950D8A48EEF15F011
:102B180090EF15F095EF15F0010E596E010ED9ECF6
:102B280021F09DAC9AEF15F09CEF15F0A5EF15F08C
:102B38009EACA1EF15F0A3EF15F0A5EF15F03FEC53
:102B480022F0F2AAAAEF15F0ACEF15F0B5EF15F0E8
:102B5800F2A4B1EF15F0B3EF15F0B5EF15F037ECBF
:102B680021F09DA0BAEF15F0BCEF15F0C5EF15F0F8
:102B78009EA0C1EF15F0C3EF15F0C5EF15F01DECE1
:102B880022F09DA2CAEF15F0CCEF15F0D5EF15F0A5
:102B98009EA2D1EF15F0D3EF15F0D5EF15F027EC85
:102BA80022F0A0A2DAEF15F0DCEF15F0E5EF15F052
:102BB800A1A2E1EF15F0E3EF15F0E5EF15F017EC42
:102BC80022F09DA4EAEF15F0ECEF15F0F5EF15F003
:102BD8009EA4F1EF15F0F3EF15F0F5EF15F03BECCF
:102BE80022F0A0A0FAEF15F0FCEF15F005EF16F0B3
:102BF800A1A001EF16F003EF16F005EF16F039EC7F
:102C080022F09DA40AEF16F00CEF16F015EF16F05F
:102C18009EA411EF16F013EF16F015EF16F037EC2F
:102C280022F09DA81AEF16F01CEF16F025EF16F00B
:102C38009EA821EF16F023EF16F025EF16F02BECE7
:102C480022F09DAA2AEF16F02CEF16F035EF16F0B9
:102C58009EAA31EF16F033EF16F035EF16F03DEC83
:102C680022F09DA63AEF16F03CEF16F045EF16F06D
:102C78009EA641EF16F043EF16F045EF16F03EEC36
:102C880022F09DA64AEF16F04CEF16F055EF16F01D
:102C98009EA651EF16F053EF16F055EF16F02DECF7
:102CA80022F0A0A65AEF16F05CEF16F065EF16F0CA
:102CB800A1A661EF16F063EF16F065EF16F02FECA2
:102CC80022F032C0F5FF31C0F8FF30C0F7FF2FC047
:102CD800F6FF2EC0F4FF2DC0F3FF2CC0DAFF2BC087
:102CE800D9FF2AC0FBFF29C0FAFF65921100010134
:102CF80006510711D8A483EF16F085EF16F08BEF75
:102D080016F0000E0B6F000E0A6F28EF17F0010E79
:102D180006250001F76F000E010107210001F86F79
:102D2800E6EC1FF006C1F7F007C1F8F0E6EC1FF07B
:102D3800000E01010C6F0C510625086F000E0721CB
:102D4800096F020E08250001F76F000E0101092125
:102D58000001F86FE6EC1FF0F7C00AF1F8C00BF1BC
:102D680001010C2B030E0C65BCEF16F0BEEF16F03C
:102D78009FEF16F01A0E0101086FF80EE82EFED725
:102D8800082FFCD700F006C101F107C102F1380E87
:102D98000101036FD5EC1DF0070E0101086F7D0ED0
:102DA800E82EFED7082FFCD706C101F107C102F1B2
:102DB800380E0101036FD5EC1DF0C30E0101086F39
:102DC800CD0EE82EFED7082FFCD706C101F107C1AA
:102DD80002F1380E0101036FD5EC1DF006C101F1B7
:102DE80007C102F1010E0101036FD5EC1DF006C108
:102DF80001F107C102F1020E0101036FD5EC1DF0CC
:102E080006C101F107C102F1060E0101036FD5ECFD
:102E18001DF006C101F107C102F10C0E0101036F9B
:102E2800D5EC1DF006C101F107C102F1280E010120
:102E3800036FD5EC1DF006C101F107C102F1800E48
:102E48000101036FD5EC1DF00AC106F10BC107F1B2
:102E58001200000E0001F56F010EF46FEC51ED1138
:102E6800D8B439EF17F03BEF17F04CEF17F0ECC080
:102E7800D9FFEDC0DAFFDF30E832E832070BEE6F3A
:102E8800070EEE654AEF17F04CEF17F0B3EF17F0A7
:102E9800000EF56F000EF46FD4EF17F0ECC0D9FFF9
:102EA800EDC0DAFFDF30E832E832070BEE6F010ED3
:102EB800EF6FEE2B62EF17F0D890EF37EE2F60EF41
:102EC80017F00001EF51FF0AF06FECC0D9FFEDC019
:102ED800DAFFDF50070BF16FF151020D940EF32466
:102EE800D96E000EF420DA6EDECFF2F0DDCFF3F00B
:102EF800F2C0D9FFF3C0DAFFF051DF16D4EF17F0B4
:102F0800ECC0D9FFEDC0DAFFDF30E832E832070B5A
:102F1800EE6F010EEF6FEE2B94EF17F0D890EF37AE
:102F2800EE2F92EF17F0ECC0D9FFEDC0DAFFDF50BB
:102F3800070B0001F06FF051020D940EF324D96EC7
:102F4800000EF420DA6EDECFF1F0DDCFF2F0F1C042
:102F5800D9FFF2C0DAFFEF51DF12D4EF17F0ECC05F
:102F6800D9FFEDC0DAFFDFBCBCEF17F0BFEF17F0F9
:102F7800010EC0EF17F0000EEE6FEF6BEF51000A75
:102F8800D8B4C9EF17F04CEF17F0EE51000AD8B4D7
:102F980052EF17F0010AD8B484EF17F04CEF17F08E
:102FA800F4C0ECF0F5C0EDF0120001010051011180
:102FB800D8A4E1EF17F0E3EF17F0E5EF17F080EF93
:102FC80018F0C69A00C1D9FF01C1DAFFDF5000012D
:102FD800FD6FC650FD19F00BFD19C66E00C1D9FF73
:102FE80001C1DAFFDF50D8B4FCEF17F0FEEF17F09D
:102FF80024EF18F000C1D9FF01C1DAFFDE04D8B40C
:1030080008EF18F00AEF18F024EF18F000C1D9FF04
:1030180001C1DAFF020EDE18D8B415EF18F017EF69
:1030280018F024EF18F000C1D9FF01C1DAFF030E30
:10303800DE18D8A422EF18F024EF18F028EF18F0C3
:1030480054EC21F048EF18F000C1D9FF01C1DAFFB4
:10305800040EDE18D8B433EF18F035EF18F042EF4D
:1030680018F000C1D9FF01C1DAFF050EDE18D8A497
:1030780040EF18F042EF18F048EF18F000C1F6F0F2
:1030880001C1F7F00BEC1FF0010120EE01F0005137
:10309800D9260151DA22DF50030B0001FD6FFD3BF9
:1030A800C650FD19EF0BFD19C66E010120EE01F0A7
:1030B8000051D9260151DA22DF38030B0001FD6FD8
:1030C800FD3BFD47FD47C750FD19BF0BFD19C76EF6
:1030D800010120EE01F00051D9260151DA22DF303A
:1030E800E832030B0001FD6FFD33FD33C750FD19B6
:1030F8007F0BFD19C76EC68A1200000E0001F66F1D
:10310800000EF56FEC51ED11D8B48DEF18F08FEF7C
:1031180018F0A0EF18F0ECC0D9FFEDC0DAFFDF30EF
:10312800E832E832070BEF6F070EEF659EEF18F0F5
:10313800A0EF18F00DEF19F0000EF66F010EF56F05
:1031480022EF19F0ECC0D9FFEDC0DAFFDF30E8322A
:10315800E832070BEF6F010EF06FEF2BB6EF18F0A8
:10316800D890F037EF2FB4EF18F00001F051FF0AB4
:10317800F16FECC0D9FFEDC0DAFFDF50070BF26F3B
:10318800F251020D8A0EF324D96E000EF420DA6E85
:10319800DECFF3F0DDCFF4F0F3C0D9FFF4C0DAFFEF
:1031A800F151DF1622EF19F0ECC0D9FFEDC0DAFFBC
:1031B800DF30E832E832070BEF6F010EF06FEF2BCC
:1031C800E8EF18F0D890F037EF2FE6EF18F0ECC0E2
:1031D800D9FFEDC0DAFFDF50070B0001F16FF151A5
:1031E800020D8A0EF324D96E000EF420DA6EDECFBB
:1031F800F2F0DDCFF3F0F2C0D9FFF3C0DAFFF051FF
:10320800DF1222EF19F0000EF66F000EF56F22EFB5
:1032180019F0EE51EF6FF06BF051000AD8B417EFC8
:1032280019F007EF19F0EF51000AD8B4A6EF18F01B
:10323800010AD8B4D8EF18F007EF19F0F5C0ECF090
:10324800F6C0EDF01200000E0B6E000E0A6E015073
:103258000210D8B432EF19F034EF19F045EF19F035
:1032680001C0D9FF02C0DAFFDF30E832E832070BCD
:10327800046E070E046443EF19F045EF19F0B0EF40
:1032880019F0000E0B6E010E0A6EC5EF19F001C0A1
:10329800D9FF02C0DAFFDF30E832E832070B046EEC
:1032A800010E056E042A5BEF19F0D8900536042E3E
:1032B80059EF19F00550FF0A066E01C0D9FF02C088
:1032C800DAFFDF50070B076E0750020D8A0EF32452
:1032D800D96E000EF420DA6EDECF08F0DDCF09F0EB
:1032E80008C0D9FF09C0DAFF0650DF16C5EF19F08C
:1032F80001C0D9FF02C0DAFFDF30E832E832070B3D
:10330800046E010E056E042A8CEF19F0D89005366C
:10331800042E8AEF19F001C0D9FF02C0DAFFDF508E
:10332800070B066E0650020D8A0EF324D96E000EA6
:10333800F420DA6EDECF07F0DDCF08F007C0D9FF42
:1033480008C0DAFF0550DF12C5EF19F0000E0B6E4A
:10335800000E0A6EC5EF19F00350046E056A055099
:10336800000AD8B4BAEF19F0AAEF19F00450000A0D
:10337800D8B44BEF19F0010AD8B47CEF19F0AAEFD2
:1033880019F00AC001F00BC002F012000001F85158
:10339800F911D8A4D2EF19F0D4EF19F0DBEF19F036
:1033A800000E0101016F000E006F59EF1AF0000EB8
:1033B8000101026F000E036F000E036F000E046F11
:1033C80004510001F825EC6F0101000E0001F921FC
:1033D800ED6F000EEE6F81EC18F00101042B030E67
:1033E8000465F9EF19F0FBEF19F0E4EF19F0035158
:1033F8000001F825EC6F0101000E0001F921ED6FC5
:10340800010EEE6F81EC18F0000E0101046F0451FB
:103418000001F825FC6F000EF921FD6F040EFC2554
:10342800EC6F000EFD21ED6F020EEE6F010EEF6FD7
:103438005EEC1AF001010251D8B425EF1AF027EF1B
:103448001AF042EF1AF00351040DCB0EF3240001D9
:10345800FC6FFD0EF420FD6F010104510001FC27F3
:10346800000EFD23FCC0F6FFFDC0F7FFF86AFAC0A6
:10347800D9FFFBC0DAFF0800F5CFDFFF0101042BFD
:10348800030E04654AEF1AF04CEF1AF00BEF1AF02E
:10349800032B030E036553EF1AF055EF1AF0E2EF12
:1034A80019F0000E016F010E006F00C1F8F001C1A4
:1034B800F9F01200000E0001F76F010EF66FEC51E3
:1034C800ED11D8B46AEF1AF06CEF1AF086EF1AF023
:1034D800EE51EF11D8B473EF1AF075EF1AF086EFCA
:1034E8001AF0ECC0D9FFEDC0DAFFDF30E832E8327D
:1034F800070BF06F070EF06584EF1AF086EF1AF0ED
:103508008CEF1AF0000EF76F000EF66FC0EF1AF08E
:10351800ECC0D9FFEDC0DAFFDF50070BF06FF051B8
:10352800020D800EF324D96E000EF420DA6EDECF81
:10353800F1F0DDCFF2F0F1C0D9FFF2C0DAFFDF50D1
:10354800F36FECC0D9FFEDC0DAFFDF30E832E832C4
:10355800070BF46F010EF56FF42BB5EF1AF0D89046
:10356800F537F42FB3EF1AF00001F551F315EEC05B
:10357800D9FFEFC0DAFFDF6EF6C0ECF0F7C0EDF070
:103588001200000120EE05F0EC51D926ED51DA22A7
:10359800DFB4D1EF1AF0D3EF1AF0F6EF1AF0D59A9C
:1035A80020EE05F0EC51D926ED51DA22DFA2DFEF4B
:1035B8001AF0E1EF1AF0E4EF1AF0D58822EF1BF0C9
:1035C80020EE05F0EC51D926ED51DA22DFB2EFEF0B
:1035D8001AF0F1EF1AF0F4EF1AF0D59822EF1BF079
:1035E80022EF1BF020EE05F0EC51D926ED51DA223E
:1035F800DFA401EF1BF003EF1BF022EF1BF0D58ACD
:1036080020EE05F0EC51D926ED51DA22DFA20FEFBA
:103618001BF011EF1BF014EF1BF0D58822EF1BF005
:1036280020EE05F0EC51D926ED51DA22DFB21FEF7A
:103638001BF021EF1BF0F4EF1AF0D5981200000EE2
:103648000001F46F010EF36FEF51F011D8A42FEFC2
:103658001BF031EF1BF037EF1BF0000EF46F000E7C
:10366800F36F79EF1BF0D59EEFC0ECF0F0C0EDF0F2
:1036780047EC20F0EFC0ECF0F0C0EDF0C5EC1AF02C
:10368800EFC0ECF0F0C0EDF017EC21F0000120EEF7
:1036980003F0EF51D926F051DA22DECFF1F0DDCF79
:1036A800F2F0F2C0F1F0F26BF151D76E20EE03F0B8
:1036B800EF51D926F051DA22DF50D66E20EE03F012
:1036C800EF51D926F051DA22DECF39F0DDCF3AF0CA
:1036D800F28AF294EFC0D9FFF0C0DAFFDECF3BF0F8
:1036E800DDCF3CF0F28EF28CD58EF3C0EFF0F4C053
:1036F800F0F012000001FB51FC11D8A486EF1BF07A
:1037080088EF1BF08FEF1BF0000E0101016F000E18
:10371800006FCDEF1BF050C002F1FBC0D9FFFCC019
:10372800DAFFDF50070BFD6F010102510001FD199F
:10373800F80BFD190101026FFBC0D9FFFCC0DAFFCD
:10374800DF30E832E832070B0001FD6FFD47FD4727
:10375800FD47010102510001FD19C70BFD190101C7
:10376800026F029DFBC0D9FFFCC0DAFF0001DFAC8D
:1037780003D00101028F02D00101029F020E000155
:10378800F76F010EF86FE6EC1FF0F7C000F1F8C014
:1037980001F100C1FBF001C1FCF012000001FB5176
:1037A800FC11D8A4DAEF1BF0DCEF1BF0E3EF1BF001
:1037B800000E0101036F000E026F1FEF1CF0000ED8
:1037C8000101046F000E046F04510001FB25F76F1F
:1037D8000101000E0001FC21F86FE6EC1FF0F7C0B4
:1037E80002F1F8C003F1010104510001FB250101B8
:1037F800006F000E0001FC210101016F040E00257D
:103808000001F76F000E010101210001F86FE6ECDD
:103818001FF0F7C002F1F8C003F10101042B030EF9
:10382800046519EF1CF01BEF1CF0E8EF1BF0000E0D
:10383800036F010E026F02C1FBF003C1FCF012001E
:103848000101090754EF1CF006C101F107C102F19B
:103858000951800F036FD5EC1DF071EF1CF006C104
:1038680001F107C102F10951C00F036FD5EC1DF03A
:1038780071EF1CF006C101F107C102F10951940F63
:10388800036FD5EC1DF071EF1CF006C101F107C103
:1038980002F10951D40F036FD5EC1DF071EF1CF044
:1038A80008510A6F0B6B0B51000AD8B45EEF1CF07D
:1038B80071EF1CF00A51010AD8B428EF1CF0030A72
:1038C800D8B433EF1CF0010AD8B43EEF1CF0070A55
:1038D800D8B449EF1CF071EF1CF012001C06A1EFE0
:1038E8001CF019C014F01AC015F01C50800F166E89
:1038F80056EC1EF0BEEF1CF019C014F01AC015F0FB
:103908001C50C00F166E56EC1EF0BEEF1CF019C00E
:1039180014F01AC015F01C50940F166E56EC1EF0D9
:10392800BEEF1CF019C014F01AC015F01C50D40FCB
:10393800166E56EC1EF0BEEF1CF01B501D6E1E6A74
:103948001E50000AD8B4ABEF1CF0BEEF1CF01D509F
:10395800010AD8B475EF1CF0030AD8B480EF1CF044
:10396800010AD8B48BEF1CF0070AD8B496EF1CF004
:10397800BEEF1CF012000001F751F811D8A4C7EFF0
:103988001CF0C9EF1CF0CFEF1CF0000EFB6F000E0F
:10399800FA6F05EF1DF04FC0FCF0F7C0D9FFF8C073
:1039A800DAFFDF50070BF96FFC51F919F80BF91919
:1039B800FC6FF7C0D9FFF8C0DAFFDF30E832E83231
:1039C800070BF96FF947F947F947FC51F919C70B84
:1039D800F919FC6FFC9DF7C0D9FFF8C0DAFFDFAC1E
:1039E80002D0FC8F02D00001FC9FFC0EEC6F000E91
:1039F800ED6F010EEE6F81EC18F0ECC0FAF0EDC03F
:103A0800FBF0FAC0F7F0FBC0F8F01200000E01015D
:103A18000B6F010E0A6F06510711D8B416EF1DF08F
:103A280018EF1DF021EF1DF008510911D8A41FEF60
:103A38001DF021EF1DF03CEF1DF0000E0B6F000E86
:103A48000A6F4BEF1DF006C101F107C102F108C171
:103A5800F6FF09C1F7FFF86A0800F5CF03F194EC07
:103A68001DF001C10AF102C10BF10101084B092B3C
:103A780008C1F6FF09C1F7FFF86A0800F550000908
:103A8800D8A449EF1DF04BEF1DF027EF1DF00AC138
:103A980006F10BC107F11200000E1E6E010E1D6E1D
:103AA80019501A10D8B45BEF1DF05DEF1DF066EFEA
:103AB8001DF01B501C10D8A464EF1DF066EF1DF01C
:103AC80080EF1DF0000E1E6E000E1D6E8FEF1DF0B4
:103AD80019C014F01AC015F01BC0F6FF1CC0F7FF80
:103AE800F86A0800F5CF16F093EC1EF014C01DF02C
:103AF80015C01EF01B4A1C2A1BC0F6FF1CC0F7FF8E
:103B0800F86A0800F5500009D8A48DEF1DF08FEF72
:103B18001DF06CEF1DF01DC019F01EC01AF0120048
:103B2800010101510211D8A49CEF1DF09EEF1DF078
:103B3800A4EF1DF0000E056F000E046FD0EF1DF00E
:103B480001C1ECF002C1EDF0010E0001EE6F81EC55
:103B580018F0ECC004F1EDC005F101C1F7F002C1A5
:103B6800F8F0010103390F0B0001F96F18EC20F090
:103B780001C1F7F002C1F8F08CEC21F001C1F7F0B7
:103B880002C1F8F003C1F9F018EC20F001C1F7F018
:103B980002C1F8F08CEC21F004C101F105C102F179
:103BA8001200010101510211D8A4DDEF1DF0DFEF71
:103BB8001DF0E5EF1DF0000E056F000E046F11EF0C
:103BC8001EF001C1ECF002C1EDF0000E0001EE6F35
:103BD80081EC18F0ECC004F1EDC005F101C1F7F07B
:103BE80002C1F8F0010103390F0B0001F96F18EC5D
:103BF80020F001C1F7F002C1F8F08CEC21F001C10E
:103C0800F7F002C1F8F003C1F9F018EC20F001C197
:103C1800F7F002C1F8F08CEC21F004C101F105C104
:103C280002F11200492A020E4918D8A41EEF1EF00C
:103C380020EF1EF055EF1EF0040E0001E919D8A47C
:103C480028EF1EF02AEF1EF055EF1EF05D0E146EE1
:103C5800000E156E010E166E56EC1EF014C0FEF026
:103C680015C0FFF05D0E1F6E000E206E020E216E55
:103C7800010E226EAD0E236EFE0E246EB1EC1FF007
:103C88001FC0FEF020C0FFF0060E286E130E276E30
:103C9800AE0EE82EFED7272EFCD7282EFAD722EC18
:103CA80022F0120014501510D8A45DEF1EF05FEF3B
:103CB8001EF065EF1EF0000E186E000E176E8EEFE8
:103CC8001EF014C001F015C002F0000E036E27ECC0
:103CD80019F001C017F002C018F014C00CF015C09C
:103CE8000DF016380F0B0E6E9FEC20F014C00CF080
:103CF80015C00DF0A6EC21F014C00CF015C00DF0A5
:103D080016C00EF09FEC20F014C00CF015C00DF09A
:103D1800A6EC21F017C014F018C015F012001450CA
:103D28001510D8A49AEF1EF09CEF1EF0A2EF1EF01B
:103D3800000E186E000E176ECBEF1EF014C001F0C7
:103D480015C002F0010E036E27EC19F001C017F040
:103D580002C018F014C00CF015C00DF016380F0B87
:103D68000E6E9FEC20F014C00CF015C00DF0A6EC00
:103D780021F014C00CF015C00DF016C00EF09FEC29
:103D880020F014C00CF015C00DF0A6EC21F017C0FF
:103D980014F018C015F01200000E0001F16F010EAA
:103DA800F06F040EED5DD8A0DCEF1EF0DEEF1EF024
:103DB800E4EF1EF0000EF16F000EF06F06EF1FF03B
:103DC800000EF2BE010EEF6FED51030BAA6EECC0B0
:103DD800A9FFEEC0A8FFA69EA69CA684F29E550E3B
:103DE800A76EAA0EA76EA682A6B2FDEF1EF0FFEF81
:103DF8001EF0F8EF1EF0A6940001EFB102D0F29E7B
:103E080001D0F28EF0C0ECF0F1C0EDF0120055C018
:103E1800F9F054C0FAF053C0FCF052C0FBF0F90EB0
:103E28000001EC6F000EED6F2DEC17F0FA0E00019B
:103E3800EC6F000EED6F2DEC17F0FC0E0001EC6F2F
:103E4800000EED6F2DEC17F0FC0E0001EC6F000E6C
:103E5800ED6F2DEC17F0F6C0D9FFF7C0DAFF040EAE
:103E6800DE18D8A43AEF1FF03CEF1FF043EF1FF025
:103E7800FB0E0001EC6F000EED6F2DEC17F0120039
:103E8800E00EF66E420EF76E000EF86E00EE80F051
:103E980010EE37F00900F5CFEEFFE550E150FAE1FA
:103EA8001A0EF66E440EF76E000EF86E00EE52F023
:103EB80010EE13F00900F5CFEEFFE550E150FAE1FE
:103EC80001EE16F00B0EEE6AE806FDE100EEB7F023
:103ED800350EEE6AE806FDE100EE33F01F0EEE6ADD
:103EE800E806FDE165906592000109EF00F0010127
:103EF8000C510D11D8B483EF1FF085EF1FF08EEF32
:103F08001FF010511111D8A48CEF1FF08EEF1FF085
:103F180094EF1FF0000E136F000E126FACEF1FF03E
:103F28000CC106F10DC107F10EC108F10FC109F16D
:103F380024EC1CF00CC106F10DC107F110C108F109
:103F480011C109F10AEC1DF006C112F107C113F104
:103F580012C10CF113C10DF112001F502010D8B47A
:103F6800B8EF1FF0BAEF1FF0C3EF1FF02350241073
:103F7800D8A4C1EF1FF0C3EF1FF0C9EF1FF0000E68
:103F8800266E000E256EE1EF1FF01FC019F020C04D
:103F98001AF021C01BF022C01CF072EC1CF01FC0EC
:103FA80019F020C01AF023C01BF024C01CF050ECFC
:103FB8001DF019C025F01AC026F025C01FF026C034
:103FC80020F012000001F751F811D8A4EEEF1FF00D
:103FD800F0EF1FF0F6EF1FF0000EFA6F000EF96F0A
:103FE80013EF20F0F7C0ECF0F8C0EDF02DEC17F06F
:103FF800ECC0F9F0EDC0FAF0F7C0ECF0F8C0EDF065
:10400800F7C0D9FFF8C0DAFF0001000EDFBE010ECD
:10401800EE6F81EC18F0ECC0F9F0EDC0FAF0F9C0E1
:10402800F7F0FAC0F8F01200000E0101006F000E60
:10403800006F00510001F725FA6F000EF821FB6FA1
:10404800020EFA25EC6F000EFB21ED6F00C1FCF0AB
:10405800F9C0FDF0FC2B33EF20F0D890FD33FC2F96
:1040680031EF20F00001FD51010BEE6F81EC18F0EB
:104078000101002B030E006544EF20F046EF20F00D
:104088001DEF20F01200000120EE05F0EC51D926BA
:10409800ED51DA22DFB053EF20F055EF20F065EF55
:1040A80020F0D59620EE02F0EC51D926ED51DA2217
:1040B800DF50EE6FD550EE19F80BEE19D56E73EF91
:1040C80020F020EE05F0EC51D926ED51DA22DFA0E0
:1040D80070EF20F072EF20F073EF20F0D586120019
:1040E800000E0101126F010E116F0C510D11D8A4B1
:1040F80080EF20F082EF20F088EF20F0000E126FA2
:10410800000E116F9AEF20F00CC106F10DC107F1F6
:104118000EC108F10FC109F124EC1CF00CC101F12A
:104128000DC102F110C103F194EC1DF011C10CF1A5
:1041380012C10DF11200000E136E000E136E135013
:104148000C240F6E000E0D20106E020E0F24016E4F
:10415800000E1020026E13C011F00EC012F0112ACA
:10416800B8EF20F0D8901232112EB6EF20F012508E
:10417800010B036E27EC19F0132A030E1364C7EF23
:1041880020F0C9EF20F0A3EF20F01200000E00018C
:10419800F16F010EF06FEE51EF11D8A4D6EF20F0B9
:1041A800D8EF20F0DEEF20F0000EF16F000EF06F78
:1041B800EEEF20F0ED51030BAA6EECC0A9FFA69E0E
:1041C800A69CA68000F000F0EEC0D9FFEFC0DAFF91
:1041D800A8CFDFFFF0C0ECF0F1C0EDF01200640EE4
:1041E8000001FB6F000EFC6F7EEC1BF0630E0001FC
:1041F800FB6F000EFC6F7EEC1BF0510E0001FB6F95
:10420800000EFC6F7EEC1BF05D0E0101066F000EC8
:10421800076F7BEC16F0A40E0001FB6F000EFC6F1D
:10422800D2EC1BF01200000120EE05F0EC51D9266B
:10423800ED51DA22DFB623EF21F025EF21F028EF48
:1042480021F0D58C36EF21F020EE05F0EC51D9267F
:10425800ED51DA22DFA633EF21F035EF21F036EF0A
:1042680021F0D59C1200F2943A50D76E39C0D6FF8F
:104278003B503C10D8A443EF21F045EF21F047EF25
:1042880021F053EF21F002D853EF21F00500FA6E28
:104298003B50FD6E3C50FE6EFF6AFA501200120051
:1042A80058C0F6F057C0F7F056C0F8F0F60E000107
:1042B800EC6F000EED6F2DEC17F0F70E0001EC6FB0
:1042C800000EED6F2DEC17F0F80E0001EC6F000EEC
:1042D800ED6F2DEC17F01200800F810F820F830F06
:1042E800840F890F8A0F8B0F8C0F8D0F920F930FEE
:1042F800940F950F960F0303010C0602030B131B73
:0F430800636B737B2C3C066A67080011FFFFFF95
:10431800010E0001F725EC6F000EF821ED6F010E7C
:10432800EE6F81EC18F000D000D000F0010E000113
:10433800F725EC6F000EF821ED6F000EEE6F81ECA3
:1043480018F01200010E0C24016E000E0D20026EF2
:10435800010E036E27EC19F000D000D000F0010E1A
:104368000C24016E000E0D20026E000E036E27EC69
:1043780019F01200F3EC20F0B20E0101006F000EEC
:10438800016FD9EC17F000C1FEF001C1FFF0120077
:104398000001EE6FEEC0C9FF9EA6D5EF21F0D7EF62
:1043A80021F0D0EF21F09E961200016EF29001509C
:1043B800D8A4E1EF21F0E3EF21F0E5EF21F0E5EFFC
:1043C80021F01200016EF2900150D8A4EEEF21F016
:1043D800F0EF21F0F2EF21F0F2EF21F01200016E80
:1043E800F2900150D8A4FBEF21F0FDEF21F0FFEF90
:1043F80021F0FFEF21F01200016EF2900150D8A4D5
:1044080008EF22F00AEF22F00CEF22F00CEF22F076
:104418001200685A622A1A622A01010101020A126C
:0544280018323A0810F3
:10442E00A1923450B36E33C0B2FF12003850CF6E2B
:10443E0037C0CEFF1200D180D05024EF22F01200F0
:10444E009E9235C0CCFF12009D9812009E961200CF
:10445E00A1961200F0921200F0901200F292120049
:10446E009E941200A19012009E941200120012004F
:02447E0012002A
:10FDCA00003738392F3435362A3132332D40303D19
:10FDDA002B323A61697220636F6E646974696F6E5F
:10FDEA006572206F666600546F20536D61727420CD
:10FDFA00486F6D652053797374656D00313A616996
:10FE0A007220636F6E646974696F6E6572206F6EBB
:10FE1A00005365742054656D7065726174757265FE
:10FE2A003A2D2D007375636365737366756C6C790F
:10FE3A00206164646564005365742041646D696E71
:10FE4A002050617373776F7264005365742047752D
:10FE5A006573742050617373776F7264006169729D
:10FE6A0020636F6E646974696F6E65723A2D006CF7
:10FE7A006F6164696E6720626C6F636B65642E2EB6
:10FE8A0000323A5365742054656D706572617475F9
:10FE9A0072650053756363657373204C6F67696E8F
:10FEAA002E2E0073657373696F6E2074696D656FAA
:10FEBA0075740053656C656374204D6F6465203AF0
:10FECA000041646D696E204D6F64653A2D00477577
:10FEDA00657374204D6F64653A2D0057726F6E67B3
:10FEEA0020696E7075742E00776169742020313034
:10FEFA00207365630057726F6E672063686F69636A
:10FF0A00650041646D696E20506173733A004775EC
:10FF1A0065737420506173733A005772697465206F
:10FF2A00706173733A005472696573206C65667404
:10FF3A003A00333A41697220636F6E2E00323A6C8E
:10FF4A006564206F666600313A436F6E74726F6C37
:10FF5A0000526F6F6D3120533A00526F6F6D32202D
:10FF6A00533A00526F6F6D3320533A00526F6F6DE0
:10FF7A003420533A00323A5456206F666600313ABA
:10FF8A002041646D696E00313A6C6564206F6E00C1
:10FF9A00323A20477565737400313A526F6F6D318A
:10FFAA0000323A526F6F6D3200333A526F6F6D33CF
:10FFBA0000313A526F6F6D3400343A526F6F6D34BC
:10FFCA000057656C636F6D6500313A5456206F6E49
:10FFDA0000343A4D6F726500545620533A00303A55
:10FFEA0052657400323A5456004F4E20004F46462E
:05FFFA00002569000074
:020000040020DA
:08000000FFFFFFFFFFFFFFFF00
:020000040030CA
:0E000000FF020918FF8381FF0FC00FE00F40C1
:00000001FF
