:0400000007EF00F016
:10000800648242ED15F005EF21F088EC23F05C0ED8
:100018000101056F000E066F010E076F96EC1FF0C9
:1000280005C1FEF006C1FFF05C0E0101106F000E65
:10003800116F010E126F070E136FCB0E146FFF0EA8
:10004800156F73EC21F010C1FEF011C1FFF05C0ECA
:100058000101106F000E116F020E126F010E136F67
:10006800CF0E146FFD0E156F73EC21F010C1FEF06A
:1000780011C1FFF0060E0101196F130E186FAD0EB6
:10008800E82EFED7182FFCD7192FFAD700D05C0E10
:100098000101056F000E066F010E076F96EC1FF049
:1000A80005C1FEF006C1FFF0010E0001F16F000E60
:1000B800F06FEF0EF26F000EF36F94EC22F0F0C0C9
:1000C800FEF0F1C0FFF0010E0001F16F010EF06FBC
:1000D800EE0EF26F000EF36F94EC22F0F0C0FEF01B
:1000E800F1C0FFF00001EF29D8B47DEF00F07FEFF9
:1000F80000F087EF00F0EE29D8A485EF00F087EF35
:1001080000F072EF02F05C0E0101106F000E116F2B
:10011800010E126F010E136F330E146FFE0E156F62
:1001280073EC21F010C1FEF011C1FFF05C0E01016B
:10013800106F000E116F020E126F010E136F0C0E6E
:10014800146FFF0E156F73EC21F010C1FEF011C192
:10015800FFF021EF01F0DD0E0101006F000E016FCD
:10016800B80E026F000E036FCCEC1AF000C1FEF05F
:1001780001C1FFF00001B851D8B4C5EF00F0C7EFD6
:1001880000F0AFEF00F0DCC0F0F0F16BB8C0F2F0B7
:1001980091EC20F0F0C0FEF0F1C0FFF05C0E010120
:1001A800106F000E116F020E126FDAC013F1B8C093
:1001B80014F13EEC22F010C1FEF011C1FFF0030E65
:1001C8000101196F8A0E186F550EE82EFED7182FE9
:1001D800FCD7192FFAD700D05C0E0101056F000E6D
:1001E800066F100E076F96EC1FF005C1FEF006C1F2
:1001F800FFF05C0E0101106F000E116F020E126FFE
:10020800DAC013F12A0E146F3EEC22F010C1FEF092
:1002180011C1FFF05C0E0101056F000E066F0E0E96
:10022800076F96EC1FF005C1FEF006C1FFF0000E47
:100238000001B86FDA2BDC2BD92B040E0001D9652D
:1002480028EF01F02AEF01F0AFEF00F05C0E01019A
:10025800056F000E066F0C0E076F96EC1FF005C1B8
:10026800FEF006C1FFF05C0E0101106F000E116F69
:10027800030E126F010E136F200E146FFE0E156F12
:1002880073EC21F010C1FEF011C1FFF0030E010163
:10029800196F8A0E186F550EE82EFED7182FFCD747
:1002A800192FFAD700D05C0E0101056F000E066FFA
:1002B800010E076F96EC1FF005C1FEF006C1FFF0B6
:1002C8005C0E0101106F000E116F010E126F010E0E
:1002D800136F460E146FFE0E156F73EC21F010C1EC
:1002E800FEF011C1FFF05C0E0101106F000E116FDE
:1002F800020E126F010E136F180E146FFF0E156F9A
:1003080073EC21F010C1FEF011C1FFF0010E0001E5
:10031800D96F0C0EDA6F03EF02F0DD0E0101006FEA
:10032800000E016FB80E026F000E036FCCEC1AF0CE
:1003380000C1FEF001C1FFF00001B851D8B4A7EF29
:1003480001F0A9EF01F091EF01F0DBC0F0F0F16BE3
:10035800B8C0F2F091EC20F0F0C0FEF0F1C0FFF070
:100368005C0E0101106F000E116F020E126FDAC0E1
:1003780013F1B8C014F13EEC22F010C1FEF011C127
:10038800FFF0030E0101196F8A0E186F550EE82E43
:10039800FED7182FFCD7192FFAD700D05C0E010111
:1003A800056F000E066F100E076F96EC1FF005C163
:1003B800FEF006C1FFF05C0E0101106F000E116F18
:1003C800020E126FDAC013F12A0E146F3EEC22F0FF
:1003D80010C1FEF011C1FFF05C0E0101056F000EA7
:1003E800066F0E0E076F96EC1FF005C1FEF006C1F2
:1003F800FFF0000E0001B86FDA2BDB2BD92B040EAF
:10040800D96509EF02F00BEF02F091EF01F0020E4F
:100418000101196F040E186FBA0EE82EFED7182FB7
:10042800FCD7192FFAD700F05C0E0101056F000EFA
:10043800066F0C0E076F96EC1FF005C1FEF006C1A3
:10044800FFF05C0E0101106F000E116F030E126FAA
:10045800010E136F200E146FFE0E156F73EC21F052
:1004680010C1FEF011C1FFF0030E0101196F8A0ED1
:10047800186F550EE82EFED7182FFCD7192FFAD76C
:1004880000D05C0E0101056F000E066F010E076FAC
:1004980096EC1FF005C1FEF006C1FFF0010E000149
:1004A800EF6F010EEE6F010EF16F000EF06FEFC0EF
:1004B800F2F091EC20F0F0C0FEF0F1C0FFF0010E78
:1004C8000001F16F010EF06FEEC0F2F091EC20F038
:1004D800F0C0FEF0F1C0FFF040EF15F0EF05D8B422
:1004E80078EF02F07AEF02F082EF02F0EE05D8A47E
:1004F80080EF02F082EF02F040EF15F05C0E010190
:10050800106F000E116F010E126F010E136FAF0EF8
:10051800146FFE0E156F73EC21F010C1FEF011C1BF
:10052800FFF05C0E0101106F000E116F020E126FCA
:10053800010E136F880E146FFF0E156F73EC21F008
:1005480010C1FEF011C1FFF05C0E0101106F000E2A
:10055800116F030E126F010E136F9A0E146FFF0EB8
:10056800156F73EC21F010C1FEF011C1FFF0DD0E24
:100578000101006F000E016FB80E026F000E036FCD
:10058800CCEC1AF000C1FEF001C1FFF00001B85137
:10059800D8B4D1EF02F0D3EF02F0BBEF02F055EF81
:1005A80004F05C0E0101056F000E066F010E076F67
:1005B80096EC1FF005C1FEF006C1FFF05C0E0101CC
:1005C800106F000E116F010E126F010E136FCB0E1C
:1005D800146FFE0E156F73EC21F010C1FEF011C1FF
:1005E800FFF05C0E0101106F000E116F020E126F0A
:1005F800010E136F240E146FFF0E156F73EC21F0AC
:1006080010C1FEF011C1FFF0000E0001B86F020E1C
:100618000101196F860E186F990EE82EFED7182F54
:10062800FCD7192FFAD798EF03F0DD0E0101006F00
:10063800000E016FB80E026F000E036FCCEC1AF0BB
:1006480000C1FEF001C1FFF00001B851D8B42FEF8E
:1006580003F031EF03F019EF03F0DCC0F0F0F16BB9
:10066800ED0EF26F000EF36F94EC22F0F0C0FEF086
:10067800F1C0FFF00001B851ED19D8A446EF03F01E
:1006880048EF03F049EF03F0B62B5C0E0101106F41
:10069800000E116F020E126FDAC013F1B8C014F118
:1006A8003EEC22F010C1FEF011C1FFF0030E010173
:1006B800196F8A0E186F550EE82EFED7182FFCD723
:1006C800192FFAD700D05C0E0101056F000E066FD6
:1006D800100E076F96EC1FF005C1FEF006C1FFF083
:1006E8005C0E0101106F000E116F020E126FDAC05E
:1006F80013F12A0E146F3EEC22F010C1FEF011C166
:10070800FFF05C0E0101056F000E066F0E0E076FFD
:1007180096EC1FF005C1FEF006C1FFF0000E0001C7
:10072800B86FDA2BDC2BD92B040E0001D9659FEFAB
:1007380003F0A1EF03F019EF03F0040EB619D8A4E3
:10074800A8EF03F0AAEF03F0E8EF03F05C0E010155
:10075800056F000E066F010E076F96EC1FF005C1BE
:10076800FEF006C1FFF05C0E0101056F000E066F7A
:100778000C0E076F96EC1FF005C1FEF006C1FFF0E6
:100788005C0E0101106F000E116F020E126F010E48
:10079800136F8F0E146FFE0E156F73EC21F010C1DE
:1007A800FEF011C1FFF0000E0001B86F020E01014A
:1007B800196F860E186F990EE82EFED7182FFCD7E2
:1007C800192FFAD755EF04F0310EB86F5C0E0101FE
:1007D800056F000E066F010E076F96EC1FF005C13E
:1007E800FEF006C1FFF05C0E0101056F000E066FFA
:1007F8000C0E076F96EC1FF005C1FEF006C1FFF066
:100808005C0E0101106F000E116F010E126F010EC8
:10081800136FE50E146FFE0E156F73EC21F010C107
:10082800FEF011C1FFF05C0E0101106F000E116F98
:10083800020E126F010E136F300E146FFF0E156F3C
:1008480073EC21F010C1FEF011C1FFF05C0E010144
:10085800106F000E116F020E126F0C0E136F000155
:10086800D8512F0F0101146F3EEC22F010C1FEF099
:1008780011C1FFF0030E0101196F8A0E186F550E92
:10088800E82EFED7182FFCD7192FFAD700D0010E63
:100898000001B66F010ED96F020EDC6F0C0EDA6F15
:1008A800D807310E0001B819D8A45DEF04F05FEF46
:1008B80004F0F7EF05F0D851D8A465EF04F067EF1E
:1008C80004F0D5EF02F0F7EF05F05C0E0101056FBB
:1008D800000E066F010E076F96EC1FF005C1FEF0C3
:1008E80006C1FFF05C0E0101106F000E116F010EC2
:1008F800126F010E136FD80E146FFE0E156F73EC86
:1009080021F010C1FEF011C1FFF05C0E0101106F63
:10091800000E116F020E126F010E136F240E146F6A
:10092800FF0E156F73EC21F010C1FEF011C1FFF03E
:10093800000E0001B86F020E0101196F860E186FC4
:10094800990EE82EFED7182FFCD7192FFAD72CEFBF
:1009580005F0DD0E0101006F000E016FB80E026F89
:10096800000E036FCCEC1AF000C1FEF001C1FFF0DD
:100978000001B851D8B4C3EF04F0C5EF04F0ADEFEF
:1009880004F0DBC0F0F0F16BED0EF26F000EF36FC8
:1009980094EC22F0F0C0FEF0F1C0FFF00001B85175
:1009A800ED19D8A4DAEF04F0DCEF04F0DDEF04F081
:1009B800B52B5C0E0101106F000E116F020E126F45
:1009C800DAC013F1B8C014F13EEC22F010C1FEF009
:1009D80011C1FFF0030E0101196F8A0E186F550E31
:1009E800E82EFED7182FFCD7192FFAD700D05C0EA7
:1009F8000101056F000E066F100E076F96EC1FF0D1
:100A080005C1FEF006C1FFF05C0E0101106F000E7B
:100A1800116F020E126FDAC013F12A0E146F3EEC3A
:100A280022F010C1FEF011C1FFF05C0E0101056F4C
:100A3800000E066F0E0E076F96EC1FF005C1FEF054
:100A480006C1FFF0000E0001B86FDA2BDB2BD92BA3
:100A5800040E0001D96533EF05F035EF05F0ADEF71
:100A680004F0040EB519D8A43CEF05F03EEF05F0EC
:100A78008AEF05F05C0E0101056F000E066F010E8E
:100A8800076F96EC1FF005C1FEF006C1FFF05C0E83
:100A98000101056F000E066F0C0E076F96EC1FF034
:100AA80005C1FEF006C1FFF05C0E0101106F000EDB
:100AB800116F020E126F010E136F8F0E146FFE0E60
:100AC800156F73EC21F010C1FEF011C1FFF0000E9C
:100AD8000001B86F060E0101196F130E186FAD0EE5
:100AE800E82EFED7182FFCD7192FFAD700D05C0EA6
:100AF8000101056F000E066F010E076F96EC1FF0DF
:100B080005C1FEF006C1FFF0F7EF05F0320EB86F31
:100B18005C0E0101056F000E066F010E076F96EC63
:100B28001FF005C1FEF006C1FFF05C0E0101056F64
:100B3800000E066F0C0E076F96EC1FF005C1FEF055
:100B480006C1FFF05C0E0101106F000E116F010E5F
:100B5800126F010E136FE50E146FFE0E156F73EC16
:100B680021F010C1FEF011C1FFF05C0E0101106F01
:100B7800000E116F020E126F010E136F300E146FFC
:100B8800FF0E156F73EC21F010C1FEF011C1FFF0DC
:100B98005C0E0101106F000E116F020E126F0C0E29
:100BA800136F0001D7512F0F0101146F3EEC22F093
:100BB80010C1FEF011C1FFF0030E0101196F8A0E7A
:100BC800186F550EE82EFED7182FFCD7192FFAD715
:100BD80000D0000E0001B56F060EDB6F010ED96F55
:100BE8000C0EDA6FD707320E0001B819D8A4FFEF40
:100BF80005F001EF06F009EF06F0D751D8A407EF8A
:100C080006F009EF06F069EF04F0E50EF36F000E49
:100C1800F46F88EC1CF0F3C0FEF0F4C0FFF00001A4
:100C2800D851D8A41AEF06F01CEF06F05CEF06F0D6
:100C38005C0E0101106F000E116F010E126F010E94
:100C4800136F6B0E146FFE0E156F73EC21F010C14D
:100C5800FEF011C1FFF05C0E0101106F000E116F64
:100C6800020E126F010E136FF20E146FFE0E156F47
:100C780073EC21F010C1FEF011C1FFF0630E00010A
:100C8800FB6F000EFC6F3CEC1DF0FBC0FEF0FCC0DF
:100C9800FFF0330E0101196FBB0E186FDF0EE82E3F
:100CA800FED7182FFCD7192FFAD700D040EF15F030
:100CB800D751D8A462EF06F064EF06F02BEF15F0D9
:100CC800000E476E5C0E0101106F000E116F010ED1
:100CD800126F010E136F6B0E146FFE0E156F73EC0F
:100CE80021F010C1FEF011C1FFF05C0E0101106F80
:100CF800000E116F020E126F010E136FF20E146FB9
:100D0800FE0E156F73EC21F010C1FEF011C1FFF05B
:100D180042EF06F0040EB519D8A495EF06F097EF48
:100D280006F0ACEF06F05C0E0101106F000E116FBB
:100D3800010E126F010E136FD80E146FFE0E156F91
:100D480073EC21F010C1FEF011C1FFF0D5EF06F0F1
:100D5800040EB619D8A4B3EF06F0B5EF06F0D5EF38
:100D680006F05C0E0101056F000E066F010E076F9D
:100D780096EC1FF005C1FEF006C1FFF05C0E010104
:100D8800106F000E116F010E126F010E136FCB0E54
:100D9800146FFE0E156F73EC21F010C1FEF011C137
:100DA800FFF05C0E0101106F000E116F020E126F42
:100DB800010E136FA30E146FFF0E156F73EC21F065
:100DC80010C1FEF011C1FFF05C0E0101106F000EA2
:100DD800116F020E126F0B0E136FAB0E146FFF0E16
:100DE800156F73EC21F010C1FEF011C1FFF05C0E1D
:100DF8000101106F000E116F030E126F010E136FB9
:100E0800B30E146FFF0E156F73EC21F010C1FEF0D6
:100E180011C1FFF0040E0001B519D8A416EF07F0B0
:100E280018EF07F038EF07F05C0E0101106F000EA5
:100E3800116F030E126F0B0E136FC30E146FFF0E9C
:100E4800156F73EC21F010C1FEF011C1FFF0620EB6
:100E58000001FB6F000EFC6F3CEC1DF0FBC0FEF0C8
:100E6800FCC0FFF05FEF07F0040EB619D8A43FEFFF
:100E780007F041EF07F05FEF07F05C0E0101106F1C
:100E8800000E116F030E126F0B0E136FDB0E146F33
:100E9800FF0E156F73EC21F010C1FEF011C1FFF0C9
:100EA800500E0001FB6F000EFC6F3CEC1DF0FBC008
:100EB800FEF0FCC0FFF05C0E0101106F000E116F18
:100EC800040E126F010E136FF90E146FFD0E156FDD
:100ED80073EC21F010C1FEF011C1FFF0000E00010B
:100EE800B86FDD0E0101006F000E016FB80E026FC2
:100EF800000E036FCCEC1AF000C1FEF001C1FFF048
:100F08000001B851D8B48BEF07F08DEF07F075EFFB
:100F180007F0020E0101196F860E186F990EE82E60
:100F2800FED7182FFCD7192FFAD7400E0001B81991
:100F3800D8A4A1EF07F0A3EF07F0D6EF07F0F5EC80
:100F480023F0D6EF07F05C0E0101056F000E066F67
:100F5800010E076F96EC1FF005C1FEF006C1FFF009
:100F68005C0E0101106F000E116F010E126F010E61
:100F7800136FFF0E146FFE0E156F73EC21F010C186
:100F8800FEF011C1FFF0030E0101196F8A0E186FF0
:100F9800550EE82EFED7182FFCD7192FFAD700D0F8
:100FA80055EF09F0310E0001B819D8B4DEEF07F09B
:100FB800E0EF07F055EF09F0320EB819D8B4E7EFB3
:100FC80007F0E9EF07F055EF09F0330EB819D8B478
:100FD800F0EF07F0F2EF07F055EF09F0340EB8190B
:100FE800D8B4F9EF07F0FBEF07F055EF09F0400E22
:100FF800B819D8A402EF08F004EF08F0A7EF07F03B
:1010080055EF09F05C0E0101056F000E066F010E29
:10101800076F96EC1FF005C1FEF006C1FFF05C0EED
:101028000101106F000E116F010E126F010E136F88
:101038005B0E146FFF0E156F73EC21F010C1FEF0FC
:1010480011C1FFF050EF08F05C0E106F000E116F29
:10105800010E126F090E136FF30E146FFF0E156F4A
:1010680073EC21F010C1FEF011C1FFF067EF08F03A
:101078005C0E106F000E116F010E126F090E136FC8
:10108800F70E146FFF0E156F73EC21F010C1FEF010
:1010980011C1FFF067EF08F00001B7510101186FA7
:1010A800196B1951000AD8B45CEF08F067EF08F023
:1010B8001851000AD8B43CEF08F0010AD8B428EF58
:1010C80008F067EF08F05C0E0101106F000E116F59
:1010D800020E126F010E136F910E146FFF0E156F33
:1010E80073EC21F010C1FEF011C1FFF05C0E01019C
:1010F800106F000E116F030E126F010E136F470E63
:10110800146FFF0E156F73EC21F010C1FEF011C1C2
:10111800FFF05C0E0101106F000E116F040E126FCC
:10112800010E136FE80E146FFF0E156F73EC21F0AC
:1011380010C1FEF011C1FFF0000E0001B86FDD0E06
:101148000101006F000E016FB80E026F000E036FF1
:10115800CCEC1AF000C1FEF001C1FFF00001B8515B
:10116800D8B4B9EF08F0BBEF08F0A3EF08F0020E0F
:101178000101196F860E186F990EE82EFED7182FE9
:10118800FCD7192FFAD7E1EF08F0010EA4EC23F0F1
:10119800F0C0FEF0F1C0FFF0010E0001B76FF8EFEC
:1011A80008F0050EA4EC23F0F0C0FEF0F1C0FFF04B
:1011B800000E0001B76FF8EF08F00001B851010107
:1011C800186F196B1951000AD8B4EDEF08F0F8EF51
:1011D80008F01851310AD8B4C9EF08F0030AD8B496
:1011E800D5EF08F0F8EF08F0300E0001B819D8A4D0
:1011F80000EF09F002EF09F011EF09F05C0E0101B0
:10120800056F000E066F010E076F96EC1FF005C103
:10121800FEF006C1FFF0BBEF0AF0310EB819D8B4E2
:1012280018EF09F01AEF09F050EF09F0320EB8196B
:10123800D8B421EF09F023EF09F050EF09F05C0E64
:101248000101056F000E066F010E076F96EC1FF087
:1012580005C1FEF006C1FFF05C0E0101106F000E23
:10126800116F010E126F010E136FFF0E146FFE0E39
:10127800156F73EC21F010C1FEF011C1FFF0030EE1
:101288000101196F8A0E186F550EE82EFED7182F18
:10129800FCD7192FFAD700D0310E0001B86FC7EF6D
:1012A80007F0310E0001B819D8B45DEF09F05FEF0F
:1012B80009F006EF08F0BBEF0AF05C0E0101056FBC
:1012C800000E066F010E076F96EC1FF005C1FEF0C9
:1012D80006C1FFF05C0E0101106F000E116F010EC8
:1012E800126F010E136F640E146FFF0E156F73ECFF
:1012F80021F010C1FEF011C1FFF0ABEF09F05C0E58
:10130800106F000E116F010E126F090E136FF30E9E
:10131800146FFF0E156F73EC21F010C1FEF011C1B0
:10132800FFF0C2EF09F05C0E106F000E116F010E96
:10133800126F090E136FF70E146FFF0E156F73EC13
:1013480021F010C1FEF011C1FFF0C2EF09F0000159
:10135800B7510101186F196B1951000AD8B4B7EFCA
:1013680009F0C2EF09F01851000AD8B497EF09F054
:10137800010AD8B483EF09F0C2EF09F05C0E01014D
:10138800106F000E116F020E126F010E136F910E87
:10139800146FFF0E156F73EC21F010C1FEF011C130
:1013A800FFF05C0E0101106F000E116F030E126F3B
:1013B800010E136F470E146FFF0E156F73EC21F0BB
:1013C80010C1FEF011C1FFF05C0E0101106F000E9C
:1013D800116F040E126F010E136FE80E146FFF0EDB
:1013E800156F73EC21F010C1FEF011C1FFF0000E73
:1013F8000001B86FDD0E0101006F000E016FB80E1D
:10140800026F000E036FCCEC1AF000C1FEF001C1B0
:10141800FFF00001B851D8B414EF0AF016EF0AF043
:10142800FEEF09F0020E0101196F860E186F990E72
:10143800E82EFED7182FFCD7192FFAD73CEF0AF061
:10144800020EA4EC23F0F0C0FEF0F1C0FFF0010E94
:101458000001B76F53EF0AF0060EA4EC23F0F0C0BA
:10146800FEF0F1C0FFF0000E0001B76F53EF0AF075
:101478000001B8510101186F196B1951000AD8B44D
:1014880048EF0AF053EF0AF01851310AD8B424EFA4
:101498000AF0030AD8B430EF0AF053EF0AF0300E1E
:1014A8000001B819D8A45BEF0AF05DEF0AF06CEF01
:1014B8000AF05C0E0101056F000E066F010E076F42
:1014C80096EC1FF005C1FEF006C1FFF021EF0CF00D
:1014D800310EB819D8B473EF0AF075EF0AF0ABEF14
:1014E8000AF0320EB819D8B47CEF0AF07EEF0AF091
:1014F800ABEF0AF05C0E0101056F000E066F010EDE
:10150800076F96EC1FF005C1FEF006C1FFF05C0EF8
:101518000101106F000E116F010E126F010E136F93
:10152800FF0E146FFE0E156F73EC21F010C1FEF064
:1015380011C1FFF0060E0101196F130E186FAD0EE1
:10154800E82EFED7182FFCD7192FFAD700D0320E65
:101558000001B86F030E0101196F8A0E186F550E3E
:10156800E82EFED7182FFCD7192FFAD700D0320E45
:101578000001B819D8B4C3EF0AF0C5EF0AF061EF5B
:1015880009F021EF0CF05C0E0101056F000E066FEB
:10159800010E076F96EC1FF005C1FEF006C1FFF0C3
:1015A8005C0E0101106F000E116F010E126F010E1B
:1015B800136F6D0E146FFF0E156F73EC21F010C1D1
:1015C800FEF011C1FFF011EF0BF05C0E106F000E72
:1015D800116F010E126F090E136FF30E146FFF0EC9
:1015E800156F73EC21F010C1FEF011C1FFF028EF68
:1015F8000BF05C0E106F000E116F010E126F090ECA
:10160800136FF70E146FFF0E156F73EC21F010C1F6
:10161800FEF011C1FFF028EF0BF00001B7510101F6
:10162800186F196B1951000AD8B41DEF0BF028EF89
:101638000BF01851000AD8B4FDEF0AF0010AD8B42B
:10164800E9EF0AF028EF0BF05C0E0101106F000EB5
:10165800116F020E126F010E136F910E146FFF0EB1
:10166800156F73EC21F010C1FEF011C1FFF05C0E94
:101678000101106F000E116F030E126F010E136F30
:10168800470E146FFF0E156F73EC21F010C1FEF0BA
:1016980011C1FFF05C0E0101106F000E116F040EF6
:1016A800126F010E136FE80E146FFF0E156F73ECB7
:1016B80021F010C1FEF011C1FFF0000E0001B86F5B
:1016C800DD0E0101006F000E016FB80E026F000EF3
:1016D800036FCCEC1AF000C1FEF001C1FFF000016D
:1016E800B851D8B47AEF0BF07CEF0BF064EF0BF045
:1016F800020E0101196F860E186F990EE82EFED79B
:10170800182FFCD7192FFAD7A2EF0BF0030EA4EC71
:1017180023F0F0C0FEF0F1C0FFF0010E0001B76F3A
:10172800B9EF0BF0070EA4EC23F0F0C0FEF0F1C007
:10173800FFF0000E0001B76FB9EF0BF00001B851D0
:101748000101186F196B1951000AD8B4AEEF0BF0EC
:10175800B9EF0BF01851310AD8B48AEF0BF0030A2D
:10176800D8B496EF0BF0B9EF0BF0300E0001B819B2
:10177800D8A4C1EF0BF0C3EF0BF0D2EF0BF05C0E67
:101788000101056F000E066F010E076F96EC1FF042
:1017980005C1FEF006C1FFF02BEF0CF0310EB819B1
:1017A800D8B4D9EF0BF0DBEF0BF011EF0CF0320EE1
:1017B800B819D8B4E2EF0BF0E4EF0BF011EF0CF02E
:1017C8005C0E0101056F000E066F010E076F96ECA7
:1017D8001FF005C1FEF006C1FFF05C0E0101106F9D
:1017E800000E116F010E126F010E136FFF0E146FB2
:1017F800FE0E156F73EC21F010C1FEF011C1FFF061
:10180800030E0101196F8A0E186F550EE82EFED7C8
:10181800182FFCD7192FFAD700D0330E0001B86F54
:10182800030E0101196F8A0E186F550EE82EFED7A8
:10183800182FFCD7192FFAD700D0330E0001B8198A
:10184800D8B429EF0CF02BEF0CF0C7EF0AF0040E18
:101858000001B519D8A433EF0CF035EF0CF09DEF6B
:101868000DF091EF0DF05C0E0101056F000E066F93
:10187800010E076F96EC1FF005C1FEF006C1FFF0E0
:101888005C0E0101106F000E116F010E126F010E38
:10189800136F760E146FFF0E156F73EC21F010C1E5
:1018A800FEF011C1FFF081EF0CF05C0E106F000E1E
:1018B800116F010E126F090E136FF30E146FFF0EE6
:1018C800156F73EC21F010C1FEF011C1FFF098EF15
:1018D8000CF05C0E106F000E116F010E126F090EE6
:1018E800136FF70E146FFF0E156F73EC21F010C114
:1018F800FEF011C1FFF098EF0CF00001B7510101A3
:10190800186F196B1951000AD8B48DEF0CF098EFC5
:101918000CF01851000AD8B46DEF0CF0010AD8B4D5
:1019280059EF0CF098EF0CF05C0E0101106F000EEF
:10193800116F020E126F010E136F910E146FFF0ECE
:10194800156F73EC21F010C1FEF011C1FFF05C0EB1
:101958000101106F000E116F030E126F010E136F4D
:10196800470E146FFF0E156F73EC21F010C1FEF0D7
:1019780011C1FFF05C0E0101106F000E116F040E13
:10198800126F010E136FE80E146FFF0E156F73ECD4
:1019980021F010C1FEF011C1FFF0000E0001B86F78
:1019A800DD0E0101006F000E016FB80E026F000E10
:1019B800036FCCEC1AF000C1FEF001C1FFF000018A
:1019C800B851D8B4EAEF0CF0ECEF0CF0D4EF0CF00F
:1019D800020E0101196F860E186F990EE82EFED7B8
:1019E800182FFCD7192FFAD712EF0DF0040EA4EC1C
:1019F80023F0F0C0FEF0F1C0FFF0010E0001B76F58
:101A080029EF0DF0080EA4EC23F0F0C0FEF0F1C0B1
:101A1800FFF0000E0001B76F29EF0DF00001B8517B
:101A28000101186F196B1951000AD8B41EEF0DF097
:101A380029EF0DF01851310AD8B4FAEF0CF0030A67
:101A4800D8B406EF0DF029EF0DF0300E0001B819EB
:101A5800D8A431EF0DF033EF0DF042EF0DF05C0E2E
:101A68000101056F000E066F010E076F96EC1FF05F
:101A780005C1FEF006C1FFF02BEF15F0310EB819C5
:101A8800D8B449EF0DF04BEF0DF081EF0DF0320EA9
:101A9800B819D8B452EF0DF054EF0DF081EF0DF0F6
:101AA8005C0E0101056F000E066F010E076F96ECC4
:101AB8001FF005C1FEF006C1FFF05C0E0101106FBA
:101AC800000E116F010E126F010E136FFF0E146FCF
:101AD800FE0E156F73EC21F010C1FEF011C1FFF07E
:101AE800030E0101196F8A0E186F550EE82EFED7E6
:101AF800182FFCD7192FFAD700D0340E0001B86F71
:101B0800030E0101196F8A0E186F550EE82EFED7C5
:101B1800182FFCD7192FFAD700D0340E0001B819A6
:101B2800D8B499EF0DF09BEF0DF037EF0CF02BEFD9
:101B380015F0040EB619D8A4A4EF0DF0A6EF0DF019
:101B48002BEF15F021EF15F05C0E0101056F000E6B
:101B5800066F010E076F96EC1FF005C1FEF006C177
:101B6800FFF05C0E0101106F000E116F010E126F75
:101B7800010E136FCB0E146FFE0E156F73EC21F070
:101B880010C1FEF011C1FFF05C0E0101106F000ED4
:101B9800116F020E126F010E136FBB0E146FFF0E42
:101BA800156F73EC21F010C1FEF011C1FFF05C0E4F
:101BB8000101106F000E116F020E126F0B0E136FE2
:101BC800EE0E146FFF0E156F73EC21F010C1FEF0CE
:101BD80011C1FFF05C0E0101106F000E116F030EB2
:101BE800126F010E136F3C0E146FFF0E156F73EC1E
:101BF80021F010C1FEF011C1FFF05C0E0101106F61
:101C0800000E116F030E126F0B0E136FE80E146F98
:101C1800FF0E156F73EC21F010C1FEF011C1FFF03B
:101C2800000E0001B86FDD0E0101006F000E016F9C
:101C3800B80E026F000E036FCCEC1AF000C1FEF074
:101C480001C1FFF00001B851D8B42DEF0EF02FEF0D
:101C58000EF017EF0EF0020E0101196F860E186FC5
:101C6800990EE82EFED7182FFCD7192FFAD797EF21
:101C78000FF05C0E0101056F000E066F010E076F75
:101C880096EC1FF005C1FEF006C1FFF05C0E0101E5
:101C9800106F000E116F010E126F010E136F760E8A
:101CA800146FFF0E156F73EC21F010C1FEF011C117
:101CB800FFF087EF0EF05C0E106F000E116F010E33
:101CC800126F090E136FF30E146FFF0E156F73EC7E
:101CD80021F010C1FEF011C1FFF09EEF0EF05C0E76
:101CE800106F000E116F010E126F090E136FF70EB1
:101CF800146FFF0E156F73EC21F010C1FEF011C1C7
:101D0800FFF09EEF0EF00001B7510101186F196B3B
:101D18001951000AD8B493EF0EF09EEF0EF0185147
:101D2800000AD8B473EF0EF0010AD8B45FEF0EF0D2
:101D38009EEF0EF05C0E0101106F000E116F020E87
:101D4800126F010E136F910E146FFF0E156F73EC67
:101D580021F010C1FEF011C1FFF05C0E0101106FFF
:101D6800000E116F030E126F010E136F470E146FE2
:101D7800FF0E156F73EC21F010C1FEF011C1FFF0DA
:101D88005C0E0101106F000E116F040E126F010E30
:101D9800136FE80E146FFF0E156F73EC21F010C16E
:101DA800FEF011C1FFF0000E0001B86FDD0E010159
:101DB800006F000E016FB80E026F000E036FCCECBF
:101DC8001AF000C1FEF001C1FFF00001B851D8B40B
:101DD800F0EF0EF0F2EF0EF0DAEF0EF0020E010166
:101DE800196F860E186F990EE82EFED7182FFCD79C
:101DF800192FFAD718EF0FF0040EA4EC23F0F0C057
:101E0800FEF0F1C0FFF0010E0001B76F2FEF0FF0E9
:101E1800080EA4EC23F0F0C0FEF0F1C0FFF0000EB5
:101E28000001B76F2FEF0FF00001B8510101186FD3
:101E3800196B1951000AD8B424EF0FF02FEF0FF0E7
:101E48001851310AD8B400EF0FF0030AD8B40CEFD8
:101E58000FF02FEF0FF0300E0001B819D8A437EFAC
:101E68000FF039EF0FF048EF0FF05C0E0101056F2E
:101E7800000E066F010E076F96EC1FF005C1FEF00D
:101E880006C1FFF0FDEF10F0310EB819D8B44FEFCE
:101E98000FF051EF0FF087EF0FF0320EB819D8B4EA
:101EA80058EF0FF05AEF0FF087EF0FF05C0E0101BB
:101EB800056F000E066F010E076F96EC1FF005C147
:101EC800FEF006C1FFF05C0E0101106F000E116FED
:101ED800010E126F010E136FFF0E146FFE0E156FB9
:101EE80073EC21F010C1FEF011C1FFF0030E0101E7
:101EF800196F8A0E186F550EE82EFED7182FFCD7CB
:101F0800192FFAD700D0310E0001B86F030E010166
:101F1800196F8A0E186F550EE82EFED7182FFCD7AA
:101F2800192FFAD700D0310E0001B819D8B49FEF95
:101F38000FF0A1EF0FF03DEF0EF0FDEF10F05C0E8B
:101F48000101056F000E066F010E076F96EC1FF07A
:101F580005C1FEF006C1FFF05C0E0101106F000E16
:101F6800116F010E126F010E136FE20E146FFF0E48
:101F7800156F73EC21F010C1FEF011C1FFF0EDEF09
:101F88000FF05C0E106F000E116F010E126F090E2C
:101F9800136FF30E146FFF0E156F73EC21F010C161
:101FA800FEF011C1FFF004EF10F05C0E106F000E90
:101FB800116F010E126F090E136FF70E146FFF0EDB
:101FC800156F73EC21F010C1FEF011C1FFF004EFA2
:101FD80010F00001B7510101186F196B1951000A6F
:101FE800D8B4F9EF0FF004EF10F01851000AD8B484
:101FF800D9EF0FF0010AD8B4C5EF0FF004EF10F0D5
:102008005C0E0101106F000E116F020E126F010EAF
:10201800136FD30E146FFF0E156F73EC21F010C100
:10202800FEF011C1FFF05C0E0101106F000E116F80
:10203800030E126F010E136F7F0E146FFF0E156FD4
:1020480073EC21F010C1FEF011C1FFF05C0E01012C
:10205800106F000E116F040E126F010E136FE80E51
:10206800146FFF0E156F73EC21F010C1FEF011C153
:10207800FFF0000E0001B86FDD0E0101006F000EC9
:10208800016FB80E026F000E036FCCEC1AF000C19E
:10209800FEF001C1FFF00001B851D8B456EF10F0BE
:1020A80058EF10F040EF10F0020E0101196F860E84
:1020B800186F990EE82EFED7182FFCD7192FFAD7CC
:1020C8007EEF10F0090EA4EC23F0F0C0FEF0F1C092
:1020D800FFF0010E0001B76F95EF10F0000EA4ECB1
:1020E80023F0F0C0FEF0F1C0FFF0000E0001B76F62
:1020F80095EF10F00001B8510101186F196B1951D3
:10210800000AD8B48AEF10F095EF10F01851310A90
:10211800D8B466EF10F0030AD8B472EF10F095EF58
:1021280010F0300E0001B819D8A49DEF10F09FEF01
:1021380010F0AEEF10F05C0E0101056F000E066F97
:10214800010E076F96EC1FF005C1FEF006C1FFF007
:10215800B3EF14F0310EB819D8B4B5EF10F0B7EFEB
:1021680010F0EDEF10F0320EB819D8B4BEEF10F041
:10217800C0EF10F0EDEF10F05C0E0101056F000EDE
:10218800066F010E076F96EC1FF005C1FEF006C141
:10219800FFF05C0E0101106F000E116F010E126F3F
:1021A800010E136FFF0E146FFE0E156F73EC21F006
:1021B80010C1FEF011C1FFF0030E0101196F8A0E64
:1021C800186F550EE82EFED7182FFCD7192FFAD7FF
:1021D80000D0320E0001B86F030E0101196F8A0E8C
:1021E800186F550EE82EFED7182FFCD7192FFAD7DF
:1021F80000D0320E0001B819D8B405EF11F007EF7E
:1022080011F0A3EF0FF0B3EF14F05C0E0101056FAE
:10221800000E066F010E076F96EC1FF005C1FEF069
:1022280006C1FFF05C0E0101106F000E116F010E68
:10223800126F010E136F590E146FFE0E156F73ECAB
:1022480021F010C1FEF011C1FFF05C0E0101106F0A
:10225800000E116F020E126F010E136F510E146FE4
:10226800FF0E156F73EC21F010C1FEF011C1FFF0E5
:102278005C0E0101106F000E116F030E126F010E3C
:10228800136F7D0E146FFE0E156F73EC21F010C1E5
:10229800FEF011C1FFF05C0E0101106F000E116F0E
:1022A800040E126F010E136FE80E146FFF0E156FF8
:1022B80073EC21F010C1FEF011C1FFF0000E000117
:1022C800B86FDD0E0101006F000E016FB80E026FCE
:1022D800000E036FCCEC1AF000C1FEF001C1FFF054
:1022E8000001B851D8B47BEF11F07DEF11F065EF24
:1022F80011F0020E0101196F860E186F990EE82E63
:10230800FED7182FFCD7192FFAD75C0E0101056FDD
:10231800000E066F010E076F96EC1FF005C1FEF068
:1023280006C1FFF01FEF13F05C0E0101056F000EF0
:10233800066F010E076F96EC1FF005C1FEF006C18F
:10234800FFF05C0E0101106F000E116F010E126F8D
:10235800010E136FBD0E146FFE0E156F73EC21F096
:1023680010C1FEF011C1FFF0E2EF11F05C0E106F2A
:10237800000E116F010E126F0E0E136FF30E146F15
:10238800FF0E156F73EC21F010C1FEF011C1FFF0C4
:10239800F9EF11F05C0E106F000E116F010E126F45
:1023A8000E0E136FF70E146FFF0E156F73EC21F0FE
:1023B80010C1FEF011C1FFF0F9EF11F00001B751A3
:1023C8000101186F196B1951000AD8B4EEEF11F01A
:1023D800F9EF11F01851000AD8B4CEEF11F0010A44
:1023E800D8B4BAEF11F0F9EF11F05C0E0101106FDB
:1023F800000E116F020E126F010E136FE40E146FB0
:10240800FD0E156F73EC21F010C1FEF011C1FFF045
:102418005C0E0101106F000E116F030E126F010E9A
:10242800136FB90E146FFD0E156F73EC21F010C108
:10243800FEF011C1FFF05C0E0101106F000E116F6C
:10244800040E126F010E136FE80E146FFF0E156F56
:1024580073EC21F010C1FEF011C1FFF0000E000175
:10246800B86FDD0E0101006F000E016FB80E026F2C
:10247800000E036FCCEC1AF000C1FEF001C1FFF0B2
:102488000001B851D8B44BEF12F04DEF12F035EF10
:1024980012F0020E0101196F860E186F990EE82EC0
:1024A800FED7182FFCD7192FFAD79DEF12F00A0E76
:1024B800A4EC23F0F0C0FEF0F1C0FFF0030E010120
:1024C800196F8A0E186F550EE82EFED7182FFCD7F5
:1024D800192FFAD700D00001B451A4EC23F0F0C0B2
:1024E800FEF0F1C0FFF0030E0101196F8A0E186F9C
:1024F800550EE82EFED7182FFCD7192FFAD700D083
:10250800B70E0001F06F000EF16F96EC23F0F0C0EB
:10251800FEF0F1C0FFF0B4EF12F00B0EA4EC23F0C4
:10252800F0C0FEF0F1C0FFF0000E0001B76FB4EF8D
:1025380012F00001B8510101186F196B1951000A06
:10254800D8B4A9EF12F0B4EF12F01851310AD8B488
:102558005BEF12F0030AD8B491EF12F0B4EF12F067
:10256800300E0001B819D8A4BCEF12F0BEEF12F07B
:10257800D0EF12F05C0E0101056F000E066F010E20
:10258800076F96EC1FF005C1FEF006C1FFF0340E90
:102598000001B86F29EF13F0310EB819D8B4D7EF8E
:1025A80012F0D9EF12F00FEF13F0320EB819D8B4B9
:1025B800E0EF12F0E2EF12F00FEF13F05C0E010102
:1025C800056F000E066F010E076F96EC1FF005C130
:1025D800FEF006C1FFF05C0E0101106F000E116FD6
:1025E800010E126F010E136FFF0E146FFE0E156FA2
:1025F80073EC21F010C1FEF011C1FFF0030E0101D0
:10260800196F8A0E186F550EE82EFED7182FFCD7B3
:10261800192FFAD700D0310E0001B86F030E01014F
:10262800196F8A0E186F550EE82EFED7182FFCD793
:10263800192FFAD700D0310E0001B819D8B427EFF6
:1026480013F029EF13F098EF11F0320EB819D8A44F
:1026580030EF13F032EF13F045EF14F05C0E010188
:10266800056F000E066F010E076F96EC1FF005C18F
:10267800FEF006C1FFF05C0E0101106F000E116F35
:10268800020E126F010E136F0D0E146FFE0E156FF2
:1026980073EC21F010C1FEF011C1FFF0000E000133
:1026A800B86FDD0E0101006F000E016FB80E026FEA
:1026B800000E036FCCEC1AF000C1FEF001C1FFF070
:1026C8000001B851D8B46BEF13F06DEF13F055EF6C
:1026D80013F0020E0101196F860E186F990EE82E7D
:1026E800FED7182FFCD7192FFAD75C0E0101056FFA
:1026F800000E066F100E076F96EC1FF005C1FEF076
:1027080006C1FFF05C0E0101056F000E066F100E8A
:10271800076F96EC1FF005C1FEF006C1FFF05C0ED6
:102728000101056F000E066FB8C007F155EC1FF0E8
:1027380005C1FEF006C1FFF00001B851D00F0A0D27
:10274800F3CFB4F0000EB86FDD0E0101006F000E7C
:10275800016FB80E026F000E036FCCEC1AF000C1C7
:10276800FEF001C1FFF00001B851D8B4BEEF13F07C
:10277800C0EF13F0A8EF13F0020E0101196F860ED7
:10278800186F990EE82EFED7182FFCD7192FFAD7F5
:102798005C0E0101056F000E066FB8C007F155EC1D
:1027A8001FF005C1FEF006C1FFF00001B851D00FBF
:1027B800B427230EB465E3EF13F0E5EF13F035EF1C
:1027C80014F0230EB46F5C0E0101056F000E066F46
:1027D800100E076F96EC1FF005C1FEF006C1FFF062
:1027E8005C0E0101056F000E066F100E076F96EC68
:1027F8001FF005C1FEF006C1FFF05C0E0101056F78
:10280800000E066FB4C0F0F00001F16B000EF36F1C
:102818000A0EF26FC7EC1BF00001F051300F0101F6
:10282800076F55EC1FF005C1FEF006C1FFF05C0E06
:102838000101056F000E066FB4C0F0F00001F16BE6
:10284800000EF36F0A0EF26FE3EC1CF00001F0517A
:10285800300F0101076F55EC1FF005C1FEF006C1EE
:10286800FFF0330E0001B86F060E0101196F130E49
:10287800186FAD0EE82EFED7182FFCD7192FFAD7F0
:1028880000D0300E0001B819D8A44DEF14F04FEF66
:1028980014F05EEF14F05C0E0101056F000E066F78
:1028A800010E076F96EC1FF005C1FEF006C1FFF0A0
:1028B800BDEF14F0310EB819D8B465EF14F067EF16
:1028C80014F0A6EF14F0320EB819D8B46EEF14F065
:1028D80070EF14F0A6EF14F0330EB819D8B477EFF0
:1028E80014F079EF14F0A6EF14F05C0E0101056FF7
:1028F800000E066F010E076F96EC1FF005C1FEF083
:1029080006C1FFF05C0E0101106F000E116F010E81
:10291800126F010E136FFF0E146FFE0E156F73EC1E
:1029280021F010C1FEF011C1FFF0030E0101196F73
:102938008A0E186F550EE82EFED7182FFCD7192FC0
:10294800FAD700D0030E0101196F8A0E186F550EC1
:10295800E82EFED7182FFCD7192FFAD700D0330E40
:102968000001B819D8B4BBEF14F0BDEF14F009EFAB
:1029780011F0300E0001B819D8A4C5EF14F0C7EF54
:1029880014F0C9EF14F033EF0DF0310EB819D8B4C4
:10299800D0EF14F0D2EF14F011EF15F0320EB81991
:1029A800D8B4D9EF14F0DBEF14F011EF15F0330EB3
:1029B800B819D8B4E2EF14F0E4EF14F011EF15F001
:1029C8005C0E0101056F000E066F010E076F96EC95
:1029D8001FF005C1FEF006C1FFF05C0E0101106F8B
:1029E800000E116F010E126F010E136FFF0E146FA0
:1029F800FE0E156F73EC21F010C1FEF011C1FFF04F
:102A0800030E0101196F8A0E186F550EE82EFED7B6
:102A1800182FFCD7192FFAD700D0340E0001B86F41
:102A2800030E0101196F8A0E186F550EE82EFED796
:102A3800182FFCD7192FFAD700D0340E0001B81977
:102A4800D8B429EF15F02BEF15F0A8EF0DF0040E10
:102A58000001B519D8B433EF15F035EF15F08EEF46
:102A680006F0040EB619D8B43CEF15F03EEF15F099
:102A78008EEF06F013EF06F007EF00F00600FACF2E
:102A880029F0FBCF2AF0D9CF2BF0DACF2CF0F3CFF7
:102A98002DF0F4CF2EF0F6CF2FF0F7CF30F0F8CF9F
:102AA80031F0F5CF32F0F2A85CEF15F05EEF15F0DB
:102AB80067EF15F0F2A263EF15F065EF15F067EF19
:102AC80015F012EC24F0F0A66CEF15F06EEF15F08F
:102AD80077EF15F0F0A073EF15F075EF15F077EFBD
:102AE80015F010EC24F0F0A87CEF15F07EEF15F04F
:102AF80087EF15F0F0A283EF15F085EF15F087EF5B
:102B080015F00EEC24F0F2A68CEF15F08EEF15F010
:102B1800A9EF15F0F2A093EF15F095EF15F0A9EFD6
:102B280015F081A89AEF15F09CEF15F0A9EF15F0B4
:102B38005B04D8A4A2EF15F0A4EF15F0A9EF15F0E7
:102B4800000E5B6E000ED8EC23F0F2A6AEEF15F087
:102B5800B0EF15F0CBEF15F0F2A0B5EF15F0B7EF29
:102B680015F0CBEF15F081BABCEF15F0BEEF15F0FC
:102B7800CBEF15F05B50D8A4C4EF15F0C6EF15F0F5
:102B8800CBEF15F0010E5B6E010ED8EC23F0F2A628
:102B9800D0EF15F0D2EF15F0EDEF15F0F2A0D7EF6A
:102BA80015F0D9EF15F0EDEF15F081AADEEF15F06D
:102BB800E0EF15F0EDEF15F05A04D8A4E6EF15F0A4
:102BC800E8EF15F0EDEF15F0000E5A6E000ECBECA5
:102BD80023F0F2A6F2EF15F0F4EF15F00FEF16F070
:102BE800F2A0F9EF15F0FBEF15F00FEF16F081BA30
:102BF80000EF16F002EF16F00FEF16F05A50D8A4B7
:102C080008EF16F00AEF16F00FEF16F0010E5A6EE5
:102C1800010ECBEC23F0F2A614EF16F016EF16F027
:102C280031EF16F0F2A01BEF16F01DEF16F031EFA2
:102C380016F081AC22EF16F024EF16F031EF16F003
:102C48005904D8A42AEF16F02CEF16F031EF16F03D
:102C5800000E596E000EBEEC23F0F2A636EF16F009
:102C680038EF16F053EF16F0F2A03DEF16F03FEFF5
:102C780016F053EF16F081BC44EF16F046EF16F04D
:102C880053EF16F05950D8A44CEF16F04EEF16F04B
:102C980053EF16F0010E596E010EBEEC23F0F2A6AA
:102CA80058EF16F05AEF16F075EF16F0F2A05FEF36
:102CB80016F061EF16F075EF16F081AE66EF16F0BC
:102CC80068EF16F075EF16F05804D8A46EEF16F0FA
:102CD80070EF16F075EF16F0000E586E000EB1EC9E
:102CE80023F0F2A67AEF16F07CEF16F097EF16F0C5
:102CF800F2A081EF16F083EF16F097EF16F081BE81
:102D080088EF16F08AEF16F097EF16F05850D8A40F
:102D180090EF16F092EF16F097EF16F0010E586E3E
:102D2800010EB1EC23F09DAC9CEF16F09EEF16F06F
:102D3800A7EF16F09EACA3EF16F0A5EF16F0A7EFDD
:102D480016F01AEC24F0F2AAACEF16F0AEEF16F07B
:102D5800B7EF16F0F2A4B3EF16F0B5EF16F0B7EF31
:102D680016F001EC23F09DA0BCEF16F0BEEF16F0B4
:102D7800C7EF16F09EA0C3EF16F0C5EF16F0C7EF29
:102D880016F0FAEC23F09DA2CCEF16F0CEEF16F079
:102D9800D7EF16F09EA2D3EF16F0D5EF16F0D7EFC7
:102DA80016F004EC24F0A0A2DCEF16F0DEEF16F02B
:102DB800E7EF16F0A1A2E3EF16F0E5EF16F0E7EF64
:102DC80016F0EFEC23F09DA4ECEF16F0EEEF16F002
:102DD800F7EF16F09EA4F3EF16F0F5EF16F0F7EF05
:102DE80016F018EC24F0A0A0FCEF16F0FEEF16F099
:102DF80007EF17F0A1A003EF17F005EF17F007EFA3
:102E080017F016EC24F09DA40CEF17F00EEF17F056
:102E180017EF17F09EA413EF17F015EF17F017EF41
:102E280017F014EC24F09DA81CEF17F01EEF17F014
:102E380027EF17F09EA823EF17F025EF17F027EFDD
:102E480017F008EC24F09DAA2CEF17F02EEF17F0DE
:102E580037EF17F09EAA33EF17F035EF17F037EF7B
:102E680017F01CEC24F09DA63CEF17F03EEF17F08E
:102E780047EF17F09EA643EF17F045EF17F047EF1F
:102E880017F01DEC24F09DA64CEF17F04EEF17F04D
:102E980057EF17F09EA653EF17F055EF17F057EFBF
:102EA80017F00AEC24F0A0A65CEF17F05EEF17F01D
:102EB80067EF17F0A1A663EF17F065EF17F067EF5C
:102EC80017F00CEC24F032C0F5FF31C0F8FF30C029
:102ED800F7FF2FC0F6FF2EC0F4FF2DC0F3FF2CC064
:102EE800DAFF2BC0D9FF2AC0FBFF29C0FAFF649282
:102EF800110001010A510B11D8A485EF17F087EFD3
:102F080017F08DEF17F0000E0F6F000E0E6F2AEFFF
:102F180018F0010E0A250001FB6F000E01010B21BC
:102F28000001FC6FDEEC21F00AC1FBF00BC1FCF0E4
:102F3800DEEC21F0000E0101106F10510A250C6F14
:102F4800000E0B210D6F020E0C250001FB6F000E09
:102F580001010D210001FC6FDEEC21F0FBC00EF138
:102F6800FCC00FF10101102B030E1065BEEF17F026
:102F7800C0EF17F0A1EF17F01A0E01010C6FF80E51
:102F8800E82EFED70C2FFCD700F00AC105F10BC1C3
:102F980006F1380E0101076F96EC1FF0070E0101CC
:102FA8000C6F7D0EE82EFED70C2FFCD70AC105F159
:102FB8000BC106F1380E0101076F96EC1FF0C30E26
:102FC80001010C6FCD0EE82EFED70C2FFCD70AC1DD
:102FD80005F10BC106F1380E0101076F96EC1FF0E1
:102FE8000AC105F10BC106F1010E0101076F96EC4C
:102FF8001FF00AC105F10BC106F1020E0101076FAE
:1030080096EC1FF00AC105F10BC106F1060E01018D
:10301800076F96EC1FF00AC105F10BC106F10C0E03
:103028000101076F96EC1FF00AC105F10BC106F10B
:10303800280E0101076F96EC1FF00AC105F10BC1BC
:1030480006F1800E0101076F96EC1FF00EC10AF120
:103058000FC10BF11200000E0001F96F010EF86F9D
:10306800F051F111D8B43BEF18F03DEF18F04EEFE6
:1030780018F0F0C0D9FFF1C0DAFFDF30E832E832EB
:10308800070BF26F070EF2654CEF18F04EEF18F0D1
:10309800B5EF18F0000EF96F000EF86FD6EF18F0C4
:1030A800F0C0D9FFF1C0DAFFDF30E832E832070BB1
:1030B800F26F010EF36FF22B64EF18F0D890F3372C
:1030C800F22F62EF18F00001F351FF0AF46FF0C01D
:1030D800D9FFF1C0DAFFDF50070BF56FF551020D8C
:1030E800CD0EF324D96E000EF420DA6EDECFF6F0A2
:1030F800DDCFF7F0F6C0D9FFF7C0DAFFF451DF16DD
:10310800D6EF18F0F0C0D9FFF1C0DAFFDF30E832AF
:10311800E832070BF26F010EF36FF22B96EF18F0FF
:10312800D890F337F22F94EF18F0F0C0D9FFF1C020
:10313800DAFFDF50070B0001F46FF451020DCD0EDA
:10314800F324D96E000EF420DA6EDECFF5F0DDCF71
:10315800F6F0F5C0D9FFF6C0DAFFF351DF12D6EF6B
:1031680018F0F0C0D9FFF1C0DAFFDFBCBEEF18F0ED
:10317800C1EF18F0010EC2EF18F0000EF26FF36BFA
:10318800F351000AD8B4CBEF18F04EEF18F0F25113
:10319800000AD8B454EF18F0010AD8B486EF18F032
:1031A8004EEF18F0F8C0F0F0F9C0F1F0120001018C
:1031B80004510511D8A4E3EF18F0E5EF18F0E7EF94
:1031C80018F082EF19F0C69A04C1D9FF05C1DAFFD9
:1031D800DF500001FD6FC650FD19F00BFD19C66EDA
:1031E80004C1D9FF05C1DAFFDF50D8B4FEEF18F0EB
:1031F80000EF19F026EF19F004C1D9FF05C1DAFF75
:10320800DE04D8B40AEF19F00CEF19F026EF19F024
:1032180004C1D9FF05C1DAFF020EDE18D8B417EFD2
:1032280019F019EF19F026EF19F004C1D9FF05C1FB
:10323800DAFF030EDE18D8A424EF19F026EF19F0F0
:103248002AEF19F01EEC23F04AEF19F004C1D9FF58
:1032580005C1DAFF040EDE18D8B435EF19F037EFE0
:1032680019F044EF19F004C1D9FF05C1DAFF050EC2
:10327800DE18D8A442EF19F044EF19F04AEF19F01C
:1032880004C1FAF005C1FBF0CCEC20F0010120EEFE
:1032980001F00451D9260551DA22DF50030B000151
:1032A800FD6FFD3BC650FD19EF0BFD19C66E010100
:1032B80020EE01F00451D9260551DA22DF38030B3C
:1032C8000001FD6FFD3BFD47FD47C750FD19BF0BD2
:1032D800FD19C76E010120EE01F00451D9260551F0
:1032E800DA22DF30E832030B0001FD6FFD33FD33D6
:1032F800C750FD197F0BFD19C76EC68A1200000E54
:103308000001FA6F000EF96FF051F111D8B48FEF88
:1033180019F091EF19F0A2EF19F0F0C0D9FFF1C040
:10332800DAFFDF30E832E832070BF36F070EF36598
:10333800A0EF19F0A2EF19F00FEF1AF0000EFA6FD4
:10334800010EF96F24EF1AF0F0C0D9FFF1C0DAFFCF
:10335800DF30E832E832070BF36F010EF46FF32B1E
:10336800B8EF19F0D890F437F32FB6EF19F0000141
:10337800F451FF0AF56FF0C0D9FFF1C0DAFFDF5052
:10338800070BF66FF651020DC30EF324D96E000E2B
:10339800F420DA6EDECFF7F0DDCFF8F0F7C0D9FF12
:1033A800F8C0DAFFF551DF1624EF1AF0F0C0D9FFA4
:1033B800F1C0DAFFDF30E832E832070BF36F010EB5
:1033C800F46FF32BEAEF19F0D890F437F32FE8EF06
:1033D80019F0F0C0D9FFF1C0DAFFDF50070B000188
:1033E800F56FF551020DC30EF324D96E000EF420CB
:1033F800DA6EDECFF6F0DDCFF7F0F6C0D9FFF7C012
:10340800DAFFF451DF1224EF1AF0000EFA6F000E03
:10341800F96F24EF1AF0F251F36FF46BF451000ACC
:10342800D8B419EF1AF009EF1AF0F351000AD8B41A
:10343800A8EF19F0010AD8B4DAEF19F009EF1AF079
:10344800F9C0F0F0FAC0F1F01200000E0B6E000E99
:103458000A6E01500210D8B434EF1AF036EF1AF0A1
:1034680047EF1AF001C0D9FF02C0DAFFDF30E832B7
:10347800E832070B046E070E046445EF1AF047EFB5
:103488001AF0B2EF1AF0000E0B6E010E0A6EC7EFBB
:103498001AF001C0D9FF02C0DAFFDF30E832E832A3
:1034A800070B046E010E056E042A5DEF1AF0D89022
:1034B8000536042E5BEF1AF00550FF0A066E01C0B0
:1034C800D9FF02C0DAFFDF50070B076E0750020D65
:1034D800C30EF324D96E000EF420DA6EDECF08F0A6
:1034E800DDCF09F008C0D9FF09C0DAFF0650DF16A2
:1034F800C7EF1AF001C0D9FF02C0DAFFDF30E832A7
:10350800E832070B046E010E056E042A8EEF1AF0DE
:10351800D8900536042E8CEF1AF001C0D9FF02C0EE
:10352800DAFFDF50070B066E0650020DC30EF324B8
:10353800D96E000EF420DA6EDECF07F0DDCF08F08A
:1035480007C0D9FF08C0DAFF0550DF12C7EF1AF02D
:10355800000E0B6E000E0A6EC7EF1AF00350046ED1
:10356800056A0550000AD8B4BCEF1AF0ACEF1AF09F
:103578000450000AD8B44DEF1AF0010AD8B47EEF0F
:103588001AF0ACEF1AF00AC001F00BC002F01200FA
:10359800010100510111D8A4D4EF1AF0D6EF1AF0A6
:1035A800DCEF1AF0000E056F000E046F5BEF1BF0E6
:1035B800000E066F000E076F000E076F000E086FF3
:1035C800085100250001F06F0101000E01210001E2
:1035D800F16F000EF26F83EC19F00101082B030E56
:1035E8000865F9EF1AF0FBEF1AF0E4EF1AF007514B
:1035F80000250001F06F0101000E01210001F16FAB
:10360800010EF26F83EC19F0000E0101086F0851EA
:1036180000250001FC6F000E010101210001FD6F72
:10362800040EFC25F06F000EFD21F16F060EF26FFF
:10363800010EF36F60EC1BF001010651D8B427EFBF
:103648001BF029EF1BF044EF1BF00751040DA90EE6
:10365800F3240001FC6FFD0EF420FD6F01010851F9
:103668000001FC27000EFD23FCC0F6FFFDC0F7FF9C
:10367800F86A02C1D9FF03C1DAFF0800F5CFDFFFFE
:103688000101082B030E08654CEF1BF04EEF1BF0F1
:103698000BEF1BF0072B030E076555EF1BF057EFD9
:1036A8001BF0E2EF1AF0000E056F010E046F04C163
:1036B80000F105C101F11200000E0001FB6F010EBF
:1036C800FA6FF051F111D8B46CEF1BF06EEF1BF0EC
:1036D80088EF1BF0F251F311D8B475EF1BF077EFB8
:1036E8001BF088EF1BF0F0C0D9FFF1C0DAFFDF3024
:1036F800E832E832070BF46F070EF46586EF1BF02B
:1037080088EF1BF08EEF1BF0000EFB6F000EFA6FB8
:10371800C2EF1BF0F0C0D9FFF1C0DAFFDF50070B92
:10372800F46FF451020DB90EF324D96E000EF42093
:10373800DA6EDECFF5F0DDCFF6F0F5C0D9FFF6C0D2
:10374800DAFFDF50F76FF0C0D9FFF1C0DAFFDF30E2
:10375800E832E832070BF86F010EF96FF82BB7EF74
:103768001BF0D890F937F82FB5EF1BF00001F9518D
:10377800F715F2C0D9FFF3C0DAFFDF6EFAC0F0F038
:10378800FBC0F1F01200000E0001F56FF3BFD1EF9E
:103798001BF0CFEF1BF0D7EF1BF0F26DF31FD8B083
:1037A800F32B010EF56FF1BFDEEF1BF0DCEF1BF022
:1037B800E4EF1BF0F06DF11FD8B0F12B010EF51BF3
:1037C800000EF76F000EF66FF251F311D8B4EFEF59
:1037D8001BF0F1EF1BF019EF1CF0010EF46FF9EF7D
:1037E8001BF0D890F237F337F42BF3AFFEEF1BF052
:1037F80000EF1CF0F5EF1BF0D890F637F737F251D1
:10380800F05DF351F159D8A00CEF1CF00EEF1CF04D
:1038180013EF1CF0F251F05FF351F15BF681D89091
:10382800F333F233F42F00EF1CF0F551D8B41FEF47
:103838001CF021EF1CF025EF1CF0F66DF71FD8B037
:10384800F72BF6C0F0F0F7C0F1F01200000120EEFF
:1038580005F0F051D926F151DA22DFB436EF1CF029
:1038680038EF1CF05BEF1CF0D59A20EE05F0F05114
:10387800D926F151DA22DFA244EF1CF046EF1CF002
:1038880049EF1CF0D58887EF1CF020EE05F0F051C9
:10389800D926F151DA22DFB254EF1CF056EF1CF0B2
:1038A80059EF1CF0D59887EF1CF087EF1CF020EE3D
:1038B80005F0F051D926F151DA22DFA466EF1CF0A9
:1038C80068EF1CF087EF1CF0D58A20EE05F0F05168
:1038D800D926F151DA22DFA274EF1CF076EF1CF042
:1038E80079EF1CF0D58887EF1CF020EE05F0F05139
:1038F800D926F151DA22DFB284EF1CF086EF1CF0F2
:1039080059EF1CF0D5981200000E0001F86F010E57
:10391800F76FF351F411D8A494EF1CF096EF1CF054
:103928009CEF1CF0000EF86F000EF76FDEEF1CF036
:10393800D59EF3C0F0F0F4C0F1F011EC22F0F3C022
:10394800F0F0F4C0F1F02AEC1CF0F3C0F0F0F4C091
:10395800F1F0E1EC22F0000120EE03F0F351D9265A
:10396800F451DA22DECFF5F0DDCFF6F0F6C0F5F04F
:10397800F66BF551D76E20EE03F0F351D926F451CA
:10398800DA22DF50D66E20EE03F0F351D926F45137
:10399800DA22DECF39F0DDCF3AF0F28AF294F3C0C2
:1039A800D9FFF4C0DAFFDECF3BF0DDCF3CF0F28E7A
:1039B800F28CD58EF7C0F3F0F8C0F4F01200000EC8
:1039C8000001F56FF1BFEDEF1CF0EBEF1CF0F3EF2A
:1039D8001CF0F06DF11FD8B0F12B010EF56FF3BF9D
:1039E800FAEF1CF0F8EF1CF0FEEF1CF0F26DF31F7D
:1039F800D8B0F32BF251F311D8B405EF1DF007EF4F
:103A08001DF02BEF1DF0010EF46F0FEF1DF0D89095
:103A1800F237F337F42BF3AF14EF1DF016EF1DF068
:103A28000BEF1DF0F251F05DF351F159D8A01FEFE3
:103A38001DF021EF1DF025EF1DF0F251F05FF3515D
:103A4800F15BD890F333F233F42F16EF1DF0F551F4
:103A5800D8B431EF1DF033EF1DF037EF1DF0F06DE6
:103A6800F11FD8B0F12BF0C0F0F0F1C0F1F0120066
:103A78000001FB51FC11D8A444EF1DF046EF1DF0E6
:103A88004DEF1DF0000E0101016F000E006F8DEF6C
:103A98001DF04EC002F1FBC0D9FFFCC0DAFFDF50B9
:103AA800070BFD6F010102510001FD19F80BFD190B
:103AB8000101026FFBC0D9FFFCC0DAFFDF30E8323A
:103AC800E832070B0001FD6FFD47FD47FD47010187
:103AD80002510001FD19C70BFD190101026F029D7A
:103AE800FBC0D9FFFCC0DAFF0001DFAC03D0010145
:103AF800028F02D00101029F020E0001F06F010E39
:103B0800F16F010EF26F83EC19F0F0C000F1F1C013
:103B180001F100C1FBF001C1FCF0120001010251EA
:103B28000311D8A49AEF1DF09CEF1DF0A2EF1DF031
:103B3800000E056F000E046FDFEF1DF04FC006F199
:103B480002C1D9FF03C1DAFFDF50070B0001FD6F87
:103B5800010106510001FD19F80BFD190101066F5D
:103B680002C1D9FF03C1DAFFDF30E832E832070BC0
:103B78000001FD6FFD47FD47FD47010106510001AA
:103B8800FD19C70BFD190101066F069D02C1D9FF7A
:103B980003C1DAFFDFAC02D0068F02D00101069F15
:103BA800060E0001FB6F010EFC6FDEEC21F0FBC07E
:103BB80004F1FCC005F104C102F105C103F11200D2
:103BC80001010D0714EF1EF00AC105F10BC106F142
:103BD8000D51800F076F96EC1FF031EF1EF00AC1F0
:103BE80005F10BC106F10D51C00F076F96EC1FF0E0
:103BF80031EF1EF00AC105F10BC106F10D51940F0A
:103C0800076F96EC1FF031EF1EF00AC105F10BC1EA
:103C180006F10D51D40F076F96EC1FF031EF1EF02F
:103C28000C510E6F0F6B0F51000AD8B41EEF1EF027
:103C380031EF1EF00E51010AD8B4E8EF1DF0030A67
:103C4800D8B4F3EF1DF0010AD8B4FEEF1DF0070A4F
:103C5800D8B409EF1EF031EF1EF012001C0661EF18
:103C68001EF019C014F01AC015F01C50800F166E03
:103C780017EC20F07EEF1EF019C014F01AC015F0F2
:103C88001C50C00F166E17EC20F07EEF1EF019C006
:103C980014F01AC015F01C50940F166E17EC20F093
:103CA8007EEF1EF019C014F01AC015F01C50D40F86
:103CB800166E17EC20F07EEF1EF01B501D6E1E6A6C
:103CC8001E50000AD8B46BEF1EF07EEF1EF01D5098
:103CD800010AD8B435EF1EF0030AD8B440EF1EF03D
:103CE800010AD8B44BEF1EF0070AD8B456EF1EF0FD
:103CF8007EEF1EF01200010102510311D8A487EFD4
:103D08001EF089EF1EF08FEF1EF0000E076F000EF9
:103D1800066FC6EF1EF0000E086F000E086F085100
:103D280002250001FB6F0101000E03210001FC6F59
:103D3800DEEC21F0FBC006F1FCC007F101010851DF
:103D48000225046F000E0321056F040E04250001EF
:103D5800FB6F000E010105210001FC6FDEEC21F074
:103D6800FBC006F1FCC007F10101082B030E086532
:103D7800C0EF1EF0C2EF1EF093EF1EF0000E076FAB
:103D8800010E066F06C102F107C103F11200000E11
:103D980001010F6F010E0E6F0A510B11D8B4D7EF46
:103DA8001EF0D9EF1EF0E2EF1EF00C510D11D8A451
:103DB800E0EF1EF0E2EF1EF0FDEF1EF0000E0F6FB9
:103DC800000E0E6F0CEF1FF00AC105F10BC106F1D2
:103DD8000CC1F6FF0DC1F7FFF86A0800F5CF07F12F
:103DE80055EC1FF005C10EF106C10FF101010C4B96
:103DF8000D2B0CC1F6FF0DC1F7FFF86A0800F5504E
:103E08000009D8A40AEF1FF00CEF1FF0E8EF1EF02E
:103E18000EC10AF10FC10BF11200000E1E6E010E49
:103E28001D6E19501A10D8B41CEF1FF01EEF1FF0AA
:103E380027EF1FF01B501C10D8A425EF1FF027EF09
:103E48001FF041EF1FF0000E1E6E000E1D6E50EFAA
:103E58001FF019C014F01AC015F01BC0F6FF1CC0E3
:103E6800F7FFF86A0800F5CF16F054EC20F014C0FC
:103E78001DF015C01EF01B4A1C2A1BC0F6FF1CC0F3
:103E8800F7FFF86A0800F5500009D8A44EEF1FF0B4
:103E980050EF1FF02DEF1FF01DC019F01EC01AF0D3
:103EA8001200010105510611D8A45DEF1FF05FEF64
:103EB8001FF065EF1FF0000E096F000E086F91EFFD
:103EC8001FF005C1F0F006C1F1F0010E0001F26F1C
:103ED80083EC19F0F0C008F1F1C009F105C1FBF05D
:103EE80006C1FCF0010107390F0B0001FD6F3CEC26
:103EF80021F005C1FBF006C1FCF056EC23F005C12A
:103F0800FBF006C1FCF007C1FDF03CEC21F005C157
:103F1800FBF006C1FCF056EC23F008C105F109C11D
:103F280006F11200010105510611D8A49EEF1FF0F9
:103F3800A0EF1FF0A6EF1FF0000E096F000E086F2C
:103F4800D2EF1FF005C1F0F006C1F1F0000E00013C
:103F5800F26F83EC19F0F0C008F1F1C009F105C166
:103F6800FBF006C1FCF0010107390F0B0001FD6FE2
:103F78003CEC21F005C1FBF006C1FCF056EC23F047
:103F880005C1FBF006C1FCF007C1FDF03CEC21F0D7
:103F980005C1FBF006C1FCF056EC23F008C105F1A1
:103FA80009C106F11200472A020E4718D8A4DFEF0C
:103FB8001FF0E1EF1FF016EF20F0040E0001B51915
:103FC800D8A4E9EF1FF0EBEF1FF016EF20F05C0E1E
:103FD800146E000E156E010E166E17EC20F014C04C
:103FE800FEF015C0FFF05C0E1F6E000E206E020E74
:103FF800216E010E226E9F0E236EFE0E246EA9EC1A
:1040080021F01FC0FEF020C0FFF0060E286E130E30
:10401800276EAE0EE82EFED7272EFCD7282EFAD70D
:10402800FFEC23F0120014501510D8A41EEF20F056
:1040380020EF20F026EF20F0000E186E000E176E0D
:104048004FEF20F014C001F015C002F0000E036E0F
:1040580029EC1AF001C017F002C018F014C00CF0D7
:1040680015C00DF016380F0B0E6E69EC22F014C057
:104078000CF015C00DF070EC23F014C00CF015C056
:104088000DF016C00EF069EC22F014C00CF015C04B
:104098000DF070EC23F017C014F018C015F01200E2
:1040A80014501510D8A45BEF20F05DEF20F063EFFB
:1040B80020F0000E186E000E176E8CEF20F014C062
:1040C80001F015C002F0010E036E29EC1AF001C0D0
:1040D80017F002C018F014C00CF015C00DF0163817
:1040E8000F0B0E6E69EC22F014C00CF015C00DF029
:1040F80070EC23F014C00CF015C00DF016C00EF0D3
:1041080069EC22F014C00CF015C00DF070EC23F02F
:1041180017C014F018C015F01200000E0001F56F5A
:10412800010EF46F040EF15DD8A09DEF20F09FEF13
:1041380020F0A5EF20F0000EF56F000EF46FC7EF2A
:1041480020F0000EF2BE010EF36FF151030BAA6EC0
:10415800F0C0A9FFF2C0A8FFA69EA69CA684F29E66
:10416800550EA76EAA0EA76EA682A6B2BEEF20F0C5
:10417800C0EF20F0B9EF20F0A6940001F3B102D00F
:10418800F29E01D0F28EF4C0F0F0F5C0F1F012000A
:1041980054C000F153C001F152C003F151C002F103
:1041A800000E0001F06F010EF16F2FEC18F0010EF8
:1041B8000001F06F010EF16F2FEC18F0030E0001F3
:1041C800F06F010EF16F2FEC18F0030E0001F06F85
:1041D800010EF16F2FEC18F0FAC0D9FFFBC0DAFF1F
:1041E800040EDE18D8A4FBEF20F0FDEF20F004EF5A
:1041F80021F0020E0001F06F010EF16F2FEC18F0A4
:104208001200740EF66E460EF76E000EF86E00EE93
:10421800B9F010EE37F00900F5CFEEFFE550E150A8
:10422800FAE1CA0EF66E470EF76E000EF86E00EE53
:1042380051F010EE13F00900F5CFEEFFE550E15014
:10424800FAE101EE1AF00B0EEE6AE806FDE100EE67
:1042580080F0390EEE6AE806FDE100EE33F01E0E3E
:10426800EE6AE806FDE164906492000109EF00F04F
:10427800000E0101046F000E046F04510001FB25BC
:104288000101006F000E0001FC210101016F020E07
:1042980000250001F06F000E010101210001F16FFE
:1042A80004C102F1FDC003F10101022B5EEF21F010
:1042B800D8900333022F5CEF21F001010351010B69
:1042C8000001F26F83EC19F00101042B030E046561
:1042D80070EF21F072EF21F041EF21F0120001019F
:1042E80010511111D8B47BEF21F07DEF21F086EF4A
:1042F80021F014511511D8A484EF21F086EF21F094
:104308008CEF21F0000E176F000E166FA4EF21F04E
:1043180010C10AF111C10BF112C10CF113C10DF159
:10432800E4EC1DF010C10AF111C10BF114C10CF13C
:1043380015C10DF1CBEC1EF00AC116F10BC117F136
:1043480016C110F117C111F112001F502010D8B476
:10435800B0EF21F0B2EF21F0BBEF21F02350241091
:10436800D8A4B9EF21F0BBEF21F0C1EF21F0000E86
:10437800266E000E256ED9EF21F01FC019F020C05F
:104388001AF021C01BF022C01CF032EC1EF01FC036
:1043980019F020C01AF023C01BF024C01CF011EC47
:1043A8001FF019C025F01AC026F025C01FF026C03E
:1043B80020F012000001FB51FC11D8A4E6EF21F017
:1043C800E8EF21F0EFEF21F0000E0101016F000E80
:1043D800006F0CEF22F0FBC0F0F0FCC0F1F02FEC06
:1043E80018F0F0C000F1F1C001F1FBC0F0F0FCC022
:1043F800F1F0FBC0D9FFFCC0DAFF0001000EDFBE00
:10440800010EF26F83EC19F0F0C000F1F1C001F178
:1044180000C1FBF001C1FCF01200000120EE05F024
:10442800F051D926F151DA22DFB01DEF22F01FEF4B
:1044380022F02FEF22F0D59620EE02F0F051D92687
:10444800F151DA22DF50F26FD550F219F80BF21958
:10445800D56E3DEF22F020EE05F0F051D926F1514E
:10446800DA22DFA03AEF22F03CEF22F03DEF22F013
:10447800D5861200000E0101166F010E156F10513E
:104488001111D8A44AEF22F04CEF22F052EF22F09B
:10449800000E166F000E156F64EF22F010C10AF1BE
:1044A80011C10BF112C10CF113C10DF1E4EC1DF0B7
:1044B80010C105F111C106F114C107F155EC1FF047
:1044C80015C110F116C111F11200000E136E000E85
:1044D800136E13500C240F6E000E0D20106E020E7A
:1044E8000F24016E000E1020026E13C011F00EC0D2
:1044F80012F0112A82EF22F0D8901232112E80EF9A
:1045080022F01250010B036E29EC1AF0132A030E45
:10451800136491EF22F093EF22F06DEF22F0120076
:10452800000E0001F56F010EF46FF251F311D8A4DB
:10453800A0EF22F0A2EF22F0A8EF22F0000EF56F14
:10454800000EF46FB8EF22F0F151030BAA6EF0C021
:10455800A9FFA69EA69CA68000F000F0F2C0D9FF95
:10456800F3C0DAFFA8CFDFFFF4C0F0F0F5C0F1F038
:104578001200630E0101026F000E036F92EC1DF032
:10458800620E0101026F000E036F92EC1DF0500ED7
:104598000101026F000E036F92EC1DF05C0E010129
:1045A8000A6F000E0B6F7DEC17F0DD0E0101026F34
:1045B800000E036F7FEC1EF01200000120EE05F0E4
:1045C800F051D926F151DA22DFB6EDEF22F0EFEF04
:1045D80022F0F2EF22F0D58C00EF23F020EE05F068
:1045E800F051D926F151DA22DFA6FDEF22F0FFEFD4
:1045F80022F000EF23F0D59C1200F2943A50D76EC7
:1046080039C0D6FF3B503C10D8A40DEF23F00FEF74
:1046180023F011EF23F01DEF23F002D81DEF23F054
:104628000500FA6E3B50FD6E3C50FE6EFF6AFA5074
:104638001200120057C0FAF056C0FBF055C0FCF04B
:10464800FA0E0001F06F000EF16F2FEC18F0FB0E60
:104658000001F06F000EF16F2FEC18F0FC0E000156
:10466800F06F000EF16F2FEC18F01200800F810F21
:10467800820F830F840F890F8A0F8B0F8C0F8D0F7A
:10468800920F930F940F950F960F0303010C0602D8
:10469800030B131B636B737BAE3F066A670800113D
:0346A800FFFFFF12
:1046AC00010E0001FB25F06F000EFC21F16F010ED5
:1046BC00F26F83EC19F000D000D000F0010E000175
:1046CC00FB25F06F000EFC21F16F000EF26F83ECF6
:1046DC0019F01200010E0C24016E000E0D20026E5A
:1046EC00010E036E29EC1AF000D000D000F0010E80
:1046FC000C24016E000E0D20026E000E036E29ECD0
:10470C001AF01200BDEC22F0EB0E0101046F000E4A
:10471C00056FDBEC18F004C1FEF005C1FFF01200D0
:10472C00C7A09BEF23F09DEF23F096EF23F0F0C092
:10473C00D9FFF1C0DAFFC9CFDFFF12000001F26F21
:10474C00F2C0C9FF9EA6ADEF23F0AFEF23F0A8EFA8
:10475C0023F09E961200016EF2900150D8A4B9EF8E
:10476C0023F0BBEF23F0BDEF23F0BDEF23F01200DD
:10477C00016EF2900150D8A4C6EF23F0C8EF23F0DD
:10478C00CAEF23F0CAEF23F01200016EF290015031
:10479C00D8A4D3EF23F0D5EF23F0D7EF23F0D7EF46
:1047AC0023F01200016EF2900150D8A4E0EF23F038
:1047BC00E2EF23F0E4EF23F0E4EF23F01200685A69
:1047CC00622A1A622A01010101020A1218323A08FD
:0147DC0010CC
:1047DE00A1923450B36E33C0B2FF1200D1800400E8
:1047EE00F7EF23F012003850CF6E37C0CEFF120015
:1047FE00D180040001EF24F012009E9235C0CCFF50
:10480E0012009D9812009E961200A1961200F09230
:10481E001200F0901200F29212009E941200A190DB
:0E482E0012009E9412009E9C120012001200B6
:10FDA800003738392F3435362A3132332D40303D3B
:10FDB8002B323A61697220636F6E646974696F6E81
:10FDC8006572206F666600546F20536D61727420EF
:10FDD800486F6D652053797374656D00313A6169B8
:10FDE8007220636F6E646974696F6E6572206F6EDE
:10FDF800005072657373274F4E2F4327746F20721C
:10FE080065736574005365742054656D706572611F
:10FE1800747572653A2D2D00737563636573736627
:10FE2800756C6C7920616464656400536574204165
:10FE3800646D696E2050617373776F7264005365E7
:10FE4800742047756573742050617373776F72649B
:10FE58000061697220636F6E646974696F6E6572A0
:10FE68003A2D006C6F6164696E6720626C6F636B1A
:10FE780065642E2E00323A5365742054656D7065A2
:10FE88007261747572650053756363657373204C92
:10FE98006F67696E2E2E0073657373696F6E2074B9
:10FEA800696D656F75740053656C656374204D6F7B
:10FEB8006465203A0061697220636F6E643A2D2090
:10FEC800533A0041646D696E204D6F64653A2D00A8
:10FED8004775657374204D6F64653A2D0057726FCE
:10FEE8006E6720696E7075742E00776169742020C2
:10FEF8003130207365630057726F6E672063686FD7
:10FF08006963650041646D696E20506173733A00DE
:10FF1800477565737420506173733A00577269743A
:10FF28006520706173733A005472696573206C655B
:10FF380066743A00333A41697220636F6E2E00325C
:10FF48003A6C6564206F666600313A436F6E74726E
:10FF58006F6C00526F6F6D3120533A00526F6F6DA6
:10FF68003220533A00526F6F6D3320533A00526F6C
:10FF78006F6D3420533A00323A5456206F6666004B
:10FF8800313A2041646D696E00313A6C6564206FC6
:10FF98006E00323A20477565737400313A526F6FBC
:10FFA8006D3100323A526F6F6D3200333A526F6FD3
:10FFB8006D3300313A526F6F6D3400343A526F6FBF
:10FFC8006D340057656C636F6D6500313A54562087
:10FFD8006F6E00343A4D6F726500545620533A00E4
:10FFE800303A52657400323A5456004F4E20004F52
:07FFF80046460025690000E8
:020000040020DA
:08000000FFFFFFFFFFFFFFFF00
:020000040030CA
:0E000000FF020910FF8381FF0FC00FE00F40C9
:00000001FF
