:0400000007EF00F016
:1000080064822FED15F0EEEF20F06FEC23F05C0E1C
:100018000101046F000E056F010E066F7FEC1FF0E3
:1000280004C1FEF005C1FFF05C0E01010F6F000E68
:10003800106F010E116F070E126FCB0E136FFF0EAC
:10004800146F25EC21F00FC1FEF010C1FFF05C0E1B
:1000580001010F6F000E106F020E116F010E126F6B
:10006800CF0E136FFD0E146F25EC21F00FC1FEF0BB
:1000780010C1FFF0060E0101186F130E176FAD0EB9
:10008800E82EFED7172FFCD7182FFAD700D05C0E12
:100098000101046F000E056F010E066F7FEC1FF063
:1000A80004C1FEF005C1FFF0010E0001EF6F000E64
:1000B800EE6FED0EF06F000EF16F7BEC22F0EEC0EC
:1000C800FEF0EFC0FFF0010E0001EF6F010EEE6FC2
:1000D800EC0EF06F000EF16F7BEC22F0EEC0FEF03C
:1000E800EFC0FFF00001ED29D8B47DEF00F07FEFFD
:1000F80000F087EF00F0EC29D8A485EF00F087EF37
:1001080000F070EF02F05C0E01010F6F000E106F2F
:10011800010E116F010E126F330E136FFE0E146F66
:1001280025EC21F00FC1FEF010C1FFF05C0E0101BB
:100138000F6F000E106F020E116F010E126F0C0E72
:10014800136FFF0E146F25EC21F00FC1FEF010C1E4
:10015800FFF020EF01F0DB0EFA6F000EFB6FB60E1A
:10016800FC6F000EFD6FB3EC1AF0FAC0FEF0FBC096
:10017800FFF00001B651D8B4C4EF00F0C6EF00F0AC
:10018800AFEF00F0DAC0EEF0EF6BB6C0F0F07AEC4B
:1001980020F0EEC0FEF0EFC0FFF05C0E01010F6F23
:1001A800000E106F020E116FD8C012F1B6C013F115
:1001B80025EC22F00FC1FEF010C1FFF0030E010183
:1001C800186F8A0E176F550EE82EFED7172FFCD71B
:1001D800182FFAD700D05C0E0101046F000E056FCE
:1001E800100E066F7FEC1FF004C1FEF005C1FFF092
:1001F8005C0E01010F6F000E106F020E116FD8C058
:1002080012F12A0E136F25EC22F00FC1FEF010C177
:10021800FFF05C0E0101046F000E056F0E0E066FF5
:100228007FEC1FF004C1FEF005C1FFF0000E0001D5
:10023800B66FD82BDA2BD72B040E0001D76527EF22
:1002480001F029EF01F0AFEF00F05C0E0101046F3F
:10025800000E056F0C0E066F7FEC1FF004C1FEF058
:1002680005C1FFF05C0E01010F6F000E106F030E49
:10027800116F010E126F200E136FFE0E146F25EC16
:1002880021F00FC1FEF010C1FFF0030E0101186F3D
:100298008A0E176F550EE82EFED7172FFCD7182F8A
:1002A800FAD700D05C0E0101046F000E056F010E35
:1002B800066F7FEC1FF004C1FEF005C1FFF05C0E75
:1002C80001010F6F000E106F010E116F010E126FFA
:1002D800460E136FFE0E146F25EC21F00FC1FEF0D1
:1002E80010C1FFF05C0E01010F6F000E106F020EBF
:1002F800116F010E126F180E136FFF0E146F25EC9D
:1003080021F00FC1FEF010C1FFF0010E0001D76F00
:100318000C0ED86F01EF02F0DB0EFA6F000EFB6FC8
:10032800B60EFC6F000EFD6FB3EC1AF0FAC0FEF0CB
:10033800FBC0FFF00001B651D8B4A5EF01F0A7EF5C
:1003480001F090EF01F0D9C0EEF0EF6BB6C0F0F01D
:100358007AEC20F0EEC0FEF0EFC0FFF05C0E010179
:100368000F6F000E106F020E116FD8C012F1B6C0D9
:1003780013F125EC22F00FC1FEF010C1FFF0030EBF
:100388000101186F8A0E176F550EE82EFED7172F2A
:10039800FCD7182FFAD700D05C0E0101046F000EAD
:1003A800056F100E066F7FEC1FF004C1FEF005C14B
:1003B800FFF05C0E01010F6F000E106F020E116F3F
:1003C800D8C012F12A0E136F25EC22F00FC1FEF0EF
:1003D80010C1FFF05C0E0101046F000E056F0E0ED8
:1003E800066F7FEC1FF004C1FEF005C1FFF0000EA0
:1003F8000001B66FD82BD92BD72B040ED76507EF82
:1004080002F009EF02F090EF01F0020E0101186FFF
:10041800040E176FBA0EE82EFED7172FFCD7182F29
:10042800FAD700F05C0E0101046F000E056F0C0E88
:10043800066F7FEC1FF004C1FEF005C1FFF05C0EF3
:1004480001010F6F000E106F030E116F010E126F76
:10045800200E136FFE0E146F25EC21F00FC1FEF075
:1004680010C1FFF0030E0101186F8A0E176F550EA9
:10047800E82EFED7172FFCD7182FFAD700D05C0E1E
:100488000101046F000E056F010E066F7FEC1FF06F
:1004980004C1FEF005C1FFF0010E0001ED6F010E71
:1004A800EC6F010EEF6F000EEE6FEDC0F0F07AEC1E
:1004B80020F0EEC0FEF0EFC0FFF0010E0001EF6F7C
:1004C800010EEE6FECC0F0F07AEC20F0EEC0FEF01A
:1004D800EFC0FFF02DEF15F0ED05D8B476EF02F080
:1004E80078EF02F080EF02F0EC05D8A47EEF02F07E
:1004F80080EF02F02DEF15F05C0E01010F6F000E7A
:10050800106F010E116F010E126FAF0E136FFE0EFA
:10051800146F25EC21F00FC1FEF010C1FFF05C0E46
:1005280001010F6F000E106F020E116F010E126F96
:10053800880E136FFF0E146F25EC21F00FC1FEF02B
:1005480010C1FFF05C0E01010F6F000E106F030E5B
:10055800116F010E126F9A0E136FFF0E146F25ECB8
:1005680021F00FC1FEF010C1FFF0DB0E0001FA6FA1
:10057800000EFB6FB60EFC6F000EFD6FB3EC1AF0A9
:10058800FAC0FEF0FBC0FFF00001B651D8B4CFEFBF
:1005980002F0D1EF02F0B9EF02F052EF04F05C0E76
:1005A8000101046F000E056F010E066F7FEC1FF04E
:1005B80004C1FEF005C1FFF05C0E01010F6F000ED3
:1005C800106F010E116F010E126FCB0E136FFE0E1E
:1005D800146F25EC21F00FC1FEF010C1FFF05C0E86
:1005E80001010F6F000E106F020E116F010E126FD6
:1005F800240E136FFF0E146F25EC21F00FC1FEF0CF
:1006080010C1FFF0000E0001B66F020E0101186F55
:10061800860E176F990EE82EFED7172FFCD7182FC6
:10062800FAD795EF03F0DB0EFA6F000EFB6FB60EEC
:10063800FC6F000EFD6FB3EC1AF0FAC0FEF0FBC0C1
:10064800FFF00001B651D8B42CEF03F02EEF03F001
:1006580017EF03F0DAC0EEF0EF6BEB0EF06F000E61
:10066800F16F7BEC22F0EEC0FEF0EFC0FFF000016E
:10067800B651EB19D8A443EF03F045EF03F046EF6A
:1006880003F0B42B5C0E01010F6F000E106F020E09
:10069800116FD8C012F1B6C013F125EC22F00FC1CA
:1006A800FEF010C1FFF0030E0101186F8A0E176FDC
:1006B800550EE82EFED7172FFCD7182FFAD700D0E3
:1006C8005C0E0101046F000E056F100E066F7FECC3
:1006D8001FF004C1FEF005C1FFF05C0E01010F6FB1
:1006E800000E106F020E116FD8C012F12A0E136F90
:1006F80025EC22F00FC1FEF010C1FFF05C0E0101E5
:10070800046F000E056F0E0E066F7FEC1FF004C11C
:10071800FEF005C1FFF0000E0001B66FD82BDA2BF2
:10072800D72B040E0001D7659CEF03F09EEF03F072
:1007380017EF03F0040EB419D8A4A5EF03F0A7EF40
:1007480003F0E5EF03F05C0E0101046F000E056F86
:10075800010E066F7FEC1FF004C1FEF005C1FFF02B
:100768005C0E0101046F000E056F0C0E066F7FEC26
:100778001FF004C1FEF005C1FFF05C0E01010F6F10
:10078800000E106F020E116F010E126F8F0E136F95
:10079800FE0E146F25EC21F00FC1FEF010C1FFF022
:1007A800000E0001B66F020E0101186F860E176F5A
:1007B800990EE82EFED7172FFCD7182FFAD752EF2D
:1007C80004F0310EB66F5C0E0101046F000E056F68
:1007D800010E066F7FEC1FF004C1FEF005C1FFF0AB
:1007E8005C0E0101046F000E056F0C0E066F7FECA6
:1007F8001FF004C1FEF005C1FFF05C0E01010F6F90
:10080800000E106F010E116F010E126FE50E136FBF
:10081800FE0E146F25EC21F00FC1FEF010C1FFF0A1
:100828005C0E01010F6F000E106F020E116F010EAA
:10083800126F300E136FFF0E146F25EC21F00FC1ED
:10084800FEF010C1FFF05C0E01010F6F000E106F7B
:10085800020E116F0C0E126F0001D6512F0F0101FD
:10086800136F25EC22F00FC1FEF010C1FFF0030E4C
:100878000101186F8A0E176F550EE82EFED7172F35
:10088800FCD7182FFAD700D0010E0001B46F010E63
:10089800D76F020EDA6F0C0ED86FD607310E000133
:1008A800B619D8A45AEF04F05CEF04F0F3EF05F0A2
:1008B800D651D8A462EF04F064EF04F0D3EF02F04D
:1008C800F3EF05F05C0E0101046F000E056F010ED9
:1008D800066F7FEC1FF004C1FEF005C1FFF05C0E4F
:1008E80001010F6F000E106F010E116F010E126FD4
:1008F800D80E136FFE0E146F25EC21F00FC1FEF019
:1009080010C1FFF05C0E01010F6F000E106F020E98
:10091800116F010E126F240E136FFF0E146F25EC6A
:1009280021F00FC1FEF010C1FFF0000E0001B66FFC
:10093800020E0101186F860E176F990EE82EFED76A
:10094800172FFCD7182FFAD728EF05F0DB0EFA6F10
:10095800000EFB6FB60EFC6F000EFD6FB3EC1AF0C5
:10096800FAC0FEF0FBC0FFF00001B651D8B4BFEFEB
:1009780004F0C1EF04F0AAEF04F0D9C0EEF0EF6B79
:10098800EB0EF06F000EF16F7BEC22F0EEC0FEF084
:10099800EFC0FFF00001B651EB19D8A4D6EF04F070
:1009A800D8EF04F0D9EF04F0B32B5C0E01010F6F00
:1009B800000E106F020E116FD8C012F1B6C013F1FD
:1009C80025EC22F00FC1FEF010C1FFF0030E01016B
:1009D800186F8A0E176F550EE82EFED7172FFCD703
:1009E800182FFAD700D05C0E0101046F000E056FB6
:1009F800100E066F7FEC1FF004C1FEF005C1FFF07A
:100A08005C0E01010F6F000E106F020E116FD8C03F
:100A180012F12A0E136F25EC22F00FC1FEF010C15F
:100A2800FFF05C0E0101046F000E056F0E0E066FDD
:100A38007FEC1FF004C1FEF005C1FFF0000E0001BD
:100A4800B66FD82BD92BD72B040E0001D7652FEF03
:100A580005F031EF05F0AAEF04F0040EB319D8A49D
:100A680038EF05F03AEF05F086EF05F05C0E01016E
:100A7800046F000E056F010E066F7FEC1FF004C1B6
:100A8800FEF005C1FFF05C0E0101046F000E056F5A
:100A98000C0E066F7FEC1FF004C1FEF005C1FFF0DD
:100AA8005C0E01010F6F000E106F020E116F010E28
:100AB800126F8F0E136FFE0E146F25EC21F00FC10D
:100AC800FEF010C1FFF0000E0001B66F060E010126
:100AD800186F130E176FAD0EE82EFED7172FFCD721
:100AE800182FFAD700D05C0E0101046F000E056FB5
:100AF800010E066F7FEC1FF004C1FEF005C1FFF088
:100B0800F3EF05F0320EB66F5C0E0101046F000EB4
:100B1800056F010E066F7FEC1FF004C1FEF005C1E2
:100B2800FFF05C0E0101046F000E056F0C0E066FDE
:100B38007FEC1FF004C1FEF005C1FFF05C0E01015F
:100B48000F6F000E106F010E116F010E126FE50E80
:100B5800136FFE0E146F25EC21F00FC1FEF010C1CB
:100B6800FFF05C0E01010F6F000E106F020E116F87
:100B7800010E126F300E136FFF0E146F25EC21F06B
:100B88000FC1FEF010C1FFF05C0E01010F6F000EE7
:100B9800106F020E116F0C0E126F0001D5512F0F3E
:100BA8000101136F25EC22F00FC1FEF010C1FFF018
:100BB800030E0101186F8A0E176F550EE82EFED727
:100BC800172FFCD7182FFAD700D0000E0001B36FEB
:100BD800060ED96F010ED76F0C0ED86FD507320EDF
:100BE8000001B619D8A4FBEF05F0FDEF05F005EFFD
:100BF80006F0D551D8A403EF06F005EF06F066EF2E
:100C080004F0E30EF16F000EF26F71EC1CF0F1C00E
:100C1800FEF0F2C0FFF00001D651D8A416EF06F09E
:100C280018EF06F058EF06F05C0E01010F6F000E8A
:100C3800106F010E116F010E126F6B0E136FFE0E07
:100C4800146F25EC21F00FC1FEF010C1FFF05C0E0F
:100C580001010F6F000E106F020E116F010E126F5F
:100C6800F20E136FFE0E146F25EC21F00FC1FEF08B
:100C780010C1FFF0630E0001F96F000EFA6F25EC4A
:100C88001DF0F9C0FEF0FAC0FFF0330E0101186F35
:100C9800BB0E176FDF0EE82EFED7172FFCD7182FC5
:100CA800FAD700D02DEF15F0D551D8A45EEF06F095
:100CB80060EF06F018EF15F0000E476E5C0E0101AC
:100CC8000F6F000E106F010E116F010E126F6B0E79
:100CD800136FFE0E146F25EC21F00FC1FEF010C14A
:100CE800FFF05C0E01010F6F000E106F020E116F06
:100CF800010E126FF20E136FFE0E146F25EC21F029
:100D08000FC1FEF010C1FFF03EEF06F0040EB3195C
:100D1800D8A491EF06F093EF06F0A8EF06F05C0E6A
:100D280001010F6F000E106F010E116F010E126F8F
:100D3800D80E136FFE0E146F25EC21F00FC1FEF0D4
:100D480010C1FFF0D1EF06F0040EB419D8A4AFEF2C
:100D580006F0B1EF06F0D1EF06F05C0E0101046F6A
:100D6800000E056F010E066F7FEC1FF004C1FEF048
:100D780005C1FFF05C0E01010F6F000E106F010E30
:100D8800116F010E126FCB0E136FFE0E146F25EC50
:100D980021F00FC1FEF010C1FFF05C0E01010F6FD2
:100DA800000E106F020E116F010E126FA30E136F5B
:100DB800FF0E146F25EC21F00FC1FEF010C1FFF0FB
:100DC8005C0E01010F6F000E106F020E116F0B0EFB
:100DD800126FAB0E136FFF0E146F25EC21F00FC1CD
:100DE800FEF010C1FFF05C0E01010F6F000E106FD6
:100DF800030E116F010E126FB30E136FFF0E146FF7
:100E080025EC21F00FC1FEF010C1FFF0040E000127
:100E1800B319D8A412EF07F014EF07F034EF07F076
:100E28005C0E01010F6F000E106F030E116F0B0E99
:100E3800126FC30E136FFF0E146F25EC21F00FC154
:100E4800FEF010C1FFF0620E0001F96F000EFA6F9C
:100E580025EC1DF0F9C0FEF0FAC0FFF05BEF07F0DB
:100E6800040EB419D8A43BEF07F03DEF07F05BEF91
:100E780007F05C0E01010F6F000E106F030E116F6B
:100E88000B0E126FDB0E136FFF0E146F25EC21F0A3
:100E98000FC1FEF010C1FFF0500E0001F96F000EF7
:100EA800FA6F25EC1DF0F9C0FEF0FAC0FFF05C0EF9
:100EB80001010F6F000E106F040E116F010E126FFB
:100EC800F90E136FFD0E146F25EC21F00FC1FEF023
:100ED80010C1FFF0000E0001B66FDB0EFA6F000EB6
:100EE800FB6FB60EFC6F000EFD6FB3EC1AF0FAC084
:100EF800FEF0FBC0FFF00001B651D8B486EF07F052
:100F080088EF07F071EF07F0020E0101186F860EE7
:100F1800176F990EE82EFED7172FFCD7182FFAD780
:100F2800400E0001B619D8A49CEF07F09EEF07F019
:100F3800D1EF07F0DCEC23F0D1EF07F05C0E0101F4
:100F4800046F000E056F010E066F7FEC1FF004C1E1
:100F5800FEF005C1FFF05C0E01010F6F000E106F6F
:100F6800010E116F010E126FFF0E136FFE0E146F3C
:100F780025EC21F00FC1FEF010C1FFF0030E0101B6
:100F8800186F8A0E176F550EE82EFED7172FFCD74D
:100F9800182FFAD700D04FEF09F0310E0001B6191B
:100FA800D8B4D9EF07F0DBEF07F04FEF09F0320EB6
:100FB800B619D8B4E2EF07F0E4EF07F04FEF09F005
:100FC800330EB619D8B4EBEF07F0EDEF07F04FEF9B
:100FD80009F0340EB619D8B4F4EF07F0F6EF07F0BD
:100FE8004FEF09F0400EB619D8A4FDEF07F0FFEF58
:100FF80007F0A2EF07F04FEF09F05C0E0101046F54
:10100800000E056F010E066F7FEC1FF004C1FEF0A5
:1010180005C1FFF05C0E01010F6F000E106F010E8D
:10102800116F010E126F5B0E136FFF0E146F25EC1C
:1010380021F00FC1FEF010C1FFF04BEF08F05C0E7D
:101048000F6F000E106F010E116F090E126FF30E65
:10105800136FFF0E146F25EC21F00FC1FEF010C1C5
:10106800FFF062EF08F05C0E0F6F000E106F010EBC
:10107800116F090E126FF70E136FFF0E146F25EC28
:1010880021F00FC1FEF010C1FFF062EF08F000017F
:10109800B5510101176F186B1851000AD8B457EFF2
:1010A80008F062EF08F01751000AD8B437EF08F0DB
:1010B800010AD8B423EF08F062EF08F05C0E0101D2
:1010C8000F6F000E106F020E116F010E126F910E4E
:1010D800136FFF0E146F25EC21F00FC1FEF010C145
:1010E800FFF05C0E01010F6F000E106F030E116F01
:1010F800010E126F470E136FFF0E146F25EC21F0CF
:101108000FC1FEF010C1FFF05C0E01010F6F000E61
:10111800106F040E116F010E126FE80E136FFF0EA1
:10112800146F25EC21F00FC1FEF010C1FFF0000E86
:101138000001B66FDB0EFA6F000EFB6FB60EFC6F88
:10114800000EFD6FB3EC1AF0FAC0FEF0FBC0FFF022
:101158000001B651D8B4B3EF08F0B5EF08F09EEF30
:1011680008F0020E0101186F860E176F990EE82E0F
:10117800FED7172FFCD7182FFAD7DBEF08F0010E90
:101188008BEC23F0EEC0FEF0EFC0FFF0010E000183
:10119800B56FF2EF08F0050E8BEC23F0EEC0FEF011
:1011A800EFC0FFF0000E0001B56FF2EF08F000018C
:1011B800B6510101176F186B1851000AD8B4E7EF40
:1011C80008F0F2EF08F01751310AD8B4C3EF08F06D
:1011D800030AD8B4CFEF08F0F2EF08F0300E0001A0
:1011E800B619D8A4FAEF08F0FCEF08F00BEF09F0F5
:1011F8005C0E0101046F000E056F010E066F7FEC97
:101208001FF004C1FEF005C1FFF0B4EF0AF0310E83
:10121800B619D8B412EF09F014EF09F04AEF09F043
:10122800320EB619D8B41BEF09F01DEF09F04AEFDA
:1012380009F05C0E0101046F000E056F010E066FC8
:101248007FEC1FF004C1FEF005C1FFF05C0E010148
:101258000F6F000E106F010E116F010E126FFF0E4F
:10126800136FFE0E146F25EC21F00FC1FEF010C1B4
:10127800FFF0030E0101186F8A0E176F550EE82E46
:10128800FED7172FFCD7182FFAD700D0310E000140
:10129800B66FC2EF07F0310E0001B619D8B457EF98
:1012A80009F059EF09F001EF08F0B4EF0AF05C0E0D
:1012B8000101046F000E056F010E066F7FEC1FF031
:1012C80004C1FEF005C1FFF05C0E01010F6F000EB6
:1012D800106F010E116F010E126F640E136FFF0E67
:1012E800146F25EC21F00FC1FEF010C1FFF0A5EF3F
:1012F80009F05C0E0F6F000E106F010E116F090ED2
:10130800126FF30E136FFF0E146F25EC21F00FC14F
:10131800FEF010C1FFF0BCEF09F05C0E0F6F000E7D
:10132800106F010E116F090E126FF70E136FFF0E7B
:10133800146F25EC21F00FC1FEF010C1FFF0BCEFD7
:1013480009F00001B5510101176F186B1851000A17
:10135800D8B4B1EF09F0BCEF09F01751000AD8B4BE
:1013680091EF09F0010AD8B47DEF09F0BCEF09F05C
:101378005C0E01010F6F000E106F020E116F010E4F
:10138800126F910E136FFF0E146F25EC21F00FC131
:10139800FEF010C1FFF05C0E01010F6F000E106F20
:1013A800030E116F010E126F470E136FFF0E146FAD
:1013B80025EC21F00FC1FEF010C1FFF05C0E010119
:1013C8000F6F000E106F040E116F010E126FE80EF2
:1013D800136FFF0E146F25EC21F00FC1FEF010C142
:1013E800FFF0000E0001B66FDB0EFA6F000EFB6F08
:1013F800B60EFC6F000EFD6FB3EC1AF0FAC0FEF0EB
:10140800FBC0FFF00001B651D8B40DEF0AF00FEFA2
:101418000AF0F8EF09F0020E0101186F860E176F37
:10142800990EE82EFED7172FFCD7182FFAD735EFCD
:101438000AF0020E8BEC23F0EEC0FEF0EFC0FFF0D6
:10144800010E0001B56F4CEF0AF0060E8BEC23F08D
:10145800EEC0FEF0EFC0FFF0000E0001B56F4CEFDC
:101468000AF00001B6510101176F186B1851000AF4
:10147800D8B441EF0AF04CEF0AF01751310AD8B44A
:101488001DEF0AF0030AD8B429EF0AF04CEF0AF06E
:10149800300E0001B619D8A454EF0AF056EF0AF03E
:1014A80065EF0AF05C0E0101046F000E056F010E76
:1014B800066F7FEC1FF004C1FEF005C1FFF019EFC5
:1014C8000CF0310EB619D8B46CEF0AF06EEF0AF0D2
:1014D800A4EF0AF0320EB619D8B475EF0AF077EF18
:1014E8000AF0A4EF0AF05C0E0101046F000E056F0C
:1014F800010E066F7FEC1FF004C1FEF005C1FFF07E
:101508005C0E01010F6F000E106F010E116F010EBE
:10151800126FFF0E136FFE0E146F25EC21F00FC132
:10152800FEF010C1FFF0060E0101186F130E176FC1
:10153800AD0EE82EFED7172FFCD7182FFAD700D0FC
:10154800320E0001B66F030E0101186F8A0E176F75
:10155800550EE82EFED7172FFCD7182FFAD700D034
:10156800320E0001B619D8B4BCEF0AF0BEEF0AF08B
:101578005BEF09F019EF0CF05C0E0101046F000E2F
:10158800056F010E066F7FEC1FF004C1FEF005C168
:10159800FFF05C0E01010F6F000E106F010E116F4E
:1015A800010E126F6D0E136FFF0E146F25EC21F0F4
:1015B8000FC1FEF010C1FFF00AEF0BF05C0E0F6FC9
:1015C800000E106F010E116F090E126FF30E136FDC
:1015D800FF0E146F25EC21F00FC1FEF010C1FFF0D3
:1015E80021EF0BF05C0E0F6F000E106F010E116FE4
:1015F800090E126FF70E136FFF0E146F25EC21F012
:101608000FC1FEF010C1FFF021EF0BF00001B55142
:101618000101176F186B1851000AD8B416EF0BF0B8
:1016280021EF0BF01751000AD8B4F6EF0AF0010ABF
:10163800D8B4E2EF0AF021EF0BF05C0E01010F6F56
:10164800000E106F020E116F010E126F910E136FC4
:10165800FF0E146F25EC21F00FC1FEF010C1FFF052
:101668005C0E01010F6F000E106F030E116F010E5B
:10167800126F470E136FFF0E146F25EC21F00FC188
:10168800FEF010C1FFF05C0E01010F6F000E106F2D
:10169800040E116F010E126FE80E136FFF0E146F18
:1016A80025EC21F00FC1FEF010C1FFF0000E000183
:1016B800B66FDB0EFA6F000EFB6FB60EFC6F000EF6
:1016C800FD6FB3EC1AF0FAC0FEF0FBC0FFF00001AA
:1016D800B651D8B472EF0BF074EF0BF05DEF0BF06E
:1016E800020E0101186F860E176F990EE82EFED7AD
:1016F800172FFCD7182FFAD79AEF0BF0030E8BECA5
:1017080023F0EEC0FEF0EFC0FFF0010E0001B56F50
:10171800B1EF0BF0070E8BEC23F0EEC0FEF0EFC03C
:10172800FFF0000E0001B56FB1EF0BF00001B651EC
:101738000101176F186B1851000AD8B4A6EF0BF007
:10174800B1EF0BF01751310AD8B482EF0BF0030A4E
:10175800D8B48EEF0BF0B1EF0BF0300E0001B619D4
:10176800D8A4B9EF0BF0BBEF0BF0CAEF0BF05C0E8F
:101778000101046F000E056F010E066F7FEC1FF06C
:1017880004C1FEF005C1FFF023EF0CF0310EB619CD
:10179800D8B4D1EF0BF0D3EF0BF009EF0CF0320E09
:1017A800B619D8B4DAEF0BF0DCEF0BF009EF0CF058
:1017B8005C0E0101046F000E056F010E066F7FECD1
:1017C8001FF004C1FEF005C1FFF05C0E01010F6FB0
:1017D800000E106F010E116F010E126FFF0E136FC6
:1017E800FE0E146F25EC21F00FC1FEF010C1FFF0C2
:1017F800030E0101186F8A0E176F550EE82EFED7DB
:10180800172FFCD7182FFAD700D0330E0001B66F68
:10181800030E0101186F8A0E176F550EE82EFED7BA
:10182800172FFCD7182FFAD700D0330E0001B6199E
:10183800D8B421EF0CF023EF0CF0C0EF0AF0040E3F
:101848000001B319D8A42BEF0CF02DEF0CF094EF96
:101858000DF088EF0DF05C0E0101046F000E056FAE
:10186800010E066F7FEC1FF004C1FEF005C1FFF00A
:101878005C0E01010F6F000E106F010E116F010E4B
:10188800126F760E136FFF0E146F25EC21F00FC147
:10189800FEF010C1FFF079EF0CF05C0E0F6F000E38
:1018A800106F010E116F090E126FF30E136FFF0EFA
:1018B800146F25EC21F00FC1FEF010C1FFF090EF7E
:1018C8000CF05C0E0F6F000E106F010E116F090EF9
:1018D800126FF70E136FFF0E146F25EC21F00FC176
:1018E800FEF010C1FFF090EF0CF00001B5510101BE
:1018F800176F186B1851000AD8B485EF0CF090EFE9
:101908000CF01751000AD8B465EF0CF0010AD8B4EE
:1019180051EF0CF090EF0CF05C0E01010F6F000E10
:10192800106F020E116F010E126F910E136FFF0EE2
:10193800146F25EC21F00FC1FEF010C1FFF05C0E12
:1019480001010F6F000E106F030E116F010E126F61
:10195800470E136FFF0E146F25EC21F00FC1FEF038
:1019680010C1FFF05C0E01010F6F000E106F040E26
:10197800116F010E126FE80E136FFF0E146F25EC36
:1019880021F00FC1FEF010C1FFF0000E0001B66F8C
:10199800DB0EFA6F000EFB6FB60EFC6F000EFD6FCC
:1019A800B3EC1AF0FAC0FEF0FBC0FFF00001B6512C
:1019B800D8B4E1EF0CF0E3EF0CF0CCEF0CF0020E32
:1019C8000101186F860E176F990EE82EFED7172F94
:1019D800FCD7182FFAD709EF0DF0040E8BEC23F083
:1019E800EEC0FEF0EFC0FFF0010E0001B56F20EF72
:1019F8000DF0080E8BEC23F0EEC0FEF0EFC0FFF008
:101A0800000E0001B56F20EF0DF00001B651010185
:101A1800176F186B1851000AD8B415EF0DF020EFA6
:101A28000DF01751310AD8B4F1EF0CF0030AD8B40D
:101A3800FDEF0CF020EF0DF0300E0001B619D8A420
:101A480028EF0DF02AEF0DF039EF0DF05C0E0101D3
:101A5800046F000E056F010E066F7FEC1FF004C1C6
:101A6800FEF005C1FFF018EF15F0310EB619D8B425
:101A780040EF0DF042EF0DF078EF0DF0320EB61991
:101A8800D8B449EF0DF04BEF0DF078EF0DF05C0E88
:101A98000101046F000E056F010E066F7FEC1FF049
:101AA80004C1FEF005C1FFF05C0E01010F6F000ECE
:101AB800106F010E116F010E126FFF0E136FFE0EE5
:101AC800146F25EC21F00FC1FEF010C1FFF0030EDA
:101AD8000101186F8A0E176F550EE82EFED7172FC3
:101AE800FCD7182FFAD700D0340E0001B66F030EBA
:101AF8000101186F8A0E176F550EE82EFED7172FA3
:101B0800FCD7182FFAD700D0340E0001B619D8B474
:101B180090EF0DF092EF0DF02FEF0CF018EF15F09D
:101B2800040EB419D8A49BEF0DF09DEF0DF018EF3B
:101B380015F00EEF15F05C0E0101046F000E056F35
:101B4800010E066F7FEC1FF004C1FEF005C1FFF027
:101B58005C0E01010F6F000E106F010E116F010E68
:101B6800126FCB0E136FFE0E146F25EC21F00FC110
:101B7800FEF010C1FFF05C0E01010F6F000E106F38
:101B8800020E116F010E126FBB0E136FFF0E146F52
:101B980025EC21F00FC1FEF010C1FFF05C0E010131
:101BA8000F6F000E106F020E116F0B0E126FEE0EFC
:101BB800136FFF0E146F25EC21F00FC1FEF010C15A
:101BC800FFF05C0E01010F6F000E106F030E116F16
:101BD800010E126F3C0E136FFF0E146F25EC21F0EF
:101BE8000FC1FEF010C1FFF05C0E01010F6F000E77
:101BF800106F030E116F0B0E126FE80E136FFF0EAE
:101C0800146F25EC21F00FC1FEF010C1FFF0000E9B
:101C18000001B66FDB0EFA6F000EFB6FB60EFC6F9D
:101C2800000EFD6FB3EC1AF0FAC0FEF0FBC0FFF037
:101C38000001B651D8B423EF0EF025EF0EF00EEFE9
:101C48000EF0020E0101186F860E176F990EE82E1E
:101C5800FED7172FFCD7182FFAD78CEF0FF05C0E92
:101C68000101046F000E056F010E066F7FEC1FF077
:101C780004C1FEF005C1FFF05C0E01010F6F000EFC
:101C8800106F010E116F010E126F760E136FFF0E9B
:101C9800146F25EC21F00FC1FEF010C1FFF07DEFAD
:101CA8000EF05C0E0F6F000E106F010E116F090E13
:101CB800126FF30E136FFF0E146F25EC21F00FC196
:101CC800FEF010C1FFF094EF0EF05C0E0F6F000EE7
:101CD800106F010E116F090E126FF70E136FFF0EC2
:101CE800146F25EC21F00FC1FEF010C1FFF094EF46
:101CF8000EF00001B5510101176F186B1851000A59
:101D0800D8B489EF0EF094EF0EF01751000AD8B44A
:101D180069EF0EF0010AD8B455EF0EF094EF0EF00B
:101D28005C0E01010F6F000E106F020E116F010E95
:101D3800126F910E136FFF0E146F25EC21F00FC177
:101D4800FEF010C1FFF05C0E01010F6F000E106F66
:101D5800030E116F010E126F470E136FFF0E146FF3
:101D680025EC21F00FC1FEF010C1FFF05C0E01015F
:101D78000F6F000E106F040E116F010E126FE80E38
:101D8800136FFF0E146F25EC21F00FC1FEF010C188
:101D9800FFF0000E0001B66FDB0EFA6F000EFB6F4E
:101DA800B60EFC6F000EFD6FB3EC1AF0FAC0FEF031
:101DB800FBC0FFF00001B651D8B4E5EF0EF0E7EF35
:101DC8000EF0D0EF0EF0020E0101186F860E176F9D
:101DD800990EE82EFED7172FFCD7182FFAD70DEF3C
:101DE8000FF0040E8BEC23F0EEC0FEF0EFC0FFF016
:101DF800010E0001B56F24EF0FF0080E8BEC23F0F5
:101E0800EEC0FEF0EFC0FFF0000E0001B56F24EF4A
:101E18000FF00001B6510101176F186B1851000A35
:101E2800D8B419EF0FF024EF0FF01751310AD8B4D6
:101E3800F5EF0EF0030AD8B401EF0FF024EF0FF01E
:101E4800300E0001B619D8A42CEF0FF02EEF0FF0CA
:101E58003DEF0FF05C0E0101046F000E056F010EDF
:101E6800066F7FEC1FF004C1FEF005C1FFF0F1EF33
:101E780010F0310EB619D8B444EF0FF046EF0FF05A
:101E88007CEF0FF0320EB619D8B44DEF0FF04FEFCC
:101E98000FF07CEF0FF05C0E0101046F000E056F70
:101EA800010E066F7FEC1FF004C1FEF005C1FFF0C4
:101EB8005C0E01010F6F000E106F010E116F010E05
:101EC800126FFF0E136FFE0E146F25EC21F00FC179
:101ED800FEF010C1FFF0030E0101186F8A0E176F94
:101EE800550EE82EFED7172FFCD7182FFAD700D09B
:101EF800310E0001B66F030E0101186F8A0E176FBD
:101F0800550EE82EFED7172FFCD7182FFAD700D07A
:101F1800310E0001B619D8B494EF0FF096EF0FF018
:101F280033EF0EF0F1EF10F05C0E0101046F000EBC
:101F3800056F010E066F7FEC1FF004C1FEF005C1AE
:101F4800FFF05C0E01010F6F000E106F010E116F94
:101F5800010E126FE20E136FFF0E146F25EC21F0C5
:101F68000FC1FEF010C1FFF0E2EF0FF05C0E0F6F33
:101F7800000E106F010E116F090E126FF30E136F22
:101F8800FF0E146F25EC21F00FC1FEF010C1FFF019
:101F9800F9EF0FF05C0E0F6F000E106F010E116F4E
:101FA800090E126FF70E136FFF0E146F25EC21F058
:101FB8000FC1FEF010C1FFF0F9EF0FF00001B551AD
:101FC8000101176F186B1851000AD8B4EEEF0FF023
:101FD800F9EF0FF01751000AD8B4CEEF0FF0010A4D
:101FE800D8B4BAEF0FF0F9EF0FF05C0E01010F6FE4
:101FF800000E106F020E116F010E126FD30E136FC9
:10200800FF0E146F25EC21F00FC1FEF010C1FFF098
:102018005C0E01010F6F000E106F030E116F010EA1
:10202800126F7F0E136FFF0E146F25EC21F00FC196
:10203800FEF010C1FFF05C0E01010F6F000E106F73
:10204800040E116F010E126FE80E136FFF0E146F5E
:1020580025EC21F00FC1FEF010C1FFF0000E0001C9
:10206800B66FDB0EFA6F000EFB6FB60EFC6F000E3C
:10207800FD6FB3EC1AF0FAC0FEF0FBC0FFF00001F0
:10208800B651D8B44AEF10F04CEF10F035EF10F01D
:10209800020E0101186F860E176F990EE82EFED7F3
:1020A800172FFCD7182FFAD772EF10F0090E8BEC08
:1020B80023F0EEC0FEF0EFC0FFF0010E0001B56F97
:1020C80089EF10F0000E8BEC23F0EEC0FEF0EFC0AD
:1020D800FFF0000E0001B56F89EF10F00001B65156
:1020E8000101176F186B1851000AD8B47EEF10F071
:1020F80089EF10F01751310AD8B45AEF10F0030ADB
:10210800D8B466EF10F089EF10F0300E0001B61960
:10211800D8A491EF10F093EF10F0A2EF10F05C0E3E
:102128000101046F000E056F010E066F7FEC1FF0B2
:1021380004C1FEF005C1FFF0A0EF14F0310EB6198E
:10214800D8B4A9EF10F0ABEF10F0E1EF10F0320EB9
:10215800B619D8B4B2EF10F0B4EF10F0E1EF10F008
:102168005C0E0101046F000E056F010E066F7FEC17
:102178001FF004C1FEF005C1FFF05C0E01010F6FF6
:10218800000E106F010E116F010E126FFF0E136F0C
:10219800FE0E146F25EC21F00FC1FEF010C1FFF008
:1021A800030E0101186F8A0E176F550EE82EFED721
:1021B800172FFCD7182FFAD700D0320E0001B66FB0
:1021C800030E0101186F8A0E176F550EE82EFED701
:1021D800172FFCD7182FFAD700D0320E0001B619E6
:1021E800D8B4F9EF10F0FBEF10F098EF0FF0A0EF74
:1021F80014F05C0E0101046F000E056F010E066FEE
:102208007FEC1FF004C1FEF005C1FFF05C0E010178
:102218000F6F000E106F010E116F010E126F590E25
:10222800136FFE0E146F25EC21F00FC1FEF010C1E4
:10223800FFF05C0E01010F6F000E106F020E116FA0
:10224800010E126F510E136FFF0E146F25EC21F063
:102258000FC1FEF010C1FFF05C0E01010F6F000E00
:10226800106F030E116F010E126F7D0E136FFE0EAD
:10227800146F25EC21F00FC1FEF010C1FFF05C0EC9
:1022880001010F6F000E106F040E116F010E126F17
:10229800E80E136FFF0E146F25EC21F00FC1FEF04E
:1022A80010C1FFF0000E0001B66FDB0EFA6F000ED2
:1022B800FB6FB60EFC6F000EFD6FB3EC1AF0FAC0A0
:1022C800FEF0FBC0FFF00001B651D8B46EEF11F07C
:1022D80070EF11F059EF11F0020E0101186F860E20
:1022E800176F990EE82EFED7172FFCD7182FFAD79D
:1022F8005C0E0101046F000E056F010E066F7FEC86
:102308001FF004C1FEF005C1FFF00EEF13F05C0EE4
:102318000101046F000E056F010E066F7FEC1FF0C0
:1023280004C1FEF005C1FFF05C0E01010F6F000E45
:10233800106F010E116F010E126FBD0E136FFE0E9E
:10234800146F25EC21F00FC1FEF010C1FFF0D5EF9E
:1023580011F05C0E0F6F000E106F010E116F0E0E54
:10236800126FF30E136FFF0E146F25EC21F00FC1DF
:10237800FEF010C1FFF0ECEF11F05C0E0F6F000ED5
:10238800106F010E116F0E0E126FF70E136FFF0E06
:10239800146F25EC21F00FC1FEF010C1FFF0ECEF37
:1023A80011F00001B5510101176F186B1851000A9F
:1023B800D8B4E1EF11F0ECEF11F01751000AD8B4DE
:1023C800C1EF11F0010AD8B4ADEF11F0ECEF11F044
:1023D8005C0E01010F6F000E106F020E116F010EDF
:1023E800126FE40E136FFD0E146F25EC21F00FC170
:1023F800FEF010C1FFF05C0E01010F6F000E106FB0
:10240800030E116F010E126FB90E136FFD0E146FCC
:1024180025EC21F00FC1FEF010C1FFF05C0E0101A8
:102428000F6F000E106F040E116F010E126FE80E81
:10243800136FFF0E146F25EC21F00FC1FEF010C1D1
:10244800FFF0000E0001B66FDB0EFA6F000EFB6F97
:10245800B60EFC6F000EFD6FB3EC1AF0FAC0FEF07A
:10246800FBC0FFF00001B651D8B43DEF12F03FEFCA
:1024780012F028EF12F0020E0101186F860E176F86
:10248800990EE82EFED7172FFCD7182FFAD78FEF03
:1024980012F00A0E8BEC23F0EEC0FEF0EFC0FFF056
:1024A800030E0101186F8A0E176F550EE82EFED71E
:1024B800172FFCD7182FFAD700D00001B2518BEC98
:1024C80023F0EEC0FEF0EFC0FFF0030E0101186F1D
:1024D8008A0E176F550EE82EFED7172FFCD7182F28
:1024E800FAD700D0B50E0001EE6F000EEF6F7DEC4D
:1024F80023F0EEC0FEF0EFC0FFF0A6EF12F00B0ED7
:102508008BEC23F0EEC0FEF0EFC0FFF0000E0001F0
:10251800B56FA6EF12F00001B6510101176F186BE5
:102528001851000AD8B49BEF12F0A6EF12F0175119
:10253800310AD8B44DEF12F0030AD8B483EF12F081
:10254800A6EF12F0300E0001B619D8A4AEEF12F0C3
:10255800B0EF12F0BFEF12F05C0E0101046F000E35
:10256800056F010E066F7FEC1FF004C1FEF005C178
:10257800FFF018EF13F0310EB619D8B4C6EF12F009
:10258800C8EF12F0FEEF12F0320EB619D8B4CFEF42
:1025980012F0D1EF12F0FEEF12F05C0E0101046FA1
:1025A800000E056F010E066F7FEC1FF004C1FEF0F0
:1025B80005C1FFF05C0E01010F6F000E106F010ED8
:1025C800116F010E126FFF0E136FFE0E146F25ECC4
:1025D80021F00FC1FEF010C1FFF0030E0101186FCA
:1025E8008A0E176F550EE82EFED7172FFCD7182F17
:1025F800FAD700D0310E0001B66F030E0101186F33
:102608008A0E176F550EE82EFED7172FFCD7182FF6
:10261800FAD700D0310E0001B619D8B416EF13F06E
:1026280018EF13F08BEF11F0320E0001B619D8A491
:1026380020EF13F022EF13F030EF14F05C0E0101DD
:10264800046F000E056F010E066F7FEC1FF004C1CA
:10265800FEF005C1FFF05C0E01010F6F000E106F58
:10266800020E116F010E126F0D0E136FFE0E146F16
:1026780025EC21F00FC1FEF010C1FFF0000E0001A3
:10268800B66FDB0EFA6F000EFB6FB60EFC6F000E16
:10269800FD6FB3EC1AF0FAC0FEF0FBC0FFF00001CA
:1026A800B651D8B45AEF13F05CEF13F045EF13F0BE
:1026B800020E0101186F860E176F990EE82EFED7CD
:1026C800172FFCD7182FFAD75C0E0101046F000EE4
:1026D800056F100E066F7FEC1FF004C1FEF005C1F8
:1026E800FFF05C0E0101046F000E056F100E066FFF
:1026F8007FEC1FF004C1FEF005C1FFF05C0E010184
:10270800046F000E056FB6C006F13EEC1FF004C161
:10271800FEF005C1FFF00001B651D00F0A0DF3CF4E
:10272800B2F0000EB66FDB0EFA6F000EFB6FB60E3E
:10273800FC6F000EFD6FB3EC1AF0FAC0FEF0FBC0A0
:10274800FFF00001B651D8B4ACEF13F0AEEF13F0C0
:1027580097EF13F0020E0101186F860E176F990E8E
:10276800E82EFED7172FFCD7182FFAD75C0E0101D9
:10277800046F000E056FB6C006F13EEC1FF004C1F1
:10278800FEF005C1FFF00001B651D00FB227230EAD
:10279800B265D1EF13F0D3EF13F023EF14F0230E4B
:1027A800B26F5C0E0101046F000E056F100E066F0C
:1027B8007FEC1FF004C1FEF005C1FFF05C0E0101C3
:1027C800046F000E056F100E066F7FEC1FF004C13A
:1027D800FEF005C1FFF05C0E0101046F000E056FED
:1027E800B2C0EEF00001EF6B000EF16F0A0EF06F51
:1027F800B0EC1BF00001EE51300F0101066F3EEC0A
:102808001FF004C1FEF005C1FFF05C0E0101046F6A
:10281800000E056FB2C0EEF00001EF6B000EF16F15
:102828000A0EF06FCCEC1CF00001EE51300F0101E4
:10283800066F3EEC1FF004C1FEF005C1FFF0060E66
:102848000101186F130E176FAD0EE82EFED7172F64
:10285800FCD7182FFAD700D0330E0001B66F300E10
:10286800B619D8A43AEF14F03CEF14F04BEF14F07B
:102878005C0E0101046F000E056F010E066F7FEC00
:102888001FF004C1FEF005C1FFF0AAEF14F0310EED
:10289800B619D8B452EF14F054EF14F093EF14F0C3
:1028A800320EB619D8B45BEF14F05DEF14F093EF65
:1028B80014F0330EB619D8B464EF14F066EF14F0C0
:1028C80093EF14F05C0E0101046F000E056F010E0A
:1028D800066F7FEC1FF004C1FEF005C1FFF05C0E2F
:1028E80001010F6F000E106F010E116F010E126FB4
:1028F800FF0E136FFE0E146F25EC21F00FC1FEF0D2
:1029080010C1FFF0030E0101186F8A0E176F550EE4
:10291800E82EFED7172FFCD7182FFAD700D0030EB2
:102928000101186F8A0E176F550EE82EFED7172F64
:10293800FCD7182FFAD700D0330E0001B619D8B437
:10294800A8EF14F0AAEF14F0FDEF10F0300E00011C
:10295800B619D8A4B2EF14F0B4EF14F0B6EF14F02F
:102968002AEF0DF0310EB619D8B4BDEF14F0BFEF51
:1029780014F0FEEF14F0320EB619D8B4C6EF14F006
:10298800C8EF14F0FEEF14F0330EB619D8B4CFEF39
:1029980014F0D1EF14F0FEEF14F05C0E0101046F97
:1029A800000E056F010E066F7FEC1FF004C1FEF0EC
:1029B80005C1FFF05C0E01010F6F000E106F010ED4
:1029C800116F010E126FFF0E136FFE0E146F25ECC0
:1029D80021F00FC1FEF010C1FFF0030E0101186FC6
:1029E8008A0E176F550EE82EFED7172FFCD7182F13
:1029F800FAD700D0340E0001B66F030E0101186F2C
:102A08008A0E176F550EE82EFED7172FFCD7182FF2
:102A1800FAD700D0340E0001B619D8B416EF15F065
:102A280018EF15F09FEF0DF0040E0001B319D8B49C
:102A380020EF15F022EF15F08AEF06F0040EB41916
:102A4800D8B429EF15F02BEF15F08AEF06F00FEF49
:102A580006F007EF00F00600FACF29F0FBCF2AF0C6
:102A6800D9CF2BF0DACF2CF0F3CF2DF0F4CF2EF016
:102A7800F6CF2FF0F7CF30F0F8CF31F0F5CF32F0B6
:102A8800F2A849EF15F04BEF15F054EF15F0F2A24C
:102A980050EF15F052EF15F054EF15F0F9EC23F064
:102AA800F0A659EF15F05BEF15F064EF15F0F0A004
:102AB80060EF15F062EF15F064EF15F0F7EC23F016
:102AC800F0A869EF15F06BEF15F074EF15F0F0A2B0
:102AD80070EF15F072EF15F074EF15F0F5EC23F0C8
:102AE800F2A679EF15F07BEF15F096EF15F0F2A04E
:102AF80080EF15F082EF15F096EF15F081A887EFBB
:102B080015F089EF15F096EF15F05B04D8A48FEF58
:102B180015F091EF15F096EF15F0000E5B6E000EB4
:102B2800BFEC23F0F2A69BEF15F09DEF15F0B8EF80
:102B380015F0F2A0A2EF15F0A4EF15F0B8EF15F01C
:102B480081BAA9EF15F0ABEF15F0B8EF15F05B50AF
:102B5800D8A4B1EF15F0B3EF15F0B8EF15F0010EEA
:102B68005B6E010EBFEC23F0F2A6BDEF15F0BFEFD0
:102B780015F0DAEF15F0F2A0C4EF15F0C6EF15F076
:102B8800DAEF15F081AACBEF15F0CDEF15F0DAEFFB
:102B980015F05A04D8A4D3EF15F0D5EF15F0DAEFF5
:102BA80015F0000E5A6E000EB2EC23F0F2A6DFEF1D
:102BB80015F0E1EF15F0FCEF15F0F2A0E6EF15F0D7
:102BC800E8EF15F0FCEF15F081BAEDEF15F0EFEF37
:102BD80015F0FCEF15F05A50D8A4F5EF15F0F7EF03
:102BE80015F0FCEF15F0010E5A6E010EB2EC23F051
:102BF800F2A601EF16F003EF16F01EEF16F0F2A0A2
:102C080008EF16F00AEF16F01EEF16F081AC0FEF82
:102C180016F011EF16F01EEF16F05904D8A417EFAE
:102C280016F019EF16F01EEF16F0000E596E000E92
:102C3800A5EC23F0F2A623EF16F025EF16F040EFEF
:102C480016F0F2A02AEF16F02CEF16F040EF16F06F
:102C580081BC31EF16F033EF16F040EF16F0595003
:102C6800D8A439EF16F03BEF16F040EF16F0010E3E
:102C7800596E010EA5EC23F0F2A645EF16F047EFCA
:102C880016F062EF16F0F2A04CEF16F04EEF16F0C9
:102C980062EF16F081AE53EF16F055EF16F062EFC3
:102CA80016F05804D8A45BEF16F05DEF16F062EF4B
:102CB80016F0000E586E000E98EC23F0F2A667EF9F
:102CC80016F069EF16F084EF16F0F2A06EEF16F02A
:102CD80070EF16F084EF16F081BE75EF16F077EFFF
:102CE80016F084EF16F05850D8A47DEF16F07FEF59
:102CF80016F084EF16F0010E586E010E98EC23F0D2
:102D08009DAC89EF16F08BEF16F094EF16F09EACA1
:102D180090EF16F092EF16F094EF16F003EC24F013
:102D2800F2AA99EF16F09BEF16F0A4EF16F0F2A4B2
:102D3800A0EF16F0A2EF16F0A4EF16F0E8EC22F0E0
:102D48009DA0A9EF16F0ABEF16F0B4EF16F09EA019
:102D5800B0EF16F0B2EF16F0B4EF16F0E1EC23F096
:102D68009DA2B9EF16F0BBEF16F0C4EF16F09EA2C5
:102D7800C0EF16F0C2EF16F0C4EF16F0EBEC23F03C
:102D8800A0A2C9EF16F0CBEF16F0D4EF16F0A1A26F
:102D9800D0EF16F0D2EF16F0D4EF16F0D6EC23F001
:102DA8009DA4D9EF16F0DBEF16F0E4EF16F09EA421
:102DB800E0EF16F0E2EF16F0E4EF16F0FFEC23F088
:102DC800A0A0E9EF16F0EBEF16F0F4EF16F0A1A0D3
:102DD800F0EF16F0F2EF16F0F4EF16F0FDEC23F03A
:102DE8009DA4F9EF16F0FBEF16F004EF17F09EA480
:102DF80000EF17F002EF17F004EF17F0FBEC23F0E9
:102E08009DA809EF17F00BEF17F014EF17F09EA825
:102E180010EF17F012EF17F014EF17F0EFEC23F0A4
:102E28009DAA19EF17F01BEF17F024EF17F09EAAD1
:102E380020EF17F022EF17F024EF17F001EC24F041
:102E48009DA629EF17F02BEF17F034EF17F09EA689
:102E580030EF17F032EF17F034EF17F002EC24F0F0
:102E68009DA639EF17F03BEF17F044EF17F09EA639
:102E780040EF17F042EF17F044EF17F0F1EC23F0B2
:102E8800A0A649EF17F04BEF17F054EF17F0A1A6E3
:102E980050EF17F052EF17F054EF17F0F3EC23F060
:102EA80032C0F5FF31C0F8FF30C0F7FF2FC0F6FF82
:102EB8002EC0F4FF2DC0F3FF2CC0DAFF2BC0D9FFC2
:102EC8002AC0FBFF29C0FAFF6492110001010951D1
:102ED8000A11D8A472EF17F074EF17F07AEF17F011
:102EE800000E0E6F000E0D6F17EF18F0010E09257A
:102EF8000001F96F000E01010A210001FA6FC6EC0A
:102F080021F009C1F9F00AC1FAF0C6EC21F0000E6F
:102F180001010F6F0F5109250B6F000E0A210C6F6D
:102F2800020E0B250001F96F000E01010C210001B2
:102F3800FA6FC6EC21F0F9C00DF1FAC00EF10101EB
:102F48000F2B030E0F65ABEF17F0ADEF17F08EEFF9
:102F580017F01A0E01010B6FF80EE82EFED70B2F93
:102F6800FCD700F009C104F10AC105F1380E0101CE
:102F7800066F7FEC1FF0070E01010B6F7D0EE82E28
:102F8800FED70B2FFCD709C104F10AC105F1380E91
:102F98000101066F7FEC1FF0C30E01010B6FCD0E10
:102FA800E82EFED70B2FFCD709C104F10AC105F1A1
:102FB800380E0101066F7FEC1FF009C104F10AC148
:102FC80005F1010E0101066F7FEC1FF009C104F144
:102FD8000AC105F1020E0101066F7FEC1FF009C15D
:102FE80004F10AC105F1060E0101066F7FEC1FF01E
:102FF80009C104F10AC105F10C0E0101066F7FEC4D
:103008001FF009C104F10AC105F1280E0101066F7C
:103018007FEC1FF009C104F10AC105F1800E01011E
:10302800066F7FEC1FF00DC109F10EC10AF1120005
:10303800000E0001F76F010EF66FEE51EF11D8B4D4
:1030480028EF18F02AEF18F03BEF18F0EEC0D9FF80
:10305800EFC0DAFFDF30E832E832070BF06F070E17
:10306800F06539EF18F03BEF18F0A2EF18F0000EFA
:10307800F76F000EF66FC3EF18F0EEC0D9FFEFC080
:10308800DAFFDF30E832E832070BF06F010EF16F3C
:10309800F02B51EF18F0D890F137F02F4FEF18F0D0
:1030A8000001F151FF0AF26FEEC0D9FFEFC0DAFF5D
:1030B800DF50070BF36FF351020DCB0EF324D96EDB
:1030C800000EF420DA6EDECFF4F0DDCFF5F0F4C0B8
:1030D800D9FFF5C0DAFFF251DF16C3EF18F0EEC0E2
:1030E800D9FFEFC0DAFFDF30E832E832070BF06FC4
:1030F800010EF16FF02B83EF18F0D890F137F02F15
:1031080081EF18F0EEC0D9FFEFC0DAFFDF50070BF0
:103118000001F26FF251020DCB0EF324D96E000EAE
:10312800F420DA6EDECFF3F0DDCFF4F0F3C0D9FF90
:10313800F4C0DAFFF151DF12C3EF18F0EEC0D9FF87
:10314800EFC0DAFFDFBCABEF18F0AEEF18F0010EFE
:10315800AFEF18F0000EF06FF16BF151000AD8B420
:10316800B8EF18F03BEF18F0F051000AD8B441EF6F
:1031780018F0010AD8B473EF18F03BEF18F0F6C056
:10318800EEF0F7C0EFF01200000E0001F86F000E2D
:10319800F76FEE51EF11D8B4D4EF18F0D6EF18F05E
:1031A800E7EF18F0EEC0D9FFEFC0DAFFDF30E83202
:1031B800E832070BF16F070EF165E5EF18F0E7EF5E
:1031C80018F054EF19F0000EF86F010EF76F69EF61
:1031D80019F0EEC0D9FFEFC0DAFFDF30E832E8328D
:1031E800070BF16F010EF26FF12BFDEF18F0D8907D
:1031F800F237F12FFBEF18F00001F251FF0AF36FDD
:10320800EEC0D9FFEFC0DAFFDF50070BF46FF451BF
:10321800020DC10EF324D96E000EF420DA6EDECF53
:10322800F5F0DDCFF6F0F5C0D9FFF6C0DAFFF351BF
:10323800DF1669EF19F0EEC0D9FFEFC0DAFFDF3013
:10324800E832E832070BF16F010EF26FF12B2FEF26
:1032580019F0D890F237F12F2DEF19F0EEC0D9FF01
:10326800EFC0DAFFDF50070B0001F36FF351020DD7
:10327800C10EF324D96E000EF420DA6EDECFF4F01E
:10328800DDCFF5F0F4C0D9FFF5C0DAFFF251DF1257
:1032980069EF19F0000EF86F000EF76F69EF19F07B
:1032A800F051F16FF26BF251000AD8B45EEF19F0E9
:1032B8004EEF19F0F151000AD8B4EDEF18F0010AF9
:1032C800D8B41FEF19F04EEF19F0F7C0EEF0F8C0C0
:1032D800EFF01200000E0B6E000E0A6E0150021085
:1032E800D8B479EF19F07BEF19F08CEF19F001C021
:1032F800D9FF02C0DAFFDF30E832E832070B046E8C
:10330800070E04648AEF19F08CEF19F0F7EF19F043
:10331800000E0B6E010E0A6E0CEF1AF001C0D9FFF9
:1033280002C0DAFFDF30E832E832070B046E010E24
:10333800056E042AA2EF19F0D8900536042EA0EFE6
:1033480019F00550FF0A066E01C0D9FF02C0DAFF66
:10335800DF50070B076E0750020DC10EF324D96E1C
:10336800000EF420DA6EDECF08F0DDCF09F008C0D9
:10337800D9FF09C0DAFF0650DF160CEF1AF001C0BA
:10338800D9FF02C0DAFFDF30E832E832070B046EFB
:10339800010E056E042AD3EF19F0D8900536042ED5
:1033A800D1EF19F001C0D9FF02C0DAFFDF50070BD7
:1033B800066E0650020DC10EF324D96E000EF420DD
:1033C800DA6EDECF07F0DDCF08F007C0D9FF08C0FE
:1033D800DAFF0550DF120CEF1AF0000E0B6E000E2C
:1033E8000A6E0CEF1AF00350046E056A0550000AC5
:1033F800D8B401EF1AF0F1EF19F00450000AD8B46C
:1034080092EF19F0010AD8B4C3EF19F0F1EF19F0EF
:103418000AC001F00BC002F012000001FB51FC11C0
:10342800D8A419EF1AF01BEF1AF01DEF1AF0B2EF3B
:103438001AF0C69AFBC0D9FFFCC0DAFFDF50FD6F57
:10344800C650FD19F00BFD19C66EFBC0D9FFFCC0B4
:10345800DAFFDF50D8B433EF1AF035EF1AF05BEF2C
:103468001AF0FBC0D9FFFCC0DAFFDE04D8B43FEF86
:103478001AF041EF1AF05BEF1AF0FBC0D9FFFCC05D
:10348800DAFF020EDE18D8B44CEF1AF04EEF1AF03D
:103498005BEF1AF0FBC0D9FFFCC0DAFF030EDE18A1
:1034A800D8A459EF1AF05BEF1AF05FEF1AF005ECA9
:1034B80023F07FEF1AF0FBC0D9FFFCC0DAFF040E3F
:1034C800DE18D8B46AEF1AF06CEF1AF079EF1AF038
:1034D800FBC0D9FFFCC0DAFF050EDE18D8A477EFD1
:1034E8001AF079EF1AF07FEF1AF0FBC0F8F0FCC081
:1034F800F9F0B5EC20F0000120EE01F0FB51D926DF
:10350800FC51DA22DF50030BFD6FFD3BC650FD195D
:10351800EF0BFD19C66E20EE01F0FB51D926FC51C8
:10352800DA22DF38030BFD6FFD3BFD47FD47C7502F
:10353800FD19BF0BFD19C76E20EE01F0FB51D9260E
:10354800FC51DA22DF30E832030BFD6FFD33FD3327
:10355800C750FD197F0BFD19C76EC68A12000001FE
:10356800FA51FB11D8A4BBEF1AF0BDEF1AF0C4EF63
:103578001AF0000E0101036F000E026F44EF1BF0FA
:10358800000E0101046F000E056F000E056F000E9E
:10359800066F06510001FA25EE6F0101000E0001C9
:1035A800FB21EF6F000EF06FC8EC18F00101062B3D
:1035B800030E0665E2EF1AF0E4EF1AF0CDEF1AF009
:1035C80005510001FA25EE6F0101000E0001FB21F3
:1035D800EF6F010EF06FC8EC18F0000E0101066FD6
:1035E80006510001FA250101006F000E0001FB21C0
:1035F8000101016F040E00250001EE6F000E0101AC
:1036080001210001EF6F040EF06F010EF16F49EC1C
:103618001BF001010451D8B414EF1BF016EF1BF096
:103628002EEF1BF00551040DA90EF324006FFD0EBB
:10363800F420016F06510027000E012300C1F6FF98
:1036480001C1F7FFF86AFCC0D9FFFDC0DAFF080026
:10365800F5CFDFFF062B030E066535EF1BF037EFBE
:103668001BF0F4EF1AF0052B030E05653EEF1BF077
:1036780040EF1BF0CBEF1AF0000E036F010E026F44
:1036880002C1FAF003C1FBF01200000E0001F96F4D
:10369800010EF86FEE51EF11D8B455EF1BF057EF4C
:1036A8001BF071EF1BF0F051F111D8B45EEF1BF075
:1036B80060EF1BF071EF1BF0EEC0D9FFEFC0DAFF2F
:1036C800DF30E832E832070BF26F070EF2656FEF72
:1036D8001BF071EF1BF077EF1BF0000EF96F000E77
:1036E800F86FABEF1BF0EEC0D9FFEFC0DAFFDF5089
:1036F800070BF26FF251020DB70EF324D96E000ECC
:10370800F420DA6EDECFF3F0DDCFF4F0F3C0D9FFAA
:10371800F4C0DAFFDF50F56FEEC0D9FFEFC0DAFF73
:10372800DF30E832E832070BF66F010EF76FF62B41
:10373800A0EF1BF0D890F737F62F9EEF1BF0000193
:10374800F751F515F0C0D9FFF1C0DAFFDF6EF8C008
:10375800EEF0F9C0EFF01200000E0001F36FF1BFB8
:10376800BAEF1BF0B8EF1BF0C0EF1BF0F06DF11FC4
:10377800D8B0F12B010EF36FEFBFC7EF1BF0C5EF09
:103788001BF0CDEF1BF0EE6DEF1FD8B0EF2B010E45
:10379800F31B000EF56F000EF46FF051F111D8B461
:1037A800D8EF1BF0DAEF1BF002EF1CF0010EF26FFE
:1037B800E2EF1BF0D890F037F137F22BF1AFE7EFDB
:1037C8001BF0E9EF1BF0DEEF1BF0D890F437F5376C
:1037D800F051EE5DF151EF59D8A0F5EF1BF0F7EF7E
:1037E8001BF0FCEF1BF0F051EE5FF151EF5BF48141
:1037F800D890F133F033F22FE9EF1BF0F351D8B43E
:1038080008EF1CF00AEF1CF00EEF1CF0F46DF51F2A
:10381800D8B0F52BF4C0EEF0F5C0EFF012000001BF
:1038280020EE05F0EE51D926EF51DA22DFB41FEF72
:103838001CF021EF1CF044EF1CF0D59A20EE05F0A7
:10384800EE51D926EF51DA22DFA22DEF1CF02FEF2F
:103858001CF032EF1CF0D58870EF1CF020EE05F05C
:10386800EE51D926EF51DA22DFB23DEF1CF03FEFDF
:103878001CF042EF1CF0D59870EF1CF070EF1CF0B4
:1038880020EE05F0EE51D926EF51DA22DFA44FEFF2
:103898001CF051EF1CF070EF1CF0D58A20EE05F0FB
:1038A800EE51D926EF51DA22DFA25DEF1CF05FEF6F
:1038B8001CF062EF1CF0D58870EF1CF020EE05F0CC
:1038C800EE51D926EF51DA22DFB26DEF1CF06FEF1F
:1038D8001CF042EF1CF0D5981200000E0001F66FA4
:1038E800010EF56FF151F211D8A47DEF1CF07FEFB6
:1038F8001CF085EF1CF0000EF66F000EF56FC7EF99
:103908001CF0D59EF1C0EEF0F2C0EFF0F8EC21F01B
:10391800F1C0EEF0F2C0EFF013EC1CF0F1C0EEF0E5
:10392800F2C0EFF0C8EC22F0000120EE03F0F151F4
:10393800D926F251DA22DECFF3F0DDCFF4F0F4C06D
:10394800F3F0F46BF351D76E20EE03F0F151D92662
:10395800F251DA22DF50D66E20EE03F0F151D9266B
:10396800F251DA22DECF39F0DDCF3AF0F28AF29462
:10397800F1C0D9FFF2C0DAFFDECF3BF0DDCF3CF07B
:10398800F28EF28CD58EF5C0F1F0F6C0F2F012008E
:10399800000E0001F36FEFBFD6EF1CF0D4EF1CF060
:1039A800DCEF1CF0EE6DEF1FD8B0EF2B010EF36FBC
:1039B800F1BFE3EF1CF0E1EF1CF0E7EF1CF0F06D56
:1039C800F11FD8B0F12BF051F111D8B4EEEF1CF083
:1039D800F0EF1CF014EF1DF0010EF26FF8EF1CF081
:1039E800D890F037F137F22BF1AFFDEF1CF0FFEF75
:1039F8001CF0F4EF1CF0F051EE5DF151EF59D8A036
:103A080008EF1DF00AEF1DF00EEF1DF0F051EE5F0C
:103A1800F151EF5BD890F133F033F22FFFEF1CF048
:103A2800F351D8B41AEF1DF01CEF1DF020EF1DF074
:103A3800EE6DEF1FD8B0EF2BEEC0EEF0EFC0EFF059
:103A480012000001F951FA11D8A42DEF1DF02FEF43
:103A58001DF036EF1DF0000E0101016F000E006F22
:103A680076EF1DF04EC002F1F9C0D9FFFAC0DAFFB7
:103A7800DF50070BFB6F010102510001FB19F80B26
:103A8800FB190101026FF9C0D9FFFAC0DAFFDF3074
:103A9800E832E832070B0001FB6FFB47FB47FB47A7
:103AA800010102510001FB19C70BFB190101026F4B
:103AB800029DF9C0D9FFFAC0DAFF0001DFAC03D0DC
:103AC8000101028F02D00101029F020E0001EE6F78
:103AD800010EEF6F010EF06FC8EC18F0EEC000F1A8
:103AE800EFC001F100C1F9F001C1FAF012000101C3
:103AF80000510111D8A483EF1DF085EF1DF08BEF65
:103B08001DF0000E036F000E026FC8EF1DF04FC0CE
:103B180004F100C1D9FF01C1DAFFDF50070B000132
:103B2800FD6F010104510001FD19F80BFD19010198
:103B3800046F00C1D9FF01C1DAFFDF30E832E83293
:103B4800070B0001FD6FFD47FD47FD4701010451CB
:103B58000001FD19C70BFD190101046F049D00C187
:103B6800D9FF01C1DAFFDFAC02D0048F02D0010116
:103B7800049F040E0001F96F010EFA6FC6EC21F0E4
:103B8800F9C002F1FAC003F102C100F103C101F169
:103B9800120001010C07FDEF1DF009C104F10AC173
:103BA80005F10C51800F066F7FEC1FF01AEF1EF025
:103BB80009C104F10AC105F10C51C00F066F7FEC71
:103BC8001FF01AEF1EF009C104F10AC105F10C51EA
:103BD800940F066F7FEC1FF01AEF1EF009C104F175
:103BE8000AC105F10C51D40F066F7FEC1FF01AEFD4
:103BF8001EF00B510D6F0E6B0E51000AD8B407EF73
:103C08001EF01AEF1EF00D51010AD8B4D1EF1DF0C5
:103C1800030AD8B4DCEF1DF0010AD8B4E7EF1DF0B1
:103C2800070AD8B4F2EF1DF01AEF1EF012001C06B6
:103C38004AEF1EF019C014F01AC015F01C50800F7E
:103C4800166E00EC20F067EF1EF019C014F01AC0D1
:103C580015F01C50C00F166E00EC20F067EF1EF038
:103C680019C014F01AC015F01C50940F166E00EC11
:103C780020F067EF1EF019C014F01AC015F01C50A0
:103C8800D40F166E00EC20F067EF1EF01B501D6E6F
:103C98001E6A1E50000AD8B454EF1EF067EF1EF0DB
:103CA8001D50010AD8B41EEF1EF0030AD8B429EF3C
:103CB8001EF0010AD8B434EF1EF0070AD8B43FEF5B
:103CC8001EF067EF1EF01200010100510111D8A487
:103CD80070EF1EF072EF1EF078EF1EF0000E056F09
:103CE800000E046FAFEF1EF0000E066F000E066F99
:103CF800065100250001F96F0101000E01210001A4
:103D0800FA6FC6EC21F0F9C004F1FAC005F101011F
:103D180006510025026F000E0121036F040E0225D3
:103D28000001F96F000E010103210001FA6FC6ECD2
:103D380021F0F9C004F1FAC005F10101062B030EC8
:103D48000665A9EF1EF0ABEF1EF07CEF1EF0000E2B
:103D5800056F010E046F04C100F105C101F11200E5
:103D6800000E01010E6F010E0D6F09510A11D8B432
:103D7800C0EF1EF0C2EF1EF0CBEF1EF00B510C117E
:103D8800D8A4C9EF1EF0CBEF1EF0E6EF1EF0000E30
:103D98000E6F000E0D6FF5EF1EF009C104F10AC198
:103DA80005F10BC1F6FF0CC1F7FFF86A0800F5CF63
:103DB80006F13EEC1FF004C10DF105C10EF1010141
:103DC8000B4B0C2B0BC1F6FF0CC1F7FFF86A080070
:103DD800F5500009D8A4F3EF1EF0F5EF1EF0D1EF6F
:103DE8001EF00DC109F10EC10AF11200000E1E6E7F
:103DF800010E1D6E19501A10D8B405EF1FF007EF09
:103E08001FF010EF1FF01B501C10D8A40EEF1FF06E
:103E180010EF1FF02AEF1FF0000E1E6E000E1D6E31
:103E280039EF1FF019C014F01AC015F01BC0F6FFC7
:103E38001CC0F7FFF86A0800F5CF16F03DEC20F03B
:103E480014C01DF015C01EF01B4A1C2A1BC0F6FF2B
:103E58001CC0F7FFF86A0800F5500009D8A437EF2E
:103E68001FF039EF1FF016EF1FF01DC019F01EC02C
:103E78001AF01200010104510511D8A446EF1FF0F1
:103E880048EF1FF04EEF1FF0000E086F000E076F8F
:103E98007AEF1FF004C1EEF005C1EFF0010E00014A
:103EA800F06FC8EC18F0EEC007F1EFC008F104C1DC
:103EB800F9F005C1FAF0010106390F0B0001FB6F9B
:103EC8005BEC21F004C1F9F005C1FAF03DEC23F0F8
:103ED80004C1F9F005C1FAF006C1FBF05BEC21F072
:103EE80004C1F9F005C1FAF03DEC23F007C104F173
:103EF80008C105F11200010104510511D8A487EF8A
:103F08001FF089EF1FF08FEF1FF0000E086F000EF3
:103F1800076FBBEF1FF004C1EEF005C1EFF0000E14
:103F28000001F06FC8EC18F0EEC007F1EFC008F11F
:103F380004C1F9F005C1FAF0010106390F0B0001BF
:103F4800FB6F5BEC21F004C1F9F005C1FAF03DEC20
:103F580023F004C1F9F005C1FAF006C1FBF05BECEF
:103F680021F004C1F9F005C1FAF03DEC23F007C1D6
:103F780004F108C105F11200472A020E4718D8A417
:103F8800C8EF1FF0CAEF1FF0FFEF1FF0040E00018B
:103F9800B319D8A4D2EF1FF0D4EF1FF0FFEF1FF032
:103FA8005C0E146E000E156E010E166E00EC20F0FD
:103FB80014C0FEF015C0FFF05C0E1F6E000E206EE0
:103FC800020E216E010E226E9F0E236EFE0E246ECF
:103FD80091EC21F01FC0FEF020C0FFF0060E286E05
:103FE800130E276EAE0EE82EFED7272EFCD7282EEE
:103FF800FAD7E6EC23F0120014501510D8A407EFF6
:1040080020F009EF20F00FEF20F0000E186E000EE0
:10401800176E38EF20F014C001F015C002F0000E42
:10402800036E6EEC19F001C017F002C018F014C04E
:104038000CF015C00DF016380F0B0E6E50EC22F078
:1040480014C00CF015C00DF057EC23F014C00CF0A0
:1040580015C00DF016C00EF050EC22F014C00CF094
:1040680015C00DF057EC23F017C014F018C015F068
:10407800120014501510D8A444EF20F046EF20F099
:104088004CEF20F0000E186E000E176E75EF20F042
:1040980014C001F015C002F0010E036E6EEC19F0A9
:1040A80001C017F002C018F014C00CF015C00DF0D4
:1040B80016380F0B0E6E50EC22F014C00CF015C021
:1040C8000DF057EC23F014C00CF015C00DF016C01D
:1040D8000EF050EC22F014C00CF015C00DF057ECA7
:1040E80023F017C014F018C015F01200000E0001DC
:1040F800F36F010EF26F040EEF5DD8A086EF20F08B
:1041080088EF20F08EEF20F0000EF36F000EF26FB4
:10411800B0EF20F0000EF2BE010EF16FEF51030B6D
:10412800AA6EEEC0A9FFF0C0A8FFA69EA69CA68412
:10413800F29E550EA76EAA0EA76EA682A6B2A7EF8C
:1041480020F0A9EF20F0A2EF20F0A6940001F1B131
:1041580002D0F29E01D0F28EF2C0EEF0F3C0EFF082
:10416800120054C000F153C001F152C003F151C014
:1041780002F1000E0001EE6F010EEF6F1CEC18F05B
:10418800010E0001EE6F010EEF6F1CEC18F0030E2C
:104198000001EE6F010EEF6F1CEC18F0030E00012A
:1041A800EE6F010EEF6F1CEC18F0F8C0D9FFF9C0E4
:1041B800DAFF040EDE18D8A4E4EF20F0E6EF20F0D2
:1041C800EDEF20F0020E0001EE6F010EEF6F1CEC18
:1041D80018F01200420EF66E460EF76E000EF86EDC
:1041E80000EEB7F010EE37F00900F5CFEEFFE5501E
:1041F800E150FAE1980EF66E470EF76E000EF86E73
:1042080000EE51F010EE13F00900F5CFEEFFE55087
:10421800E150FAE101EE19F00B0EEE6AE806FDE155
:1042280000EE80F0370EEE6AE806FDE100EE33F0AE
:104238001E0EEE6AE806FDE164906492000109EF43
:1042480000F001010F511011D8B42DEF21F02FEF1C
:1042580021F038EF21F013511411D8A436EF21F0D2
:1042680038EF21F03EEF21F0000E166F000E156FAB
:1042780056EF21F00FC109F110C10AF111C10BF17C
:1042880012C10CF1CDEC1DF00FC109F110C10AF1FA
:1042980013C10BF114C10CF1B4EC1EF009C115F1F6
:1042A8000AC116F115C10FF116C110F11200000E66
:1042B8000001FC6F000EFC6FFC51F9250101006F35
:1042C800000E0001FA210101016F020E0025000114
:1042D800EE6F000E010101210001EF6FFCC002F139
:1042E800FBC003F10101022B7CEF21F0D8900333CE
:1042F800022F7AEF21F001010351010B0001F06F49
:10430800C8EC18F00001FC2B030EFC658EEF21F0C1
:1043180090EF21F060EF21F012001F502010D8B468
:1043280098EF21F09AEF21F0A3EF21F02350241009
:10433800D8A4A1EF21F0A3EF21F0A9EF21F0000EFE
:10434800266E000E256EC1EF21F01FC019F020C0A7
:104358001AF021C01BF022C01CF01BEC1EF01FC07D
:1043680019F020C01AF023C01BF024C01CF0FAEC8E
:104378001EF019C025F01AC026F025C01FF026C06F
:1043880020F012000001F951FA11D8A4CEEF21F063
:10439800D0EF21F0D6EF21F0000EFC6F000EFB6F7E
:1043A800F3EF21F0F9C0EEF0FAC0EFF01CEC18F0D2
:1043B800EEC0FBF0EFC0FCF0F9C0EEF0FAC0EFF091
:1043C800F9C0D9FFFAC0DAFF0001000EDFBE010E06
:1043D800F06FC8EC18F0EEC0FBF0EFC0FCF0FBC0CB
:1043E800F9F0FCC0FAF01200000120EE05F0EE51E1
:1043F800D926EF51DA22DFB004EF22F006EF22F0DF
:1044080016EF22F0D59620EE02F0EE51D926EF51A4
:10441800DA22DF50F06FD550F019F80BF019D56E8D
:1044280024EF22F020EE05F0EE51D926EF51DA22E2
:10443800DFA021EF22F023EF22F024EF22F0D5862F
:104448001200000E0101156F010E146F0F511011AB
:10445800D8A431EF22F033EF22F039EF22F0000E2A
:10446800156F000E146F4BEF22F00FC109F110C148
:104478000AF111C10BF112C10CF1CDEC1DF00FC105
:1044880004F110C105F113C106F13EEC1FF014C18F
:104498000FF115C110F11200000E136E000E136E0D
:1044A80013500C240F6E000E0D20106E020E0F24F8
:1044B800016E000E1020026E13C011F00EC012F033
:1044C800112A69EF22F0D8901232112E67EF22F0EC
:1044D8001250010B036E6EEC19F0132A030E1364CD
:1044E80078EF22F07AEF22F054EF22F01200000E5B
:1044F8000001F36F010EF26FF051F111D8A487EFAC
:1045080022F089EF22F08FEF22F0000EF36F000EF9
:10451800F26F9FEF22F0EF51030BAA6EEEC0A9FFD6
:10452800A69EA69CA68000F000F0F0C0D9FFF1C0BE
:10453800DAFFA8CFDFFFF2C0EEF0F3C0EFF0120011
:10454800630E0101006F000E016F7BEC1DF0620E1F
:104558000101006F000E016F7BEC1DF0500E010190
:10456800006F000E016F7BEC1DF05C0E0101096FFE
:10457800000E0A6F6AEC17F0DB0E0101006F000EE7
:10458800016F68EC1EF01200000120EE05F0EE51FC
:10459800D926EF51DA22DFB6D4EF22F0D6EF22F097
:1045A800D9EF22F0D58CE7EF22F020EE05F0EE519E
:1045B800D926EF51DA22DFA6E4EF22F0E6EF22F067
:1045C800E7EF22F0D59C1200F2943A50D76E39C02A
:1045D800D6FF3B503C10D8A4F4EF22F0F6EF22F0BF
:1045E800F8EF22F004EF23F002D804EF23F00500DF
:1045F800FA6E3B50FD6E3C50FE6EFF6AFA50120098
:10460800120057C0F8F056C0F9F055C0FAF0F80E8D
:104618000001EE6F000EEF6F1CEC18F0F90E0001B0
:10462800EE6F000EEF6F1CEC18F0FA0E0001EE6F43
:10463800000EEF6F1CEC18F01200800F810F820F34
:10464800830F840F890F8A0F8B0F8C0F8D0F920F9A
:10465800930F940F950F960F0303010C0602030B9B
:10466800131B636B737B803F066A67080011FFFFAB
:01467800FF42
:10467A00010E0001F925EE6F000EFA21EF6F010E0F
:10468A00F06FC8EC18F000D000D000F0010E000165
:10469A00F925EE6F000EFA21EF6F000EF06FC8ECED
:1046AA0018F01200010E0C24016E000E0D20026E8D
:1046BA00010E036E6EEC19F000D000D000F0010E6E
:1046CA000C24016E000E0D20026E000E036E6EECBD
:1046DA0019F01200A4EC22F0E90E0001FB6F000EA3
:1046EA00FC6F11EC1AF0FBC0FEF0FCC0FFF01200E8
:1046FA00C7A082EF23F084EF23F07DEF23F0EEC012
:10470A00D9FFEFC0DAFFC9CFDFFF12000001F06F57
:10471A00F0C0C9FF9EA694EF23F096EF23F08FEF27
:10472A0023F09E961200016EF2900150D8A4A0EFD9
:10473A0023F0A2EF23F0A4EF23F0A4EF23F012005A
:10474A00016EF2900150D8A4ADEF23F0AFEF23F041
:10475A00B1EF23F0B1EF23F01200016EF290015095
:10476A00D8A4BAEF23F0BCEF23F0BEEF23F0BEEFDC
:10477A0023F01200016EF2900150D8A4C7EF23F083
:10478A00C9EF23F0CBEF23F0CBEF23F01200685AE6
:10479A00622A1A622A01010101020A1218323A082F
:0147AA0010FE
:1047AC00A1923450B36E33C0B2FF1200D18004001A
:1047BC00DEEF23F012003850CF6E37C0CEFF120060
:1047CC00D1800400E8EF23F012009E9235C0CCFF9C
:1047DC0012009D9812009E961200A1961200F09263
:1047EC001200F0901200F29212009E941200A1900E
:0C47FC0012009E94120012001200120025
:10FDA800003738392F3435362A3132332D40303D3B
:10FDB8002B323A61697220636F6E646974696F6E81
:10FDC8006572206F666600546F20536D61727420EF
:10FDD800486F6D652053797374656D00313A6169B8
:10FDE8007220636F6E646974696F6E6572206F6EDE
:10FDF800005072657373274F4E2F4327746F20721C
:10FE080065736574005365742054656D706572611F
:10FE1800747572653A2D2D00737563636573736627
:10FE2800756C6C7920616464656400536574204165
:10FE3800646D696E2050617373776F7264005365E7
:10FE4800742047756573742050617373776F72649B
:10FE58000061697220636F6E646974696F6E6572A0
:10FE68003A2D006C6F6164696E6720626C6F636B1A
:10FE780065642E2E00323A5365742054656D7065A2
:10FE88007261747572650053756363657373204C92
:10FE98006F67696E2E2E0073657373696F6E2074B9
:10FEA800696D656F75740053656C656374204D6F7B
:10FEB8006465203A0061697220636F6E643A2D2090
:10FEC800533A0041646D696E204D6F64653A2D00A8
:10FED8004775657374204D6F64653A2D0057726FCE
:10FEE8006E6720696E7075742E00776169742020C2
:10FEF8003130207365630057726F6E672063686FD7
:10FF08006963650041646D696E20506173733A00DE
:10FF1800477565737420506173733A00577269743A
:10FF28006520706173733A005472696573206C655B
:10FF380066743A00333A41697220636F6E2E00325C
:10FF48003A6C6564206F666600313A436F6E74726E
:10FF58006F6C00526F6F6D3120533A00526F6F6DA6
:10FF68003220533A00526F6F6D3320533A00526F6C
:10FF78006F6D3420533A00323A5456206F6666004B
:10FF8800313A2041646D696E00313A6C6564206FC6
:10FF98006E00323A20477565737400313A526F6FBC
:10FFA8006D3100323A526F6F6D3200333A526F6FD3
:10FFB8006D3300313A526F6F6D3400343A526F6FBF
:10FFC8006D340057656C636F6D6500313A54562087
:10FFD8006F6E00343A4D6F726500545620533A00E4
:10FFE800303A52657400323A5456004F4E20004F52
:07FFF80046460025690000E8
:020000040020DA
:08000000FFFFFFFFFFFFFFFF00
:020000040030CA
:0E000000FF020910FF8381FF0FC00FE00F40C9
:00000001FF
