:0400000007EF00F016
:0A0008007D820BED08F054EF0EF0BE
:10100000003738392F3435362A3132332D40303DD0
:051010002B2569000022
:101016000600F2A811EF08F013EF08F01CEF08F035
:10102600F2A218EF08F01AEF08F01CEF08F05BECDC
:101036000FF0F0A621EF08F023EF08F02CEF08F0F0
:10104600F0A028EF08F02AEF08F02CEF08F059EC92
:101056000FF0F0A831EF08F033EF08F03CEF08F09E
:10106600F0A238EF08F03AEF08F03CEF08F057EC42
:101076000FF0F2A641EF08F043EF08F05EEF08F03C
:10108600F2A048EF08F04AEF08F05EEF08F081A8FA
:101096004FEF08F051EF08F05EEF08F05B04D8A4BC
:1010A60057EF08F059EF08F05EEF08F0000E5B6EA0
:1010B600000E23EC0FF0F2A663EF08F065EF08F0E0
:1010C60080EF08F0F2A06AEF08F06CEF08F080EF0E
:1010D60008F081BA71EF08F073EF08F080EF08F0BE
:1010E6005B50D8A479EF08F07BEF08F080EF08F0AA
:1010F600010E5B6E010E23EC0FF0F2A685EF08F0F1
:1011060087EF08F0A2EF08F0F2A08CEF08F08EEF60
:1011160008F0A2EF08F081AA93EF08F095EF08F027
:10112600A2EF08F05A04D8A49BEF08F09DEF08F050
:10113600A2EF08F0000E5A6E000E16EC0FF0F2A6A3
:10114600A7EF08F0A9EF08F0C4EF08F0F2A0AEEFA1
:1011560008F0B0EF08F0C4EF08F081BAB5EF08F078
:10116600B7EF08F0C4EF08F05A50D8A4BDEF08F066
:10117600BFEF08F0C4EF08F0010E5A6E010E16EC30
:101186000FF0F2A6C9EF08F0CBEF08F0E6EF08F093
:10119600F2A0D0EF08F0D2EF08F0E6EF08F081AC4D
:1011A600D7EF08F0D9EF08F0E6EF08F05904D8A415
:1011B600DFEF08F0E1EF08F0E6EF08F0000E596EF9
:1011C600000E09EC0FF0F2A6EBEF08F0EDEF08F0D9
:1011D60008EF09F0F2A0F2EF08F0F4EF08F008EFDC
:1011E60009F081BCF9EF08F0FBEF08F008EF09F011
:1011F6005950D8A401EF09F003EF09F008EF09F000
:10120600010E596E010E09EC0FF0F2A60DEF09F072
:101216000FEF09F02AEF09F0F2A014EF09F016EF2C
:1012260009F02AEF09F081AE1BEF09F01DEF09F076
:101236002AEF09F05804D8A423EF09F025EF09F0A6
:101246002AEF09F0000E586E000EFCEC0EF0F2A626
:101256002FEF09F031EF09F04CEF09F0F2A036EF6D
:1012660009F038EF09F04CEF09F081BE3DEF09F0C7
:101276003FEF09F04CEF09F05850D8A445EF09F0BC
:1012860047EF09F04CEF09F0010E586E010EFCEC29
:101296000EF09DAC51EF09F053EF09F05CEF09F049
:1012A6009EAC58EF09F05AEF09F05CEF09F065ECD7
:1012B6000FF0F2AA61EF09F063EF09F06CEF09F0A5
:1012C600F2A468EF09F06AEF09F06CEF09F042EC5E
:1012D6000FF09DA071EF09F073EF09F07CEF09F0B4
:1012E6009EA078EF09F07AEF09F07CEF09F048EC60
:1012F6000FF09DA281EF09F083EF09F08CEF09F062
:101306009EA288EF09F08AEF09F08CEF09F04DEC08
:101316000FF0A0A291EF09F093EF09F09CEF09F00E
:10132600A1A298EF09F09AEF09F09CEF09F03CECC6
:101336000FF09DA4A1EF09F0A3EF09F0ACEF09F0BF
:101346009EA4A8EF09F0AAEF09F0ACEF09F061EC52
:101356000FF0A0A0B1EF09F0B3EF09F0BCEF09F070
:10136600A1A0B8EF09F0BAEF09F0BCEF09F05FEC05
:101376000FF09DA4C1EF09F0C3EF09F0CCEF09F01F
:101386009EA4C8EF09F0CAEF09F0CCEF09F05DECB6
:101396000FF09DA8D1EF09F0D3EF09F0DCEF09F0CB
:1013A6009EA8D8EF09F0DAEF09F0DCEF09F051EC6E
:1013B6000FF09DAAE1EF09F0E3EF09F0ECEF09F079
:1013C6009EAAE8EF09F0EAEF09F0ECEF09F063EC0A
:1013D6000FF09DA6F1EF09F0F3EF09F0FCEF09F02D
:1013E6009EA6F8EF09F0FAEF09F0FCEF09F064ECBD
:1013F6000FF09DA601EF0AF003EF0AF00CEF0AF0DA
:101406009EA608EF0AF00AEF0AF00CEF0AF053EC7A
:101416000FF0A0A611EF0AF013EF0AF01CEF0AF086
:10142600A1A618EF0AF01AEF0AF01CEF0AF055EC25
:101436000FF07D92110092EC0DF0440E666E000ED8
:10144600676EEEEC0EF066C07BF067C07CF0DCEFFA
:101456000AF0450E716E000E726E00EC0DF071C052
:101466007BF072C07CF0010E30EC0FF066C07BF0B2
:1014760067C07CF020EF0AF0620E716E000E726E8D
:1014860000EC0DF071C07BF072C07CF0010E30EC08
:101496000FF066C07BF067C07CF020EF0AF0610EAB
:1014A600716E000E726E00EC0DF071C07BF072C0B2
:1014B6007CF0010E30EC0FF066C07BF067C07CF06C
:1014C60020EF0AF0600E716E000E726E00EC0DF0E9
:1014D60071C07BF072C07CF0010E30EC0FF066C07C
:1014E6007BF067C07CF020EF0AF0450E716E000EAF
:1014F600726E49EC0DF071C07BF072C07CF0000E8C
:1015060030EC0FF066C07BF067C07CF020EF0AF08D
:10151600620E716E000E726E49EC0DF071C07BF0BA
:1015260072C07CF0000E30EC0FF066C07BF067C036
:101536007CF020EF0AF0610E716E000E726E49ECBF
:101546000DF071C07BF072C07CF0000E30EC0FF035
:1015560066C07BF067C07CF020EF0AF0600E716E0B
:10156600000E726E49EC0DF071C07BF072C07CF01B
:10157600000E30EC0FF066C07BF067C07CF020EF09
:101586000AF05F0E716E000E726E00EC0DF071C007
:101596007BF072C07CF020EF0AF05F0E716E000ED9
:1015A600726E49EC0DF071C07BF072C07CF020EFDA
:1015B6000AF044500001B76FB86BB851000AD8B4AE
:1015C600E7EF0AF020EF0AF0B751000AD8B4D0EFDF
:1015D6000AF0010AD8B42CEF0AF0030AD8B43FEF98
:1015E6000AF0010AD8B452EF0AF0070AD8B465EF38
:1015F6000AF0010AD8B478EF0AF0030AD8B48BEFE0
:101606000AF0010AD8B49EEF0AF00F0AD8B4B1EF77
:101616000AF0010AD8B4C4EF0AF020EF0AF007EF87
:1016260000F0000E6F6E010E6E6E66506710D8B435
:101636001FEF0BF021EF0BF032EF0BF066C0D9FF76
:1016460067C0DAFFDF30E832E832070B686E070E54
:10165600686430EF0BF032EF0BF097EF0BF0000EF3
:101666006F6E000E6E6EB8EF0BF066C0D9FF67C0E6
:10167600DAFFDF30E832E832070B686E010E696E7A
:10168600682A48EF0BF0D8906936682E46EF0BF0C3
:101696006950FF0A6A6E66C0D9FF67C0DAFFDF507D
:1016A600070B6B6E6B50020D470EF324D96E000EBE
:1016B600F420DA6EDECF6CF0DDCF6DF06CC0D9FFB2
:1016C6006DC0DAFF6A50DF16B8EF0BF066C0D9FFBF
:1016D60067C0DAFFDF30E832E832070B686E010ECA
:1016E600696E682A79EF0BF0D8906936682E77EF25
:1016F6000BF066C0D9FF67C0DAFFDF50070B6A6ED2
:101706006A50020D470EF324D96E000EF420DA6EED
:10171600DECF6BF0DDCF6CF06BC0D9FF6CC0DAFFAB
:101726006950DF12B8EF0BF066C0D9FF67C0DAFF69
:10173600DFBCA0EF0BF0A3EF0BF0010EA4EF0BF054
:10174600000E686E696A6950000AD8B4ADEF0BF0F6
:1017560032EF0BF06850000AD8B438EF0BF0010AEC
:10176600D8B469EF0BF032EF0BF06EC066F06FC0C5
:1017760067F01200000E706E000E6F6E66506710F6
:10178600D8B4C8EF0BF0CAEF0BF0DBEF0BF066C076
:10179600D9FF67C0DAFFDF30E832E832070B696E3F
:1017A600070E6964D9EF0BF0DBEF0BF046EF0CF098
:1017B600000E706E010E6F6E5BEF0CF066C0D9FF07
:1017C60067C0DAFFDF30E832E832070B696E010ED8
:1017D6006A6E692AF1EF0BF0D8906A36692EEFEF40
:1017E6000BF06A50FF0A6B6E66C0D9FF67C0DAFF5E
:1017F600DF50070B6C6E6C50020D8A0EF324D96E07
:10180600000EF420DA6EDECF6DF0DDCF6EF06DC027
:10181600D9FF6EC0DAFF6B50DF165BEF0CF066C0C7
:10182600D9FF67C0DAFFDF30E832E832070B696EAE
:10183600010E6A6E692A22EF0CF0D8906A36692E7C
:1018460020EF0CF066C0D9FF67C0DAFFDF50070B48
:101856006B6E6B50020D8A0EF324D96E000EF420C7
:10186600DA6EDECF6CF0DDCF6DF06CC0D9FF6DC0E7
:10187600DAFF6A50DF125BEF0CF0000E706E000E9E
:101886006F6E5BEF0CF06850696E6A6A6A50000A08
:10189600D8B450EF0CF040EF0CF06950000AD8B401
:1018A600E1EF0BF0010AD8B412EF0CF040EF0CF0A8
:1018B6006FC066F070C067F0120077507810D8A439
:1018C60067EF0CF069EF0CF06BEF0CF0FFEF0CF02C
:1018D600C69A77C0D9FF78C0DAFFDF50796EC65056
:1018E6007918F00B7918C66E77C0D9FF78C0DAFF81
:1018F600DF50D8B481EF0CF083EF0CF0A9EF0CF0B9
:1019060077C0D9FF78C0DAFFDE04D8B48DEF0CF0CB
:101916008FEF0CF0A9EF0CF077C0D9FF78C0DAFF93
:10192600020EDE18D8B49AEF0CF09CEF0CF0A9EF7B
:101936000CF077C0D9FF78C0DAFF030EDE18D8A402
:10194600A7EF0CF0A9EF0CF0ADEF0CF0B5EC0EF034
:10195600CDEF0CF077C0D9FF78C0DAFF040EDE18A1
:10196600D8B4B8EF0CF0BAEF0CF0C7EF0CF077C0B4
:10197600D9FF78C0DAFF050EDE18D8A4C5EF0CF043
:10198600C7EF0CF0CDEF0CF077C070F078C071F0B7
:1019960020EC0EF020EE01F07750D9267850DA22AE
:1019A600DF50030B796E793AC6507918EF0B791828
:1019B600C66E20EE01F07750D9267850DA22DF384D
:1019C600030B796E793A79467946C7507918BF0B79
:1019D6007918C76E20EE01F07750D9267850DA22B2
:1019E600DF30E832030B796E79327932C7507918D5
:1019F6007F0B7918C76EC68A120071507210D8A470
:101A060007EF0DF009EF0DF00FEF0DF0000E756EFC
:101A1600000E746E44EF0DF042C076F071C0D9FF2F
:101A260072C0DAFFDF50070B736E76507318F80B2F
:101A36007318766E71C0D9FF72C0DAFFDF30E832F4
:101A4600E832070B736E7346734673467650731807
:101A5600C70B7318766E769C71C0D9FF72C0DAFF19
:101A6600DFAC02D0768E01D0769E760E666E000EC4
:101A7600676E010E686EBDEC0BF066C074F067C051
:101A860075F074C071F075C072F01200715072106A
:101A9600D8A450EF0DF052EF0DF058EF0DF0000EF8
:101AA600756E000E746E8DEF0DF041C076F071C04C
:101AB600D9FF72C0DAFFDF50070B736E76507318CA
:101AC600F80B7318766E71C0D9FF72C0DAFFDF307B
:101AD600E832E832070B736E7346734673467650E8
:101AE6007318C70B7318766E769C71C0D9FF72C0D7
:101AF600DAFFDFAC02D0768E01D0769E760E666E69
:101B0600000E676E000E686EBDEC0BF066C074F0DA
:101B160067C075F074C071F075C072F012005C0E8B
:101B2600776E000E786E60EC0CF077C07BF078C0B4
:101B36007CF0450E756E000E766ED9EC0DF075C014
:101B46007BF076C07CF0620E756E000E766ED9EC78
:101B56000DF075C07BF076C07CF0610E756E000EE0
:101B6600766ED9EC0DF075C07BF076C07CF0600E19
:101B7600756E000E766ED9EC0DF075C07BF076C0F2
:101B86007CF05F0E756E000E766ED9EC0DF075C0AA
:101B96007BF076C07CF05E0E756E000E766ED9EC2C
:101BA6000DF075C07BF076C07CF012007550761093
:101BB600D8A4E0EF0DF0E2EF0DF0E8EF0DF0000E27
:101BC600796E000E786E1BEF0EF043C07AF075C08A
:101BD600D9FF76C0DAFFDF50070B776E7A50771899
:101BE600F80B77187A6E75C0D9FF76C0DAFFDF304A
:101BF600E832E832070B776E7746774677467A50B3
:101C06007718C70B77187A6E7A9C75C0D9FF76C09D
:101C1600DAFFDFAC02D07A8E01D07A9E7A0E716E30
:101C2600000E726E85EC0EF071C078F072C079F01D
:101C360078C075F079C076F0120054C073F053C0C6
:101C460074F052C076F051C075F0730E666E000ED9
:101C5600676E14EC0BF0740E666E000E676E14EC75
:101C66000BF0760E666E000E676E14EC0BF0760EB9
:101C7600666E000E676E14EC0BF070C0D9FF71C073
:101C8600DAFF040EDE18D8A44BEF0EF04DEF0EF07F
:101C960053EF0EF0750E666E000E676E14EC0BF0C9
:101CA60012009C0EF66E1D0EF76E000EF86E00EE1C
:101CB60080F010EE22F00900F5CFEEFFE550E1507E
:101CC600FAE1BE0EF66E1D0EF76E000EF86E00EE11
:101CD60047F010EE1EF00900F5CFEEFFE550E1509B
:101CE600FAE100EEA2F0150EEE6AE806FDE100EE5E
:101CF60001F0460EEE6AE806FDE17D907D92000158
:101D06001EEF0AF071507210D8A48CEF0EF08EEF11
:101D16000EF094EF0EF0000E746E000E736EB0EFC0
:101D26000EF071C066F072C067F014EC0BF066C07E
:101D360073F067C074F071C066F072C067F071C06E
:101D4600D9FF72C0DAFF000EDFBE010E686EBDEC71
:101D56000BF066C073F067C074F073C071F074C0A6
:101D660072F0120057C070F056C071F055C072F094
:101D7600700E666E000E676E14EC0BF0710E666EDA
:101D8600000E676E14EC0BF0720E666E000E676E38
:101D960014EC0BF01200800F810F820F830F840F5B
:101DA600890F8A0F8B0F8C0F8D0F030B131B636B21
:101DB600737B020A1218323A920F930F940F950F03
:101DC600960F685A622A1A622A0101010105113921
:101DD600311810080810C7A0F3EF0EF0F5EF0EF05B
:101DE600EEEF0EF066C0D9FF67C0DAFFC9CFDFFF9E
:101DF6001200656EF2906550D8A404EF0FF006EF5E
:101E06000FF008EF0FF008EF0FF01200656EF2907A
:101E16006550D8A411EF0FF013EF0FF015EF0FF088
:101E260015EF0FF01200656EF2906550D8A41EEF04
:101E36000FF020EF0FF022EF0FF022EF0FF012005D
:101E4600656EF2906550D8A42BEF0FF02DEF0FF0D2
:101E56002FEF0FF02FEF0FF01200686E68C0C9FF6A
:101E66009EA638EF0FF03AEF0FF033EF0FF09E9685
:101E76001200A1920A50B36E09C0B2FF1200F2948A
:101E86001650D76E15C0D6FF12001250CF6E11C075
:101E9600CEFF12009E920DC0CCFF12009D9812003C
:101EA6009E961200A1961200F0921200F090120077
:101EB600F29212009E941200A19012009E941200BB
:061EC600120012001200E0
:020000040020DA
:08000000FFFFFFFFFFFFFFFF00
:020000040030CA
:0E000000FF02091EFF8381FF0FC00FE00F40BB
:00000001FF
